{
	"CustomLogic.sol": {
		"CustomLogic": {
			"abi": [
				{
					"inputs": [
						{
							"internalType": "uint256",
							"name": "updateInterval",
							"type": "uint256"
						}
					],
					"stateMutability": "nonpayable",
					"type": "constructor"
				},
				{
					"inputs": [
						{
							"internalType": "bytes",
							"name": "",
							"type": "bytes"
						}
					],
					"name": "checkUpkeep",
					"outputs": [
						{
							"internalType": "bool",
							"name": "upkeepNeeded",
							"type": "bool"
						},
						{
							"internalType": "bytes",
							"name": "",
							"type": "bytes"
						}
					],
					"stateMutability": "view",
					"type": "function"
				},
				{
					"inputs": [],
					"name": "counter",
					"outputs": [
						{
							"internalType": "uint256",
							"name": "",
							"type": "uint256"
						}
					],
					"stateMutability": "view",
					"type": "function"
				},
				{
					"inputs": [],
					"name": "interval",
					"outputs": [
						{
							"internalType": "uint256",
							"name": "",
							"type": "uint256"
						}
					],
					"stateMutability": "view",
					"type": "function"
				},
				{
					"inputs": [],
					"name": "lastTimeStamp",
					"outputs": [
						{
							"internalType": "uint256",
							"name": "",
							"type": "uint256"
						}
					],
					"stateMutability": "view",
					"type": "function"
				},
				{
					"inputs": [
						{
							"internalType": "bytes",
							"name": "",
							"type": "bytes"
						}
					],
					"name": "performUpkeep",
					"outputs": [],
					"stateMutability": "nonpayable",
					"type": "function"
				}
			],
			"devdoc": {
				"kind": "dev",
				"methods": {},
				"version": 1
			},
			"evm": {
				"assembly": "    /* \"CustomLogic.sol\":174:990  contract CustomLogic is AutomationCompatibleInterface {... */\n  mstore(0x40, 0xa0)\n    /* \"CustomLogic.sol\":341:488  constructor(uint256 updateInterval) {  ... */\n  callvalue\n  dup1\n  iszero\n  tag_1\n  jumpi\n  revert(0x00, 0x00)\ntag_1:\n  pop\n  mload(0x40)\n  sub(codesize, bytecodeSize)\n  dup1\n  bytecodeSize\n  dup4\n  codecopy\n  dup2\n  add\n  0x40\n  dup2\n  swap1\n  mstore\n  tag_2\n  swap2\n  tag_3\n  jump\t// in\ntag_2:\n    /* \"CustomLogic.sol\":389:414  interval = updateInterval */\n  0x80\n  mstore\n    /* \"CustomLogic.sol\":442:457  block.timestamp */\n  timestamp\n    /* \"CustomLogic.sol\":426:439  lastTimeStamp */\n  0x01\n    /* \"CustomLogic.sol\":426:457  lastTimeStamp = block.timestamp */\n  sstore\n    /* \"CustomLogic.sol\":478:479  0 */\n  0x00\n    /* \"CustomLogic.sol\":468:479  counter = 0 */\n  dup1\n  sstore\n    /* \"CustomLogic.sol\":174:990  contract CustomLogic is AutomationCompatibleInterface {... */\n  jump(tag_7)\n    /* \"#utility.yul\":14:198   */\ntag_3:\n    /* \"#utility.yul\":84:90   */\n  0x00\n    /* \"#utility.yul\":137:139   */\n  0x20\n    /* \"#utility.yul\":125:134   */\n  dup3\n    /* \"#utility.yul\":116:123   */\n  dup5\n    /* \"#utility.yul\":112:135   */\n  sub\n    /* \"#utility.yul\":108:140   */\n  slt\n    /* \"#utility.yul\":105:157   */\n  iszero\n  tag_9\n  jumpi\n    /* \"#utility.yul\":153:154   */\n  0x00\n    /* \"#utility.yul\":150:151   */\n  0x00\n    /* \"#utility.yul\":143:155   */\n  revert\n    /* \"#utility.yul\":105:157   */\ntag_9:\n  pop\n    /* \"#utility.yul\":176:192   */\n  mload\n  swap2\n    /* \"#utility.yul\":14:198   */\n  swap1\n  pop\n  jump\t// out\ntag_7:\n    /* \"CustomLogic.sol\":174:990  contract CustomLogic is AutomationCompatibleInterface {... */\n  mload(0x80)\n  codecopy(0x00, dataOffset(sub_0), dataSize(sub_0))\n  0x00\n  assignImmutable(\"0x7fe86492ed9171487feeb17b76d71244c5fb104d897816bb03a924e5871f3fa3\")\n  return(0x00, dataSize(sub_0))\nstop\n\nsub_0: assembly {\n        /* \"CustomLogic.sol\":174:990  contract CustomLogic is AutomationCompatibleInterface {... */\n      mstore(0x40, 0x80)\n      callvalue\n      dup1\n      iszero\n      tag_1\n      jumpi\n      revert(0x00, 0x00)\n    tag_1:\n      pop\n      jumpi(tag_2, lt(calldatasize, 0x04))\n      shr(0xe0, calldataload(0x00))\n      dup1\n      0x3f3b3b27\n      eq\n      tag_3\n      jumpi\n      dup1\n      0x4585e33b\n      eq\n      tag_4\n      jumpi\n      dup1\n      0x61bc221a\n      eq\n      tag_5\n      jumpi\n      dup1\n      0x6e04ff0d\n      eq\n      tag_6\n      jumpi\n      dup1\n      0x947a36fb\n      eq\n      tag_7\n      jumpi\n    tag_2:\n      revert(0x00, 0x00)\n        /* \"CustomLogic.sol\":306:334  uint256 public lastTimeStamp */\n    tag_3:\n      tag_8\n      sload(0x01)\n      dup2\n      jump\n    tag_8:\n      mload(0x40)\n        /* \"#utility.yul\":160:185   */\n      swap1\n      dup2\n      mstore\n        /* \"#utility.yul\":148:150   */\n      0x20\n        /* \"#utility.yul\":133:151   */\n      add\n        /* \"CustomLogic.sol\":306:334  uint256 public lastTimeStamp */\n    tag_10:\n      mload(0x40)\n      dup1\n      swap2\n      sub\n      swap1\n      return\n        /* \"CustomLogic.sol\":762:986  function performUpkeep(bytes calldata) external override {  ... */\n    tag_4:\n      tag_12\n      tag_13\n      calldatasize\n      0x04\n      tag_14\n      jump\t// in\n    tag_13:\n      tag_15\n      jump\t// in\n    tag_12:\n      stop\n        /* \"CustomLogic.sol\":235:257  uint256 public counter */\n    tag_5:\n      tag_8\n      sload(0x00)\n      dup2\n      jump\n        /* \"CustomLogic.sol\":494:756  function checkUpkeep(  ... */\n    tag_6:\n      tag_19\n      tag_20\n      calldatasize\n      0x04\n      tag_14\n      jump\t// in\n    tag_20:\n      tag_21\n      jump\t// in\n    tag_19:\n      mload(0x40)\n      tag_10\n      swap3\n      swap2\n      swap1\n      tag_23\n      jump\t// in\n        /* \"CustomLogic.sol\":265:298  uint256 public immutable interval */\n    tag_7:\n      tag_8\n      immutable(\"0x7fe86492ed9171487feeb17b76d71244c5fb104d897816bb03a924e5871f3fa3\")\n      dup2\n      jump\n        /* \"CustomLogic.sol\":762:986  function performUpkeep(bytes calldata) external override {  ... */\n    tag_15:\n        /* \"CustomLogic.sol\":871:879  interval */\n      immutable(\"0x7fe86492ed9171487feeb17b76d71244c5fb104d897816bb03a924e5871f3fa3\")\n        /* \"CustomLogic.sol\":854:867  lastTimeStamp */\n      sload(0x01)\n        /* \"CustomLogic.sol\":836:851  block.timestamp */\n      timestamp\n        /* \"CustomLogic.sol\":836:867  block.timestamp - lastTimeStamp */\n      tag_28\n      swap2\n      swap1\n      tag_29\n      jump\t// in\n    tag_28:\n        /* \"CustomLogic.sol\":835:879  (block.timestamp - lastTimeStamp) > interval */\n      gt\n        /* \"CustomLogic.sol\":831:978  if ((block.timestamp - lastTimeStamp) > interval) {  ... */\n      iszero\n      tag_30\n      jumpi\n        /* \"CustomLogic.sol\":913:928  block.timestamp */\n      timestamp\n        /* \"CustomLogic.sol\":897:910  lastTimeStamp */\n      0x01\n        /* \"CustomLogic.sol\":897:928  lastTimeStamp = block.timestamp */\n      swap1\n      dup2\n      sstore\n        /* \"CustomLogic.sol\":954:961  counter */\n      sload(0x00)\n        /* \"CustomLogic.sol\":954:965  counter + 1 */\n      tag_31\n      swap2\n      tag_32\n      jump\t// in\n    tag_31:\n        /* \"CustomLogic.sol\":944:951  counter */\n      0x00\n        /* \"CustomLogic.sol\":944:965  counter = counter + 1 */\n      sstore\n        /* \"CustomLogic.sol\":831:978  if ((block.timestamp - lastTimeStamp) > interval) {  ... */\n    tag_30:\n        /* \"CustomLogic.sol\":762:986  function performUpkeep(bytes calldata) external override {  ... */\n      pop\n      pop\n      jump\t// out\n        /* \"CustomLogic.sol\":494:756  function checkUpkeep(  ... */\n    tag_21:\n        /* \"CustomLogic.sol\":637:654  bool upkeepNeeded */\n      0x00\n        /* \"CustomLogic.sol\":656:668  bytes memory */\n      0x60\n        /* \"CustomLogic.sol\":739:747  interval */\n      immutable(\"0x7fe86492ed9171487feeb17b76d71244c5fb104d897816bb03a924e5871f3fa3\")\n        /* \"CustomLogic.sol\":722:735  lastTimeStamp */\n      sload(0x01)\n        /* \"CustomLogic.sol\":704:719  block.timestamp */\n      timestamp\n        /* \"CustomLogic.sol\":704:735  block.timestamp - lastTimeStamp */\n      tag_34\n      swap2\n      swap1\n      tag_29\n      jump\t// in\n    tag_34:\n        /* \"CustomLogic.sol\":703:747  (block.timestamp - lastTimeStamp) > interval */\n      gt\n        /* \"CustomLogic.sol\":688:747  upkeepNeeded = (block.timestamp - lastTimeStamp) > interval */\n      swap2\n      pop\n        /* \"CustomLogic.sol\":494:756  function checkUpkeep(  ... */\n      swap3\n      pop\n      swap3\n      swap1\n      pop\n      jump\t// out\n        /* \"#utility.yul\":196:782   */\n    tag_14:\n        /* \"#utility.yul\":266:272   */\n      0x00\n        /* \"#utility.yul\":274:280   */\n      0x00\n        /* \"#utility.yul\":327:329   */\n      0x20\n        /* \"#utility.yul\":315:324   */\n      dup4\n        /* \"#utility.yul\":306:313   */\n      dup6\n        /* \"#utility.yul\":302:325   */\n      sub\n        /* \"#utility.yul\":298:330   */\n      slt\n        /* \"#utility.yul\":295:347   */\n      iszero\n      tag_39\n      jumpi\n        /* \"#utility.yul\":343:344   */\n      0x00\n        /* \"#utility.yul\":340:341   */\n      0x00\n        /* \"#utility.yul\":333:345   */\n      revert\n        /* \"#utility.yul\":295:347   */\n    tag_39:\n        /* \"#utility.yul\":383:392   */\n      dup3\n        /* \"#utility.yul\":370:393   */\n      calldataload\n        /* \"#utility.yul\":416:434   */\n      0xffffffffffffffff\n        /* \"#utility.yul\":408:414   */\n      dup2\n        /* \"#utility.yul\":405:435   */\n      gt\n        /* \"#utility.yul\":402:452   */\n      iszero\n      tag_40\n      jumpi\n        /* \"#utility.yul\":448:449   */\n      0x00\n        /* \"#utility.yul\":445:446   */\n      0x00\n        /* \"#utility.yul\":438:450   */\n      revert\n        /* \"#utility.yul\":402:452   */\n    tag_40:\n        /* \"#utility.yul\":471:493   */\n      dup4\n      add\n        /* \"#utility.yul\":524:528   */\n      0x1f\n        /* \"#utility.yul\":516:529   */\n      dup2\n      add\n        /* \"#utility.yul\":512:539   */\n      dup6\n      sgt\n        /* \"#utility.yul\":502:557   */\n      tag_41\n      jumpi\n        /* \"#utility.yul\":553:554   */\n      0x00\n        /* \"#utility.yul\":550:551   */\n      0x00\n        /* \"#utility.yul\":543:555   */\n      revert\n        /* \"#utility.yul\":502:557   */\n    tag_41:\n        /* \"#utility.yul\":593:595   */\n      dup1\n        /* \"#utility.yul\":580:596   */\n      calldataload\n        /* \"#utility.yul\":619:637   */\n      0xffffffffffffffff\n        /* \"#utility.yul\":611:617   */\n      dup2\n        /* \"#utility.yul\":608:638   */\n      gt\n        /* \"#utility.yul\":605:655   */\n      iszero\n      tag_42\n      jumpi\n        /* \"#utility.yul\":651:652   */\n      0x00\n        /* \"#utility.yul\":648:649   */\n      0x00\n        /* \"#utility.yul\":641:653   */\n      revert\n        /* \"#utility.yul\":605:655   */\n    tag_42:\n        /* \"#utility.yul\":696:703   */\n      dup6\n        /* \"#utility.yul\":691:693   */\n      0x20\n        /* \"#utility.yul\":682:688   */\n      dup3\n        /* \"#utility.yul\":678:680   */\n      dup5\n        /* \"#utility.yul\":674:689   */\n      add\n        /* \"#utility.yul\":670:694   */\n      add\n        /* \"#utility.yul\":667:704   */\n      gt\n        /* \"#utility.yul\":664:721   */\n      iszero\n      tag_43\n      jumpi\n        /* \"#utility.yul\":717:718   */\n      0x00\n        /* \"#utility.yul\":714:715   */\n      0x00\n        /* \"#utility.yul\":707:719   */\n      revert\n        /* \"#utility.yul\":664:721   */\n    tag_43:\n        /* \"#utility.yul\":748:750   */\n      0x20\n        /* \"#utility.yul\":740:751   */\n      swap2\n      swap1\n      swap2\n      add\n      swap6\n        /* \"#utility.yul\":770:776   */\n      swap1\n      swap5\n      pop\n        /* \"#utility.yul\":196:782   */\n      swap3\n      pop\n      pop\n      pop\n      jump\t// out\n        /* \"#utility.yul\":787:1284   */\n    tag_23:\n        /* \"#utility.yul\":970:976   */\n      dup3\n        /* \"#utility.yul\":963:977   */\n      iszero\n        /* \"#utility.yul\":956:978   */\n      iszero\n        /* \"#utility.yul\":945:954   */\n      dup2\n        /* \"#utility.yul\":938:979   */\n      mstore\n        /* \"#utility.yul\":1015:1017   */\n      0x40\n        /* \"#utility.yul\":1010:1012   */\n      0x20\n        /* \"#utility.yul\":999:1008   */\n      dup3\n        /* \"#utility.yul\":995:1013   */\n      add\n        /* \"#utility.yul\":988:1018   */\n      mstore\n        /* \"#utility.yul\":919:923   */\n      0x00\n        /* \"#utility.yul\":1047:1053   */\n      dup3\n        /* \"#utility.yul\":1041:1054   */\n      mload\n        /* \"#utility.yul\":1090:1096   */\n      dup1\n        /* \"#utility.yul\":1085:1087   */\n      0x40\n        /* \"#utility.yul\":1074:1083   */\n      dup5\n        /* \"#utility.yul\":1070:1088   */\n      add\n        /* \"#utility.yul\":1063:1097   */\n      mstore\n        /* \"#utility.yul\":1149:1155   */\n      dup1\n        /* \"#utility.yul\":1144:1146   */\n      0x20\n        /* \"#utility.yul\":1136:1142   */\n      dup6\n        /* \"#utility.yul\":1132:1147   */\n      add\n        /* \"#utility.yul\":1127:1129   */\n      0x60\n        /* \"#utility.yul\":1116:1125   */\n      dup6\n        /* \"#utility.yul\":1112:1130   */\n      add\n        /* \"#utility.yul\":1106:1156   */\n      mcopy\n        /* \"#utility.yul\":1205:1206   */\n      0x00\n        /* \"#utility.yul\":1200:1202   */\n      0x60\n        /* \"#utility.yul\":1191:1197   */\n      dup3\n        /* \"#utility.yul\":1180:1189   */\n      dup6\n        /* \"#utility.yul\":1176:1198   */\n      add\n        /* \"#utility.yul\":1172:1203   */\n      add\n        /* \"#utility.yul\":1165:1207   */\n      mstore\n        /* \"#utility.yul\":1275:1277   */\n      0x60\n        /* \"#utility.yul\":1268:1270   */\n      0x1f\n        /* \"#utility.yul\":1264:1271   */\n      not\n        /* \"#utility.yul\":1259:1261   */\n      0x1f\n        /* \"#utility.yul\":1251:1257   */\n      dup4\n        /* \"#utility.yul\":1247:1262   */\n      add\n        /* \"#utility.yul\":1243:1272   */\n      and\n        /* \"#utility.yul\":1232:1241   */\n      dup5\n        /* \"#utility.yul\":1228:1273   */\n      add\n        /* \"#utility.yul\":1224:1278   */\n      add\n        /* \"#utility.yul\":1216:1278   */\n      swap2\n      pop\n      pop\n        /* \"#utility.yul\":787:1284   */\n      swap4\n      swap3\n      pop\n      pop\n      pop\n      jump\t// out\n        /* \"#utility.yul\":1289:1416   */\n    tag_35:\n        /* \"#utility.yul\":1350:1360   */\n      0x4e487b71\n        /* \"#utility.yul\":1345:1348   */\n      0xe0\n        /* \"#utility.yul\":1341:1361   */\n      shl\n        /* \"#utility.yul\":1338:1339   */\n      0x00\n        /* \"#utility.yul\":1331:1362   */\n      mstore\n        /* \"#utility.yul\":1381:1385   */\n      0x11\n        /* \"#utility.yul\":1378:1379   */\n      0x04\n        /* \"#utility.yul\":1371:1386   */\n      mstore\n        /* \"#utility.yul\":1405:1409   */\n      0x24\n        /* \"#utility.yul\":1402:1403   */\n      0x00\n        /* \"#utility.yul\":1395:1410   */\n      revert\n        /* \"#utility.yul\":1421:1549   */\n    tag_29:\n        /* \"#utility.yul\":1488:1497   */\n      dup2\n      dup2\n      sub\n        /* \"#utility.yul\":1509:1520   */\n      dup2\n      dup2\n      gt\n        /* \"#utility.yul\":1506:1543   */\n      iszero\n      tag_48\n      jumpi\n        /* \"#utility.yul\":1523:1541   */\n      tag_48\n      tag_35\n      jump\t// in\n    tag_48:\n        /* \"#utility.yul\":1421:1549   */\n      swap3\n      swap2\n      pop\n      pop\n      jump\t// out\n        /* \"#utility.yul\":1554:1679   */\n    tag_32:\n        /* \"#utility.yul\":1619:1628   */\n      dup1\n      dup3\n      add\n        /* \"#utility.yul\":1640:1650   */\n      dup1\n      dup3\n      gt\n        /* \"#utility.yul\":1637:1673   */\n      iszero\n      tag_48\n      jumpi\n        /* \"#utility.yul\":1653:1671   */\n      tag_48\n      tag_35\n      jump\t// in\n\n    auxdata: 0xa2646970667358221220014b32ad402d0fedc7434ca88771514dc34a6beeaa164f8a35f990124cab17b264736f6c634300081d0033\n}\n",
				"bytecode": {
					"linkReferences": {},
					"object": "60a0604052348015600e575f5ffd5b506040516102f83803806102f8833981016040819052602b916039565b608052426001555f8055604f565b5f602082840312156048575f5ffd5b5051919050565b6080516102856100735f395f818160b80152818160dc015261012c01526102855ff3fe608060405234801561000f575f5ffd5b5060043610610055575f3560e01c80633f3b3b27146100595780634585e33b1461007557806361bc221a1461008a5780636e04ff0d14610092578063947a36fb146100b3575b5f5ffd5b61006260015481565b6040519081526020015b60405180910390f35b610088610083366004610163565b6100da565b005b6100625f5481565b6100a56100a0366004610163565b610127565b60405161006c9291906101d1565b6100627f000000000000000000000000000000000000000000000000000000000000000081565b7f0000000000000000000000000000000000000000000000000000000000000000600154426101099190610223565b1115610123574260019081555f546101209161023c565b5f555b5050565b5f60607f0000000000000000000000000000000000000000000000000000000000000000600154426101599190610223565b1191509250929050565b5f5f60208385031215610174575f5ffd5b823567ffffffffffffffff81111561018a575f5ffd5b8301601f8101851361019a575f5ffd5b803567ffffffffffffffff8111156101b0575f5ffd5b8560208284010111156101c1575f5ffd5b6020919091019590945092505050565b8215158152604060208201525f82518060408401528060208501606085015e5f606082850101526060601f19601f8301168401019150509392505050565b634e487b7160e01b5f52601160045260245ffd5b818103818111156102365761023661020f565b92915050565b808201808211156102365761023661020f56fea2646970667358221220014b32ad402d0fedc7434ca88771514dc34a6beeaa164f8a35f990124cab17b264736f6c634300081d0033",
					"opcodes": "PUSH1 0xA0 PUSH1 0x40 MSTORE CALLVALUE DUP1 ISZERO PUSH1 0xE JUMPI PUSH0 PUSH0 REVERT JUMPDEST POP PUSH1 0x40 MLOAD PUSH2 0x2F8 CODESIZE SUB DUP1 PUSH2 0x2F8 DUP4 CODECOPY DUP2 ADD PUSH1 0x40 DUP2 SWAP1 MSTORE PUSH1 0x2B SWAP2 PUSH1 0x39 JUMP JUMPDEST PUSH1 0x80 MSTORE TIMESTAMP PUSH1 0x1 SSTORE PUSH0 DUP1 SSTORE PUSH1 0x4F JUMP JUMPDEST PUSH0 PUSH1 0x20 DUP3 DUP5 SUB SLT ISZERO PUSH1 0x48 JUMPI PUSH0 PUSH0 REVERT JUMPDEST POP MLOAD SWAP2 SWAP1 POP JUMP JUMPDEST PUSH1 0x80 MLOAD PUSH2 0x285 PUSH2 0x73 PUSH0 CODECOPY PUSH0 DUP2 DUP2 PUSH1 0xB8 ADD MSTORE DUP2 DUP2 PUSH1 0xDC ADD MSTORE PUSH2 0x12C ADD MSTORE PUSH2 0x285 PUSH0 RETURN INVALID PUSH1 0x80 PUSH1 0x40 MSTORE CALLVALUE DUP1 ISZERO PUSH2 0xF JUMPI PUSH0 PUSH0 REVERT JUMPDEST POP PUSH1 0x4 CALLDATASIZE LT PUSH2 0x55 JUMPI PUSH0 CALLDATALOAD PUSH1 0xE0 SHR DUP1 PUSH4 0x3F3B3B27 EQ PUSH2 0x59 JUMPI DUP1 PUSH4 0x4585E33B EQ PUSH2 0x75 JUMPI DUP1 PUSH4 0x61BC221A EQ PUSH2 0x8A JUMPI DUP1 PUSH4 0x6E04FF0D EQ PUSH2 0x92 JUMPI DUP1 PUSH4 0x947A36FB EQ PUSH2 0xB3 JUMPI JUMPDEST PUSH0 PUSH0 REVERT JUMPDEST PUSH2 0x62 PUSH1 0x1 SLOAD DUP2 JUMP JUMPDEST PUSH1 0x40 MLOAD SWAP1 DUP2 MSTORE PUSH1 0x20 ADD JUMPDEST PUSH1 0x40 MLOAD DUP1 SWAP2 SUB SWAP1 RETURN JUMPDEST PUSH2 0x88 PUSH2 0x83 CALLDATASIZE PUSH1 0x4 PUSH2 0x163 JUMP JUMPDEST PUSH2 0xDA JUMP JUMPDEST STOP JUMPDEST PUSH2 0x62 PUSH0 SLOAD DUP2 JUMP JUMPDEST PUSH2 0xA5 PUSH2 0xA0 CALLDATASIZE PUSH1 0x4 PUSH2 0x163 JUMP JUMPDEST PUSH2 0x127 JUMP JUMPDEST PUSH1 0x40 MLOAD PUSH2 0x6C SWAP3 SWAP2 SWAP1 PUSH2 0x1D1 JUMP JUMPDEST PUSH2 0x62 PUSH32 0x0 DUP2 JUMP JUMPDEST PUSH32 0x0 PUSH1 0x1 SLOAD TIMESTAMP PUSH2 0x109 SWAP2 SWAP1 PUSH2 0x223 JUMP JUMPDEST GT ISZERO PUSH2 0x123 JUMPI TIMESTAMP PUSH1 0x1 SWAP1 DUP2 SSTORE PUSH0 SLOAD PUSH2 0x120 SWAP2 PUSH2 0x23C JUMP JUMPDEST PUSH0 SSTORE JUMPDEST POP POP JUMP JUMPDEST PUSH0 PUSH1 0x60 PUSH32 0x0 PUSH1 0x1 SLOAD TIMESTAMP PUSH2 0x159 SWAP2 SWAP1 PUSH2 0x223 JUMP JUMPDEST GT SWAP2 POP SWAP3 POP SWAP3 SWAP1 POP JUMP JUMPDEST PUSH0 PUSH0 PUSH1 0x20 DUP4 DUP6 SUB SLT ISZERO PUSH2 0x174 JUMPI PUSH0 PUSH0 REVERT JUMPDEST DUP3 CALLDATALOAD PUSH8 0xFFFFFFFFFFFFFFFF DUP2 GT ISZERO PUSH2 0x18A JUMPI PUSH0 PUSH0 REVERT JUMPDEST DUP4 ADD PUSH1 0x1F DUP2 ADD DUP6 SGT PUSH2 0x19A JUMPI PUSH0 PUSH0 REVERT JUMPDEST DUP1 CALLDATALOAD PUSH8 0xFFFFFFFFFFFFFFFF DUP2 GT ISZERO PUSH2 0x1B0 JUMPI PUSH0 PUSH0 REVERT JUMPDEST DUP6 PUSH1 0x20 DUP3 DUP5 ADD ADD GT ISZERO PUSH2 0x1C1 JUMPI PUSH0 PUSH0 REVERT JUMPDEST PUSH1 0x20 SWAP2 SWAP1 SWAP2 ADD SWAP6 SWAP1 SWAP5 POP SWAP3 POP POP POP JUMP JUMPDEST DUP3 ISZERO ISZERO DUP2 MSTORE PUSH1 0x40 PUSH1 0x20 DUP3 ADD MSTORE PUSH0 DUP3 MLOAD DUP1 PUSH1 0x40 DUP5 ADD MSTORE DUP1 PUSH1 0x20 DUP6 ADD PUSH1 0x60 DUP6 ADD MCOPY PUSH0 PUSH1 0x60 DUP3 DUP6 ADD ADD MSTORE PUSH1 0x60 PUSH1 0x1F NOT PUSH1 0x1F DUP4 ADD AND DUP5 ADD ADD SWAP2 POP POP SWAP4 SWAP3 POP POP POP JUMP JUMPDEST PUSH4 0x4E487B71 PUSH1 0xE0 SHL PUSH0 MSTORE PUSH1 0x11 PUSH1 0x4 MSTORE PUSH1 0x24 PUSH0 REVERT JUMPDEST DUP2 DUP2 SUB DUP2 DUP2 GT ISZERO PUSH2 0x236 JUMPI PUSH2 0x236 PUSH2 0x20F JUMP JUMPDEST SWAP3 SWAP2 POP POP JUMP JUMPDEST DUP1 DUP3 ADD DUP1 DUP3 GT ISZERO PUSH2 0x236 JUMPI PUSH2 0x236 PUSH2 0x20F JUMP INVALID LOG2 PUSH5 0x6970667358 0x22 SLT KECCAK256 ADD 0x4B ORIGIN 0xAD BLOCKHASH 0x2D 0xF 0xED 0xC7 NUMBER 0x4C 0xA8 DUP8 PUSH18 0x514DC34A6BEEAA164F8A35F990124CAB17B2 PUSH5 0x736F6C6343 STOP ADDMOD SAR STOP CALLER "
				},
				"gasEstimates": {
					"creation": {
						"codeDepositCost": "129000",
						"executionCost": "infinite",
						"totalCost": "infinite"
					},
					"external": {
						"checkUpkeep(bytes)": "infinite",
						"counter()": "2304",
						"interval()": "infinite",
						"lastTimeStamp()": "2261",
						"performUpkeep(bytes)": "infinite"
					}
				},
				"methodIdentifiers": {
					"checkUpkeep(bytes)": "6e04ff0d",
					"counter()": "61bc221a",
					"interval()": "947a36fb",
					"lastTimeStamp()": "3f3b3b27",
					"performUpkeep(bytes)": "4585e33b"
				}
			},
			"storageLayout": {
				"storage": [
					{
						"astId": 75,
						"contract": "CustomLogic.sol:CustomLogic",
						"label": "counter",
						"offset": 0,
						"slot": "0",
						"type": "t_uint256"
					},
					{
						"astId": 79,
						"contract": "CustomLogic.sol:CustomLogic",
						"label": "lastTimeStamp",
						"offset": 0,
						"slot": "1",
						"type": "t_uint256"
					}
				],
				"types": {
					"t_uint256": {
						"encoding": "inplace",
						"label": "uint256",
						"numberOfBytes": "32"
					}
				}
			},
			"userdoc": {
				"kind": "user",
				"methods": {},
				"version": 1
			}
		}
	}
}