{
	"data": {
		"bytecode": {
			"linkReferences": {},
			"object": "60c1610052600b82828239805160001a607314610045577f4e487b7100000000000000000000000000000000000000000000000000000000600052600060045260246000fd5b30600052607381538281f3fe730000000000000000000000000000000000000000301460806040526004361060335760003560e01c80635d641dfc146038575b600080fd5b603e6052565b604051604991906072565b60405180910390f35b600181565b600061ffff82169050919050565b606c816057565b82525050565b6000602082019050608560008301846065565b9291505056fea2646970667358221220e918934ddea91dc3d1ed2a8156983bc3b2ff6606b60cefc1273ec8334a4bc57064736f6c63430008130033",
			"opcodes": "PUSH1 0xC1 PUSH2 0x52 PUSH1 0xB DUP3 DUP3 DUP3 CODECOPY DUP1 MLOAD PUSH1 0x0 BYTE PUSH1 0x73 EQ PUSH2 0x45 JUMPI PUSH32 0x4E487B7100000000000000000000000000000000000000000000000000000000 PUSH1 0x0 MSTORE PUSH1 0x0 PUSH1 0x4 MSTORE PUSH1 0x24 PUSH1 0x0 REVERT JUMPDEST ADDRESS PUSH1 0x0 MSTORE PUSH1 0x73 DUP2 MSTORE8 DUP3 DUP2 RETURN INVALID PUSH20 0x0 ADDRESS EQ PUSH1 0x80 PUSH1 0x40 MSTORE PUSH1 0x4 CALLDATASIZE LT PUSH1 0x33 JUMPI PUSH1 0x0 CALLDATALOAD PUSH1 0xE0 SHR DUP1 PUSH4 0x5D641DFC EQ PUSH1 0x38 JUMPI JUMPDEST PUSH1 0x0 DUP1 REVERT JUMPDEST PUSH1 0x3E PUSH1 0x52 JUMP JUMPDEST PUSH1 0x40 MLOAD PUSH1 0x49 SWAP2 SWAP1 PUSH1 0x72 JUMP JUMPDEST PUSH1 0x40 MLOAD DUP1 SWAP2 SUB SWAP1 RETURN JUMPDEST PUSH1 0x1 DUP2 JUMP JUMPDEST PUSH1 0x0 PUSH2 0xFFFF DUP3 AND SWAP1 POP SWAP2 SWAP1 POP JUMP JUMPDEST PUSH1 0x6C DUP2 PUSH1 0x57 JUMP JUMPDEST DUP3 MSTORE POP POP JUMP JUMPDEST PUSH1 0x0 PUSH1 0x20 DUP3 ADD SWAP1 POP PUSH1 0x85 PUSH1 0x0 DUP4 ADD DUP5 PUSH1 0x65 JUMP JUMPDEST SWAP3 SWAP2 POP POP JUMP INVALID LOG2 PUSH5 0x6970667358 0x22 SLT KECCAK256 0xE9 XOR SWAP4 0x4D 0xDE 0xA9 SAR 0xC3 0xD1 0xED 0x2A DUP2 JUMP SWAP9 EXTCODESIZE 0xC3 0xB2 SELFDESTRUCT PUSH7 0x6B60CEFC1273E 0xC8 CALLER 0x4A 0x4B 0xC5 PUSH17 0x64736F6C63430008130033000000000000 "
		},
		"gasEstimates": {
			"creation": {
				"codeDepositCost": "38600",
				"executionCost": "118",
				"totalCost": "38718"
			},
			"external": {
				"REQUEST_DATA_VERSION()": "297"
			},
			"internal": {
				"addDONHostedSecrets(struct FunctionsRequest.Request memory,uint8,uint64)": "infinite",
				"addSecretsReference(struct FunctionsRequest.Request memory,bytes memory)": "infinite",
				"encodeCBOR(struct FunctionsRequest.Request memory)": "infinite",
				"initializeRequest(struct FunctionsRequest.Request memory,enum FunctionsRequest.Location,enum FunctionsRequest.CodeLanguage,string memory)": "infinite",
				"initializeRequestForInlineJavaScript(struct FunctionsRequest.Request memory,string memory)": "infinite",
				"setArgs(struct FunctionsRequest.Request memory,string memory[] memory)": "infinite",
				"setBytesArgs(struct FunctionsRequest.Request memory,bytes memory[] memory)": "infinite"
			}
		},
		"methodIdentifiers": {
			"REQUEST_DATA_VERSION()": "5d641dfc"
		}
	},
	"abi": [
		{
			"inputs": [],
			"name": "EmptyArgs",
			"type": "error"
		},
		{
			"inputs": [],
			"name": "EmptySecrets",
			"type": "error"
		},
		{
			"inputs": [],
			"name": "EmptySource",
			"type": "error"
		},
		{
			"inputs": [],
			"name": "NoInlineSecrets",
			"type": "error"
		},
		{
			"inputs": [],
			"name": "REQUEST_DATA_VERSION",
			"outputs": [
				{
					"internalType": "uint16",
					"name": "",
					"type": "uint16"
				}
			],
			"stateMutability": "view",
			"type": "function"
		}
	]
}