{
	"ccip/CrossDestinationMinter_flattened.sol": {
		"CrossDestinationMinter": {
			"abi": [
				{
					"inputs": [
						{
							"internalType": "address",
							"name": "nftAddress",
							"type": "address"
						}
					],
					"stateMutability": "nonpayable",
					"type": "constructor"
				},
				{
					"inputs": [
						{
							"internalType": "address",
							"name": "router",
							"type": "address"
						}
					],
					"name": "InvalidRouter",
					"type": "error"
				},
				{
					"anonymous": false,
					"inputs": [],
					"name": "MintCallSuccessfull",
					"type": "event"
				},
				{
					"inputs": [
						{
							"components": [
								{
									"internalType": "bytes32",
									"name": "messageId",
									"type": "bytes32"
								},
								{
									"internalType": "uint64",
									"name": "sourceChainSelector",
									"type": "uint64"
								},
								{
									"internalType": "bytes",
									"name": "sender",
									"type": "bytes"
								},
								{
									"internalType": "bytes",
									"name": "data",
									"type": "bytes"
								},
								{
									"components": [
										{
											"internalType": "address",
											"name": "token",
											"type": "address"
										},
										{
											"internalType": "uint256",
											"name": "amount",
											"type": "uint256"
										}
									],
									"internalType": "struct Client.EVMTokenAmount[]",
									"name": "destTokenAmounts",
									"type": "tuple[]"
								}
							],
							"internalType": "struct Client.Any2EVMMessage",
							"name": "message",
							"type": "tuple"
						}
					],
					"name": "ccipReceive",
					"outputs": [],
					"stateMutability": "nonpayable",
					"type": "function"
				},
				{
					"inputs": [],
					"name": "getRouter",
					"outputs": [
						{
							"internalType": "address",
							"name": "",
							"type": "address"
						}
					],
					"stateMutability": "view",
					"type": "function"
				},
				{
					"inputs": [],
					"name": "nft",
					"outputs": [
						{
							"internalType": "contract InftMinter",
							"name": "",
							"type": "address"
						}
					],
					"stateMutability": "view",
					"type": "function"
				},
				{
					"inputs": [
						{
							"internalType": "bytes4",
							"name": "interfaceId",
							"type": "bytes4"
						}
					],
					"name": "supportsInterface",
					"outputs": [
						{
							"internalType": "bool",
							"name": "",
							"type": "bool"
						}
					],
					"stateMutability": "view",
					"type": "function"
				},
				{
					"inputs": [],
					"name": "testMessage",
					"outputs": [],
					"stateMutability": "nonpayable",
					"type": "function"
				},
				{
					"inputs": [],
					"name": "testMint",
					"outputs": [],
					"stateMutability": "nonpayable",
					"type": "function"
				},
				{
					"inputs": [
						{
							"internalType": "address",
							"name": "nftAddress",
							"type": "address"
						}
					],
					"name": "updateNFT",
					"outputs": [],
					"stateMutability": "nonpayable",
					"type": "function"
				}
			],
			"devdoc": {
				"kind": "dev",
				"methods": {
					"ccipReceive((bytes32,uint64,bytes,bytes,(address,uint256)[]))": {
						"details": "Note ensure you check the msg.sender is the OffRampRouter",
						"params": {
							"message": "CCIP Message"
						}
					},
					"getRouter()": {
						"returns": {
							"_0": "CCIP router address"
						}
					},
					"supportsInterface(bytes4)": {
						"details": "Should indicate whether the contract implements IAny2EVMMessageReceiver e.g. return interfaceId == type(IAny2EVMMessageReceiver).interfaceId || interfaceId == type(IERC165).interfaceId This allows CCIP to check if ccipReceive is available before calling it. If this returns false or reverts, only tokens are transferred to the receiver. If this returns true, tokens are transferred and ccipReceive is called atomically. Additionally, if the receiver address does not have code associated with it at the time of execution (EXTCODESIZE returns 0), only tokens will be transferred.",
						"params": {
							"interfaceId": "The interfaceId to check"
						},
						"returns": {
							"_0": "true if the interfaceId is supported"
						}
					}
				},
				"version": 1
			},
			"evm": {
				"assembly": "    /* \"ccip/CrossDestinationMinter_flattened.sol\":6585:7686  contract CrossDestinationMinter is CCIPReceiver {... */\n  mstore(0x40, 0xa0)\n    /* \"ccip/CrossDestinationMinter_flattened.sol\":6787:6829  0x0BF3dE8c5D3e8A2B34D2BEeB17ABfCeBaf363A59 */\n  0x0bf3de8c5d3e8a2b34d2beeb17abfcebaf363a59\n    /* \"ccip/CrossDestinationMinter_flattened.sol\":6763:6829  address routerSepolia = 0x0BF3dE8c5D3e8A2B34D2BEeB17ABfCeBaf363A59 */\n  0x01\n  exp(0x0100, 0x00)\n  dup2\n  sload\n  dup2\n  0xffffffffffffffffffffffffffffffffffffffff\n  mul\n  not\n  and\n  swap1\n  dup4\n  0xffffffffffffffffffffffffffffffffffffffff\n  and\n  mul\n  or\n  swap1\n  sstore\n  pop\n    /* \"ccip/CrossDestinationMinter_flattened.sol\":6836:6941  constructor(address nftAddress) CCIPReceiver(routerSepolia) {... */\n  callvalue\n  dup1\n  iszero\n  tag_1\n  jumpi\n  0x00\n  dup1\n  revert\ntag_1:\n  pop\n  mload(0x40)\n  sub(codesize, bytecodeSize)\n  dup1\n  bytecodeSize\n  dup4\n  codecopy\n  dup2\n  dup2\n  add\n  0x40\n  mstore\n  dup2\n  add\n  swap1\n  tag_2\n  swap2\n  swap1\n  tag_3\n  jump\t// in\ntag_2:\n    /* \"ccip/CrossDestinationMinter_flattened.sol\":6881:6894  routerSepolia */\n  0x01\n  0x00\n  swap1\n  sload\n  swap1\n  0x0100\n  exp\n  swap1\n  div\n  0xffffffffffffffffffffffffffffffffffffffff\n  and\n    /* \"ccip/CrossDestinationMinter_flattened.sol\":4260:4261  0 */\n  0x00\n    /* \"ccip/CrossDestinationMinter_flattened.sol\":4242:4262  router == address(0) */\n  0xffffffffffffffffffffffffffffffffffffffff\n  and\n    /* \"ccip/CrossDestinationMinter_flattened.sol\":4242:4248  router */\n  dup2\n    /* \"ccip/CrossDestinationMinter_flattened.sol\":4242:4262  router == address(0) */\n  0xffffffffffffffffffffffffffffffffffffffff\n  and\n  sub\n    /* \"ccip/CrossDestinationMinter_flattened.sol\":4238:4296  if (router == address(0)) revert InvalidRouter(address(0)) */\n  tag_7\n  jumpi\n    /* \"ccip/CrossDestinationMinter_flattened.sol\":4293:4294  0 */\n  0x00\n    /* \"ccip/CrossDestinationMinter_flattened.sol\":4271:4296  InvalidRouter(address(0)) */\n  mload(0x40)\n  0xd7f7333400000000000000000000000000000000000000000000000000000000\n  dup2\n  mstore\n  0x04\n  add\n  tag_8\n  swap2\n  swap1\n  tag_9\n  jump\t// in\ntag_8:\n  mload(0x40)\n  dup1\n  swap2\n  sub\n  swap1\n  revert\n    /* \"ccip/CrossDestinationMinter_flattened.sol\":4238:4296  if (router == address(0)) revert InvalidRouter(address(0)) */\ntag_7:\n    /* \"ccip/CrossDestinationMinter_flattened.sol\":4317:4323  router */\n  dup1\n    /* \"ccip/CrossDestinationMinter_flattened.sol\":4302:4323  i_ccipRouter = router */\n  0xffffffffffffffffffffffffffffffffffffffff\n  and\n  0x80\n  dup2\n  0xffffffffffffffffffffffffffffffffffffffff\n  and\n  dup2\n  mstore\n  pop\n  pop\n    /* \"ccip/CrossDestinationMinter_flattened.sol\":4204:4328  constructor(address router) {... */\n  pop\n    /* \"ccip/CrossDestinationMinter_flattened.sol\":6923:6933  nftAddress */\n  dup1\n    /* \"ccip/CrossDestinationMinter_flattened.sol\":6906:6909  nft */\n  0x00\n  dup1\n    /* \"ccip/CrossDestinationMinter_flattened.sol\":6906:6934  nft = InftMinter(nftAddress) */\n  0x0100\n  exp\n  dup2\n  sload\n  dup2\n  0xffffffffffffffffffffffffffffffffffffffff\n  mul\n  not\n  and\n  swap1\n  dup4\n  0xffffffffffffffffffffffffffffffffffffffff\n  and\n  mul\n  or\n  swap1\n  sstore\n  pop\n    /* \"ccip/CrossDestinationMinter_flattened.sol\":6836:6941  constructor(address nftAddress) CCIPReceiver(routerSepolia) {... */\n  pop\n    /* \"ccip/CrossDestinationMinter_flattened.sol\":6585:7686  contract CrossDestinationMinter is CCIPReceiver {... */\n  jump(tag_11)\n    /* \"#utility.yul\":88:205   */\ntag_13:\n    /* \"#utility.yul\":197:198   */\n  0x00\n    /* \"#utility.yul\":194:195   */\n  dup1\n    /* \"#utility.yul\":187:199   */\n  revert\n    /* \"#utility.yul\":334:460   */\ntag_15:\n    /* \"#utility.yul\":371:378   */\n  0x00\n    /* \"#utility.yul\":411:453   */\n  0xffffffffffffffffffffffffffffffffffffffff\n    /* \"#utility.yul\":404:409   */\n  dup3\n    /* \"#utility.yul\":400:454   */\n  and\n    /* \"#utility.yul\":389:454   */\n  swap1\n  pop\n    /* \"#utility.yul\":334:460   */\n  swap2\n  swap1\n  pop\n  jump\t// out\n    /* \"#utility.yul\":466:562   */\ntag_16:\n    /* \"#utility.yul\":503:510   */\n  0x00\n    /* \"#utility.yul\":532:556   */\n  tag_26\n    /* \"#utility.yul\":550:555   */\n  dup3\n    /* \"#utility.yul\":532:556   */\n  tag_15\n  jump\t// in\ntag_26:\n    /* \"#utility.yul\":521:556   */\n  swap1\n  pop\n    /* \"#utility.yul\":466:562   */\n  swap2\n  swap1\n  pop\n  jump\t// out\n    /* \"#utility.yul\":568:690   */\ntag_17:\n    /* \"#utility.yul\":641:665   */\n  tag_28\n    /* \"#utility.yul\":659:664   */\n  dup2\n    /* \"#utility.yul\":641:665   */\n  tag_16\n  jump\t// in\ntag_28:\n    /* \"#utility.yul\":634:639   */\n  dup2\n    /* \"#utility.yul\":631:666   */\n  eq\n    /* \"#utility.yul\":621:684   */\n  tag_29\n  jumpi\n    /* \"#utility.yul\":680:681   */\n  0x00\n    /* \"#utility.yul\":677:678   */\n  dup1\n    /* \"#utility.yul\":670:682   */\n  revert\n    /* \"#utility.yul\":621:684   */\ntag_29:\n    /* \"#utility.yul\":568:690   */\n  pop\n  jump\t// out\n    /* \"#utility.yul\":696:839   */\ntag_18:\n    /* \"#utility.yul\":753:758   */\n  0x00\n    /* \"#utility.yul\":784:790   */\n  dup2\n    /* \"#utility.yul\":778:791   */\n  mload\n    /* \"#utility.yul\":769:791   */\n  swap1\n  pop\n    /* \"#utility.yul\":800:833   */\n  tag_31\n    /* \"#utility.yul\":827:832   */\n  dup2\n    /* \"#utility.yul\":800:833   */\n  tag_17\n  jump\t// in\ntag_31:\n    /* \"#utility.yul\":696:839   */\n  swap3\n  swap2\n  pop\n  pop\n  jump\t// out\n    /* \"#utility.yul\":845:1196   */\ntag_3:\n    /* \"#utility.yul\":915:921   */\n  0x00\n    /* \"#utility.yul\":964:966   */\n  0x20\n    /* \"#utility.yul\":952:961   */\n  dup3\n    /* \"#utility.yul\":943:950   */\n  dup5\n    /* \"#utility.yul\":939:962   */\n  sub\n    /* \"#utility.yul\":935:967   */\n  slt\n    /* \"#utility.yul\":932:1051   */\n  iszero\n  tag_33\n  jumpi\n    /* \"#utility.yul\":970:1049   */\n  tag_34\n  tag_13\n  jump\t// in\ntag_34:\n    /* \"#utility.yul\":932:1051   */\ntag_33:\n    /* \"#utility.yul\":1090:1091   */\n  0x00\n    /* \"#utility.yul\":1115:1179   */\n  tag_35\n    /* \"#utility.yul\":1171:1178   */\n  dup5\n    /* \"#utility.yul\":1162:1168   */\n  dup3\n    /* \"#utility.yul\":1151:1160   */\n  dup6\n    /* \"#utility.yul\":1147:1169   */\n  add\n    /* \"#utility.yul\":1115:1179   */\n  tag_18\n  jump\t// in\ntag_35:\n    /* \"#utility.yul\":1105:1179   */\n  swap2\n  pop\n    /* \"#utility.yul\":1061:1189   */\n  pop\n    /* \"#utility.yul\":845:1196   */\n  swap3\n  swap2\n  pop\n  pop\n  jump\t// out\n    /* \"#utility.yul\":1202:1320   */\ntag_19:\n    /* \"#utility.yul\":1289:1313   */\n  tag_37\n    /* \"#utility.yul\":1307:1312   */\n  dup2\n    /* \"#utility.yul\":1289:1313   */\n  tag_16\n  jump\t// in\ntag_37:\n    /* \"#utility.yul\":1284:1287   */\n  dup3\n    /* \"#utility.yul\":1277:1314   */\n  mstore\n    /* \"#utility.yul\":1202:1320   */\n  pop\n  pop\n  jump\t// out\n    /* \"#utility.yul\":1326:1548   */\ntag_9:\n    /* \"#utility.yul\":1419:1423   */\n  0x00\n    /* \"#utility.yul\":1457:1459   */\n  0x20\n    /* \"#utility.yul\":1446:1455   */\n  dup3\n    /* \"#utility.yul\":1442:1460   */\n  add\n    /* \"#utility.yul\":1434:1460   */\n  swap1\n  pop\n    /* \"#utility.yul\":1470:1541   */\n  tag_39\n    /* \"#utility.yul\":1538:1539   */\n  0x00\n    /* \"#utility.yul\":1527:1536   */\n  dup4\n    /* \"#utility.yul\":1523:1540   */\n  add\n    /* \"#utility.yul\":1514:1520   */\n  dup5\n    /* \"#utility.yul\":1470:1541   */\n  tag_19\n  jump\t// in\ntag_39:\n    /* \"#utility.yul\":1326:1548   */\n  swap3\n  swap2\n  pop\n  pop\n  jump\t// out\n    /* \"ccip/CrossDestinationMinter_flattened.sol\":6585:7686  contract CrossDestinationMinter is CCIPReceiver {... */\ntag_11:\n  mload(0x80)\n  codecopy(0x00, dataOffset(sub_0), dataSize(sub_0))\n  0x00\n  assignImmutable(\"0x9fc1ee6eadd67a54527f8d0704f8da30e58e7e115f3c3a09267ee1b121a8cd57\")\n  return(0x00, dataSize(sub_0))\nstop\n\nsub_0: assembly {\n        /* \"ccip/CrossDestinationMinter_flattened.sol\":6585:7686  contract CrossDestinationMinter is CCIPReceiver {... */\n      mstore(0x40, 0x80)\n      callvalue\n      dup1\n      iszero\n      tag_1\n      jumpi\n      0x00\n      dup1\n      revert\n    tag_1:\n      pop\n      jumpi(tag_2, lt(calldatasize, 0x04))\n      shr(0xe0, calldataload(0x00))\n      dup1\n      0x5be68e93\n      gt\n      tag_10\n      jumpi\n      dup1\n      0x5be68e93\n      eq\n      tag_6\n      jumpi\n      dup1\n      0x85572ffb\n      eq\n      tag_7\n      jumpi\n      dup1\n      0x9642ddaf\n      eq\n      tag_8\n      jumpi\n      dup1\n      0xb0f479a1\n      eq\n      tag_9\n      jumpi\n      jump(tag_2)\n    tag_10:\n      dup1\n      0x01ffc9a7\n      eq\n      tag_3\n      jumpi\n      dup1\n      0x08076601\n      eq\n      tag_4\n      jumpi\n      dup1\n      0x47ccca02\n      eq\n      tag_5\n      jumpi\n    tag_2:\n      0x00\n      dup1\n      revert\n        /* \"ccip/CrossDestinationMinter_flattened.sol\":5105:5314  function supportsInterface(bytes4 interfaceId) public view virtual override returns (bool) {... */\n    tag_3:\n      tag_11\n      0x04\n      dup1\n      calldatasize\n      sub\n      dup2\n      add\n      swap1\n      tag_12\n      swap2\n      swap1\n      tag_13\n      jump\t// in\n    tag_12:\n      tag_14\n      jump\t// in\n    tag_11:\n      mload(0x40)\n      tag_15\n      swap2\n      swap1\n      tag_16\n      jump\t// in\n    tag_15:\n      mload(0x40)\n      dup1\n      swap2\n      sub\n      swap1\n      return\n        /* \"ccip/CrossDestinationMinter_flattened.sol\":7282:7585  function testMessage() external {... */\n    tag_4:\n      tag_17\n      tag_18\n      jump\t// in\n    tag_17:\n      stop\n        /* \"ccip/CrossDestinationMinter_flattened.sol\":6639:6660  InftMinter public nft */\n    tag_5:\n      tag_19\n      tag_20\n      jump\t// in\n    tag_19:\n      mload(0x40)\n      tag_21\n      swap2\n      swap1\n      tag_22\n      jump\t// in\n    tag_21:\n      mload(0x40)\n      dup1\n      swap2\n      sub\n      swap1\n      return\n        /* \"ccip/CrossDestinationMinter_flattened.sol\":7591:7684  function updateNFT(address nftAddress) external {... */\n    tag_6:\n      tag_23\n      0x04\n      dup1\n      calldatasize\n      sub\n      dup2\n      add\n      swap1\n      tag_24\n      swap2\n      swap1\n      tag_25\n      jump\t// in\n    tag_24:\n      tag_26\n      jump\t// in\n    tag_23:\n      stop\n        /* \"ccip/CrossDestinationMinter_flattened.sol\":5360:5490  function ccipReceive(Client.Any2EVMMessage calldata message) external virtual override onlyRouter {... */\n    tag_7:\n      tag_27\n      0x04\n      dup1\n      calldatasize\n      sub\n      dup2\n      add\n      swap1\n      tag_28\n      swap2\n      swap1\n      tag_29\n      jump\t// in\n    tag_28:\n      tag_30\n      jump\t// in\n    tag_27:\n      stop\n        /* \"ccip/CrossDestinationMinter_flattened.sol\":7174:7276  function testMint() external {... */\n    tag_8:\n      tag_31\n      tag_32\n      jump\t// in\n    tag_31:\n      stop\n        /* \"ccip/CrossDestinationMinter_flattened.sol\":5905:6003  function getRouter() public view virtual returns (address) {... */\n    tag_9:\n      tag_33\n      tag_34\n      jump\t// in\n    tag_33:\n      mload(0x40)\n      tag_35\n      swap2\n      swap1\n      tag_36\n      jump\t// in\n    tag_35:\n      mload(0x40)\n      dup1\n      swap2\n      sub\n      swap1\n      return\n        /* \"ccip/CrossDestinationMinter_flattened.sol\":5105:5314  function supportsInterface(bytes4 interfaceId) public view virtual override returns (bool) {... */\n    tag_14:\n        /* \"ccip/CrossDestinationMinter_flattened.sol\":5190:5194  bool */\n      0x00\n        /* \"ccip/CrossDestinationMinter_flattened.sol\":5224:5265  type(IAny2EVMMessageReceiver).interfaceId */\n      0x85572ffb00000000000000000000000000000000000000000000000000000000\n        /* \"ccip/CrossDestinationMinter_flattened.sol\":5209:5265  interfaceId == type(IAny2EVMMessageReceiver).interfaceId */\n      not(0xffffffffffffffffffffffffffffffffffffffffffffffffffffffff)\n      and\n        /* \"ccip/CrossDestinationMinter_flattened.sol\":5209:5220  interfaceId */\n      dup3\n        /* \"ccip/CrossDestinationMinter_flattened.sol\":5209:5265  interfaceId == type(IAny2EVMMessageReceiver).interfaceId */\n      not(0xffffffffffffffffffffffffffffffffffffffffffffffffffffffff)\n      and\n      eq\n        /* \"ccip/CrossDestinationMinter_flattened.sol\":5209:5309  interfaceId == type(IAny2EVMMessageReceiver).interfaceId || interfaceId == type(IERC165).interfaceId */\n      dup1\n      tag_38\n      jumpi\n      pop\n        /* \"ccip/CrossDestinationMinter_flattened.sol\":5284:5309  type(IERC165).interfaceId */\n      0x01ffc9a700000000000000000000000000000000000000000000000000000000\n        /* \"ccip/CrossDestinationMinter_flattened.sol\":5269:5309  interfaceId == type(IERC165).interfaceId */\n      not(0xffffffffffffffffffffffffffffffffffffffffffffffffffffffff)\n      and\n        /* \"ccip/CrossDestinationMinter_flattened.sol\":5269:5280  interfaceId */\n      dup3\n        /* \"ccip/CrossDestinationMinter_flattened.sol\":5269:5309  interfaceId == type(IERC165).interfaceId */\n      not(0xffffffffffffffffffffffffffffffffffffffffffffffffffffffff)\n      and\n      eq\n        /* \"ccip/CrossDestinationMinter_flattened.sol\":5209:5309  interfaceId == type(IAny2EVMMessageReceiver).interfaceId || interfaceId == type(IERC165).interfaceId */\n    tag_38:\n        /* \"ccip/CrossDestinationMinter_flattened.sol\":5202:5309  return interfaceId == type(IAny2EVMMessageReceiver).interfaceId || interfaceId == type(IERC165).interfaceId */\n      swap1\n      pop\n        /* \"ccip/CrossDestinationMinter_flattened.sol\":5105:5314  function supportsInterface(bytes4 interfaceId) public view virtual override returns (bool) {... */\n      swap2\n      swap1\n      pop\n      jump\t// out\n        /* \"ccip/CrossDestinationMinter_flattened.sol\":7282:7585  function testMessage() external {... */\n    tag_18:\n        /* \"ccip/CrossDestinationMinter_flattened.sol\":7353:7373  bytes memory message */\n      0x60\n        /* \"ccip/CrossDestinationMinter_flattened.sol\":7446:7456  msg.sender */\n      caller\n        /* \"ccip/CrossDestinationMinter_flattened.sol\":7458:7459  0 */\n      0x00\n        /* \"ccip/CrossDestinationMinter_flattened.sol\":7393:7460  abi.encodeWithSignature(\"mintFrom(address,uint256)\", msg.sender, 0) */\n      add(0x24, mload(0x40))\n      tag_40\n      swap3\n      swap2\n      swap1\n      tag_41\n      jump\t// in\n    tag_40:\n      mload(0x40)\n      0x20\n      dup2\n      dup4\n      sub\n      sub\n      dup2\n      mstore\n      swap1\n      0x40\n      mstore\n      and(not(0xffffffffffffffffffffffffffffffffffffffffffffffffffffffff), 0x1cc7485900000000000000000000000000000000000000000000000000000000)\n      0x20\n      dup3\n      add\n      dup1\n      mload\n      0xffffffffffffffffffffffffffffffffffffffffffffffffffffffff\n      dup4\n      dup2\n      dup4\n      and\n      or\n      dup4\n      mstore\n      pop\n      pop\n      pop\n      pop\n        /* \"ccip/CrossDestinationMinter_flattened.sol\":7383:7460  message = abi.encodeWithSignature(\"mintFrom(address,uint256)\", msg.sender, 0) */\n      swap1\n      pop\n        /* \"ccip/CrossDestinationMinter_flattened.sol\":7472:7484  bool success */\n      0x00\n        /* \"ccip/CrossDestinationMinter_flattened.sol\":7498:7501  nft */\n      dup1\n      0x00\n      swap1\n      sload\n      swap1\n      0x0100\n      exp\n      swap1\n      div\n      0xffffffffffffffffffffffffffffffffffffffff\n      and\n        /* \"ccip/CrossDestinationMinter_flattened.sol\":7490:7507  address(nft).call */\n      0xffffffffffffffffffffffffffffffffffffffff\n      and\n        /* \"ccip/CrossDestinationMinter_flattened.sol\":7508:7515  message */\n      dup3\n        /* \"ccip/CrossDestinationMinter_flattened.sol\":7490:7516  address(nft).call(message) */\n      mload(0x40)\n      tag_42\n      swap2\n      swap1\n      tag_43\n      jump\t// in\n    tag_42:\n      0x00\n      mload(0x40)\n      dup1\n      dup4\n      sub\n      dup2\n      0x00\n      dup7\n      gas\n      call\n      swap2\n      pop\n      pop\n      returndatasize\n      dup1\n      0x00\n      dup2\n      eq\n      tag_46\n      jumpi\n      mload(0x40)\n      swap2\n      pop\n      and(add(returndatasize, 0x3f), not(0x1f))\n      dup3\n      add\n      0x40\n      mstore\n      returndatasize\n      dup3\n      mstore\n      returndatasize\n      0x00\n      0x20\n      dup5\n      add\n      returndatacopy\n      jump(tag_45)\n    tag_46:\n      0x60\n      swap2\n      pop\n    tag_45:\n      pop\n        /* \"ccip/CrossDestinationMinter_flattened.sol\":7471:7516  (bool success, ) = address(nft).call(message) */\n      pop\n      swap1\n      pop\n        /* \"ccip/CrossDestinationMinter_flattened.sol\":7534:7541  success */\n      dup1\n        /* \"ccip/CrossDestinationMinter_flattened.sol\":7526:7542  require(success) */\n      tag_47\n      jumpi\n      0x00\n      dup1\n      revert\n    tag_47:\n        /* \"ccip/CrossDestinationMinter_flattened.sol\":7557:7578  MintCallSuccessfull() */\n      0xa8bcb6a278444293ea5c0bce4a4734a060a5f557bb999d8a57c4f69e96f1fe88\n      mload(0x40)\n      mload(0x40)\n      dup1\n      swap2\n      sub\n      swap1\n      log1\n        /* \"ccip/CrossDestinationMinter_flattened.sol\":7314:7585  {... */\n      pop\n      pop\n        /* \"ccip/CrossDestinationMinter_flattened.sol\":7282:7585  function testMessage() external {... */\n      jump\t// out\n        /* \"ccip/CrossDestinationMinter_flattened.sol\":6639:6660  InftMinter public nft */\n    tag_20:\n      0x00\n      dup1\n      sload\n      swap1\n      0x0100\n      exp\n      swap1\n      div\n      0xffffffffffffffffffffffffffffffffffffffff\n      and\n      dup2\n      jump\t// out\n        /* \"ccip/CrossDestinationMinter_flattened.sol\":7591:7684  function updateNFT(address nftAddress) external {... */\n    tag_26:\n        /* \"ccip/CrossDestinationMinter_flattened.sol\":7666:7676  nftAddress */\n      dup1\n        /* \"ccip/CrossDestinationMinter_flattened.sol\":7649:7652  nft */\n      0x00\n      dup1\n        /* \"ccip/CrossDestinationMinter_flattened.sol\":7649:7677  nft = InftMinter(nftAddress) */\n      0x0100\n      exp\n      dup2\n      sload\n      dup2\n      0xffffffffffffffffffffffffffffffffffffffff\n      mul\n      not\n      and\n      swap1\n      dup4\n      0xffffffffffffffffffffffffffffffffffffffff\n      and\n      mul\n      or\n      swap1\n      sstore\n      pop\n        /* \"ccip/CrossDestinationMinter_flattened.sol\":7591:7684  function updateNFT(address nftAddress) external {... */\n      pop\n      jump\t// out\n        /* \"ccip/CrossDestinationMinter_flattened.sol\":5360:5490  function ccipReceive(Client.Any2EVMMessage calldata message) external virtual override onlyRouter {... */\n    tag_30:\n        /* \"ccip/CrossDestinationMinter_flattened.sol\":6149:6160  getRouter() */\n      tag_50\n        /* \"ccip/CrossDestinationMinter_flattened.sol\":6149:6158  getRouter */\n      tag_34\n        /* \"ccip/CrossDestinationMinter_flattened.sol\":6149:6160  getRouter() */\n      jump\t// in\n    tag_50:\n        /* \"ccip/CrossDestinationMinter_flattened.sol\":6135:6160  msg.sender != getRouter() */\n      0xffffffffffffffffffffffffffffffffffffffff\n      and\n        /* \"ccip/CrossDestinationMinter_flattened.sol\":6135:6145  msg.sender */\n      caller\n        /* \"ccip/CrossDestinationMinter_flattened.sol\":6135:6160  msg.sender != getRouter() */\n      0xffffffffffffffffffffffffffffffffffffffff\n      and\n      eq\n        /* \"ccip/CrossDestinationMinter_flattened.sol\":6131:6194  if (msg.sender != getRouter()) revert InvalidRouter(msg.sender) */\n      tag_51\n      jumpi\n        /* \"ccip/CrossDestinationMinter_flattened.sol\":6183:6193  msg.sender */\n      caller\n        /* \"ccip/CrossDestinationMinter_flattened.sol\":6169:6194  InvalidRouter(msg.sender) */\n      mload(0x40)\n      0xd7f7333400000000000000000000000000000000000000000000000000000000\n      dup2\n      mstore\n      0x04\n      add\n      tag_52\n      swap2\n      swap1\n      tag_36\n      jump\t// in\n    tag_52:\n      mload(0x40)\n      dup1\n      swap2\n      sub\n      swap1\n      revert\n        /* \"ccip/CrossDestinationMinter_flattened.sol\":6131:6194  if (msg.sender != getRouter()) revert InvalidRouter(msg.sender) */\n    tag_51:\n        /* \"ccip/CrossDestinationMinter_flattened.sol\":5464:5485  _ccipReceive(message) */\n      tag_54\n        /* \"ccip/CrossDestinationMinter_flattened.sol\":5477:5484  message */\n      dup2\n        /* \"ccip/CrossDestinationMinter_flattened.sol\":5464:5485  _ccipReceive(message) */\n      tag_55\n      swap1\n      tag_56\n      jump\t// in\n    tag_55:\n        /* \"ccip/CrossDestinationMinter_flattened.sol\":5464:5476  _ccipReceive */\n      tag_57\n        /* \"ccip/CrossDestinationMinter_flattened.sol\":5464:5485  _ccipReceive(message) */\n      jump\t// in\n    tag_54:\n        /* \"ccip/CrossDestinationMinter_flattened.sol\":5360:5490  function ccipReceive(Client.Any2EVMMessage calldata message) external virtual override onlyRouter {... */\n      pop\n      jump\t// out\n        /* \"ccip/CrossDestinationMinter_flattened.sol\":7174:7276  function testMint() external {... */\n    tag_32:\n        /* \"ccip/CrossDestinationMinter_flattened.sol\":7242:7245  nft */\n      0x00\n      dup1\n      sload\n      swap1\n      0x0100\n      exp\n      swap1\n      div\n      0xffffffffffffffffffffffffffffffffffffffff\n      and\n        /* \"ccip/CrossDestinationMinter_flattened.sol\":7242:7254  nft.mintFrom */\n      0xffffffffffffffffffffffffffffffffffffffff\n      and\n      0x1cc74859\n        /* \"ccip/CrossDestinationMinter_flattened.sol\":7255:7265  msg.sender */\n      caller\n        /* \"ccip/CrossDestinationMinter_flattened.sol\":7267:7268  0 */\n      0x00\n        /* \"ccip/CrossDestinationMinter_flattened.sol\":7242:7269  nft.mintFrom(msg.sender, 0) */\n      mload(0x40)\n      dup4\n      0xffffffff\n      and\n      0xe0\n      shl\n      dup2\n      mstore\n      0x04\n      add\n      tag_59\n      swap3\n      swap2\n      swap1\n      tag_60\n      jump\t// in\n    tag_59:\n      0x00\n      mload(0x40)\n      dup1\n      dup4\n      sub\n      dup2\n      0x00\n      dup8\n      dup1\n      extcodesize\n      iszero\n      dup1\n      iszero\n      tag_61\n      jumpi\n      0x00\n      dup1\n      revert\n    tag_61:\n      pop\n      gas\n      call\n      iszero\n      dup1\n      iszero\n      tag_63\n      jumpi\n      returndatasize\n      0x00\n      dup1\n      returndatacopy\n      revert(0x00, returndatasize)\n    tag_63:\n      pop\n      pop\n      pop\n      pop\n        /* \"ccip/CrossDestinationMinter_flattened.sol\":7174:7276  function testMint() external {... */\n      jump\t// out\n        /* \"ccip/CrossDestinationMinter_flattened.sol\":5905:6003  function getRouter() public view virtual returns (address) {... */\n    tag_34:\n        /* \"ccip/CrossDestinationMinter_flattened.sol\":5955:5962  address */\n      0x00\n        /* \"ccip/CrossDestinationMinter_flattened.sol\":5985:5997  i_ccipRouter */\n      immutable(\"0x9fc1ee6eadd67a54527f8d0704f8da30e58e7e115f3c3a09267ee1b121a8cd57\")\n        /* \"ccip/CrossDestinationMinter_flattened.sol\":5970:5998  return address(i_ccipRouter) */\n      swap1\n      pop\n        /* \"ccip/CrossDestinationMinter_flattened.sol\":5905:6003  function getRouter() public view virtual returns (address) {... */\n      swap1\n      jump\t// out\n        /* \"ccip/CrossDestinationMinter_flattened.sol\":6947:7168  function _ccipReceive(... */\n    tag_57:\n        /* \"ccip/CrossDestinationMinter_flattened.sol\":7050:7062  bool success */\n      0x00\n        /* \"ccip/CrossDestinationMinter_flattened.sol\":7076:7079  nft */\n      dup1\n      0x00\n      swap1\n      sload\n      swap1\n      0x0100\n      exp\n      swap1\n      div\n      0xffffffffffffffffffffffffffffffffffffffff\n      and\n        /* \"ccip/CrossDestinationMinter_flattened.sol\":7068:7085  address(nft).call */\n      0xffffffffffffffffffffffffffffffffffffffff\n      and\n        /* \"ccip/CrossDestinationMinter_flattened.sol\":7086:7093  message */\n      dup3\n        /* \"ccip/CrossDestinationMinter_flattened.sol\":7086:7098  message.data */\n      0x60\n      add\n      mload\n        /* \"ccip/CrossDestinationMinter_flattened.sol\":7068:7099  address(nft).call(message.data) */\n      mload(0x40)\n      tag_66\n      swap2\n      swap1\n      tag_43\n      jump\t// in\n    tag_66:\n      0x00\n      mload(0x40)\n      dup1\n      dup4\n      sub\n      dup2\n      0x00\n      dup7\n      gas\n      call\n      swap2\n      pop\n      pop\n      returndatasize\n      dup1\n      0x00\n      dup2\n      eq\n      tag_69\n      jumpi\n      mload(0x40)\n      swap2\n      pop\n      and(add(returndatasize, 0x3f), not(0x1f))\n      dup3\n      add\n      0x40\n      mstore\n      returndatasize\n      dup3\n      mstore\n      returndatasize\n      0x00\n      0x20\n      dup5\n      add\n      returndatacopy\n      jump(tag_68)\n    tag_69:\n      0x60\n      swap2\n      pop\n    tag_68:\n      pop\n        /* \"ccip/CrossDestinationMinter_flattened.sol\":7049:7099  (bool success, ) = address(nft).call(message.data) */\n      pop\n      swap1\n      pop\n        /* \"ccip/CrossDestinationMinter_flattened.sol\":7117:7124  success */\n      dup1\n        /* \"ccip/CrossDestinationMinter_flattened.sol\":7109:7125  require(success) */\n      tag_70\n      jumpi\n      0x00\n      dup1\n      revert\n    tag_70:\n        /* \"ccip/CrossDestinationMinter_flattened.sol\":7140:7161  MintCallSuccessfull() */\n      0xa8bcb6a278444293ea5c0bce4a4734a060a5f557bb999d8a57c4f69e96f1fe88\n      mload(0x40)\n      mload(0x40)\n      dup1\n      swap2\n      sub\n      swap1\n      log1\n        /* \"ccip/CrossDestinationMinter_flattened.sol\":7039:7168  {... */\n      pop\n        /* \"ccip/CrossDestinationMinter_flattened.sol\":6947:7168  function _ccipReceive(... */\n      pop\n      jump\t// out\n        /* \"#utility.yul\":7:82   */\n    tag_71:\n        /* \"#utility.yul\":40:46   */\n      0x00\n        /* \"#utility.yul\":73:75   */\n      0x40\n        /* \"#utility.yul\":67:76   */\n      mload\n        /* \"#utility.yul\":57:76   */\n      swap1\n      pop\n        /* \"#utility.yul\":7:82   */\n      swap1\n      jump\t// out\n        /* \"#utility.yul\":88:205   */\n    tag_72:\n        /* \"#utility.yul\":197:198   */\n      0x00\n        /* \"#utility.yul\":194:195   */\n      dup1\n        /* \"#utility.yul\":187:199   */\n      revert\n        /* \"#utility.yul\":211:328   */\n    tag_73:\n        /* \"#utility.yul\":320:321   */\n      0x00\n        /* \"#utility.yul\":317:318   */\n      dup1\n        /* \"#utility.yul\":310:322   */\n      revert\n        /* \"#utility.yul\":334:483   */\n    tag_74:\n        /* \"#utility.yul\":370:377   */\n      0x00\n        /* \"#utility.yul\":410:476   */\n      0xffffffff00000000000000000000000000000000000000000000000000000000\n        /* \"#utility.yul\":403:408   */\n      dup3\n        /* \"#utility.yul\":399:477   */\n      and\n        /* \"#utility.yul\":388:477   */\n      swap1\n      pop\n        /* \"#utility.yul\":334:483   */\n      swap2\n      swap1\n      pop\n      jump\t// out\n        /* \"#utility.yul\":489:609   */\n    tag_75:\n        /* \"#utility.yul\":561:584   */\n      tag_134\n        /* \"#utility.yul\":578:583   */\n      dup2\n        /* \"#utility.yul\":561:584   */\n      tag_74\n      jump\t// in\n    tag_134:\n        /* \"#utility.yul\":554:559   */\n      dup2\n        /* \"#utility.yul\":551:585   */\n      eq\n        /* \"#utility.yul\":541:603   */\n      tag_135\n      jumpi\n        /* \"#utility.yul\":599:600   */\n      0x00\n        /* \"#utility.yul\":596:597   */\n      dup1\n        /* \"#utility.yul\":589:601   */\n      revert\n        /* \"#utility.yul\":541:603   */\n    tag_135:\n        /* \"#utility.yul\":489:609   */\n      pop\n      jump\t// out\n        /* \"#utility.yul\":615:752   */\n    tag_76:\n        /* \"#utility.yul\":660:665   */\n      0x00\n        /* \"#utility.yul\":698:704   */\n      dup2\n        /* \"#utility.yul\":685:705   */\n      calldataload\n        /* \"#utility.yul\":676:705   */\n      swap1\n      pop\n        /* \"#utility.yul\":714:746   */\n      tag_137\n        /* \"#utility.yul\":740:745   */\n      dup2\n        /* \"#utility.yul\":714:746   */\n      tag_75\n      jump\t// in\n    tag_137:\n        /* \"#utility.yul\":615:752   */\n      swap3\n      swap2\n      pop\n      pop\n      jump\t// out\n        /* \"#utility.yul\":758:1085   */\n    tag_13:\n        /* \"#utility.yul\":816:822   */\n      0x00\n        /* \"#utility.yul\":865:867   */\n      0x20\n        /* \"#utility.yul\":853:862   */\n      dup3\n        /* \"#utility.yul\":844:851   */\n      dup5\n        /* \"#utility.yul\":840:863   */\n      sub\n        /* \"#utility.yul\":836:868   */\n      slt\n        /* \"#utility.yul\":833:952   */\n      iszero\n      tag_139\n      jumpi\n        /* \"#utility.yul\":871:950   */\n      tag_140\n      tag_72\n      jump\t// in\n    tag_140:\n        /* \"#utility.yul\":833:952   */\n    tag_139:\n        /* \"#utility.yul\":991:992   */\n      0x00\n        /* \"#utility.yul\":1016:1068   */\n      tag_141\n        /* \"#utility.yul\":1060:1067   */\n      dup5\n        /* \"#utility.yul\":1051:1057   */\n      dup3\n        /* \"#utility.yul\":1040:1049   */\n      dup6\n        /* \"#utility.yul\":1036:1058   */\n      add\n        /* \"#utility.yul\":1016:1068   */\n      tag_76\n      jump\t// in\n    tag_141:\n        /* \"#utility.yul\":1006:1068   */\n      swap2\n      pop\n        /* \"#utility.yul\":962:1078   */\n      pop\n        /* \"#utility.yul\":758:1085   */\n      swap3\n      swap2\n      pop\n      pop\n      jump\t// out\n        /* \"#utility.yul\":1091:1181   */\n    tag_77:\n        /* \"#utility.yul\":1125:1132   */\n      0x00\n        /* \"#utility.yul\":1168:1173   */\n      dup2\n        /* \"#utility.yul\":1161:1174   */\n      iszero\n        /* \"#utility.yul\":1154:1175   */\n      iszero\n        /* \"#utility.yul\":1143:1175   */\n      swap1\n      pop\n        /* \"#utility.yul\":1091:1181   */\n      swap2\n      swap1\n      pop\n      jump\t// out\n        /* \"#utility.yul\":1187:1296   */\n    tag_78:\n        /* \"#utility.yul\":1268:1289   */\n      tag_144\n        /* \"#utility.yul\":1283:1288   */\n      dup2\n        /* \"#utility.yul\":1268:1289   */\n      tag_77\n      jump\t// in\n    tag_144:\n        /* \"#utility.yul\":1263:1266   */\n      dup3\n        /* \"#utility.yul\":1256:1290   */\n      mstore\n        /* \"#utility.yul\":1187:1296   */\n      pop\n      pop\n      jump\t// out\n        /* \"#utility.yul\":1302:1512   */\n    tag_16:\n        /* \"#utility.yul\":1389:1393   */\n      0x00\n        /* \"#utility.yul\":1427:1429   */\n      0x20\n        /* \"#utility.yul\":1416:1425   */\n      dup3\n        /* \"#utility.yul\":1412:1430   */\n      add\n        /* \"#utility.yul\":1404:1430   */\n      swap1\n      pop\n        /* \"#utility.yul\":1440:1505   */\n      tag_146\n        /* \"#utility.yul\":1502:1503   */\n      0x00\n        /* \"#utility.yul\":1491:1500   */\n      dup4\n        /* \"#utility.yul\":1487:1504   */\n      add\n        /* \"#utility.yul\":1478:1484   */\n      dup5\n        /* \"#utility.yul\":1440:1505   */\n      tag_78\n      jump\t// in\n    tag_146:\n        /* \"#utility.yul\":1302:1512   */\n      swap3\n      swap2\n      pop\n      pop\n      jump\t// out\n        /* \"#utility.yul\":1518:1644   */\n    tag_79:\n        /* \"#utility.yul\":1555:1562   */\n      0x00\n        /* \"#utility.yul\":1595:1637   */\n      0xffffffffffffffffffffffffffffffffffffffff\n        /* \"#utility.yul\":1588:1593   */\n      dup3\n        /* \"#utility.yul\":1584:1638   */\n      and\n        /* \"#utility.yul\":1573:1638   */\n      swap1\n      pop\n        /* \"#utility.yul\":1518:1644   */\n      swap2\n      swap1\n      pop\n      jump\t// out\n        /* \"#utility.yul\":1650:1710   */\n    tag_80:\n        /* \"#utility.yul\":1678:1681   */\n      0x00\n        /* \"#utility.yul\":1699:1704   */\n      dup2\n        /* \"#utility.yul\":1692:1704   */\n      swap1\n      pop\n        /* \"#utility.yul\":1650:1710   */\n      swap2\n      swap1\n      pop\n      jump\t// out\n        /* \"#utility.yul\":1716:1858   */\n    tag_81:\n        /* \"#utility.yul\":1766:1775   */\n      0x00\n        /* \"#utility.yul\":1799:1852   */\n      tag_150\n        /* \"#utility.yul\":1817:1851   */\n      tag_151\n        /* \"#utility.yul\":1826:1850   */\n      tag_152\n        /* \"#utility.yul\":1844:1849   */\n      dup5\n        /* \"#utility.yul\":1826:1850   */\n      tag_79\n      jump\t// in\n    tag_152:\n        /* \"#utility.yul\":1817:1851   */\n      tag_80\n      jump\t// in\n    tag_151:\n        /* \"#utility.yul\":1799:1852   */\n      tag_79\n      jump\t// in\n    tag_150:\n        /* \"#utility.yul\":1786:1852   */\n      swap1\n      pop\n        /* \"#utility.yul\":1716:1858   */\n      swap2\n      swap1\n      pop\n      jump\t// out\n        /* \"#utility.yul\":1864:1990   */\n    tag_82:\n        /* \"#utility.yul\":1914:1923   */\n      0x00\n        /* \"#utility.yul\":1947:1984   */\n      tag_154\n        /* \"#utility.yul\":1978:1983   */\n      dup3\n        /* \"#utility.yul\":1947:1984   */\n      tag_81\n      jump\t// in\n    tag_154:\n        /* \"#utility.yul\":1934:1984   */\n      swap1\n      pop\n        /* \"#utility.yul\":1864:1990   */\n      swap2\n      swap1\n      pop\n      jump\t// out\n        /* \"#utility.yul\":1996:2140   */\n    tag_83:\n        /* \"#utility.yul\":2064:2073   */\n      0x00\n        /* \"#utility.yul\":2097:2134   */\n      tag_156\n        /* \"#utility.yul\":2128:2133   */\n      dup3\n        /* \"#utility.yul\":2097:2134   */\n      tag_82\n      jump\t// in\n    tag_156:\n        /* \"#utility.yul\":2084:2134   */\n      swap1\n      pop\n        /* \"#utility.yul\":1996:2140   */\n      swap2\n      swap1\n      pop\n      jump\t// out\n        /* \"#utility.yul\":2146:2313   */\n    tag_84:\n        /* \"#utility.yul\":2251:2306   */\n      tag_158\n        /* \"#utility.yul\":2300:2305   */\n      dup2\n        /* \"#utility.yul\":2251:2306   */\n      tag_83\n      jump\t// in\n    tag_158:\n        /* \"#utility.yul\":2246:2249   */\n      dup3\n        /* \"#utility.yul\":2239:2307   */\n      mstore\n        /* \"#utility.yul\":2146:2313   */\n      pop\n      pop\n      jump\t// out\n        /* \"#utility.yul\":2319:2577   */\n    tag_22:\n        /* \"#utility.yul\":2430:2434   */\n      0x00\n        /* \"#utility.yul\":2468:2470   */\n      0x20\n        /* \"#utility.yul\":2457:2466   */\n      dup3\n        /* \"#utility.yul\":2453:2471   */\n      add\n        /* \"#utility.yul\":2445:2471   */\n      swap1\n      pop\n        /* \"#utility.yul\":2481:2570   */\n      tag_160\n        /* \"#utility.yul\":2567:2568   */\n      0x00\n        /* \"#utility.yul\":2556:2565   */\n      dup4\n        /* \"#utility.yul\":2552:2569   */\n      add\n        /* \"#utility.yul\":2543:2549   */\n      dup5\n        /* \"#utility.yul\":2481:2570   */\n      tag_84\n      jump\t// in\n    tag_160:\n        /* \"#utility.yul\":2319:2577   */\n      swap3\n      swap2\n      pop\n      pop\n      jump\t// out\n        /* \"#utility.yul\":2583:2679   */\n    tag_85:\n        /* \"#utility.yul\":2620:2627   */\n      0x00\n        /* \"#utility.yul\":2649:2673   */\n      tag_162\n        /* \"#utility.yul\":2667:2672   */\n      dup3\n        /* \"#utility.yul\":2649:2673   */\n      tag_79\n      jump\t// in\n    tag_162:\n        /* \"#utility.yul\":2638:2673   */\n      swap1\n      pop\n        /* \"#utility.yul\":2583:2679   */\n      swap2\n      swap1\n      pop\n      jump\t// out\n        /* \"#utility.yul\":2685:2807   */\n    tag_86:\n        /* \"#utility.yul\":2758:2782   */\n      tag_164\n        /* \"#utility.yul\":2776:2781   */\n      dup2\n        /* \"#utility.yul\":2758:2782   */\n      tag_85\n      jump\t// in\n    tag_164:\n        /* \"#utility.yul\":2751:2756   */\n      dup2\n        /* \"#utility.yul\":2748:2783   */\n      eq\n        /* \"#utility.yul\":2738:2801   */\n      tag_165\n      jumpi\n        /* \"#utility.yul\":2797:2798   */\n      0x00\n        /* \"#utility.yul\":2794:2795   */\n      dup1\n        /* \"#utility.yul\":2787:2799   */\n      revert\n        /* \"#utility.yul\":2738:2801   */\n    tag_165:\n        /* \"#utility.yul\":2685:2807   */\n      pop\n      jump\t// out\n        /* \"#utility.yul\":2813:2952   */\n    tag_87:\n        /* \"#utility.yul\":2859:2864   */\n      0x00\n        /* \"#utility.yul\":2897:2903   */\n      dup2\n        /* \"#utility.yul\":2884:2904   */\n      calldataload\n        /* \"#utility.yul\":2875:2904   */\n      swap1\n      pop\n        /* \"#utility.yul\":2913:2946   */\n      tag_167\n        /* \"#utility.yul\":2940:2945   */\n      dup2\n        /* \"#utility.yul\":2913:2946   */\n      tag_86\n      jump\t// in\n    tag_167:\n        /* \"#utility.yul\":2813:2952   */\n      swap3\n      swap2\n      pop\n      pop\n      jump\t// out\n        /* \"#utility.yul\":2958:3287   */\n    tag_25:\n        /* \"#utility.yul\":3017:3023   */\n      0x00\n        /* \"#utility.yul\":3066:3068   */\n      0x20\n        /* \"#utility.yul\":3054:3063   */\n      dup3\n        /* \"#utility.yul\":3045:3052   */\n      dup5\n        /* \"#utility.yul\":3041:3064   */\n      sub\n        /* \"#utility.yul\":3037:3069   */\n      slt\n        /* \"#utility.yul\":3034:3153   */\n      iszero\n      tag_169\n      jumpi\n        /* \"#utility.yul\":3072:3151   */\n      tag_170\n      tag_72\n      jump\t// in\n    tag_170:\n        /* \"#utility.yul\":3034:3153   */\n    tag_169:\n        /* \"#utility.yul\":3192:3193   */\n      0x00\n        /* \"#utility.yul\":3217:3270   */\n      tag_171\n        /* \"#utility.yul\":3262:3269   */\n      dup5\n        /* \"#utility.yul\":3253:3259   */\n      dup3\n        /* \"#utility.yul\":3242:3251   */\n      dup6\n        /* \"#utility.yul\":3238:3260   */\n      add\n        /* \"#utility.yul\":3217:3270   */\n      tag_87\n      jump\t// in\n    tag_171:\n        /* \"#utility.yul\":3207:3270   */\n      swap2\n      pop\n        /* \"#utility.yul\":3163:3280   */\n      pop\n        /* \"#utility.yul\":2958:3287   */\n      swap3\n      swap2\n      pop\n      pop\n      jump\t// out\n        /* \"#utility.yul\":3293:3410   */\n    tag_88:\n        /* \"#utility.yul\":3402:3403   */\n      0x00\n        /* \"#utility.yul\":3399:3400   */\n      dup1\n        /* \"#utility.yul\":3392:3404   */\n      revert\n        /* \"#utility.yul\":3452:3689   */\n    tag_89:\n        /* \"#utility.yul\":3530:3535   */\n      0x00\n        /* \"#utility.yul\":3571:3574   */\n      0xa0\n        /* \"#utility.yul\":3562:3568   */\n      dup3\n        /* \"#utility.yul\":3557:3560   */\n      dup5\n        /* \"#utility.yul\":3553:3569   */\n      sub\n        /* \"#utility.yul\":3549:3575   */\n      slt\n        /* \"#utility.yul\":3546:3659   */\n      iszero\n      tag_174\n      jumpi\n        /* \"#utility.yul\":3578:3657   */\n      tag_175\n      tag_88\n      jump\t// in\n    tag_175:\n        /* \"#utility.yul\":3546:3659   */\n    tag_174:\n        /* \"#utility.yul\":3677:3683   */\n      dup2\n        /* \"#utility.yul\":3668:3683   */\n      swap1\n      pop\n        /* \"#utility.yul\":3452:3689   */\n      swap3\n      swap2\n      pop\n      pop\n      jump\t// out\n        /* \"#utility.yul\":3695:4248   */\n    tag_29:\n        /* \"#utility.yul\":3786:3792   */\n      0x00\n        /* \"#utility.yul\":3835:3837   */\n      0x20\n        /* \"#utility.yul\":3823:3832   */\n      dup3\n        /* \"#utility.yul\":3814:3821   */\n      dup5\n        /* \"#utility.yul\":3810:3833   */\n      sub\n        /* \"#utility.yul\":3806:3838   */\n      slt\n        /* \"#utility.yul\":3803:3922   */\n      iszero\n      tag_177\n      jumpi\n        /* \"#utility.yul\":3841:3920   */\n      tag_178\n      tag_72\n      jump\t// in\n    tag_178:\n        /* \"#utility.yul\":3803:3922   */\n    tag_177:\n        /* \"#utility.yul\":3989:3990   */\n      0x00\n        /* \"#utility.yul\":3978:3987   */\n      dup3\n        /* \"#utility.yul\":3974:3991   */\n      add\n        /* \"#utility.yul\":3961:3992   */\n      calldataload\n        /* \"#utility.yul\":4019:4037   */\n      0xffffffffffffffff\n        /* \"#utility.yul\":4011:4017   */\n      dup2\n        /* \"#utility.yul\":4008:4038   */\n      gt\n        /* \"#utility.yul\":4005:4122   */\n      iszero\n      tag_179\n      jumpi\n        /* \"#utility.yul\":4041:4120   */\n      tag_180\n      tag_73\n      jump\t// in\n    tag_180:\n        /* \"#utility.yul\":4005:4122   */\n    tag_179:\n        /* \"#utility.yul\":4146:4231   */\n      tag_181\n        /* \"#utility.yul\":4223:4230   */\n      dup5\n        /* \"#utility.yul\":4214:4220   */\n      dup3\n        /* \"#utility.yul\":4203:4212   */\n      dup6\n        /* \"#utility.yul\":4199:4221   */\n      add\n        /* \"#utility.yul\":4146:4231   */\n      tag_89\n      jump\t// in\n    tag_181:\n        /* \"#utility.yul\":4136:4231   */\n      swap2\n      pop\n        /* \"#utility.yul\":3932:4241   */\n      pop\n        /* \"#utility.yul\":3695:4248   */\n      swap3\n      swap2\n      pop\n      pop\n      jump\t// out\n        /* \"#utility.yul\":4254:4372   */\n    tag_90:\n        /* \"#utility.yul\":4341:4365   */\n      tag_183\n        /* \"#utility.yul\":4359:4364   */\n      dup2\n        /* \"#utility.yul\":4341:4365   */\n      tag_85\n      jump\t// in\n    tag_183:\n        /* \"#utility.yul\":4336:4339   */\n      dup3\n        /* \"#utility.yul\":4329:4366   */\n      mstore\n        /* \"#utility.yul\":4254:4372   */\n      pop\n      pop\n      jump\t// out\n        /* \"#utility.yul\":4378:4600   */\n    tag_36:\n        /* \"#utility.yul\":4471:4475   */\n      0x00\n        /* \"#utility.yul\":4509:4511   */\n      0x20\n        /* \"#utility.yul\":4498:4507   */\n      dup3\n        /* \"#utility.yul\":4494:4512   */\n      add\n        /* \"#utility.yul\":4486:4512   */\n      swap1\n      pop\n        /* \"#utility.yul\":4522:4593   */\n      tag_185\n        /* \"#utility.yul\":4590:4591   */\n      0x00\n        /* \"#utility.yul\":4579:4588   */\n      dup4\n        /* \"#utility.yul\":4575:4592   */\n      add\n        /* \"#utility.yul\":4566:4572   */\n      dup5\n        /* \"#utility.yul\":4522:4593   */\n      tag_90\n      jump\t// in\n    tag_185:\n        /* \"#utility.yul\":4378:4600   */\n      swap3\n      swap2\n      pop\n      pop\n      jump\t// out\n        /* \"#utility.yul\":4606:4691   */\n    tag_91:\n        /* \"#utility.yul\":4651:4658   */\n      0x00\n        /* \"#utility.yul\":4680:4685   */\n      dup2\n        /* \"#utility.yul\":4669:4685   */\n      swap1\n      pop\n        /* \"#utility.yul\":4606:4691   */\n      swap2\n      swap1\n      pop\n      jump\t// out\n        /* \"#utility.yul\":4697:4783   */\n    tag_92:\n        /* \"#utility.yul\":4732:4739   */\n      0x00\n        /* \"#utility.yul\":4772:4776   */\n      0xff\n        /* \"#utility.yul\":4765:4770   */\n      dup3\n        /* \"#utility.yul\":4761:4777   */\n      and\n        /* \"#utility.yul\":4750:4777   */\n      swap1\n      pop\n        /* \"#utility.yul\":4697:4783   */\n      swap2\n      swap1\n      pop\n      jump\t// out\n        /* \"#utility.yul\":4789:4943   */\n    tag_93:\n        /* \"#utility.yul\":4845:4854   */\n      0x00\n        /* \"#utility.yul\":4878:4937   */\n      tag_189\n        /* \"#utility.yul\":4894:4936   */\n      tag_190\n        /* \"#utility.yul\":4903:4935   */\n      tag_191\n        /* \"#utility.yul\":4929:4934   */\n      dup5\n        /* \"#utility.yul\":4903:4935   */\n      tag_91\n      jump\t// in\n    tag_191:\n        /* \"#utility.yul\":4894:4936   */\n      tag_80\n      jump\t// in\n    tag_190:\n        /* \"#utility.yul\":4878:4937   */\n      tag_92\n      jump\t// in\n    tag_189:\n        /* \"#utility.yul\":4865:4937   */\n      swap1\n      pop\n        /* \"#utility.yul\":4789:4943   */\n      swap2\n      swap1\n      pop\n      jump\t// out\n        /* \"#utility.yul\":4949:5092   */\n    tag_94:\n        /* \"#utility.yul\":5042:5085   */\n      tag_193\n        /* \"#utility.yul\":5079:5084   */\n      dup2\n        /* \"#utility.yul\":5042:5085   */\n      tag_93\n      jump\t// in\n    tag_193:\n        /* \"#utility.yul\":5037:5040   */\n      dup3\n        /* \"#utility.yul\":5030:5086   */\n      mstore\n        /* \"#utility.yul\":4949:5092   */\n      pop\n      pop\n      jump\t// out\n        /* \"#utility.yul\":5098:5442   */\n    tag_41:\n        /* \"#utility.yul\":5225:5229   */\n      0x00\n        /* \"#utility.yul\":5263:5265   */\n      0x40\n        /* \"#utility.yul\":5252:5261   */\n      dup3\n        /* \"#utility.yul\":5248:5266   */\n      add\n        /* \"#utility.yul\":5240:5266   */\n      swap1\n      pop\n        /* \"#utility.yul\":5276:5347   */\n      tag_195\n        /* \"#utility.yul\":5344:5345   */\n      0x00\n        /* \"#utility.yul\":5333:5342   */\n      dup4\n        /* \"#utility.yul\":5329:5346   */\n      add\n        /* \"#utility.yul\":5320:5326   */\n      dup6\n        /* \"#utility.yul\":5276:5347   */\n      tag_90\n      jump\t// in\n    tag_195:\n        /* \"#utility.yul\":5357:5435   */\n      tag_196\n        /* \"#utility.yul\":5431:5433   */\n      0x20\n        /* \"#utility.yul\":5420:5429   */\n      dup4\n        /* \"#utility.yul\":5416:5434   */\n      add\n        /* \"#utility.yul\":5407:5413   */\n      dup5\n        /* \"#utility.yul\":5357:5435   */\n      tag_94\n      jump\t// in\n    tag_196:\n        /* \"#utility.yul\":5098:5442   */\n      swap4\n      swap3\n      pop\n      pop\n      pop\n      jump\t// out\n        /* \"#utility.yul\":5448:5546   */\n    tag_95:\n        /* \"#utility.yul\":5499:5505   */\n      0x00\n        /* \"#utility.yul\":5533:5538   */\n      dup2\n        /* \"#utility.yul\":5527:5539   */\n      mload\n        /* \"#utility.yul\":5517:5539   */\n      swap1\n      pop\n        /* \"#utility.yul\":5448:5546   */\n      swap2\n      swap1\n      pop\n      jump\t// out\n        /* \"#utility.yul\":5552:5699   */\n    tag_96:\n        /* \"#utility.yul\":5653:5664   */\n      0x00\n        /* \"#utility.yul\":5690:5693   */\n      dup2\n        /* \"#utility.yul\":5675:5693   */\n      swap1\n      pop\n        /* \"#utility.yul\":5552:5699   */\n      swap3\n      swap2\n      pop\n      pop\n      jump\t// out\n        /* \"#utility.yul\":5705:5951   */\n    tag_97:\n        /* \"#utility.yul\":5786:5787   */\n      0x00\n        /* \"#utility.yul\":5796:5909   */\n    tag_200:\n        /* \"#utility.yul\":5810:5816   */\n      dup4\n        /* \"#utility.yul\":5807:5808   */\n      dup2\n        /* \"#utility.yul\":5804:5817   */\n      lt\n        /* \"#utility.yul\":5796:5909   */\n      iszero\n      tag_202\n      jumpi\n        /* \"#utility.yul\":5895:5896   */\n      dup1\n        /* \"#utility.yul\":5890:5893   */\n      dup3\n        /* \"#utility.yul\":5886:5897   */\n      add\n        /* \"#utility.yul\":5880:5898   */\n      mload\n        /* \"#utility.yul\":5876:5877   */\n      dup2\n        /* \"#utility.yul\":5871:5874   */\n      dup5\n        /* \"#utility.yul\":5867:5878   */\n      add\n        /* \"#utility.yul\":5860:5899   */\n      mstore\n        /* \"#utility.yul\":5832:5834   */\n      0x20\n        /* \"#utility.yul\":5829:5830   */\n      dup2\n        /* \"#utility.yul\":5825:5835   */\n      add\n        /* \"#utility.yul\":5820:5835   */\n      swap1\n      pop\n        /* \"#utility.yul\":5796:5909   */\n      jump(tag_200)\n    tag_202:\n        /* \"#utility.yul\":5943:5944   */\n      0x00\n        /* \"#utility.yul\":5934:5940   */\n      dup5\n        /* \"#utility.yul\":5929:5932   */\n      dup5\n        /* \"#utility.yul\":5925:5941   */\n      add\n        /* \"#utility.yul\":5918:5945   */\n      mstore\n        /* \"#utility.yul\":5767:5951   */\n      pop\n        /* \"#utility.yul\":5705:5951   */\n      pop\n      pop\n      pop\n      jump\t// out\n        /* \"#utility.yul\":5957:6343   */\n    tag_98:\n        /* \"#utility.yul\":6061:6064   */\n      0x00\n        /* \"#utility.yul\":6089:6127   */\n      tag_204\n        /* \"#utility.yul\":6121:6126   */\n      dup3\n        /* \"#utility.yul\":6089:6127   */\n      tag_95\n      jump\t// in\n    tag_204:\n        /* \"#utility.yul\":6143:6231   */\n      tag_205\n        /* \"#utility.yul\":6224:6230   */\n      dup2\n        /* \"#utility.yul\":6219:6222   */\n      dup6\n        /* \"#utility.yul\":6143:6231   */\n      tag_96\n      jump\t// in\n    tag_205:\n        /* \"#utility.yul\":6136:6231   */\n      swap4\n      pop\n        /* \"#utility.yul\":6240:6305   */\n      tag_206\n        /* \"#utility.yul\":6298:6304   */\n      dup2\n        /* \"#utility.yul\":6293:6296   */\n      dup6\n        /* \"#utility.yul\":6286:6290   */\n      0x20\n        /* \"#utility.yul\":6279:6284   */\n      dup7\n        /* \"#utility.yul\":6275:6291   */\n      add\n        /* \"#utility.yul\":6240:6305   */\n      tag_97\n      jump\t// in\n    tag_206:\n        /* \"#utility.yul\":6330:6336   */\n      dup1\n        /* \"#utility.yul\":6325:6328   */\n      dup5\n        /* \"#utility.yul\":6321:6337   */\n      add\n        /* \"#utility.yul\":6314:6337   */\n      swap2\n      pop\n        /* \"#utility.yul\":6065:6343   */\n      pop\n        /* \"#utility.yul\":5957:6343   */\n      swap3\n      swap2\n      pop\n      pop\n      jump\t// out\n        /* \"#utility.yul\":6349:6620   */\n    tag_43:\n        /* \"#utility.yul\":6479:6482   */\n      0x00\n        /* \"#utility.yul\":6501:6594   */\n      tag_208\n        /* \"#utility.yul\":6590:6593   */\n      dup3\n        /* \"#utility.yul\":6581:6587   */\n      dup5\n        /* \"#utility.yul\":6501:6594   */\n      tag_98\n      jump\t// in\n    tag_208:\n        /* \"#utility.yul\":6494:6594   */\n      swap2\n      pop\n        /* \"#utility.yul\":6611:6614   */\n      dup2\n        /* \"#utility.yul\":6604:6614   */\n      swap1\n      pop\n        /* \"#utility.yul\":6349:6620   */\n      swap3\n      swap2\n      pop\n      pop\n      jump\t// out\n        /* \"#utility.yul\":6626:6743   */\n    tag_99:\n        /* \"#utility.yul\":6735:6736   */\n      0x00\n        /* \"#utility.yul\":6732:6733   */\n      dup1\n        /* \"#utility.yul\":6725:6737   */\n      revert\n        /* \"#utility.yul\":6749:6851   */\n    tag_100:\n        /* \"#utility.yul\":6790:6796   */\n      0x00\n        /* \"#utility.yul\":6841:6843   */\n      0x1f\n        /* \"#utility.yul\":6837:6844   */\n      not\n        /* \"#utility.yul\":6832:6834   */\n      0x1f\n        /* \"#utility.yul\":6825:6830   */\n      dup4\n        /* \"#utility.yul\":6821:6835   */\n      add\n        /* \"#utility.yul\":6817:6845   */\n      and\n        /* \"#utility.yul\":6807:6845   */\n      swap1\n      pop\n        /* \"#utility.yul\":6749:6851   */\n      swap2\n      swap1\n      pop\n      jump\t// out\n        /* \"#utility.yul\":6857:7037   */\n    tag_101:\n        /* \"#utility.yul\":6905:6982   */\n      0x4e487b7100000000000000000000000000000000000000000000000000000000\n        /* \"#utility.yul\":6902:6903   */\n      0x00\n        /* \"#utility.yul\":6895:6983   */\n      mstore\n        /* \"#utility.yul\":7002:7006   */\n      0x41\n        /* \"#utility.yul\":6999:7000   */\n      0x04\n        /* \"#utility.yul\":6992:7007   */\n      mstore\n        /* \"#utility.yul\":7026:7030   */\n      0x24\n        /* \"#utility.yul\":7023:7024   */\n      0x00\n        /* \"#utility.yul\":7016:7031   */\n      revert\n        /* \"#utility.yul\":7043:7324   */\n    tag_102:\n        /* \"#utility.yul\":7126:7153   */\n      tag_213\n        /* \"#utility.yul\":7148:7152   */\n      dup3\n        /* \"#utility.yul\":7126:7153   */\n      tag_100\n      jump\t// in\n    tag_213:\n        /* \"#utility.yul\":7118:7124   */\n      dup2\n        /* \"#utility.yul\":7114:7154   */\n      add\n        /* \"#utility.yul\":7256:7262   */\n      dup2\n        /* \"#utility.yul\":7244:7254   */\n      dup2\n        /* \"#utility.yul\":7241:7263   */\n      lt\n        /* \"#utility.yul\":7220:7238   */\n      0xffffffffffffffff\n        /* \"#utility.yul\":7208:7218   */\n      dup3\n        /* \"#utility.yul\":7205:7239   */\n      gt\n        /* \"#utility.yul\":7202:7264   */\n      or\n        /* \"#utility.yul\":7199:7287   */\n      iszero\n      tag_214\n      jumpi\n        /* \"#utility.yul\":7267:7285   */\n      tag_215\n      tag_101\n      jump\t// in\n    tag_215:\n        /* \"#utility.yul\":7199:7287   */\n    tag_214:\n        /* \"#utility.yul\":7307:7317   */\n      dup1\n        /* \"#utility.yul\":7303:7305   */\n      0x40\n        /* \"#utility.yul\":7296:7318   */\n      mstore\n        /* \"#utility.yul\":7086:7324   */\n      pop\n        /* \"#utility.yul\":7043:7324   */\n      pop\n      pop\n      jump\t// out\n        /* \"#utility.yul\":7330:7459   */\n    tag_103:\n        /* \"#utility.yul\":7364:7370   */\n      0x00\n        /* \"#utility.yul\":7391:7411   */\n      tag_217\n      tag_71\n      jump\t// in\n    tag_217:\n        /* \"#utility.yul\":7381:7411   */\n      swap1\n      pop\n        /* \"#utility.yul\":7420:7453   */\n      tag_218\n        /* \"#utility.yul\":7448:7452   */\n      dup3\n        /* \"#utility.yul\":7440:7446   */\n      dup3\n        /* \"#utility.yul\":7420:7453   */\n      tag_102\n      jump\t// in\n    tag_218:\n        /* \"#utility.yul\":7330:7459   */\n      swap2\n      swap1\n      pop\n      jump\t// out\n        /* \"#utility.yul\":7465:7582   */\n    tag_104:\n        /* \"#utility.yul\":7574:7575   */\n      0x00\n        /* \"#utility.yul\":7571:7572   */\n      dup1\n        /* \"#utility.yul\":7564:7576   */\n      revert\n        /* \"#utility.yul\":7588:7665   */\n    tag_105:\n        /* \"#utility.yul\":7625:7632   */\n      0x00\n        /* \"#utility.yul\":7654:7659   */\n      dup2\n        /* \"#utility.yul\":7643:7659   */\n      swap1\n      pop\n        /* \"#utility.yul\":7588:7665   */\n      swap2\n      swap1\n      pop\n      jump\t// out\n        /* \"#utility.yul\":7671:7793   */\n    tag_106:\n        /* \"#utility.yul\":7744:7768   */\n      tag_222\n        /* \"#utility.yul\":7762:7767   */\n      dup2\n        /* \"#utility.yul\":7744:7768   */\n      tag_105\n      jump\t// in\n    tag_222:\n        /* \"#utility.yul\":7737:7742   */\n      dup2\n        /* \"#utility.yul\":7734:7769   */\n      eq\n        /* \"#utility.yul\":7724:7787   */\n      tag_223\n      jumpi\n        /* \"#utility.yul\":7783:7784   */\n      0x00\n        /* \"#utility.yul\":7780:7781   */\n      dup1\n        /* \"#utility.yul\":7773:7785   */\n      revert\n        /* \"#utility.yul\":7724:7787   */\n    tag_223:\n        /* \"#utility.yul\":7671:7793   */\n      pop\n      jump\t// out\n        /* \"#utility.yul\":7799:7938   */\n    tag_107:\n        /* \"#utility.yul\":7845:7850   */\n      0x00\n        /* \"#utility.yul\":7883:7889   */\n      dup2\n        /* \"#utility.yul\":7870:7890   */\n      calldataload\n        /* \"#utility.yul\":7861:7890   */\n      swap1\n      pop\n        /* \"#utility.yul\":7899:7932   */\n      tag_225\n        /* \"#utility.yul\":7926:7931   */\n      dup2\n        /* \"#utility.yul\":7899:7932   */\n      tag_106\n      jump\t// in\n    tag_225:\n        /* \"#utility.yul\":7799:7938   */\n      swap3\n      swap2\n      pop\n      pop\n      jump\t// out\n        /* \"#utility.yul\":7944:8045   */\n    tag_108:\n        /* \"#utility.yul\":7980:7987   */\n      0x00\n        /* \"#utility.yul\":8020:8038   */\n      0xffffffffffffffff\n        /* \"#utility.yul\":8013:8018   */\n      dup3\n        /* \"#utility.yul\":8009:8039   */\n      and\n        /* \"#utility.yul\":7998:8039   */\n      swap1\n      pop\n        /* \"#utility.yul\":7944:8045   */\n      swap2\n      swap1\n      pop\n      jump\t// out\n        /* \"#utility.yul\":8051:8171   */\n    tag_109:\n        /* \"#utility.yul\":8123:8146   */\n      tag_228\n        /* \"#utility.yul\":8140:8145   */\n      dup2\n        /* \"#utility.yul\":8123:8146   */\n      tag_108\n      jump\t// in\n    tag_228:\n        /* \"#utility.yul\":8116:8121   */\n      dup2\n        /* \"#utility.yul\":8113:8147   */\n      eq\n        /* \"#utility.yul\":8103:8165   */\n      tag_229\n      jumpi\n        /* \"#utility.yul\":8161:8162   */\n      0x00\n        /* \"#utility.yul\":8158:8159   */\n      dup1\n        /* \"#utility.yul\":8151:8163   */\n      revert\n        /* \"#utility.yul\":8103:8165   */\n    tag_229:\n        /* \"#utility.yul\":8051:8171   */\n      pop\n      jump\t// out\n        /* \"#utility.yul\":8177:8314   */\n    tag_110:\n        /* \"#utility.yul\":8222:8227   */\n      0x00\n        /* \"#utility.yul\":8260:8266   */\n      dup2\n        /* \"#utility.yul\":8247:8267   */\n      calldataload\n        /* \"#utility.yul\":8238:8267   */\n      swap1\n      pop\n        /* \"#utility.yul\":8276:8308   */\n      tag_231\n        /* \"#utility.yul\":8302:8307   */\n      dup2\n        /* \"#utility.yul\":8276:8308   */\n      tag_109\n      jump\t// in\n    tag_231:\n        /* \"#utility.yul\":8177:8314   */\n      swap3\n      swap2\n      pop\n      pop\n      jump\t// out\n        /* \"#utility.yul\":8320:8437   */\n    tag_111:\n        /* \"#utility.yul\":8429:8430   */\n      0x00\n        /* \"#utility.yul\":8426:8427   */\n      dup1\n        /* \"#utility.yul\":8419:8431   */\n      revert\n        /* \"#utility.yul\":8443:8560   */\n    tag_112:\n        /* \"#utility.yul\":8552:8553   */\n      0x00\n        /* \"#utility.yul\":8549:8550   */\n      dup1\n        /* \"#utility.yul\":8542:8554   */\n      revert\n        /* \"#utility.yul\":8566:8873   */\n    tag_113:\n        /* \"#utility.yul\":8627:8631   */\n      0x00\n        /* \"#utility.yul\":8717:8735   */\n      0xffffffffffffffff\n        /* \"#utility.yul\":8709:8715   */\n      dup3\n        /* \"#utility.yul\":8706:8736   */\n      gt\n        /* \"#utility.yul\":8703:8759   */\n      iszero\n      tag_235\n      jumpi\n        /* \"#utility.yul\":8739:8757   */\n      tag_236\n      tag_101\n      jump\t// in\n    tag_236:\n        /* \"#utility.yul\":8703:8759   */\n    tag_235:\n        /* \"#utility.yul\":8777:8806   */\n      tag_237\n        /* \"#utility.yul\":8799:8805   */\n      dup3\n        /* \"#utility.yul\":8777:8806   */\n      tag_100\n      jump\t// in\n    tag_237:\n        /* \"#utility.yul\":8769:8806   */\n      swap1\n      pop\n        /* \"#utility.yul\":8861:8865   */\n      0x20\n        /* \"#utility.yul\":8855:8859   */\n      dup2\n        /* \"#utility.yul\":8851:8866   */\n      add\n        /* \"#utility.yul\":8843:8866   */\n      swap1\n      pop\n        /* \"#utility.yul\":8566:8873   */\n      swap2\n      swap1\n      pop\n      jump\t// out\n        /* \"#utility.yul\":8879:9025   */\n    tag_114:\n        /* \"#utility.yul\":8976:8982   */\n      dup3\n        /* \"#utility.yul\":8971:8974   */\n      dup2\n        /* \"#utility.yul\":8966:8969   */\n      dup4\n        /* \"#utility.yul\":8953:8983   */\n      calldatacopy\n        /* \"#utility.yul\":9017:9018   */\n      0x00\n        /* \"#utility.yul\":9008:9014   */\n      dup4\n        /* \"#utility.yul\":9003:9006   */\n      dup4\n        /* \"#utility.yul\":8999:9015   */\n      add\n        /* \"#utility.yul\":8992:9019   */\n      mstore\n        /* \"#utility.yul\":8879:9025   */\n      pop\n      pop\n      pop\n      jump\t// out\n        /* \"#utility.yul\":9031:9454   */\n    tag_115:\n        /* \"#utility.yul\":9108:9113   */\n      0x00\n        /* \"#utility.yul\":9133:9198   */\n      tag_240\n        /* \"#utility.yul\":9149:9197   */\n      tag_241\n        /* \"#utility.yul\":9190:9196   */\n      dup5\n        /* \"#utility.yul\":9149:9197   */\n      tag_113\n      jump\t// in\n    tag_241:\n        /* \"#utility.yul\":9133:9198   */\n      tag_103\n      jump\t// in\n    tag_240:\n        /* \"#utility.yul\":9124:9198   */\n      swap1\n      pop\n        /* \"#utility.yul\":9221:9227   */\n      dup3\n        /* \"#utility.yul\":9214:9219   */\n      dup2\n        /* \"#utility.yul\":9207:9228   */\n      mstore\n        /* \"#utility.yul\":9259:9263   */\n      0x20\n        /* \"#utility.yul\":9252:9257   */\n      dup2\n        /* \"#utility.yul\":9248:9264   */\n      add\n        /* \"#utility.yul\":9297:9300   */\n      dup5\n        /* \"#utility.yul\":9288:9294   */\n      dup5\n        /* \"#utility.yul\":9283:9286   */\n      dup5\n        /* \"#utility.yul\":9279:9295   */\n      add\n        /* \"#utility.yul\":9276:9301   */\n      gt\n        /* \"#utility.yul\":9273:9385   */\n      iszero\n      tag_242\n      jumpi\n        /* \"#utility.yul\":9304:9383   */\n      tag_243\n      tag_112\n      jump\t// in\n    tag_243:\n        /* \"#utility.yul\":9273:9385   */\n    tag_242:\n        /* \"#utility.yul\":9394:9448   */\n      tag_244\n        /* \"#utility.yul\":9441:9447   */\n      dup5\n        /* \"#utility.yul\":9436:9439   */\n      dup3\n        /* \"#utility.yul\":9431:9434   */\n      dup6\n        /* \"#utility.yul\":9394:9448   */\n      tag_114\n      jump\t// in\n    tag_244:\n        /* \"#utility.yul\":9114:9454   */\n      pop\n        /* \"#utility.yul\":9031:9454   */\n      swap4\n      swap3\n      pop\n      pop\n      pop\n      jump\t// out\n        /* \"#utility.yul\":9473:9811   */\n    tag_116:\n        /* \"#utility.yul\":9528:9533   */\n      0x00\n        /* \"#utility.yul\":9577:9580   */\n      dup3\n        /* \"#utility.yul\":9570:9574   */\n      0x1f\n        /* \"#utility.yul\":9562:9568   */\n      dup4\n        /* \"#utility.yul\":9558:9575   */\n      add\n        /* \"#utility.yul\":9554:9581   */\n      slt\n        /* \"#utility.yul\":9544:9666   */\n      tag_246\n      jumpi\n        /* \"#utility.yul\":9585:9664   */\n      tag_247\n      tag_111\n      jump\t// in\n    tag_247:\n        /* \"#utility.yul\":9544:9666   */\n    tag_246:\n        /* \"#utility.yul\":9702:9708   */\n      dup2\n        /* \"#utility.yul\":9689:9709   */\n      calldataload\n        /* \"#utility.yul\":9727:9805   */\n      tag_248\n        /* \"#utility.yul\":9801:9804   */\n      dup5\n        /* \"#utility.yul\":9793:9799   */\n      dup3\n        /* \"#utility.yul\":9786:9790   */\n      0x20\n        /* \"#utility.yul\":9778:9784   */\n      dup7\n        /* \"#utility.yul\":9774:9791   */\n      add\n        /* \"#utility.yul\":9727:9805   */\n      tag_115\n      jump\t// in\n    tag_248:\n        /* \"#utility.yul\":9718:9805   */\n      swap2\n      pop\n        /* \"#utility.yul\":9534:9811   */\n      pop\n        /* \"#utility.yul\":9473:9811   */\n      swap3\n      swap2\n      pop\n      pop\n      jump\t// out\n        /* \"#utility.yul\":9817:10157   */\n    tag_117:\n        /* \"#utility.yul\":9923:9927   */\n      0x00\n        /* \"#utility.yul\":10013:10031   */\n      0xffffffffffffffff\n        /* \"#utility.yul\":10005:10011   */\n      dup3\n        /* \"#utility.yul\":10002:10032   */\n      gt\n        /* \"#utility.yul\":9999:10055   */\n      iszero\n      tag_250\n      jumpi\n        /* \"#utility.yul\":10035:10053   */\n      tag_251\n      tag_101\n      jump\t// in\n    tag_251:\n        /* \"#utility.yul\":9999:10055   */\n    tag_250:\n        /* \"#utility.yul\":10085:10089   */\n      0x20\n        /* \"#utility.yul\":10077:10083   */\n      dup3\n        /* \"#utility.yul\":10073:10090   */\n      mul\n        /* \"#utility.yul\":10065:10090   */\n      swap1\n      pop\n        /* \"#utility.yul\":10145:10149   */\n      0x20\n        /* \"#utility.yul\":10139:10143   */\n      dup2\n        /* \"#utility.yul\":10135:10150   */\n      add\n        /* \"#utility.yul\":10127:10150   */\n      swap1\n      pop\n        /* \"#utility.yul\":9817:10157   */\n      swap2\n      swap1\n      pop\n      jump\t// out\n        /* \"#utility.yul\":10163:10280   */\n    tag_118:\n        /* \"#utility.yul\":10272:10273   */\n      0x00\n        /* \"#utility.yul\":10269:10270   */\n      dup1\n        /* \"#utility.yul\":10262:10274   */\n      revert\n        /* \"#utility.yul\":10286:10363   */\n    tag_119:\n        /* \"#utility.yul\":10323:10330   */\n      0x00\n        /* \"#utility.yul\":10352:10357   */\n      dup2\n        /* \"#utility.yul\":10341:10357   */\n      swap1\n      pop\n        /* \"#utility.yul\":10286:10363   */\n      swap2\n      swap1\n      pop\n      jump\t// out\n        /* \"#utility.yul\":10369:10491   */\n    tag_120:\n        /* \"#utility.yul\":10442:10466   */\n      tag_255\n        /* \"#utility.yul\":10460:10465   */\n      dup2\n        /* \"#utility.yul\":10442:10466   */\n      tag_119\n      jump\t// in\n    tag_255:\n        /* \"#utility.yul\":10435:10440   */\n      dup2\n        /* \"#utility.yul\":10432:10467   */\n      eq\n        /* \"#utility.yul\":10422:10485   */\n      tag_256\n      jumpi\n        /* \"#utility.yul\":10481:10482   */\n      0x00\n        /* \"#utility.yul\":10478:10479   */\n      dup1\n        /* \"#utility.yul\":10471:10483   */\n      revert\n        /* \"#utility.yul\":10422:10485   */\n    tag_256:\n        /* \"#utility.yul\":10369:10491   */\n      pop\n      jump\t// out\n        /* \"#utility.yul\":10497:10636   */\n    tag_121:\n        /* \"#utility.yul\":10543:10548   */\n      0x00\n        /* \"#utility.yul\":10581:10587   */\n      dup2\n        /* \"#utility.yul\":10568:10588   */\n      calldataload\n        /* \"#utility.yul\":10559:10588   */\n      swap1\n      pop\n        /* \"#utility.yul\":10597:10630   */\n      tag_258\n        /* \"#utility.yul\":10624:10629   */\n      dup2\n        /* \"#utility.yul\":10597:10630   */\n      tag_120\n      jump\t// in\n    tag_258:\n        /* \"#utility.yul\":10497:10636   */\n      swap3\n      swap2\n      pop\n      pop\n      jump\t// out\n        /* \"#utility.yul\":10678:11259   */\n    tag_122:\n        /* \"#utility.yul\":10756:10761   */\n      0x00\n        /* \"#utility.yul\":10800:10804   */\n      0x40\n        /* \"#utility.yul\":10788:10797   */\n      dup3\n        /* \"#utility.yul\":10783:10786   */\n      dup5\n        /* \"#utility.yul\":10779:10798   */\n      sub\n        /* \"#utility.yul\":10775:10805   */\n      slt\n        /* \"#utility.yul\":10772:10889   */\n      iszero\n      tag_260\n      jumpi\n        /* \"#utility.yul\":10808:10887   */\n      tag_261\n      tag_99\n      jump\t// in\n    tag_261:\n        /* \"#utility.yul\":10772:10889   */\n    tag_260:\n        /* \"#utility.yul\":10907:10928   */\n      tag_262\n        /* \"#utility.yul\":10923:10927   */\n      0x40\n        /* \"#utility.yul\":10907:10928   */\n      tag_103\n      jump\t// in\n    tag_262:\n        /* \"#utility.yul\":10898:10928   */\n      swap1\n      pop\n        /* \"#utility.yul\":10988:10989   */\n      0x00\n        /* \"#utility.yul\":11028:11077   */\n      tag_263\n        /* \"#utility.yul\":11073:11076   */\n      dup5\n        /* \"#utility.yul\":11064:11070   */\n      dup3\n        /* \"#utility.yul\":11053:11062   */\n      dup6\n        /* \"#utility.yul\":11049:11071   */\n      add\n        /* \"#utility.yul\":11028:11077   */\n      tag_87\n      jump\t// in\n    tag_263:\n        /* \"#utility.yul\":11021:11025   */\n      0x00\n        /* \"#utility.yul\":11014:11019   */\n      dup4\n        /* \"#utility.yul\":11010:11026   */\n      add\n        /* \"#utility.yul\":11003:11078   */\n      mstore\n        /* \"#utility.yul\":10938:11089   */\n      pop\n        /* \"#utility.yul\":11150:11152   */\n      0x20\n        /* \"#utility.yul\":11191:11240   */\n      tag_264\n        /* \"#utility.yul\":11236:11239   */\n      dup5\n        /* \"#utility.yul\":11227:11233   */\n      dup3\n        /* \"#utility.yul\":11216:11225   */\n      dup6\n        /* \"#utility.yul\":11212:11234   */\n      add\n        /* \"#utility.yul\":11191:11240   */\n      tag_121\n      jump\t// in\n    tag_264:\n        /* \"#utility.yul\":11184:11188   */\n      0x20\n        /* \"#utility.yul\":11177:11182   */\n      dup4\n        /* \"#utility.yul\":11173:11189   */\n      add\n        /* \"#utility.yul\":11166:11241   */\n      mstore\n        /* \"#utility.yul\":11099:11252   */\n      pop\n        /* \"#utility.yul\":10678:11259   */\n      swap3\n      swap2\n      pop\n      pop\n      jump\t// out\n        /* \"#utility.yul\":11303:12100   */\n    tag_123:\n        /* \"#utility.yul\":11428:11433   */\n      0x00\n        /* \"#utility.yul\":11453:11563   */\n      tag_266\n        /* \"#utility.yul\":11469:11562   */\n      tag_267\n        /* \"#utility.yul\":11555:11561   */\n      dup5\n        /* \"#utility.yul\":11469:11562   */\n      tag_117\n      jump\t// in\n    tag_267:\n        /* \"#utility.yul\":11453:11563   */\n      tag_103\n      jump\t// in\n    tag_266:\n        /* \"#utility.yul\":11444:11563   */\n      swap1\n      pop\n        /* \"#utility.yul\":11583:11588   */\n      dup1\n        /* \"#utility.yul\":11612:11618   */\n      dup4\n        /* \"#utility.yul\":11605:11610   */\n      dup3\n        /* \"#utility.yul\":11598:11619   */\n      mstore\n        /* \"#utility.yul\":11646:11650   */\n      0x20\n        /* \"#utility.yul\":11639:11644   */\n      dup3\n        /* \"#utility.yul\":11635:11651   */\n      add\n        /* \"#utility.yul\":11628:11651   */\n      swap1\n      pop\n        /* \"#utility.yul\":11699:11703   */\n      0x40\n        /* \"#utility.yul\":11691:11697   */\n      dup5\n        /* \"#utility.yul\":11687:11704   */\n      mul\n        /* \"#utility.yul\":11679:11685   */\n      dup4\n        /* \"#utility.yul\":11675:11705   */\n      add\n        /* \"#utility.yul\":11728:11731   */\n      dup6\n        /* \"#utility.yul\":11720:11726   */\n      dup2\n        /* \"#utility.yul\":11717:11732   */\n      gt\n        /* \"#utility.yul\":11714:11836   */\n      iszero\n      tag_268\n      jumpi\n        /* \"#utility.yul\":11747:11826   */\n      tag_269\n      tag_118\n      jump\t// in\n    tag_269:\n        /* \"#utility.yul\":11714:11836   */\n    tag_268:\n        /* \"#utility.yul\":11862:11868   */\n      dup4\n        /* \"#utility.yul\":11845:12094   */\n    tag_270:\n        /* \"#utility.yul\":11879:11885   */\n      dup2\n        /* \"#utility.yul\":11874:11877   */\n      dup2\n        /* \"#utility.yul\":11871:11886   */\n      lt\n        /* \"#utility.yul\":11845:12094   */\n      iszero\n      tag_272\n      jumpi\n        /* \"#utility.yul\":11954:11957   */\n      dup1\n        /* \"#utility.yul\":11983:12049   */\n      tag_273\n        /* \"#utility.yul\":12045:12048   */\n      dup9\n        /* \"#utility.yul\":12033:12043   */\n      dup3\n        /* \"#utility.yul\":11983:12049   */\n      tag_122\n      jump\t// in\n    tag_273:\n        /* \"#utility.yul\":11978:11981   */\n      dup5\n        /* \"#utility.yul\":11971:12050   */\n      mstore\n        /* \"#utility.yul\":12079:12083   */\n      0x20\n        /* \"#utility.yul\":12074:12077   */\n      dup5\n        /* \"#utility.yul\":12070:12084   */\n      add\n        /* \"#utility.yul\":12063:12084   */\n      swap4\n      pop\n        /* \"#utility.yul\":11921:12094   */\n      pop\n        /* \"#utility.yul\":11905:11909   */\n      0x40\n        /* \"#utility.yul\":11900:11903   */\n      dup2\n        /* \"#utility.yul\":11896:11910   */\n      add\n        /* \"#utility.yul\":11889:11910   */\n      swap1\n      pop\n        /* \"#utility.yul\":11845:12094   */\n      jump(tag_270)\n    tag_272:\n        /* \"#utility.yul\":11849:11870   */\n      pop\n        /* \"#utility.yul\":11434:12100   */\n      pop\n      pop\n        /* \"#utility.yul\":11303:12100   */\n      swap4\n      swap3\n      pop\n      pop\n      pop\n      jump\t// out\n        /* \"#utility.yul\":12144:12572   */\n    tag_124:\n        /* \"#utility.yul\":12244:12249   */\n      0x00\n        /* \"#utility.yul\":12293:12296   */\n      dup3\n        /* \"#utility.yul\":12286:12290   */\n      0x1f\n        /* \"#utility.yul\":12278:12284   */\n      dup4\n        /* \"#utility.yul\":12274:12291   */\n      add\n        /* \"#utility.yul\":12270:12297   */\n      slt\n        /* \"#utility.yul\":12260:12382   */\n      tag_275\n      jumpi\n        /* \"#utility.yul\":12301:12380   */\n      tag_276\n      tag_111\n      jump\t// in\n    tag_276:\n        /* \"#utility.yul\":12260:12382   */\n    tag_275:\n        /* \"#utility.yul\":12418:12424   */\n      dup2\n        /* \"#utility.yul\":12405:12425   */\n      calldataload\n        /* \"#utility.yul\":12443:12566   */\n      tag_277\n        /* \"#utility.yul\":12562:12565   */\n      dup5\n        /* \"#utility.yul\":12554:12560   */\n      dup3\n        /* \"#utility.yul\":12547:12551   */\n      0x20\n        /* \"#utility.yul\":12539:12545   */\n      dup7\n        /* \"#utility.yul\":12535:12552   */\n      add\n        /* \"#utility.yul\":12443:12566   */\n      tag_123\n      jump\t// in\n    tag_277:\n        /* \"#utility.yul\":12434:12566   */\n      swap2\n      pop\n        /* \"#utility.yul\":12250:12572   */\n      pop\n        /* \"#utility.yul\":12144:12572   */\n      swap3\n      swap2\n      pop\n      pop\n      jump\t// out\n        /* \"#utility.yul\":12614:14262   */\n    tag_125:\n        /* \"#utility.yul\":12693:12698   */\n      0x00\n        /* \"#utility.yul\":12737:12741   */\n      0xa0\n        /* \"#utility.yul\":12725:12734   */\n      dup3\n        /* \"#utility.yul\":12720:12723   */\n      dup5\n        /* \"#utility.yul\":12716:12735   */\n      sub\n        /* \"#utility.yul\":12712:12742   */\n      slt\n        /* \"#utility.yul\":12709:12826   */\n      iszero\n      tag_279\n      jumpi\n        /* \"#utility.yul\":12745:12824   */\n      tag_280\n      tag_99\n      jump\t// in\n    tag_280:\n        /* \"#utility.yul\":12709:12826   */\n    tag_279:\n        /* \"#utility.yul\":12844:12865   */\n      tag_281\n        /* \"#utility.yul\":12860:12864   */\n      0xa0\n        /* \"#utility.yul\":12844:12865   */\n      tag_103\n      jump\t// in\n    tag_281:\n        /* \"#utility.yul\":12835:12865   */\n      swap1\n      pop\n        /* \"#utility.yul\":12929:12930   */\n      0x00\n        /* \"#utility.yul\":12969:13018   */\n      tag_282\n        /* \"#utility.yul\":13014:13017   */\n      dup5\n        /* \"#utility.yul\":13005:13011   */\n      dup3\n        /* \"#utility.yul\":12994:13003   */\n      dup6\n        /* \"#utility.yul\":12990:13012   */\n      add\n        /* \"#utility.yul\":12969:13018   */\n      tag_107\n      jump\t// in\n    tag_282:\n        /* \"#utility.yul\":12962:12966   */\n      0x00\n        /* \"#utility.yul\":12955:12960   */\n      dup4\n        /* \"#utility.yul\":12951:12967   */\n      add\n        /* \"#utility.yul\":12944:13019   */\n      mstore\n        /* \"#utility.yul\":12875:13030   */\n      pop\n        /* \"#utility.yul\":13104:13106   */\n      0x20\n        /* \"#utility.yul\":13145:13193   */\n      tag_283\n        /* \"#utility.yul\":13189:13192   */\n      dup5\n        /* \"#utility.yul\":13180:13186   */\n      dup3\n        /* \"#utility.yul\":13169:13178   */\n      dup6\n        /* \"#utility.yul\":13165:13187   */\n      add\n        /* \"#utility.yul\":13145:13193   */\n      tag_110\n      jump\t// in\n    tag_283:\n        /* \"#utility.yul\":13138:13142   */\n      0x20\n        /* \"#utility.yul\":13131:13136   */\n      dup4\n        /* \"#utility.yul\":13127:13143   */\n      add\n        /* \"#utility.yul\":13120:13194   */\n      mstore\n        /* \"#utility.yul\":13040:13205   */\n      pop\n        /* \"#utility.yul\":13294:13296   */\n      0x40\n        /* \"#utility.yul\":13283:13292   */\n      dup3\n        /* \"#utility.yul\":13279:13297   */\n      add\n        /* \"#utility.yul\":13266:13298   */\n      calldataload\n        /* \"#utility.yul\":13325:13343   */\n      0xffffffffffffffff\n        /* \"#utility.yul\":13317:13323   */\n      dup2\n        /* \"#utility.yul\":13314:13344   */\n      gt\n        /* \"#utility.yul\":13311:13428   */\n      iszero\n      tag_284\n      jumpi\n        /* \"#utility.yul\":13347:13426   */\n      tag_285\n      tag_104\n      jump\t// in\n    tag_285:\n        /* \"#utility.yul\":13311:13428   */\n    tag_284:\n        /* \"#utility.yul\":13467:13525   */\n      tag_286\n        /* \"#utility.yul\":13521:13524   */\n      dup5\n        /* \"#utility.yul\":13512:13518   */\n      dup3\n        /* \"#utility.yul\":13501:13510   */\n      dup6\n        /* \"#utility.yul\":13497:13519   */\n      add\n        /* \"#utility.yul\":13467:13525   */\n      tag_116\n      jump\t// in\n    tag_286:\n        /* \"#utility.yul\":13460:13464   */\n      0x40\n        /* \"#utility.yul\":13453:13458   */\n      dup4\n        /* \"#utility.yul\":13449:13465   */\n      add\n        /* \"#utility.yul\":13442:13526   */\n      mstore\n        /* \"#utility.yul\":13215:13537   */\n      pop\n        /* \"#utility.yul\":13624:13626   */\n      0x60\n        /* \"#utility.yul\":13613:13622   */\n      dup3\n        /* \"#utility.yul\":13609:13627   */\n      add\n        /* \"#utility.yul\":13596:13628   */\n      calldataload\n        /* \"#utility.yul\":13655:13673   */\n      0xffffffffffffffff\n        /* \"#utility.yul\":13647:13653   */\n      dup2\n        /* \"#utility.yul\":13644:13674   */\n      gt\n        /* \"#utility.yul\":13641:13758   */\n      iszero\n      tag_287\n      jumpi\n        /* \"#utility.yul\":13677:13756   */\n      tag_288\n      tag_104\n      jump\t// in\n    tag_288:\n        /* \"#utility.yul\":13641:13758   */\n    tag_287:\n        /* \"#utility.yul\":13797:13855   */\n      tag_289\n        /* \"#utility.yul\":13851:13854   */\n      dup5\n        /* \"#utility.yul\":13842:13848   */\n      dup3\n        /* \"#utility.yul\":13831:13840   */\n      dup6\n        /* \"#utility.yul\":13827:13849   */\n      add\n        /* \"#utility.yul\":13797:13855   */\n      tag_116\n      jump\t// in\n    tag_289:\n        /* \"#utility.yul\":13790:13794   */\n      0x60\n        /* \"#utility.yul\":13783:13788   */\n      dup4\n        /* \"#utility.yul\":13779:13795   */\n      add\n        /* \"#utility.yul\":13772:13856   */\n      mstore\n        /* \"#utility.yul\":13547:13867   */\n      pop\n        /* \"#utility.yul\":13966:13969   */\n      0x80\n        /* \"#utility.yul\":13955:13964   */\n      dup3\n        /* \"#utility.yul\":13951:13970   */\n      add\n        /* \"#utility.yul\":13938:13971   */\n      calldataload\n        /* \"#utility.yul\":13998:14016   */\n      0xffffffffffffffff\n        /* \"#utility.yul\":13990:13996   */\n      dup2\n        /* \"#utility.yul\":13987:14017   */\n      gt\n        /* \"#utility.yul\":13984:14101   */\n      iszero\n      tag_290\n      jumpi\n        /* \"#utility.yul\":14020:14099   */\n      tag_291\n      tag_104\n      jump\t// in\n    tag_291:\n        /* \"#utility.yul\":13984:14101   */\n    tag_290:\n        /* \"#utility.yul\":14140:14243   */\n      tag_292\n        /* \"#utility.yul\":14239:14242   */\n      dup5\n        /* \"#utility.yul\":14230:14236   */\n      dup3\n        /* \"#utility.yul\":14219:14228   */\n      dup6\n        /* \"#utility.yul\":14215:14237   */\n      add\n        /* \"#utility.yul\":14140:14243   */\n      tag_124\n      jump\t// in\n    tag_292:\n        /* \"#utility.yul\":14133:14137   */\n      0x80\n        /* \"#utility.yul\":14126:14131   */\n      dup4\n        /* \"#utility.yul\":14122:14138   */\n      add\n        /* \"#utility.yul\":14115:14244   */\n      mstore\n        /* \"#utility.yul\":13877:14255   */\n      pop\n        /* \"#utility.yul\":12614:14262   */\n      swap3\n      swap2\n      pop\n      pop\n      jump\t// out\n        /* \"#utility.yul\":14268:14494   */\n    tag_56:\n        /* \"#utility.yul\":14380:14389   */\n      0x00\n        /* \"#utility.yul\":14414:14487   */\n      tag_294\n        /* \"#utility.yul\":14472:14486   */\n      calldatasize\n        /* \"#utility.yul\":14465:14470   */\n      dup4\n        /* \"#utility.yul\":14414:14487   */\n      tag_125\n      jump\t// in\n    tag_294:\n        /* \"#utility.yul\":14401:14487   */\n      swap1\n      pop\n        /* \"#utility.yul\":14268:14494   */\n      swap2\n      swap1\n      pop\n      jump\t// out\n        /* \"#utility.yul\":14500:14658   */\n    tag_126:\n        /* \"#utility.yul\":14558:14567   */\n      0x00\n        /* \"#utility.yul\":14591:14652   */\n      tag_296\n        /* \"#utility.yul\":14609:14651   */\n      tag_297\n        /* \"#utility.yul\":14618:14650   */\n      tag_298\n        /* \"#utility.yul\":14644:14649   */\n      dup5\n        /* \"#utility.yul\":14618:14650   */\n      tag_91\n      jump\t// in\n    tag_298:\n        /* \"#utility.yul\":14609:14651   */\n      tag_80\n      jump\t// in\n    tag_297:\n        /* \"#utility.yul\":14591:14652   */\n      tag_119\n      jump\t// in\n    tag_296:\n        /* \"#utility.yul\":14578:14652   */\n      swap1\n      pop\n        /* \"#utility.yul\":14500:14658   */\n      swap2\n      swap1\n      pop\n      jump\t// out\n        /* \"#utility.yul\":14664:14811   */\n    tag_127:\n        /* \"#utility.yul\":14759:14804   */\n      tag_300\n        /* \"#utility.yul\":14798:14803   */\n      dup2\n        /* \"#utility.yul\":14759:14804   */\n      tag_126\n      jump\t// in\n    tag_300:\n        /* \"#utility.yul\":14754:14757   */\n      dup3\n        /* \"#utility.yul\":14747:14805   */\n      mstore\n        /* \"#utility.yul\":14664:14811   */\n      pop\n      pop\n      jump\t// out\n        /* \"#utility.yul\":14817:15165   */\n    tag_60:\n        /* \"#utility.yul\":14946:14950   */\n      0x00\n        /* \"#utility.yul\":14984:14986   */\n      0x40\n        /* \"#utility.yul\":14973:14982   */\n      dup3\n        /* \"#utility.yul\":14969:14987   */\n      add\n        /* \"#utility.yul\":14961:14987   */\n      swap1\n      pop\n        /* \"#utility.yul\":14997:15068   */\n      tag_302\n        /* \"#utility.yul\":15065:15066   */\n      0x00\n        /* \"#utility.yul\":15054:15063   */\n      dup4\n        /* \"#utility.yul\":15050:15067   */\n      add\n        /* \"#utility.yul\":15041:15047   */\n      dup6\n        /* \"#utility.yul\":14997:15068   */\n      tag_90\n      jump\t// in\n    tag_302:\n        /* \"#utility.yul\":15078:15158   */\n      tag_303\n        /* \"#utility.yul\":15154:15156   */\n      0x20\n        /* \"#utility.yul\":15143:15152   */\n      dup4\n        /* \"#utility.yul\":15139:15157   */\n      add\n        /* \"#utility.yul\":15130:15136   */\n      dup5\n        /* \"#utility.yul\":15078:15158   */\n      tag_127\n      jump\t// in\n    tag_303:\n        /* \"#utility.yul\":14817:15165   */\n      swap4\n      swap3\n      pop\n      pop\n      pop\n      jump\t// out\n\n    auxdata: 0xa264697066735822122002b1965845af116ed860ebfd2391e30bf429cebf89be158a9ae86fdf979254a764736f6c63430008140033\n}\n",
				"bytecode": {
					"linkReferences": {},
					"object": "60a0604052730bf3de8c5d3e8a2b34d2beeb17abfcebaf363a5960015f6101000a81548173ffffffffffffffffffffffffffffffffffffffff021916908373ffffffffffffffffffffffffffffffffffffffff16021790555034801562000064575f80fd5b5060405162000fe738038062000fe783398181016040528101906200008a9190620001ff565b60015f9054906101000a900473ffffffffffffffffffffffffffffffffffffffff165f73ffffffffffffffffffffffffffffffffffffffff168173ffffffffffffffffffffffffffffffffffffffff16036200011f575f6040517fd7f7333400000000000000000000000000000000000000000000000000000000815260040162000116919062000240565b60405180910390fd5b8073ffffffffffffffffffffffffffffffffffffffff1660808173ffffffffffffffffffffffffffffffffffffffff168152505050805f806101000a81548173ffffffffffffffffffffffffffffffffffffffff021916908373ffffffffffffffffffffffffffffffffffffffff160217905550506200025b565b5f80fd5b5f73ffffffffffffffffffffffffffffffffffffffff82169050919050565b5f620001c9826200019e565b9050919050565b620001db81620001bd565b8114620001e6575f80fd5b50565b5f81519050620001f981620001d0565b92915050565b5f602082840312156200021757620002166200019a565b5b5f6200022684828501620001e9565b91505092915050565b6200023a81620001bd565b82525050565b5f602082019050620002555f8301846200022f565b92915050565b608051610d73620002745f395f6104da0152610d735ff3fe608060405234801561000f575f80fd5b506004361061007b575f3560e01c80635be68e93116100595780635be68e93146100d757806385572ffb146100f35780639642ddaf1461010f578063b0f479a1146101195761007b565b806301ffc9a71461007f57806308076601146100af57806347ccca02146100b9575b5f80fd5b61009960048036038101906100949190610629565b610137565b6040516100a6919061066e565b60405180910390f35b6100b7610208565b005b6100c161035d565b6040516100ce9190610701565b60405180910390f35b6100f160048036038101906100ec9190610755565b610380565b005b61010d600480360381019061010891906107a2565b6103c2565b005b61011761044e565b005b6101216104d7565b60405161012e91906107f8565b60405180910390f35b5f7f85572ffb000000000000000000000000000000000000000000000000000000007bffffffffffffffffffffffffffffffffffffffffffffffffffffffff1916827bffffffffffffffffffffffffffffffffffffffffffffffffffffffff1916148061020157507f01ffc9a7000000000000000000000000000000000000000000000000000000007bffffffffffffffffffffffffffffffffffffffffffffffffffffffff1916827bffffffffffffffffffffffffffffffffffffffffffffffffffffffff1916145b9050919050565b6060335f60405160240161021d929190610856565b6040516020818303038152906040527f1cc74859000000000000000000000000000000000000000000000000000000007bffffffffffffffffffffffffffffffffffffffffffffffffffffffff19166020820180517bffffffffffffffffffffffffffffffffffffffffffffffffffffffff838183161783525050505090505f805f9054906101000a900473ffffffffffffffffffffffffffffffffffffffff1673ffffffffffffffffffffffffffffffffffffffff16826040516102e291906108e9565b5f604051808303815f865af19150503d805f811461031b576040519150601f19603f3d011682016040523d82523d5f602084013e610320565b606091505b505090508061032d575f80fd5b7fa8bcb6a278444293ea5c0bce4a4734a060a5f557bb999d8a57c4f69e96f1fe8860405160405180910390a15050565b5f8054906101000a900473ffffffffffffffffffffffffffffffffffffffff1681565b805f806101000a81548173ffffffffffffffffffffffffffffffffffffffff021916908373ffffffffffffffffffffffffffffffffffffffff16021790555050565b6103ca6104d7565b73ffffffffffffffffffffffffffffffffffffffff163373ffffffffffffffffffffffffffffffffffffffff161461043957336040517fd7f7333400000000000000000000000000000000000000000000000000000000815260040161043091906107f8565b60405180910390fd5b61044b8161044690610cd4565b6104fe565b50565b5f8054906101000a900473ffffffffffffffffffffffffffffffffffffffff1673ffffffffffffffffffffffffffffffffffffffff16631cc74859335f6040518363ffffffff1660e01b81526004016104a8929190610d16565b5f604051808303815f87803b1580156104bf575f80fd5b505af11580156104d1573d5f803e3d5ffd5b50505050565b5f7f0000000000000000000000000000000000000000000000000000000000000000905090565b5f805f9054906101000a900473ffffffffffffffffffffffffffffffffffffffff1673ffffffffffffffffffffffffffffffffffffffff16826060015160405161054891906108e9565b5f604051808303815f865af19150503d805f8114610581576040519150601f19603f3d011682016040523d82523d5f602084013e610586565b606091505b5050905080610593575f80fd5b7fa8bcb6a278444293ea5c0bce4a4734a060a5f557bb999d8a57c4f69e96f1fe8860405160405180910390a15050565b5f604051905090565b5f80fd5b5f80fd5b5f7fffffffff0000000000000000000000000000000000000000000000000000000082169050919050565b610608816105d4565b8114610612575f80fd5b50565b5f81359050610623816105ff565b92915050565b5f6020828403121561063e5761063d6105cc565b5b5f61064b84828501610615565b91505092915050565b5f8115159050919050565b61066881610654565b82525050565b5f6020820190506106815f83018461065f565b92915050565b5f73ffffffffffffffffffffffffffffffffffffffff82169050919050565b5f819050919050565b5f6106c96106c46106bf84610687565b6106a6565b610687565b9050919050565b5f6106da826106af565b9050919050565b5f6106eb826106d0565b9050919050565b6106fb816106e1565b82525050565b5f6020820190506107145f8301846106f2565b92915050565b5f61072482610687565b9050919050565b6107348161071a565b811461073e575f80fd5b50565b5f8135905061074f8161072b565b92915050565b5f6020828403121561076a576107696105cc565b5b5f61077784828501610741565b91505092915050565b5f80fd5b5f60a0828403121561079957610798610780565b5b81905092915050565b5f602082840312156107b7576107b66105cc565b5b5f82013567ffffffffffffffff8111156107d4576107d36105d0565b5b6107e084828501610784565b91505092915050565b6107f28161071a565b82525050565b5f60208201905061080b5f8301846107e9565b92915050565b5f819050919050565b5f60ff82169050919050565b5f61084061083b61083684610811565b6106a6565b61081a565b9050919050565b61085081610826565b82525050565b5f6040820190506108695f8301856107e9565b6108766020830184610847565b9392505050565b5f81519050919050565b5f81905092915050565b5f5b838110156108ae578082015181840152602081019050610893565b5f8484015250505050565b5f6108c38261087d565b6108cd8185610887565b93506108dd818560208601610891565b80840191505092915050565b5f6108f482846108b9565b915081905092915050565b5f80fd5b5f601f19601f8301169050919050565b7f4e487b71000000000000000000000000000000000000000000000000000000005f52604160045260245ffd5b61094982610903565b810181811067ffffffffffffffff8211171561096857610967610913565b5b80604052505050565b5f61097a6105c3565b90506109868282610940565b919050565b5f80fd5b5f819050919050565b6109a18161098f565b81146109ab575f80fd5b50565b5f813590506109bc81610998565b92915050565b5f67ffffffffffffffff82169050919050565b6109de816109c2565b81146109e8575f80fd5b50565b5f813590506109f9816109d5565b92915050565b5f80fd5b5f80fd5b5f67ffffffffffffffff821115610a2157610a20610913565b5b610a2a82610903565b9050602081019050919050565b828183375f83830152505050565b5f610a57610a5284610a07565b610971565b905082815260208101848484011115610a7357610a72610a03565b5b610a7e848285610a37565b509392505050565b5f82601f830112610a9a57610a996109ff565b5b8135610aaa848260208601610a45565b91505092915050565b5f67ffffffffffffffff821115610acd57610acc610913565b5b602082029050602081019050919050565b5f80fd5b5f819050919050565b610af481610ae2565b8114610afe575f80fd5b50565b5f81359050610b0f81610aeb565b92915050565b5f60408284031215610b2a57610b296108ff565b5b610b346040610971565b90505f610b4384828501610741565b5f830152506020610b5684828501610b01565b60208301525092915050565b5f610b74610b6f84610ab3565b610971565b90508083825260208201905060408402830185811115610b9757610b96610ade565b5b835b81811015610bc05780610bac8882610b15565b845260208401935050604081019050610b99565b5050509392505050565b5f82601f830112610bde57610bdd6109ff565b5b8135610bee848260208601610b62565b91505092915050565b5f60a08284031215610c0c57610c0b6108ff565b5b610c1660a0610971565b90505f610c25848285016109ae565b5f830152506020610c38848285016109eb565b602083015250604082013567ffffffffffffffff811115610c5c57610c5b61098b565b5b610c6884828501610a86565b604083015250606082013567ffffffffffffffff811115610c8c57610c8b61098b565b5b610c9884828501610a86565b606083015250608082013567ffffffffffffffff811115610cbc57610cbb61098b565b5b610cc884828501610bca565b60808301525092915050565b5f610cdf3683610bf7565b9050919050565b5f610d00610cfb610cf684610811565b6106a6565b610ae2565b9050919050565b610d1081610ce6565b82525050565b5f604082019050610d295f8301856107e9565b610d366020830184610d07565b939250505056fea264697066735822122002b1965845af116ed860ebfd2391e30bf429cebf89be158a9ae86fdf979254a764736f6c63430008140033",
					"opcodes": "PUSH1 0xA0 PUSH1 0x40 MSTORE PUSH20 0xBF3DE8C5D3E8A2B34D2BEEB17ABFCEBAF363A59 PUSH1 0x1 PUSH0 PUSH2 0x100 EXP DUP2 SLOAD DUP2 PUSH20 0xFFFFFFFFFFFFFFFFFFFFFFFFFFFFFFFFFFFFFFFF MUL NOT AND SWAP1 DUP4 PUSH20 0xFFFFFFFFFFFFFFFFFFFFFFFFFFFFFFFFFFFFFFFF AND MUL OR SWAP1 SSTORE POP CALLVALUE DUP1 ISZERO PUSH3 0x64 JUMPI PUSH0 DUP1 REVERT JUMPDEST POP PUSH1 0x40 MLOAD PUSH3 0xFE7 CODESIZE SUB DUP1 PUSH3 0xFE7 DUP4 CODECOPY DUP2 DUP2 ADD PUSH1 0x40 MSTORE DUP2 ADD SWAP1 PUSH3 0x8A SWAP2 SWAP1 PUSH3 0x1FF JUMP JUMPDEST PUSH1 0x1 PUSH0 SWAP1 SLOAD SWAP1 PUSH2 0x100 EXP SWAP1 DIV PUSH20 0xFFFFFFFFFFFFFFFFFFFFFFFFFFFFFFFFFFFFFFFF AND PUSH0 PUSH20 0xFFFFFFFFFFFFFFFFFFFFFFFFFFFFFFFFFFFFFFFF AND DUP2 PUSH20 0xFFFFFFFFFFFFFFFFFFFFFFFFFFFFFFFFFFFFFFFF AND SUB PUSH3 0x11F JUMPI PUSH0 PUSH1 0x40 MLOAD PUSH32 0xD7F7333400000000000000000000000000000000000000000000000000000000 DUP2 MSTORE PUSH1 0x4 ADD PUSH3 0x116 SWAP2 SWAP1 PUSH3 0x240 JUMP JUMPDEST PUSH1 0x40 MLOAD DUP1 SWAP2 SUB SWAP1 REVERT JUMPDEST DUP1 PUSH20 0xFFFFFFFFFFFFFFFFFFFFFFFFFFFFFFFFFFFFFFFF AND PUSH1 0x80 DUP2 PUSH20 0xFFFFFFFFFFFFFFFFFFFFFFFFFFFFFFFFFFFFFFFF AND DUP2 MSTORE POP POP POP DUP1 PUSH0 DUP1 PUSH2 0x100 EXP DUP2 SLOAD DUP2 PUSH20 0xFFFFFFFFFFFFFFFFFFFFFFFFFFFFFFFFFFFFFFFF MUL NOT AND SWAP1 DUP4 PUSH20 0xFFFFFFFFFFFFFFFFFFFFFFFFFFFFFFFFFFFFFFFF AND MUL OR SWAP1 SSTORE POP POP PUSH3 0x25B JUMP JUMPDEST PUSH0 DUP1 REVERT JUMPDEST PUSH0 PUSH20 0xFFFFFFFFFFFFFFFFFFFFFFFFFFFFFFFFFFFFFFFF DUP3 AND SWAP1 POP SWAP2 SWAP1 POP JUMP JUMPDEST PUSH0 PUSH3 0x1C9 DUP3 PUSH3 0x19E JUMP JUMPDEST SWAP1 POP SWAP2 SWAP1 POP JUMP JUMPDEST PUSH3 0x1DB DUP2 PUSH3 0x1BD JUMP JUMPDEST DUP2 EQ PUSH3 0x1E6 JUMPI PUSH0 DUP1 REVERT JUMPDEST POP JUMP JUMPDEST PUSH0 DUP2 MLOAD SWAP1 POP PUSH3 0x1F9 DUP2 PUSH3 0x1D0 JUMP JUMPDEST SWAP3 SWAP2 POP POP JUMP JUMPDEST PUSH0 PUSH1 0x20 DUP3 DUP5 SUB SLT ISZERO PUSH3 0x217 JUMPI PUSH3 0x216 PUSH3 0x19A JUMP JUMPDEST JUMPDEST PUSH0 PUSH3 0x226 DUP5 DUP3 DUP6 ADD PUSH3 0x1E9 JUMP JUMPDEST SWAP2 POP POP SWAP3 SWAP2 POP POP JUMP JUMPDEST PUSH3 0x23A DUP2 PUSH3 0x1BD JUMP JUMPDEST DUP3 MSTORE POP POP JUMP JUMPDEST PUSH0 PUSH1 0x20 DUP3 ADD SWAP1 POP PUSH3 0x255 PUSH0 DUP4 ADD DUP5 PUSH3 0x22F JUMP JUMPDEST SWAP3 SWAP2 POP POP JUMP JUMPDEST PUSH1 0x80 MLOAD PUSH2 0xD73 PUSH3 0x274 PUSH0 CODECOPY PUSH0 PUSH2 0x4DA ADD MSTORE PUSH2 0xD73 PUSH0 RETURN INVALID PUSH1 0x80 PUSH1 0x40 MSTORE CALLVALUE DUP1 ISZERO PUSH2 0xF JUMPI PUSH0 DUP1 REVERT JUMPDEST POP PUSH1 0x4 CALLDATASIZE LT PUSH2 0x7B JUMPI PUSH0 CALLDATALOAD PUSH1 0xE0 SHR DUP1 PUSH4 0x5BE68E93 GT PUSH2 0x59 JUMPI DUP1 PUSH4 0x5BE68E93 EQ PUSH2 0xD7 JUMPI DUP1 PUSH4 0x85572FFB EQ PUSH2 0xF3 JUMPI DUP1 PUSH4 0x9642DDAF EQ PUSH2 0x10F JUMPI DUP1 PUSH4 0xB0F479A1 EQ PUSH2 0x119 JUMPI PUSH2 0x7B JUMP JUMPDEST DUP1 PUSH4 0x1FFC9A7 EQ PUSH2 0x7F JUMPI DUP1 PUSH4 0x8076601 EQ PUSH2 0xAF JUMPI DUP1 PUSH4 0x47CCCA02 EQ PUSH2 0xB9 JUMPI JUMPDEST PUSH0 DUP1 REVERT JUMPDEST PUSH2 0x99 PUSH1 0x4 DUP1 CALLDATASIZE SUB DUP2 ADD SWAP1 PUSH2 0x94 SWAP2 SWAP1 PUSH2 0x629 JUMP JUMPDEST PUSH2 0x137 JUMP JUMPDEST PUSH1 0x40 MLOAD PUSH2 0xA6 SWAP2 SWAP1 PUSH2 0x66E JUMP JUMPDEST PUSH1 0x40 MLOAD DUP1 SWAP2 SUB SWAP1 RETURN JUMPDEST PUSH2 0xB7 PUSH2 0x208 JUMP JUMPDEST STOP JUMPDEST PUSH2 0xC1 PUSH2 0x35D JUMP JUMPDEST PUSH1 0x40 MLOAD PUSH2 0xCE SWAP2 SWAP1 PUSH2 0x701 JUMP JUMPDEST PUSH1 0x40 MLOAD DUP1 SWAP2 SUB SWAP1 RETURN JUMPDEST PUSH2 0xF1 PUSH1 0x4 DUP1 CALLDATASIZE SUB DUP2 ADD SWAP1 PUSH2 0xEC SWAP2 SWAP1 PUSH2 0x755 JUMP JUMPDEST PUSH2 0x380 JUMP JUMPDEST STOP JUMPDEST PUSH2 0x10D PUSH1 0x4 DUP1 CALLDATASIZE SUB DUP2 ADD SWAP1 PUSH2 0x108 SWAP2 SWAP1 PUSH2 0x7A2 JUMP JUMPDEST PUSH2 0x3C2 JUMP JUMPDEST STOP JUMPDEST PUSH2 0x117 PUSH2 0x44E JUMP JUMPDEST STOP JUMPDEST PUSH2 0x121 PUSH2 0x4D7 JUMP JUMPDEST PUSH1 0x40 MLOAD PUSH2 0x12E SWAP2 SWAP1 PUSH2 0x7F8 JUMP JUMPDEST PUSH1 0x40 MLOAD DUP1 SWAP2 SUB SWAP1 RETURN JUMPDEST PUSH0 PUSH32 0x85572FFB00000000000000000000000000000000000000000000000000000000 PUSH28 0xFFFFFFFFFFFFFFFFFFFFFFFFFFFFFFFFFFFFFFFFFFFFFFFFFFFFFFFF NOT AND DUP3 PUSH28 0xFFFFFFFFFFFFFFFFFFFFFFFFFFFFFFFFFFFFFFFFFFFFFFFFFFFFFFFF NOT AND EQ DUP1 PUSH2 0x201 JUMPI POP PUSH32 0x1FFC9A700000000000000000000000000000000000000000000000000000000 PUSH28 0xFFFFFFFFFFFFFFFFFFFFFFFFFFFFFFFFFFFFFFFFFFFFFFFFFFFFFFFF NOT AND DUP3 PUSH28 0xFFFFFFFFFFFFFFFFFFFFFFFFFFFFFFFFFFFFFFFFFFFFFFFFFFFFFFFF NOT AND EQ JUMPDEST SWAP1 POP SWAP2 SWAP1 POP JUMP JUMPDEST PUSH1 0x60 CALLER PUSH0 PUSH1 0x40 MLOAD PUSH1 0x24 ADD PUSH2 0x21D SWAP3 SWAP2 SWAP1 PUSH2 0x856 JUMP JUMPDEST PUSH1 0x40 MLOAD PUSH1 0x20 DUP2 DUP4 SUB SUB DUP2 MSTORE SWAP1 PUSH1 0x40 MSTORE PUSH32 0x1CC7485900000000000000000000000000000000000000000000000000000000 PUSH28 0xFFFFFFFFFFFFFFFFFFFFFFFFFFFFFFFFFFFFFFFFFFFFFFFFFFFFFFFF NOT AND PUSH1 0x20 DUP3 ADD DUP1 MLOAD PUSH28 0xFFFFFFFFFFFFFFFFFFFFFFFFFFFFFFFFFFFFFFFFFFFFFFFFFFFFFFFF DUP4 DUP2 DUP4 AND OR DUP4 MSTORE POP POP POP POP SWAP1 POP PUSH0 DUP1 PUSH0 SWAP1 SLOAD SWAP1 PUSH2 0x100 EXP SWAP1 DIV PUSH20 0xFFFFFFFFFFFFFFFFFFFFFFFFFFFFFFFFFFFFFFFF AND PUSH20 0xFFFFFFFFFFFFFFFFFFFFFFFFFFFFFFFFFFFFFFFF AND DUP3 PUSH1 0x40 MLOAD PUSH2 0x2E2 SWAP2 SWAP1 PUSH2 0x8E9 JUMP JUMPDEST PUSH0 PUSH1 0x40 MLOAD DUP1 DUP4 SUB DUP2 PUSH0 DUP7 GAS CALL SWAP2 POP POP RETURNDATASIZE DUP1 PUSH0 DUP2 EQ PUSH2 0x31B JUMPI PUSH1 0x40 MLOAD SWAP2 POP PUSH1 0x1F NOT PUSH1 0x3F RETURNDATASIZE ADD AND DUP3 ADD PUSH1 0x40 MSTORE RETURNDATASIZE DUP3 MSTORE RETURNDATASIZE PUSH0 PUSH1 0x20 DUP5 ADD RETURNDATACOPY PUSH2 0x320 JUMP JUMPDEST PUSH1 0x60 SWAP2 POP JUMPDEST POP POP SWAP1 POP DUP1 PUSH2 0x32D JUMPI PUSH0 DUP1 REVERT JUMPDEST PUSH32 0xA8BCB6A278444293EA5C0BCE4A4734A060A5F557BB999D8A57C4F69E96F1FE88 PUSH1 0x40 MLOAD PUSH1 0x40 MLOAD DUP1 SWAP2 SUB SWAP1 LOG1 POP POP JUMP JUMPDEST PUSH0 DUP1 SLOAD SWAP1 PUSH2 0x100 EXP SWAP1 DIV PUSH20 0xFFFFFFFFFFFFFFFFFFFFFFFFFFFFFFFFFFFFFFFF AND DUP2 JUMP JUMPDEST DUP1 PUSH0 DUP1 PUSH2 0x100 EXP DUP2 SLOAD DUP2 PUSH20 0xFFFFFFFFFFFFFFFFFFFFFFFFFFFFFFFFFFFFFFFF MUL NOT AND SWAP1 DUP4 PUSH20 0xFFFFFFFFFFFFFFFFFFFFFFFFFFFFFFFFFFFFFFFF AND MUL OR SWAP1 SSTORE POP POP JUMP JUMPDEST PUSH2 0x3CA PUSH2 0x4D7 JUMP JUMPDEST PUSH20 0xFFFFFFFFFFFFFFFFFFFFFFFFFFFFFFFFFFFFFFFF AND CALLER PUSH20 0xFFFFFFFFFFFFFFFFFFFFFFFFFFFFFFFFFFFFFFFF AND EQ PUSH2 0x439 JUMPI CALLER PUSH1 0x40 MLOAD PUSH32 0xD7F7333400000000000000000000000000000000000000000000000000000000 DUP2 MSTORE PUSH1 0x4 ADD PUSH2 0x430 SWAP2 SWAP1 PUSH2 0x7F8 JUMP JUMPDEST PUSH1 0x40 MLOAD DUP1 SWAP2 SUB SWAP1 REVERT JUMPDEST PUSH2 0x44B DUP2 PUSH2 0x446 SWAP1 PUSH2 0xCD4 JUMP JUMPDEST PUSH2 0x4FE JUMP JUMPDEST POP JUMP JUMPDEST PUSH0 DUP1 SLOAD SWAP1 PUSH2 0x100 EXP SWAP1 DIV PUSH20 0xFFFFFFFFFFFFFFFFFFFFFFFFFFFFFFFFFFFFFFFF AND PUSH20 0xFFFFFFFFFFFFFFFFFFFFFFFFFFFFFFFFFFFFFFFF AND PUSH4 0x1CC74859 CALLER PUSH0 PUSH1 0x40 MLOAD DUP4 PUSH4 0xFFFFFFFF AND PUSH1 0xE0 SHL DUP2 MSTORE PUSH1 0x4 ADD PUSH2 0x4A8 SWAP3 SWAP2 SWAP1 PUSH2 0xD16 JUMP JUMPDEST PUSH0 PUSH1 0x40 MLOAD DUP1 DUP4 SUB DUP2 PUSH0 DUP8 DUP1 EXTCODESIZE ISZERO DUP1 ISZERO PUSH2 0x4BF JUMPI PUSH0 DUP1 REVERT JUMPDEST POP GAS CALL ISZERO DUP1 ISZERO PUSH2 0x4D1 JUMPI RETURNDATASIZE PUSH0 DUP1 RETURNDATACOPY RETURNDATASIZE PUSH0 REVERT JUMPDEST POP POP POP POP JUMP JUMPDEST PUSH0 PUSH32 0x0 SWAP1 POP SWAP1 JUMP JUMPDEST PUSH0 DUP1 PUSH0 SWAP1 SLOAD SWAP1 PUSH2 0x100 EXP SWAP1 DIV PUSH20 0xFFFFFFFFFFFFFFFFFFFFFFFFFFFFFFFFFFFFFFFF AND PUSH20 0xFFFFFFFFFFFFFFFFFFFFFFFFFFFFFFFFFFFFFFFF AND DUP3 PUSH1 0x60 ADD MLOAD PUSH1 0x40 MLOAD PUSH2 0x548 SWAP2 SWAP1 PUSH2 0x8E9 JUMP JUMPDEST PUSH0 PUSH1 0x40 MLOAD DUP1 DUP4 SUB DUP2 PUSH0 DUP7 GAS CALL SWAP2 POP POP RETURNDATASIZE DUP1 PUSH0 DUP2 EQ PUSH2 0x581 JUMPI PUSH1 0x40 MLOAD SWAP2 POP PUSH1 0x1F NOT PUSH1 0x3F RETURNDATASIZE ADD AND DUP3 ADD PUSH1 0x40 MSTORE RETURNDATASIZE DUP3 MSTORE RETURNDATASIZE PUSH0 PUSH1 0x20 DUP5 ADD RETURNDATACOPY PUSH2 0x586 JUMP JUMPDEST PUSH1 0x60 SWAP2 POP JUMPDEST POP POP SWAP1 POP DUP1 PUSH2 0x593 JUMPI PUSH0 DUP1 REVERT JUMPDEST PUSH32 0xA8BCB6A278444293EA5C0BCE4A4734A060A5F557BB999D8A57C4F69E96F1FE88 PUSH1 0x40 MLOAD PUSH1 0x40 MLOAD DUP1 SWAP2 SUB SWAP1 LOG1 POP POP JUMP JUMPDEST PUSH0 PUSH1 0x40 MLOAD SWAP1 POP SWAP1 JUMP JUMPDEST PUSH0 DUP1 REVERT JUMPDEST PUSH0 DUP1 REVERT JUMPDEST PUSH0 PUSH32 0xFFFFFFFF00000000000000000000000000000000000000000000000000000000 DUP3 AND SWAP1 POP SWAP2 SWAP1 POP JUMP JUMPDEST PUSH2 0x608 DUP2 PUSH2 0x5D4 JUMP JUMPDEST DUP2 EQ PUSH2 0x612 JUMPI PUSH0 DUP1 REVERT JUMPDEST POP JUMP JUMPDEST PUSH0 DUP2 CALLDATALOAD SWAP1 POP PUSH2 0x623 DUP2 PUSH2 0x5FF JUMP JUMPDEST SWAP3 SWAP2 POP POP JUMP JUMPDEST PUSH0 PUSH1 0x20 DUP3 DUP5 SUB SLT ISZERO PUSH2 0x63E JUMPI PUSH2 0x63D PUSH2 0x5CC JUMP JUMPDEST JUMPDEST PUSH0 PUSH2 0x64B DUP5 DUP3 DUP6 ADD PUSH2 0x615 JUMP JUMPDEST SWAP2 POP POP SWAP3 SWAP2 POP POP JUMP JUMPDEST PUSH0 DUP2 ISZERO ISZERO SWAP1 POP SWAP2 SWAP1 POP JUMP JUMPDEST PUSH2 0x668 DUP2 PUSH2 0x654 JUMP JUMPDEST DUP3 MSTORE POP POP JUMP JUMPDEST PUSH0 PUSH1 0x20 DUP3 ADD SWAP1 POP PUSH2 0x681 PUSH0 DUP4 ADD DUP5 PUSH2 0x65F JUMP JUMPDEST SWAP3 SWAP2 POP POP JUMP JUMPDEST PUSH0 PUSH20 0xFFFFFFFFFFFFFFFFFFFFFFFFFFFFFFFFFFFFFFFF DUP3 AND SWAP1 POP SWAP2 SWAP1 POP JUMP JUMPDEST PUSH0 DUP2 SWAP1 POP SWAP2 SWAP1 POP JUMP JUMPDEST PUSH0 PUSH2 0x6C9 PUSH2 0x6C4 PUSH2 0x6BF DUP5 PUSH2 0x687 JUMP JUMPDEST PUSH2 0x6A6 JUMP JUMPDEST PUSH2 0x687 JUMP JUMPDEST SWAP1 POP SWAP2 SWAP1 POP JUMP JUMPDEST PUSH0 PUSH2 0x6DA DUP3 PUSH2 0x6AF JUMP JUMPDEST SWAP1 POP SWAP2 SWAP1 POP JUMP JUMPDEST PUSH0 PUSH2 0x6EB DUP3 PUSH2 0x6D0 JUMP JUMPDEST SWAP1 POP SWAP2 SWAP1 POP JUMP JUMPDEST PUSH2 0x6FB DUP2 PUSH2 0x6E1 JUMP JUMPDEST DUP3 MSTORE POP POP JUMP JUMPDEST PUSH0 PUSH1 0x20 DUP3 ADD SWAP1 POP PUSH2 0x714 PUSH0 DUP4 ADD DUP5 PUSH2 0x6F2 JUMP JUMPDEST SWAP3 SWAP2 POP POP JUMP JUMPDEST PUSH0 PUSH2 0x724 DUP3 PUSH2 0x687 JUMP JUMPDEST SWAP1 POP SWAP2 SWAP1 POP JUMP JUMPDEST PUSH2 0x734 DUP2 PUSH2 0x71A JUMP JUMPDEST DUP2 EQ PUSH2 0x73E JUMPI PUSH0 DUP1 REVERT JUMPDEST POP JUMP JUMPDEST PUSH0 DUP2 CALLDATALOAD SWAP1 POP PUSH2 0x74F DUP2 PUSH2 0x72B JUMP JUMPDEST SWAP3 SWAP2 POP POP JUMP JUMPDEST PUSH0 PUSH1 0x20 DUP3 DUP5 SUB SLT ISZERO PUSH2 0x76A JUMPI PUSH2 0x769 PUSH2 0x5CC JUMP JUMPDEST JUMPDEST PUSH0 PUSH2 0x777 DUP5 DUP3 DUP6 ADD PUSH2 0x741 JUMP JUMPDEST SWAP2 POP POP SWAP3 SWAP2 POP POP JUMP JUMPDEST PUSH0 DUP1 REVERT JUMPDEST PUSH0 PUSH1 0xA0 DUP3 DUP5 SUB SLT ISZERO PUSH2 0x799 JUMPI PUSH2 0x798 PUSH2 0x780 JUMP JUMPDEST JUMPDEST DUP2 SWAP1 POP SWAP3 SWAP2 POP POP JUMP JUMPDEST PUSH0 PUSH1 0x20 DUP3 DUP5 SUB SLT ISZERO PUSH2 0x7B7 JUMPI PUSH2 0x7B6 PUSH2 0x5CC JUMP JUMPDEST JUMPDEST PUSH0 DUP3 ADD CALLDATALOAD PUSH8 0xFFFFFFFFFFFFFFFF DUP2 GT ISZERO PUSH2 0x7D4 JUMPI PUSH2 0x7D3 PUSH2 0x5D0 JUMP JUMPDEST JUMPDEST PUSH2 0x7E0 DUP5 DUP3 DUP6 ADD PUSH2 0x784 JUMP JUMPDEST SWAP2 POP POP SWAP3 SWAP2 POP POP JUMP JUMPDEST PUSH2 0x7F2 DUP2 PUSH2 0x71A JUMP JUMPDEST DUP3 MSTORE POP POP JUMP JUMPDEST PUSH0 PUSH1 0x20 DUP3 ADD SWAP1 POP PUSH2 0x80B PUSH0 DUP4 ADD DUP5 PUSH2 0x7E9 JUMP JUMPDEST SWAP3 SWAP2 POP POP JUMP JUMPDEST PUSH0 DUP2 SWAP1 POP SWAP2 SWAP1 POP JUMP JUMPDEST PUSH0 PUSH1 0xFF DUP3 AND SWAP1 POP SWAP2 SWAP1 POP JUMP JUMPDEST PUSH0 PUSH2 0x840 PUSH2 0x83B PUSH2 0x836 DUP5 PUSH2 0x811 JUMP JUMPDEST PUSH2 0x6A6 JUMP JUMPDEST PUSH2 0x81A JUMP JUMPDEST SWAP1 POP SWAP2 SWAP1 POP JUMP JUMPDEST PUSH2 0x850 DUP2 PUSH2 0x826 JUMP JUMPDEST DUP3 MSTORE POP POP JUMP JUMPDEST PUSH0 PUSH1 0x40 DUP3 ADD SWAP1 POP PUSH2 0x869 PUSH0 DUP4 ADD DUP6 PUSH2 0x7E9 JUMP JUMPDEST PUSH2 0x876 PUSH1 0x20 DUP4 ADD DUP5 PUSH2 0x847 JUMP JUMPDEST SWAP4 SWAP3 POP POP POP JUMP JUMPDEST PUSH0 DUP2 MLOAD SWAP1 POP SWAP2 SWAP1 POP JUMP JUMPDEST PUSH0 DUP2 SWAP1 POP SWAP3 SWAP2 POP POP JUMP JUMPDEST PUSH0 JUMPDEST DUP4 DUP2 LT ISZERO PUSH2 0x8AE JUMPI DUP1 DUP3 ADD MLOAD DUP2 DUP5 ADD MSTORE PUSH1 0x20 DUP2 ADD SWAP1 POP PUSH2 0x893 JUMP JUMPDEST PUSH0 DUP5 DUP5 ADD MSTORE POP POP POP POP JUMP JUMPDEST PUSH0 PUSH2 0x8C3 DUP3 PUSH2 0x87D JUMP JUMPDEST PUSH2 0x8CD DUP2 DUP6 PUSH2 0x887 JUMP JUMPDEST SWAP4 POP PUSH2 0x8DD DUP2 DUP6 PUSH1 0x20 DUP7 ADD PUSH2 0x891 JUMP JUMPDEST DUP1 DUP5 ADD SWAP2 POP POP SWAP3 SWAP2 POP POP JUMP JUMPDEST PUSH0 PUSH2 0x8F4 DUP3 DUP5 PUSH2 0x8B9 JUMP JUMPDEST SWAP2 POP DUP2 SWAP1 POP SWAP3 SWAP2 POP POP JUMP JUMPDEST PUSH0 DUP1 REVERT JUMPDEST PUSH0 PUSH1 0x1F NOT PUSH1 0x1F DUP4 ADD AND SWAP1 POP SWAP2 SWAP1 POP JUMP JUMPDEST PUSH32 0x4E487B7100000000000000000000000000000000000000000000000000000000 PUSH0 MSTORE PUSH1 0x41 PUSH1 0x4 MSTORE PUSH1 0x24 PUSH0 REVERT JUMPDEST PUSH2 0x949 DUP3 PUSH2 0x903 JUMP JUMPDEST DUP2 ADD DUP2 DUP2 LT PUSH8 0xFFFFFFFFFFFFFFFF DUP3 GT OR ISZERO PUSH2 0x968 JUMPI PUSH2 0x967 PUSH2 0x913 JUMP JUMPDEST JUMPDEST DUP1 PUSH1 0x40 MSTORE POP POP POP JUMP JUMPDEST PUSH0 PUSH2 0x97A PUSH2 0x5C3 JUMP JUMPDEST SWAP1 POP PUSH2 0x986 DUP3 DUP3 PUSH2 0x940 JUMP JUMPDEST SWAP2 SWAP1 POP JUMP JUMPDEST PUSH0 DUP1 REVERT JUMPDEST PUSH0 DUP2 SWAP1 POP SWAP2 SWAP1 POP JUMP JUMPDEST PUSH2 0x9A1 DUP2 PUSH2 0x98F JUMP JUMPDEST DUP2 EQ PUSH2 0x9AB JUMPI PUSH0 DUP1 REVERT JUMPDEST POP JUMP JUMPDEST PUSH0 DUP2 CALLDATALOAD SWAP1 POP PUSH2 0x9BC DUP2 PUSH2 0x998 JUMP JUMPDEST SWAP3 SWAP2 POP POP JUMP JUMPDEST PUSH0 PUSH8 0xFFFFFFFFFFFFFFFF DUP3 AND SWAP1 POP SWAP2 SWAP1 POP JUMP JUMPDEST PUSH2 0x9DE DUP2 PUSH2 0x9C2 JUMP JUMPDEST DUP2 EQ PUSH2 0x9E8 JUMPI PUSH0 DUP1 REVERT JUMPDEST POP JUMP JUMPDEST PUSH0 DUP2 CALLDATALOAD SWAP1 POP PUSH2 0x9F9 DUP2 PUSH2 0x9D5 JUMP JUMPDEST SWAP3 SWAP2 POP POP JUMP JUMPDEST PUSH0 DUP1 REVERT JUMPDEST PUSH0 DUP1 REVERT JUMPDEST PUSH0 PUSH8 0xFFFFFFFFFFFFFFFF DUP3 GT ISZERO PUSH2 0xA21 JUMPI PUSH2 0xA20 PUSH2 0x913 JUMP JUMPDEST JUMPDEST PUSH2 0xA2A DUP3 PUSH2 0x903 JUMP JUMPDEST SWAP1 POP PUSH1 0x20 DUP2 ADD SWAP1 POP SWAP2 SWAP1 POP JUMP JUMPDEST DUP3 DUP2 DUP4 CALLDATACOPY PUSH0 DUP4 DUP4 ADD MSTORE POP POP POP JUMP JUMPDEST PUSH0 PUSH2 0xA57 PUSH2 0xA52 DUP5 PUSH2 0xA07 JUMP JUMPDEST PUSH2 0x971 JUMP JUMPDEST SWAP1 POP DUP3 DUP2 MSTORE PUSH1 0x20 DUP2 ADD DUP5 DUP5 DUP5 ADD GT ISZERO PUSH2 0xA73 JUMPI PUSH2 0xA72 PUSH2 0xA03 JUMP JUMPDEST JUMPDEST PUSH2 0xA7E DUP5 DUP3 DUP6 PUSH2 0xA37 JUMP JUMPDEST POP SWAP4 SWAP3 POP POP POP JUMP JUMPDEST PUSH0 DUP3 PUSH1 0x1F DUP4 ADD SLT PUSH2 0xA9A JUMPI PUSH2 0xA99 PUSH2 0x9FF JUMP JUMPDEST JUMPDEST DUP2 CALLDATALOAD PUSH2 0xAAA DUP5 DUP3 PUSH1 0x20 DUP7 ADD PUSH2 0xA45 JUMP JUMPDEST SWAP2 POP POP SWAP3 SWAP2 POP POP JUMP JUMPDEST PUSH0 PUSH8 0xFFFFFFFFFFFFFFFF DUP3 GT ISZERO PUSH2 0xACD JUMPI PUSH2 0xACC PUSH2 0x913 JUMP JUMPDEST JUMPDEST PUSH1 0x20 DUP3 MUL SWAP1 POP PUSH1 0x20 DUP2 ADD SWAP1 POP SWAP2 SWAP1 POP JUMP JUMPDEST PUSH0 DUP1 REVERT JUMPDEST PUSH0 DUP2 SWAP1 POP SWAP2 SWAP1 POP JUMP JUMPDEST PUSH2 0xAF4 DUP2 PUSH2 0xAE2 JUMP JUMPDEST DUP2 EQ PUSH2 0xAFE JUMPI PUSH0 DUP1 REVERT JUMPDEST POP JUMP JUMPDEST PUSH0 DUP2 CALLDATALOAD SWAP1 POP PUSH2 0xB0F DUP2 PUSH2 0xAEB JUMP JUMPDEST SWAP3 SWAP2 POP POP JUMP JUMPDEST PUSH0 PUSH1 0x40 DUP3 DUP5 SUB SLT ISZERO PUSH2 0xB2A JUMPI PUSH2 0xB29 PUSH2 0x8FF JUMP JUMPDEST JUMPDEST PUSH2 0xB34 PUSH1 0x40 PUSH2 0x971 JUMP JUMPDEST SWAP1 POP PUSH0 PUSH2 0xB43 DUP5 DUP3 DUP6 ADD PUSH2 0x741 JUMP JUMPDEST PUSH0 DUP4 ADD MSTORE POP PUSH1 0x20 PUSH2 0xB56 DUP5 DUP3 DUP6 ADD PUSH2 0xB01 JUMP JUMPDEST PUSH1 0x20 DUP4 ADD MSTORE POP SWAP3 SWAP2 POP POP JUMP JUMPDEST PUSH0 PUSH2 0xB74 PUSH2 0xB6F DUP5 PUSH2 0xAB3 JUMP JUMPDEST PUSH2 0x971 JUMP JUMPDEST SWAP1 POP DUP1 DUP4 DUP3 MSTORE PUSH1 0x20 DUP3 ADD SWAP1 POP PUSH1 0x40 DUP5 MUL DUP4 ADD DUP6 DUP2 GT ISZERO PUSH2 0xB97 JUMPI PUSH2 0xB96 PUSH2 0xADE JUMP JUMPDEST JUMPDEST DUP4 JUMPDEST DUP2 DUP2 LT ISZERO PUSH2 0xBC0 JUMPI DUP1 PUSH2 0xBAC DUP9 DUP3 PUSH2 0xB15 JUMP JUMPDEST DUP5 MSTORE PUSH1 0x20 DUP5 ADD SWAP4 POP POP PUSH1 0x40 DUP2 ADD SWAP1 POP PUSH2 0xB99 JUMP JUMPDEST POP POP POP SWAP4 SWAP3 POP POP POP JUMP JUMPDEST PUSH0 DUP3 PUSH1 0x1F DUP4 ADD SLT PUSH2 0xBDE JUMPI PUSH2 0xBDD PUSH2 0x9FF JUMP JUMPDEST JUMPDEST DUP2 CALLDATALOAD PUSH2 0xBEE DUP5 DUP3 PUSH1 0x20 DUP7 ADD PUSH2 0xB62 JUMP JUMPDEST SWAP2 POP POP SWAP3 SWAP2 POP POP JUMP JUMPDEST PUSH0 PUSH1 0xA0 DUP3 DUP5 SUB SLT ISZERO PUSH2 0xC0C JUMPI PUSH2 0xC0B PUSH2 0x8FF JUMP JUMPDEST JUMPDEST PUSH2 0xC16 PUSH1 0xA0 PUSH2 0x971 JUMP JUMPDEST SWAP1 POP PUSH0 PUSH2 0xC25 DUP5 DUP3 DUP6 ADD PUSH2 0x9AE JUMP JUMPDEST PUSH0 DUP4 ADD MSTORE POP PUSH1 0x20 PUSH2 0xC38 DUP5 DUP3 DUP6 ADD PUSH2 0x9EB JUMP JUMPDEST PUSH1 0x20 DUP4 ADD MSTORE POP PUSH1 0x40 DUP3 ADD CALLDATALOAD PUSH8 0xFFFFFFFFFFFFFFFF DUP2 GT ISZERO PUSH2 0xC5C JUMPI PUSH2 0xC5B PUSH2 0x98B JUMP JUMPDEST JUMPDEST PUSH2 0xC68 DUP5 DUP3 DUP6 ADD PUSH2 0xA86 JUMP JUMPDEST PUSH1 0x40 DUP4 ADD MSTORE POP PUSH1 0x60 DUP3 ADD CALLDATALOAD PUSH8 0xFFFFFFFFFFFFFFFF DUP2 GT ISZERO PUSH2 0xC8C JUMPI PUSH2 0xC8B PUSH2 0x98B JUMP JUMPDEST JUMPDEST PUSH2 0xC98 DUP5 DUP3 DUP6 ADD PUSH2 0xA86 JUMP JUMPDEST PUSH1 0x60 DUP4 ADD MSTORE POP PUSH1 0x80 DUP3 ADD CALLDATALOAD PUSH8 0xFFFFFFFFFFFFFFFF DUP2 GT ISZERO PUSH2 0xCBC JUMPI PUSH2 0xCBB PUSH2 0x98B JUMP JUMPDEST JUMPDEST PUSH2 0xCC8 DUP5 DUP3 DUP6 ADD PUSH2 0xBCA JUMP JUMPDEST PUSH1 0x80 DUP4 ADD MSTORE POP SWAP3 SWAP2 POP POP JUMP JUMPDEST PUSH0 PUSH2 0xCDF CALLDATASIZE DUP4 PUSH2 0xBF7 JUMP JUMPDEST SWAP1 POP SWAP2 SWAP1 POP JUMP JUMPDEST PUSH0 PUSH2 0xD00 PUSH2 0xCFB PUSH2 0xCF6 DUP5 PUSH2 0x811 JUMP JUMPDEST PUSH2 0x6A6 JUMP JUMPDEST PUSH2 0xAE2 JUMP JUMPDEST SWAP1 POP SWAP2 SWAP1 POP JUMP JUMPDEST PUSH2 0xD10 DUP2 PUSH2 0xCE6 JUMP JUMPDEST DUP3 MSTORE POP POP JUMP JUMPDEST PUSH0 PUSH1 0x40 DUP3 ADD SWAP1 POP PUSH2 0xD29 PUSH0 DUP4 ADD DUP6 PUSH2 0x7E9 JUMP JUMPDEST PUSH2 0xD36 PUSH1 0x20 DUP4 ADD DUP5 PUSH2 0xD07 JUMP JUMPDEST SWAP4 SWAP3 POP POP POP JUMP INVALID LOG2 PUSH5 0x6970667358 0x22 SLT KECCAK256 MUL 0xB1 SWAP7 PC GASLIMIT 0xAF GT PUSH15 0xD860EBFD2391E30BF429CEBF89BE15 DUP11 SWAP11 0xE8 PUSH16 0xDF979254A764736F6C63430008140033 "
				},
				"gasEstimates": {
					"creation": {
						"codeDepositCost": "688600",
						"executionCost": "infinite",
						"totalCost": "infinite"
					},
					"external": {
						"ccipReceive((bytes32,uint64,bytes,bytes,(address,uint256)[]))": "infinite",
						"getRouter()": "infinite",
						"nft()": "infinite",
						"supportsInterface(bytes4)": "676",
						"testMessage()": "infinite",
						"testMint()": "infinite",
						"updateNFT(address)": "24715"
					},
					"internal": {
						"_ccipReceive(struct Client.Any2EVMMessage memory)": "infinite"
					}
				},
				"methodIdentifiers": {
					"ccipReceive((bytes32,uint64,bytes,bytes,(address,uint256)[]))": "85572ffb",
					"getRouter()": "b0f479a1",
					"nft()": "47ccca02",
					"supportsInterface(bytes4)": "01ffc9a7",
					"testMessage()": "08076601",
					"testMint()": "9642ddaf",
					"updateNFT(address)": "5be68e93"
				}
			},
			"storageLayout": {
				"storage": [
					{
						"astId": 226,
						"contract": "ccip/CrossDestinationMinter_flattened.sol:CrossDestinationMinter",
						"label": "nft",
						"offset": 0,
						"slot": "0",
						"type": "t_contract(InftMinter)220"
					},
					{
						"astId": 231,
						"contract": "ccip/CrossDestinationMinter_flattened.sol:CrossDestinationMinter",
						"label": "routerSepolia",
						"offset": 0,
						"slot": "1",
						"type": "t_address"
					}
				],
				"types": {
					"t_address": {
						"encoding": "inplace",
						"label": "address",
						"numberOfBytes": "20"
					},
					"t_contract(InftMinter)220": {
						"encoding": "inplace",
						"label": "contract InftMinter",
						"numberOfBytes": "20"
					}
				}
			},
			"userdoc": {
				"kind": "user",
				"methods": {
					"ccipReceive((bytes32,uint64,bytes,bytes,(address,uint256)[]))": {
						"notice": "Called by the Router to deliver a message. If this reverts, any token transfers also revert. The message will move to a FAILED state and become available for manual execution."
					},
					"getRouter()": {
						"notice": "Return the current router"
					},
					"supportsInterface(bytes4)": {
						"notice": "IERC165 supports an interfaceId"
					}
				},
				"notice": "THIS IS AN EXAMPLE CONTRACT THAT USES HARDCODED VALUES FOR CLARITY. THIS IS AN EXAMPLE CONTRACT THAT USES UN-AUDITED CODE. DO NOT USE THIS CODE IN PRODUCTION.",
				"version": 1
			}
		}
	}
}