{
	"data": {
		"bytecode": {
			"linkReferences": {},
			"object": "6080604052735c210ef41cd1a72de73bf76ec39637bb0d3d7bee600b60006101000a81548173ffffffffffffffffffffffffffffffffffffffff021916908373ffffffffffffffffffffffffffffffffffffffff1602179055507fc799bd1e3bd4d1a41cd4968997a4e03dfd2a3c7c04b695881138580163f4288760001b600c55622625a0600d60006101000a81548163ffffffff021916908363ffffffff1602179055506003600d60046101000a81548161ffff021916908361ffff1602179055506001600d60066101000a81548163ffffffff021916908363ffffffff16021790555060405180608001604052806040518060800160405280605e81526020016200766b605e913981526020016040518060a00160405280606181526020016200756a6061913981526020016040518060800160405280605e81526020016200750c605e913981526020016040518060800160405280606081526020016200760b6060913981525060139060046200017b92919062001297565b5060405180608001604052806040518060400160405280600381526020017f456c66000000000000000000000000000000000000000000000000000000000081525081526020016040518060400160405280600681526020017f4b6e69676874000000000000000000000000000000000000000000000000000081525081526020016040518060400160405280600381526020017f4f7263000000000000000000000000000000000000000000000000000000000081525081526020016040518060400160405280600581526020017f576974636800000000000000000000000000000000000000000000000000000081525081525060149060046200028392919062001297565b503480156200029157600080fd5b50604051620076c9380380620076c98339818101604052810190620002b79190620013c4565b600b60009054906101000a900473ffffffffffffffffffffffffffffffffffffffff16338060006040518060400160405280600781526020017f52756e6e657273000000000000000000000000000000000000000000000000008152506040518060400160405280600381526020017f52554e000000000000000000000000000000000000000000000000000000000081525081600090816200035b919062001666565b5080600190816200036d919062001666565b505050600073ffffffffffffffffffffffffffffffffffffffff168273ffffffffffffffffffffffffffffffffffffffff1603620003e2576040517f08c379a0000000000000000000000000000000000000000000000000000000008152600401620003d990620017ae565b60405180910390fd5b81600760006101000a81548173ffffffffffffffffffffffffffffffffffffffff021916908373ffffffffffffffffffffffffffffffffffffffff160217905550600073ffffffffffffffffffffffffffffffffffffffff168173ffffffffffffffffffffffffffffffffffffffff16146200046a5762000469816200053760201b60201c565b5b505050600073ffffffffffffffffffffffffffffffffffffffff168173ffffffffffffffffffffffffffffffffffffffff1603620004d4576040517fd92e233d00000000000000000000000000000000000000000000000000000000815260040160405180910390fd5b80600960006101000a81548173ffffffffffffffffffffffffffffffffffffffff021916908373ffffffffffffffffffffffffffffffffffffffff1602179055505080601181905550620005303360006200066860201b60201c565b50620023b8565b3373ffffffffffffffffffffffffffffffffffffffff168173ffffffffffffffffffffffffffffffffffffffff1603620005a8576040517f08c379a00000000000000000000000000000000000000000000000000000000081526004016200059f9062001820565b60405180910390fd5b80600860006101000a81548173ffffffffffffffffffffffffffffffffffffffff021916908373ffffffffffffffffffffffffffffffffffffffff1602179055508073ffffffffffffffffffffffffffffffffffffffff16600760009054906101000a900473ffffffffffffffffffffffffffffffffffffffff1673ffffffffffffffffffffffffffffffffffffffff167fed8889f560326eb138920d842192f0eb3dd22b4f139c87a2c57538e05bae127860405160405180910390a350565b600081905060008160ff161015801562000686575060038160ff1611155b620006c8576040517f08c379a0000000000000000000000000000000000000000000000000000000008152600401620006bf9062001892565b60405180910390fd5b600060138381548110620006e157620006e0620018b4565b5b906000526020600020018054620006f8906200145f565b80601f016020809104026020016040519081016040528092919081815260200182805462000726906200145f565b8015620007775780601f106200074b5761010080835404028352916020019162000777565b820191906000526020600020905b8154815290600101906020018083116200075957829003601f168201915b505050505090506015604051806080016040528060148681548110620007a257620007a1620018b4565b5b906000526020600020018054620007b9906200145f565b80601f0160208091040260200160405190810160405280929190818152602001828054620007e7906200145f565b8015620008385780601f106200080c5761010080835404028352916020019162000838565b820191906000526020600020905b8154815290600101906020018083116200081a57829003601f168201915b505050505081526020018381526020016000815260200160008152509080600181540180825580915050600190039060005260206000209060040201600090919091909150600082015181600001908162000894919062001666565b506020820151816001019081620008ac919062001666565b50604082015181600201556060820151816003015550506000620008d7601262000a3860201b60201c565b90506000620009d160158381548110620008f657620008f5620018b4565b5b9060005260206000209060040201600001601584815481106200091e576200091d620018b4565b5b906000526020600020906004020160010162000968601586815481106200094a5762000949620018b4565b5b90600052602060002090600402016002015462000a4660201b60201c565b620009a160158781548110620009835762000982620018b4565b5b90600052602060002090600402016003015462000a4660201b60201c565b604051602001620009b6949392919062001cd6565b60405160208183030381529060405262000bbf60201b60201c565b9050600081604051602001620009e8919062001dfb565b604051602081830303815290604052905062000a0b601262000d3560201b60201c565b62000a1d878462000d4b60201b60201c565b62000a2f838262000d7160201b60201c565b50505050505050565b600081600001549050919050565b60606000820362000a8f576040518060400160405280600181526020017f3000000000000000000000000000000000000000000000000000000000000000815250905062000bba565b600082905060005b6000821462000ac757808062000aad9062001e50565b915050600a8262000abf919062001ecc565b915062000a97565b60008167ffffffffffffffff81111562000ae65762000ae562001401565b5b6040519080825280601f01601f19166020018201604052801562000b195781602001600182028036833780820191505090505b5090505b6000851462000bb35760018262000b35919062001f04565b9150600a8562000b46919062001f3f565b603062000b54919062001f77565b60f81b81838151811062000b6d5762000b6c620018b4565b5b60200101907effffffffffffffffffffffffffffffffffffffffffffffffffffffffffffff1916908160001a905350600a8562000bab919062001ecc565b945062000b1d565b8093505050505b919050565b6060600082510362000be35760405180602001604052806000815250905062000d30565b6000604051806060016040528060408152602001620075cb604091399050600060036002855162000c15919062001f77565b62000c21919062001ecc565b600462000c2f919062001fb2565b67ffffffffffffffff81111562000c4b5762000c4a62001401565b5b6040519080825280601f01601f19166020018201604052801562000c7e5781602001600182028036833780820191505090505b509050600182016020820185865187015b8082101562000cec576003820191508151603f8160121c168501518453600184019350603f81600c1c168501518453600184019350603f8160061c168501518453600184019350603f811685015184536001840193505062000c8f565b505060038651066001811462000d0b576002811462000d1f5762000d27565b603d6001830353603d600283035362000d27565b603d60018303535b50505080925050505b919050565b6001816000016000828254019250508190555050565b62000d6d82826040518060200160405280600081525062000deb60201b60201c565b5050565b62000d828262000e5960201b60201c565b62000dc4576040517f08c379a000000000000000000000000000000000000000000000000000000000815260040162000dbb9062002073565b60405180910390fd5b8060066000848152602001908152602001600020908162000de6919062001666565b505050565b62000dfd838362000ec560201b60201c565b62000e126000848484620010be60201b60201c565b62000e54576040517f08c379a000000000000000000000000000000000000000000000000000000000815260040162000e4b906200210b565b60405180910390fd5b505050565b60008073ffffffffffffffffffffffffffffffffffffffff166002600084815260200190815260200160002060009054906101000a900473ffffffffffffffffffffffffffffffffffffffff1673ffffffffffffffffffffffffffffffffffffffff1614159050919050565b600073ffffffffffffffffffffffffffffffffffffffff168273ffffffffffffffffffffffffffffffffffffffff160362000f37576040517f08c379a000000000000000000000000000000000000000000000000000000000815260040162000f2e906200217d565b60405180910390fd5b62000f488162000e5960201b60201c565b1562000f8b576040517f08c379a000000000000000000000000000000000000000000000000000000000815260040162000f8290620021ef565b60405180910390fd5b62000f9f600083836200126260201b60201c565b6001600360008473ffffffffffffffffffffffffffffffffffffffff1673ffffffffffffffffffffffffffffffffffffffff168152602001908152602001600020600082825462000ff1919062001f77565b92505081905550816002600083815260200190815260200160002060006101000a81548173ffffffffffffffffffffffffffffffffffffffff021916908373ffffffffffffffffffffffffffffffffffffffff160217905550808273ffffffffffffffffffffffffffffffffffffffff16600073ffffffffffffffffffffffffffffffffffffffff167fddf252ad1be2c89b69c2b068fc378daa952ba7f163c4a11628f55a4df523b3ef60405160405180910390a4620010ba600083836200126760201b60201c565b5050565b6000620010e78473ffffffffffffffffffffffffffffffffffffffff166200126c60201b60201c565b1562001255578373ffffffffffffffffffffffffffffffffffffffff1663150b7a02620011196200128f60201b60201c565b8786866040518563ffffffff1660e01b81526004016200113d9493929190620022d5565b6020604051808303816000875af19250505080156200117c57506040513d601f19601f8201168201806040525081019062001179919062002386565b60015b62001204573d8060008114620011af576040519150601f19603f3d011682016040523d82523d6000602084013e620011b4565b606091505b506000815103620011fc576040517f08c379a0000000000000000000000000000000000000000000000000000000008152600401620011f3906200210b565b60405180910390fd5b805181602001fd5b63150b7a0260e01b7bffffffffffffffffffffffffffffffffffffffffffffffffffffffff1916817bffffffffffffffffffffffffffffffffffffffffffffffffffffffff1916149150506200125a565b600190505b949350505050565b505050565b505050565b6000808273ffffffffffffffffffffffffffffffffffffffff163b119050919050565b600033905090565b828054828255906000526020600020908101928215620012e4579160200282015b82811115620012e3578251829081620012d2919062001666565b5091602001919060010190620012b8565b5b509050620012f39190620012f7565b5090565b5b808211156200131b57600081816200131191906200131f565b50600101620012f8565b5090565b5080546200132d906200145f565b6000825580601f1062001341575062001362565b601f01602090049060005260206000209081019062001361919062001365565b5b50565b5b808211156200138057600081600090555060010162001366565b5090565b600080fd5b6000819050919050565b6200139e8162001389565b8114620013aa57600080fd5b50565b600081519050620013be8162001393565b92915050565b600060208284031215620013dd57620013dc62001384565b5b6000620013ed84828501620013ad565b91505092915050565b600081519050919050565b7f4e487b7100000000000000000000000000000000000000000000000000000000600052604160045260246000fd5b7f4e487b7100000000000000000000000000000000000000000000000000000000600052602260045260246000fd5b600060028204905060018216806200147857607f821691505b6020821081036200148e576200148d62001430565b5b50919050565b60008190508160005260206000209050919050565b60006020601f8301049050919050565b600082821b905092915050565b600060088302620014f87fffffffffffffffffffffffffffffffffffffffffffffffffffffffffffffffff82620014b9565b620015048683620014b9565b95508019841693508086168417925050509392505050565b6000819050919050565b600062001547620015416200153b8462001389565b6200151c565b62001389565b9050919050565b6000819050919050565b620015638362001526565b6200157b62001572826200154e565b848454620014c6565b825550505050565b600090565b6200159262001583565b6200159f81848462001558565b505050565b5b81811015620015c757620015bb60008262001588565b600181019050620015a5565b5050565b601f8211156200161657620015e08162001494565b620015eb84620014a9565b81016020851015620015fb578190505b620016136200160a85620014a9565b830182620015a4565b50505b505050565b600082821c905092915050565b60006200163b600019846008026200161b565b1980831691505092915050565b600062001656838362001628565b9150826002028217905092915050565b6200167182620013f6565b67ffffffffffffffff8111156200168d576200168c62001401565b5b6200169982546200145f565b620016a6828285620015cb565b600060209050601f831160018114620016de5760008415620016c9578287015190505b620016d5858262001648565b86555062001745565b601f198416620016ee8662001494565b60005b828110156200171857848901518255600182019150602085019450602081019050620016f1565b8683101562001738578489015162001734601f89168262001628565b8355505b6001600288020188555050505b505050505050565b600082825260208201905092915050565b7f43616e6e6f7420736574206f776e657220746f207a65726f0000000000000000600082015250565b6000620017966018836200174d565b9150620017a3826200175e565b602082019050919050565b60006020820190508181036000830152620017c98162001787565b9050919050565b7f43616e6e6f74207472616e7366657220746f2073656c66000000000000000000600082015250565b6000620018086017836200174d565b91506200181582620017d0565b602082019050919050565b600060208201905081810360008301526200183b81620017f9565b9050919050565b7f696e76616c696420636861724964000000000000000000000000000000000000600082015250565b60006200187a600e836200174d565b9150620018878262001842565b602082019050919050565b60006020820190508181036000830152620018ad816200186b565b9050919050565b7f4e487b7100000000000000000000000000000000000000000000000000000000600052603260045260246000fd5b600081905092915050565b7f7b226e616d65223a202200000000000000000000000000000000000000000000600082015250565b600062001926600a83620018e3565b91506200193382620018ee565b600a82019050919050565b600081546200194d816200145f565b620019598186620018e3565b945060018216600081146200197757600181146200198d57620019c4565b60ff1983168652811515820286019350620019c4565b620019988562001494565b60005b83811015620019bc578154818901526001820191506020810190506200199b565b838801955050505b50505092915050565b7f222c226465736372697074696f6e223a2022436861696e6c696e6b2072756e6e60008201527f6572222c00000000000000000000000000000000000000000000000000000000602082015250565b600062001a2b602483620018e3565b915062001a3882620019cd565b602482019050919050565b7f22696d616765223a202200000000000000000000000000000000000000000000600082015250565b600062001a7b600a83620018e3565b915062001a888262001a43565b600a82019050919050565b7f222c2261747472696275746573223a205b000000000000000000000000000000600082015250565b600062001acb601183620018e3565b915062001ad88262001a93565b601182019050919050565b7f7b2274726169745f74797065223a202264697374616e6365222c000000000000600082015250565b600062001b1b601a83620018e3565b915062001b288262001ae3565b601a82019050919050565b7f2276616c7565223a200000000000000000000000000000000000000000000000600082015250565b600062001b6b600983620018e3565b915062001b788262001b33565b600982019050919050565b60005b8381101562001ba357808201518184015260208101905062001b86565b60008484015250505050565b600062001bbc82620013f6565b62001bc88185620018e3565b935062001bda81856020860162001b83565b80840191505092915050565b7f7d00000000000000000000000000000000000000000000000000000000000000600082015250565b600062001c1e600183620018e3565b915062001c2b8262001be6565b600182019050919050565b7f2c7b2274726169745f74797065223a2022726f756e64222c0000000000000000600082015250565b600062001c6e601883620018e3565b915062001c7b8262001c36565b601882019050919050565b7f5d7d000000000000000000000000000000000000000000000000000000000000600082015250565b600062001cbe600283620018e3565b915062001ccb8262001c86565b600282019050919050565b600062001ce38262001917565b915062001cf182876200193e565b915062001cfe8262001a1c565b915062001d0b8262001a6c565b915062001d1982866200193e565b915062001d268262001abc565b915062001d338262001b0c565b915062001d408262001b5c565b915062001d4e828562001baf565b915062001d5b8262001c0f565b915062001d688262001c5f565b915062001d758262001b5c565b915062001d83828462001baf565b915062001d908262001c0f565b915062001d9d8262001caf565b915081905095945050505050565b7f646174613a6170706c69636174696f6e2f6a736f6e3b6261736536342c000000600082015250565b600062001de3601d83620018e3565b915062001df08262001dab565b601d82019050919050565b600062001e088262001dd4565b915062001e16828462001baf565b915081905092915050565b7f4e487b7100000000000000000000000000000000000000000000000000000000600052601160045260246000fd5b600062001e5d8262001389565b91507fffffffffffffffffffffffffffffffffffffffffffffffffffffffffffffffff820362001e925762001e9162001e21565b5b600182019050919050565b7f4e487b7100000000000000000000000000000000000000000000000000000000600052601260045260246000fd5b600062001ed98262001389565b915062001ee68362001389565b92508262001ef95762001ef862001e9d565b5b828204905092915050565b600062001f118262001389565b915062001f1e8362001389565b925082820390508181111562001f395762001f3862001e21565b5b92915050565b600062001f4c8262001389565b915062001f598362001389565b92508262001f6c5762001f6b62001e9d565b5b828206905092915050565b600062001f848262001389565b915062001f918362001389565b925082820190508082111562001fac5762001fab62001e21565b5b92915050565b600062001fbf8262001389565b915062001fcc8362001389565b925082820262001fdc8162001389565b9150828204841483151762001ff65762001ff562001e21565b5b5092915050565b7f45524337323155524953746f726167653a2055524920736574206f66206e6f6e60008201527f6578697374656e7420746f6b656e000000000000000000000000000000000000602082015250565b60006200205b602e836200174d565b9150620020688262001ffd565b604082019050919050565b600060208201905081810360008301526200208e816200204c565b9050919050565b7f4552433732313a207472616e7366657220746f206e6f6e20455243373231526560008201527f63656976657220696d706c656d656e7465720000000000000000000000000000602082015250565b6000620020f36032836200174d565b9150620021008262002095565b604082019050919050565b600060208201905081810360008301526200212681620020e4565b9050919050565b7f4552433732313a206d696e7420746f20746865207a65726f2061646472657373600082015250565b6000620021656020836200174d565b915062002172826200212d565b602082019050919050565b60006020820190508181036000830152620021988162002156565b9050919050565b7f4552433732313a20746f6b656e20616c7265616479206d696e74656400000000600082015250565b6000620021d7601c836200174d565b9150620021e4826200219f565b602082019050919050565b600060208201905081810360008301526200220a81620021c8565b9050919050565b600073ffffffffffffffffffffffffffffffffffffffff82169050919050565b60006200223e8262002211565b9050919050565b620022508162002231565b82525050565b620022618162001389565b82525050565b600081519050919050565b600082825260208201905092915050565b6000601f19601f8301169050919050565b6000620022a18262002267565b620022ad818562002272565b9350620022bf81856020860162001b83565b620022ca8162002283565b840191505092915050565b6000608082019050620022ec600083018762002245565b620022fb602083018662002245565b6200230a604083018562002256565b81810360608301526200231e818462002294565b905095945050505050565b60007fffffffff0000000000000000000000000000000000000000000000000000000082169050919050565b620023608162002329565b81146200236c57600080fd5b50565b600081519050620023808162002355565b92915050565b6000602082840312156200239f576200239e62001384565b5b6000620023af848285016200236f565b91505092915050565b61514480620023c86000396000f3fe608060405234801561001057600080fd5b50600436106101da5760003560e01c80638ea9811711610104578063a22cb465116100a2578063d8a4676f11610071578063d8a4676f14610591578063e985e9c5146105c2578063f2fde38b146105f2578063fc2a88c31461060e576101da565b8063a22cb465146104f9578063a444f5e914610515578063b88d4fde14610545578063c87b56dd14610561576101da565b806398bdf6f5116100de57806398bdf6f5146104705780639eccacf61461048e578063a1448194146104ac578063a168fa89146104c8576101da565b80638ea9811714610406578063900fc8691461042257806395d89b4114610452576101da565b806347e9907b1161017c57806379ba50971161014b57806379ba5097146103905780638796ba8c1461039a5780638ac00021146103ca5780638da5cb5b146103e8576101da565b806347e9907b146102cd5780636352211e1461030057806370a0823114610330578063778c91ac14610360576101da565b8063095ea7b3116101b8578063095ea7b31461025d5780631fe543e31461027957806323b872dd1461029557806342842e0e146102b1576101da565b806301ffc9a7146101df57806306fdde031461020f578063081812fc1461022d575b600080fd5b6101f960048036038101906101f4919061305e565b61062c565b60405161020691906130a6565b60405180910390f35b61021761070e565b6040516102249190613151565b60405180910390f35b610247600480360381019061024291906131a9565b6107a0565b6040516102549190613217565b60405180910390f35b6102776004803603810190610272919061325e565b610825565b005b610293600480360381019061028e9190613303565b61093c565b005b6102af60048036038101906102aa9190613363565b610a02565b005b6102cb60048036038101906102c69190613363565b610a62565b005b6102e760048036038101906102e291906131a9565b610a82565b6040516102f794939291906133c5565b60405180910390f35b61031a600480360381019061031591906131a9565b610bd2565b6040516103279190613217565b60405180910390f35b61034a60048036038101906103459190613418565b610c83565b6040516103579190613445565b60405180910390f35b61037a600480360381019061037591906131a9565b610d3a565b6040516103879190613445565b60405180910390f35b610398610d52565b005b6103b460048036038101906103af91906131a9565b610ee9565b6040516103c19190613445565b60405180910390f35b6103d2610f0d565b6040516103df9190613445565b60405180910390f35b6103f0610f13565b6040516103fd9190613217565b60405180910390f35b610420600480360381019061041b9190613418565b610f3d565b005b61043c600480360381019061043791906131a9565b61111e565b6040516104499190613445565b60405180910390f35b61045a611142565b6040516104679190613151565b60405180910390f35b6104786111d4565b6040516104859190613445565b60405180910390f35b6104966111e0565b6040516104a391906134bf565b60405180910390f35b6104c660048036038101906104c1919061325e565b611206565b005b6104e260048036038101906104dd91906131a9565b611570565b6040516104f09291906134da565b60405180910390f35b610513600480360381019061050e919061352f565b6115ae565b005b61052f600480360381019061052a91906131a9565b6115c4565b60405161053c9190613445565b60405180910390f35b61055f600480360381019061055a919061369f565b6118b3565b005b61057b600480360381019061057691906131a9565b611915565b6040516105889190613151565b60405180910390f35b6105ab60048036038101906105a691906131a9565b611927565b6040516105b99291906137e0565b60405180910390f35b6105dc60048036038101906105d79190613810565b611930565b6040516105e991906130a6565b60405180910390f35b61060c60048036038101906106079190613418565b6119c4565b005b6106166119d8565b6040516106239190613445565b60405180910390f35b60007f80ac58cd000000000000000000000000000000000000000000000000000000007bffffffffffffffffffffffffffffffffffffffffffffffffffffffff1916827bffffffffffffffffffffffffffffffffffffffffffffffffffffffff191614806106f757507f5b5e139f000000000000000000000000000000000000000000000000000000007bffffffffffffffffffffffffffffffffffffffffffffffffffffffff1916827bffffffffffffffffffffffffffffffffffffffffffffffffffffffff1916145b806107075750610706826119de565b5b9050919050565b60606000805461071d9061387f565b80601f01602080910402602001604051908101604052809291908181526020018280546107499061387f565b80156107965780601f1061076b57610100808354040283529160200191610796565b820191906000526020600020905b81548152906001019060200180831161077957829003601f168201915b5050505050905090565b60006107ab82611a48565b6107ea576040517f08c379a00000000000000000000000000000000000000000000000000000000081526004016107e190613922565b60405180910390fd5b6004600083815260200190815260200160002060009054906101000a900473ffffffffffffffffffffffffffffffffffffffff169050919050565b600061083082610bd2565b90508073ffffffffffffffffffffffffffffffffffffffff168373ffffffffffffffffffffffffffffffffffffffff16036108a0576040517f08c379a0000000000000000000000000000000000000000000000000000000008152600401610897906139b4565b60405180910390fd5b8073ffffffffffffffffffffffffffffffffffffffff166108bf611ab4565b73ffffffffffffffffffffffffffffffffffffffff1614806108ee57506108ed816108e8611ab4565b611930565b5b61092d576040517f08c379a000000000000000000000000000000000000000000000000000000000815260040161092490613a46565b60405180910390fd5b6109378383611abc565b505050565b600960009054906101000a900473ffffffffffffffffffffffffffffffffffffffff1673ffffffffffffffffffffffffffffffffffffffff163373ffffffffffffffffffffffffffffffffffffffff16146109f25733600960009054906101000a900473ffffffffffffffffffffffffffffffffffffffff166040517f1cf993f40000000000000000000000000000000000000000000000000000000081526004016109e9929190613a66565b60405180910390fd5b6109fd838383611b75565b505050565b610a13610a0d611ab4565b82611e6e565b610a52576040517f08c379a0000000000000000000000000000000000000000000000000000000008152600401610a4990613b01565b60405180910390fd5b610a5d838383611f4c565b505050565b610a7d838383604051806020016040528060008152506118b3565b505050565b60158181548110610a9257600080fd5b9060005260206000209060040201600091509050806000018054610ab59061387f565b80601f0160208091040260200160405190810160405280929190818152602001828054610ae19061387f565b8015610b2e5780601f10610b0357610100808354040283529160200191610b2e565b820191906000526020600020905b815481529060010190602001808311610b1157829003601f168201915b505050505090806001018054610b439061387f565b80601f0160208091040260200160405190810160405280929190818152602001828054610b6f9061387f565b8015610bbc5780601f10610b9157610100808354040283529160200191610bbc565b820191906000526020600020905b815481529060010190602001808311610b9f57829003601f168201915b5050505050908060020154908060030154905084565b6000806002600084815260200190815260200160002060009054906101000a900473ffffffffffffffffffffffffffffffffffffffff169050600073ffffffffffffffffffffffffffffffffffffffff168173ffffffffffffffffffffffffffffffffffffffff1603610c7a576040517f08c379a0000000000000000000000000000000000000000000000000000000008152600401610c7190613b93565b60405180910390fd5b80915050919050565b60008073ffffffffffffffffffffffffffffffffffffffff168273ffffffffffffffffffffffffffffffffffffffff1603610cf3576040517f08c379a0000000000000000000000000000000000000000000000000000000008152600401610cea90613c25565b60405180910390fd5b600360008373ffffffffffffffffffffffffffffffffffffffff1673ffffffffffffffffffffffffffffffffffffffff168152602001908152602001600020549050919050565b60166020528060005260406000206000915090505481565b600860009054906101000a900473ffffffffffffffffffffffffffffffffffffffff1673ffffffffffffffffffffffffffffffffffffffff163373ffffffffffffffffffffffffffffffffffffffff1614610de2576040517f08c379a0000000000000000000000000000000000000000000000000000000008152600401610dd990613c91565b60405180910390fd5b6000600760009054906101000a900473ffffffffffffffffffffffffffffffffffffffff16905033600760006101000a81548173ffffffffffffffffffffffffffffffffffffffff021916908373ffffffffffffffffffffffffffffffffffffffff1602179055506000600860006101000a81548173ffffffffffffffffffffffffffffffffffffffff021916908373ffffffffffffffffffffffffffffffffffffffff1602179055503373ffffffffffffffffffffffffffffffffffffffff168173ffffffffffffffffffffffffffffffffffffffff167f8be0079c531659141344cd1fd0a4f28419497f9722a3daafe3b4186f6b6457e060405160405180910390a350565b600e8181548110610ef957600080fd5b906000526020600020016000915090505481565b60115481565b6000600760009054906101000a900473ffffffffffffffffffffffffffffffffffffffff16905090565b610f45610f13565b73ffffffffffffffffffffffffffffffffffffffff163373ffffffffffffffffffffffffffffffffffffffff1614158015610fce5750600960009054906101000a900473ffffffffffffffffffffffffffffffffffffffff1673ffffffffffffffffffffffffffffffffffffffff163373ffffffffffffffffffffffffffffffffffffffff1614155b1561103d5733610fdc610f13565b600960009054906101000a900473ffffffffffffffffffffffffffffffffffffffff166040517f061db9c100000000000000000000000000000000000000000000000000000000815260040161103493929190613cb1565b60405180910390fd5b600073ffffffffffffffffffffffffffffffffffffffff168173ffffffffffffffffffffffffffffffffffffffff16036110a3576040517fd92e233d00000000000000000000000000000000000000000000000000000000815260040160405180910390fd5b80600960006101000a81548173ffffffffffffffffffffffffffffffffffffffff021916908373ffffffffffffffffffffffffffffffffffffffff1602179055507fd1a6a14209a385a964d036e404cb5cfb71f4000cdb03c9366292430787261be6816040516111139190613217565b60405180910390a150565b6010818154811061112e57600080fd5b906000526020600020016000915090505481565b6060600180546111519061387f565b80601f016020809104026020016040519081016040528092919081815260200182805461117d9061387f565b80156111ca5780601f1061119f576101008083540402835291602001916111ca565b820191906000526020600020905b8154815290600101906020018083116111ad57829003601f168201915b5050505050905090565b60128060000154905081565b600960009054906101000a900473ffffffffffffffffffffffffffffffffffffffff1681565b600081905060008160ff1610158015611223575060038160ff1611155b611262576040517f08c379a000000000000000000000000000000000000000000000000000000000815260040161125990613d34565b60405180910390fd5b60006013838154811061127857611277613d54565b5b90600052602060002001805461128d9061387f565b80601f01602080910402602001604051908101604052809291908181526020018280546112b99061387f565b80156113065780601f106112db57610100808354040283529160200191611306565b820191906000526020600020905b8154815290600101906020018083116112e957829003601f168201915b50505050509050601560405180608001604052806014868154811061132e5761132d613d54565b5b9060005260206000200180546113439061387f565b80601f016020809104026020016040519081016040528092919081815260200182805461136f9061387f565b80156113bc5780601f10611391576101008083540402835291602001916113bc565b820191906000526020600020905b81548152906001019060200180831161139f57829003601f168201915b50505050508152602001838152602001600081526020016000815250908060018154018082558091505060019003906000526020600020906004020160009091909190915060008201518160000190816114169190613f25565b50602082015181600101908161142c9190613f25565b5060408201518160020155606082015181600301555050600061144f60126121b2565b905060006115236015838154811061146a57611469613d54565b5b90600052602060002090600402016000016015848154811061148f5761148e613d54565b5b90600052602060002090600402016001016114ce601586815481106114b7576114b6613d54565b5b9060005260206000209060040201600201546121c0565b6114fc601587815481106114e5576114e4613d54565b5b9060005260206000209060040201600301546121c0565b60405160200161150f9493929190614388565b604051602081830303815290604052612320565b9050600081604051602001611538919061448b565b60405160208183030381529060405290506115536012612483565b61155d8784612499565b61156783826124b7565b50505050505050565b600a6020528060005260406000206000915090508060000160009054906101000a900460ff16908060000160019054906101000a900460ff16905082565b6115c06115b9611ab4565b8383612524565b5050565b60006115d060126121b2565b8210611611576040517f08c379a0000000000000000000000000000000000000000000000000000000008152600401611608906144f9565b60405180910390fd5b600960009054906101000a900473ffffffffffffffffffffffffffffffffffffffff1673ffffffffffffffffffffffffffffffffffffffff16639b1c385e6040518060c00160405280600c5481526020016011548152602001600d60049054906101000a900461ffff1661ffff168152602001600d60009054906101000a900463ffffffff1663ffffffff168152602001600d60069054906101000a900463ffffffff1663ffffffff1681526020016116da604051806020016040528060001515815250612690565b8152506040518263ffffffff1660e01b81526004016116f9919061464c565b6020604051808303816000875af1158015611718573d6000803e3d6000fd5b505050506040513d601f19601f8201168201806040525081019061173c9190614683565b90506040518060600160405280600015158152602001600115158152602001600067ffffffffffffffff81111561177657611775613574565b5b6040519080825280602002602001820160405280156117a45781602001602082028036833780820191505090505b50815250600a600083815260200190815260200160002060008201518160000160006101000a81548160ff02191690831515021790555060208201518160000160016101000a81548160ff0219169083151502179055506040820151816001019080519060200190611817929190612f3b565b50905050600e81908060018154018082558091505060019003906000526020600020016000909190919091505580600f819055507fcc58b13ad3eab50626c6a6300b1d139cd6ebb1688a7cced9461c2f7e762665ee81600d60069054906101000a900463ffffffff1660405161188e9291906146bf565b60405180910390a1816016600083815260200190815260200160002081905550919050565b6118c46118be611ab4565b83611e6e565b611903576040517f08c379a00000000000000000000000000000000000000000000000000000000081526004016118fa90613b01565b60405180910390fd5b61190f84848484612728565b50505050565b606061192082612784565b9050919050565b60006060915091565b6000600560008473ffffffffffffffffffffffffffffffffffffffff1673ffffffffffffffffffffffffffffffffffffffff16815260200190815260200160002060008373ffffffffffffffffffffffffffffffffffffffff1673ffffffffffffffffffffffffffffffffffffffff16815260200190815260200160002060009054906101000a900460ff16905092915050565b6119cc6128d5565b6119d581612967565b50565b600f5481565b60007f01ffc9a7000000000000000000000000000000000000000000000000000000007bffffffffffffffffffffffffffffffffffffffffffffffffffffffff1916827bffffffffffffffffffffffffffffffffffffffffffffffffffffffff1916149050919050565b60008073ffffffffffffffffffffffffffffffffffffffff166002600084815260200190815260200160002060009054906101000a900473ffffffffffffffffffffffffffffffffffffffff1673ffffffffffffffffffffffffffffffffffffffff1614159050919050565b600033905090565b816004600083815260200190815260200160002060006101000a81548173ffffffffffffffffffffffffffffffffffffffff021916908373ffffffffffffffffffffffffffffffffffffffff160217905550808273ffffffffffffffffffffffffffffffffffffffff16611b2f83610bd2565b73ffffffffffffffffffffffffffffffffffffffff167f8c5be1e5ebec7d5bd14f71427d1e84f3dd0314c0f7b2291e5b200ac8c7c3b92560405160405180910390a45050565b6000611b8160126121b2565b1015611bc2576040517f08c379a0000000000000000000000000000000000000000000000000000000008152600401611bb990614734565b60405180910390fd5b600a600084815260200190815260200160002060000160019054906101000a900460ff16611c25576040517f08c379a0000000000000000000000000000000000000000000000000000000008152600401611c1c906147a0565b60405180910390fd5b6001600a600085815260200190815260200160002060000160006101000a81548160ff0219169083151502179055508181600a60008681526020019081526020016000206001019190611c79929190612f88565b50818160109190611c8b929190612f88565b506000600a6001600a6010600081548110611ca957611ca8613d54565b5b9060005260206000200154611cbe91906147ef565b611cc8919061484f565b611cd29190614883565b90506000601660008681526020019081526020016000205490508160158281548110611d0157611d00613d54565b5b90600052602060002090600402016002016000828254611d21919061484f565b9250508190555060158181548110611d3c57611d3b613d54565b5b90600052602060002090600402016003016000815480929190611d5e906148c5565b91905055506000611e3560158381548110611d7c57611d7b613d54565b5b906000526020600020906004020160000160158481548110611da157611da0613d54565b5b9060005260206000209060040201600101611de060158681548110611dc957611dc8613d54565b5b9060005260206000209060040201600201546121c0565b611e0e60158781548110611df757611df6613d54565b5b9060005260206000209060040201600301546121c0565b604051602001611e219493929190614388565b604051602081830303815290604052612320565b9050600081604051602001611e4a919061448b565b6040516020818303038152906040529050611e6583826124b7565b50505050505050565b6000611e7982611a48565b611eb8576040517f08c379a0000000000000000000000000000000000000000000000000000000008152600401611eaf9061497f565b60405180910390fd5b6000611ec383610bd2565b90508073ffffffffffffffffffffffffffffffffffffffff168473ffffffffffffffffffffffffffffffffffffffff161480611f055750611f048185611930565b5b80611f4357508373ffffffffffffffffffffffffffffffffffffffff16611f2b846107a0565b73ffffffffffffffffffffffffffffffffffffffff16145b91505092915050565b8273ffffffffffffffffffffffffffffffffffffffff16611f6c82610bd2565b73ffffffffffffffffffffffffffffffffffffffff1614611fc2576040517f08c379a0000000000000000000000000000000000000000000000000000000008152600401611fb990614a11565b60405180910390fd5b600073ffffffffffffffffffffffffffffffffffffffff168273ffffffffffffffffffffffffffffffffffffffff1603612031576040517f08c379a000000000000000000000000000000000000000000000000000000000815260040161202890614aa3565b60405180910390fd5b61203c838383612a95565b612047600082611abc565b6001600360008573ffffffffffffffffffffffffffffffffffffffff1673ffffffffffffffffffffffffffffffffffffffff16815260200190815260200160002060008282546120979190614ac3565b925050819055506001600360008473ffffffffffffffffffffffffffffffffffffffff1673ffffffffffffffffffffffffffffffffffffffff16815260200190815260200160002060008282546120ee919061484f565b92505081905550816002600083815260200190815260200160002060006101000a81548173ffffffffffffffffffffffffffffffffffffffff021916908373ffffffffffffffffffffffffffffffffffffffff160217905550808273ffffffffffffffffffffffffffffffffffffffff168473ffffffffffffffffffffffffffffffffffffffff167fddf252ad1be2c89b69c2b068fc378daa952ba7f163c4a11628f55a4df523b3ef60405160405180910390a46121ad838383612a9a565b505050565b600081600001549050919050565b606060008203612207576040518060400160405280600181526020017f3000000000000000000000000000000000000000000000000000000000000000815250905061231b565b600082905060005b60008214612239578080612222906148c5565b915050600a826122329190614af7565b915061220f565b60008167ffffffffffffffff81111561225557612254613574565b5b6040519080825280601f01601f1916602001820160405280156122875781602001600182028036833780820191505090505b5090505b60008514612314576001826122a09190614ac3565b9150600a856122af91906147ef565b60306122bb919061484f565b60f81b8183815181106122d1576122d0613d54565b5b60200101907effffffffffffffffffffffffffffffffffffffffffffffffffffffffffffff1916908160001a905350600a8561230d9190614af7565b945061228b565b8093505050505b919050565b606060008251036123425760405180602001604052806000815250905061247e565b60006040518060600160405280604081526020016150cf6040913990506000600360028551612371919061484f565b61237b9190614af7565b60046123879190614883565b67ffffffffffffffff8111156123a05761239f613574565b5b6040519080825280601f01601f1916602001820160405280156123d25781602001600182028036833780820191505090505b509050600182016020820185865187015b8082101561243e576003820191508151603f8160121c168501518453600184019350603f81600c1c168501518453600184019350603f8160061c168501518453600184019350603f81168501518453600184019350506123e3565b505060038651066001811461245a576002811461246d57612475565b603d6001830353603d6002830353612475565b603d60018303535b50505080925050505b919050565b6001816000016000828254019250508190555050565b6124b3828260405180602001604052806000815250612a9f565b5050565b6124c082611a48565b6124ff576040517f08c379a00000000000000000000000000000000000000000000000000000000081526004016124f690614b9a565b60405180910390fd5b8060066000848152602001908152602001600020908161251f9190613f25565b505050565b8173ffffffffffffffffffffffffffffffffffffffff168373ffffffffffffffffffffffffffffffffffffffff1603612592576040517f08c379a000000000000000000000000000000000000000000000000000000000815260040161258990614c06565b60405180910390fd5b80600560008573ffffffffffffffffffffffffffffffffffffffff1673ffffffffffffffffffffffffffffffffffffffff16815260200190815260200160002060008473ffffffffffffffffffffffffffffffffffffffff1673ffffffffffffffffffffffffffffffffffffffff16815260200190815260200160002060006101000a81548160ff0219169083151502179055508173ffffffffffffffffffffffffffffffffffffffff168373ffffffffffffffffffffffffffffffffffffffff167f17307eab39ab6107e8899845ad3d59bd9653f200f220920489ca2b5937696c318360405161268391906130a6565b60405180910390a3505050565b60607f92fd13387c7fe7befbc38d303d6468778fb9731bc4583f17d92989c6fcfdeaaa826040516024016126c49190614c51565b604051602081830303815290604052907bffffffffffffffffffffffffffffffffffffffffffffffffffffffff19166020820180517bffffffffffffffffffffffffffffffffffffffffffffffffffffffff83818316178352505050509050919050565b612733848484611f4c565b61273f84848484612afa565b61277e576040517f08c379a000000000000000000000000000000000000000000000000000000000815260040161277590614cde565b60405180910390fd5b50505050565b606061278f82611a48565b6127ce576040517f08c379a00000000000000000000000000000000000000000000000000000000081526004016127c590614d70565b60405180910390fd5b60006006600084815260200190815260200160002080546127ee9061387f565b80601f016020809104026020016040519081016040528092919081815260200182805461281a9061387f565b80156128675780601f1061283c57610100808354040283529160200191612867565b820191906000526020600020905b81548152906001019060200180831161284a57829003601f168201915b505050505090506000612878612c81565b9050600081510361288d5781925050506128d0565b6000825111156128c25780826040516020016128aa929190614d90565b604051602081830303815290604052925050506128d0565b6128cb84612c98565b925050505b919050565b600760009054906101000a900473ffffffffffffffffffffffffffffffffffffffff1673ffffffffffffffffffffffffffffffffffffffff163373ffffffffffffffffffffffffffffffffffffffff1614612965576040517f08c379a000000000000000000000000000000000000000000000000000000000815260040161295c90614e00565b60405180910390fd5b565b3373ffffffffffffffffffffffffffffffffffffffff168173ffffffffffffffffffffffffffffffffffffffff16036129d5576040517f08c379a00000000000000000000000000000000000000000000000000000000081526004016129cc90614e6c565b60405180910390fd5b80600860006101000a81548173ffffffffffffffffffffffffffffffffffffffff021916908373ffffffffffffffffffffffffffffffffffffffff1602179055508073ffffffffffffffffffffffffffffffffffffffff16600760009054906101000a900473ffffffffffffffffffffffffffffffffffffffff1673ffffffffffffffffffffffffffffffffffffffff167fed8889f560326eb138920d842192f0eb3dd22b4f139c87a2c57538e05bae127860405160405180910390a350565b505050565b505050565b612aa98383612d3f565b612ab66000848484612afa565b612af5576040517f08c379a0000000000000000000000000000000000000000000000000000000008152600401612aec90614cde565b60405180910390fd5b505050565b6000612b1b8473ffffffffffffffffffffffffffffffffffffffff16612f18565b15612c74578373ffffffffffffffffffffffffffffffffffffffff1663150b7a02612b44611ab4565b8786866040518563ffffffff1660e01b8152600401612b669493929190614ed6565b6020604051808303816000875af1925050508015612ba257506040513d601f19601f82011682018060405250810190612b9f9190614f37565b60015b612c24573d8060008114612bd2576040519150601f19603f3d011682016040523d82523d6000602084013e612bd7565b606091505b506000815103612c1c576040517f08c379a0000000000000000000000000000000000000000000000000000000008152600401612c1390614cde565b60405180910390fd5b805181602001fd5b63150b7a0260e01b7bffffffffffffffffffffffffffffffffffffffffffffffffffffffff1916817bffffffffffffffffffffffffffffffffffffffffffffffffffffffff191614915050612c79565b600190505b949350505050565b606060405180602001604052806000815250905090565b6060612ca382611a48565b612ce2576040517f08c379a0000000000000000000000000000000000000000000000000000000008152600401612cd990614fd6565b60405180910390fd5b6000612cec612c81565b90506000815111612d0c5760405180602001604052806000815250612d37565b80612d16846121c0565b604051602001612d27929190614d90565b6040516020818303038152906040525b915050919050565b600073ffffffffffffffffffffffffffffffffffffffff168273ffffffffffffffffffffffffffffffffffffffff1603612dae576040517f08c379a0000000000000000000000000000000000000000000000000000000008152600401612da590615042565b60405180910390fd5b612db781611a48565b15612df7576040517f08c379a0000000000000000000000000000000000000000000000000000000008152600401612dee906150ae565b60405180910390fd5b612e0360008383612a95565b6001600360008473ffffffffffffffffffffffffffffffffffffffff1673ffffffffffffffffffffffffffffffffffffffff1681526020019081526020016000206000828254612e53919061484f565b92505081905550816002600083815260200190815260200160002060006101000a81548173ffffffffffffffffffffffffffffffffffffffff021916908373ffffffffffffffffffffffffffffffffffffffff160217905550808273ffffffffffffffffffffffffffffffffffffffff16600073ffffffffffffffffffffffffffffffffffffffff167fddf252ad1be2c89b69c2b068fc378daa952ba7f163c4a11628f55a4df523b3ef60405160405180910390a4612f1460008383612a9a565b5050565b6000808273ffffffffffffffffffffffffffffffffffffffff163b119050919050565b828054828255906000526020600020908101928215612f77579160200282015b82811115612f76578251825591602001919060010190612f5b565b5b509050612f849190612fd5565b5090565b828054828255906000526020600020908101928215612fc4579160200282015b82811115612fc3578235825591602001919060010190612fa8565b5b509050612fd19190612fd5565b5090565b5b80821115612fee576000816000905550600101612fd6565b5090565b6000604051905090565b600080fd5b600080fd5b60007fffffffff0000000000000000000000000000000000000000000000000000000082169050919050565b61303b81613006565b811461304657600080fd5b50565b60008135905061305881613032565b92915050565b60006020828403121561307457613073612ffc565b5b600061308284828501613049565b91505092915050565b60008115159050919050565b6130a08161308b565b82525050565b60006020820190506130bb6000830184613097565b92915050565b600081519050919050565b600082825260208201905092915050565b60005b838110156130fb5780820151818401526020810190506130e0565b60008484015250505050565b6000601f19601f8301169050919050565b6000613123826130c1565b61312d81856130cc565b935061313d8185602086016130dd565b61314681613107565b840191505092915050565b6000602082019050818103600083015261316b8184613118565b905092915050565b6000819050919050565b61318681613173565b811461319157600080fd5b50565b6000813590506131a38161317d565b92915050565b6000602082840312156131bf576131be612ffc565b5b60006131cd84828501613194565b91505092915050565b600073ffffffffffffffffffffffffffffffffffffffff82169050919050565b6000613201826131d6565b9050919050565b613211816131f6565b82525050565b600060208201905061322c6000830184613208565b92915050565b61323b816131f6565b811461324657600080fd5b50565b60008135905061325881613232565b92915050565b6000806040838503121561327557613274612ffc565b5b600061328385828601613249565b925050602061329485828601613194565b9150509250929050565b600080fd5b600080fd5b600080fd5b60008083601f8401126132c3576132c261329e565b5b8235905067ffffffffffffffff8111156132e0576132df6132a3565b5b6020830191508360208202830111156132fc576132fb6132a8565b5b9250929050565b60008060006040848603121561331c5761331b612ffc565b5b600061332a86828701613194565b935050602084013567ffffffffffffffff81111561334b5761334a613001565b5b613357868287016132ad565b92509250509250925092565b60008060006060848603121561337c5761337b612ffc565b5b600061338a86828701613249565b935050602061339b86828701613249565b92505060406133ac86828701613194565b9150509250925092565b6133bf81613173565b82525050565b600060808201905081810360008301526133df8187613118565b905081810360208301526133f38186613118565b905061340260408301856133b6565b61340f60608301846133b6565b95945050505050565b60006020828403121561342e5761342d612ffc565b5b600061343c84828501613249565b91505092915050565b600060208201905061345a60008301846133b6565b92915050565b6000819050919050565b600061348561348061347b846131d6565b613460565b6131d6565b9050919050565b60006134978261346a565b9050919050565b60006134a98261348c565b9050919050565b6134b98161349e565b82525050565b60006020820190506134d460008301846134b0565b92915050565b60006040820190506134ef6000830185613097565b6134fc6020830184613097565b9392505050565b61350c8161308b565b811461351757600080fd5b50565b60008135905061352981613503565b92915050565b6000806040838503121561354657613545612ffc565b5b600061355485828601613249565b92505060206135658582860161351a565b9150509250929050565b600080fd5b7f4e487b7100000000000000000000000000000000000000000000000000000000600052604160045260246000fd5b6135ac82613107565b810181811067ffffffffffffffff821117156135cb576135ca613574565b5b80604052505050565b60006135de612ff2565b90506135ea82826135a3565b919050565b600067ffffffffffffffff82111561360a57613609613574565b5b61361382613107565b9050602081019050919050565b82818337600083830152505050565b600061364261363d846135ef565b6135d4565b90508281526020810184848401111561365e5761365d61356f565b5b613669848285613620565b509392505050565b600082601f8301126136865761368561329e565b5b813561369684826020860161362f565b91505092915050565b600080600080608085870312156136b9576136b8612ffc565b5b60006136c787828801613249565b94505060206136d887828801613249565b93505060406136e987828801613194565b925050606085013567ffffffffffffffff81111561370a57613709613001565b5b61371687828801613671565b91505092959194509250565b600081519050919050565b600082825260208201905092915050565b6000819050602082019050919050565b61375781613173565b82525050565b6000613769838361374e565b60208301905092915050565b6000602082019050919050565b600061378d82613722565b613797818561372d565b93506137a28361373e565b8060005b838110156137d35781516137ba888261375d565b97506137c583613775565b9250506001810190506137a6565b5085935050505092915050565b60006040820190506137f56000830185613097565b81810360208301526138078184613782565b90509392505050565b6000806040838503121561382757613826612ffc565b5b600061383585828601613249565b925050602061384685828601613249565b9150509250929050565b7f4e487b7100000000000000000000000000000000000000000000000000000000600052602260045260246000fd5b6000600282049050600182168061389757607f821691505b6020821081036138aa576138a9613850565b5b50919050565b7f4552433732313a20617070726f76656420717565727920666f72206e6f6e657860008201527f697374656e7420746f6b656e0000000000000000000000000000000000000000602082015250565b600061390c602c836130cc565b9150613917826138b0565b604082019050919050565b6000602082019050818103600083015261393b816138ff565b9050919050565b7f4552433732313a20617070726f76616c20746f2063757272656e74206f776e6560008201527f7200000000000000000000000000000000000000000000000000000000000000602082015250565b600061399e6021836130cc565b91506139a982613942565b604082019050919050565b600060208201905081810360008301526139cd81613991565b9050919050565b7f4552433732313a20617070726f76652063616c6c6572206973206e6f74206f7760008201527f6e6572206e6f7220617070726f76656420666f7220616c6c0000000000000000602082015250565b6000613a306038836130cc565b9150613a3b826139d4565b604082019050919050565b60006020820190508181036000830152613a5f81613a23565b9050919050565b6000604082019050613a7b6000830185613208565b613a886020830184613208565b9392505050565b7f4552433732313a207472616e736665722063616c6c6572206973206e6f74206f60008201527f776e6572206e6f7220617070726f766564000000000000000000000000000000602082015250565b6000613aeb6031836130cc565b9150613af682613a8f565b604082019050919050565b60006020820190508181036000830152613b1a81613ade565b9050919050565b7f4552433732313a206f776e657220717565727920666f72206e6f6e657869737460008201527f656e7420746f6b656e0000000000000000000000000000000000000000000000602082015250565b6000613b7d6029836130cc565b9150613b8882613b21565b604082019050919050565b60006020820190508181036000830152613bac81613b70565b9050919050565b7f4552433732313a2062616c616e636520717565727920666f7220746865207a6560008201527f726f206164647265737300000000000000000000000000000000000000000000602082015250565b6000613c0f602a836130cc565b9150613c1a82613bb3565b604082019050919050565b60006020820190508181036000830152613c3e81613c02565b9050919050565b7f4d7573742062652070726f706f736564206f776e657200000000000000000000600082015250565b6000613c7b6016836130cc565b9150613c8682613c45565b602082019050919050565b60006020820190508181036000830152613caa81613c6e565b9050919050565b6000606082019050613cc66000830186613208565b613cd36020830185613208565b613ce06040830184613208565b949350505050565b7f696e76616c696420636861724964000000000000000000000000000000000000600082015250565b6000613d1e600e836130cc565b9150613d2982613ce8565b602082019050919050565b60006020820190508181036000830152613d4d81613d11565b9050919050565b7f4e487b7100000000000000000000000000000000000000000000000000000000600052603260045260246000fd5b60008190508160005260206000209050919050565b60006020601f8301049050919050565b600082821b905092915050565b600060088302613de57fffffffffffffffffffffffffffffffffffffffffffffffffffffffffffffffff82613da8565b613def8683613da8565b95508019841693508086168417925050509392505050565b6000613e22613e1d613e1884613173565b613460565b613173565b9050919050565b6000819050919050565b613e3c83613e07565b613e50613e4882613e29565b848454613db5565b825550505050565b600090565b613e65613e58565b613e70818484613e33565b505050565b5b81811015613e9457613e89600082613e5d565b600181019050613e76565b5050565b601f821115613ed957613eaa81613d83565b613eb384613d98565b81016020851015613ec2578190505b613ed6613ece85613d98565b830182613e75565b50505b505050565b600082821c905092915050565b6000613efc60001984600802613ede565b1980831691505092915050565b6000613f158383613eeb565b9150826002028217905092915050565b613f2e826130c1565b67ffffffffffffffff811115613f4757613f46613574565b5b613f51825461387f565b613f5c828285613e98565b600060209050601f831160018114613f8f5760008415613f7d578287015190505b613f878582613f09565b865550613fef565b601f198416613f9d86613d83565b60005b82811015613fc557848901518255600182019150602085019450602081019050613fa0565b86831015613fe25784890151613fde601f891682613eeb565b8355505b6001600288020188555050505b505050505050565b600081905092915050565b7f7b226e616d65223a202200000000000000000000000000000000000000000000600082015250565b6000614038600a83613ff7565b915061404382614002565b600a82019050919050565b6000815461405b8161387f565b6140658186613ff7565b945060018216600081146140805760018114614095576140c8565b60ff19831686528115158202860193506140c8565b61409e85613d83565b60005b838110156140c0578154818901526001820191506020810190506140a1565b838801955050505b50505092915050565b7f222c226465736372697074696f6e223a2022436861696e6c696e6b2072756e6e60008201527f6572222c00000000000000000000000000000000000000000000000000000000602082015250565b600061412d602483613ff7565b9150614138826140d1565b602482019050919050565b7f22696d616765223a202200000000000000000000000000000000000000000000600082015250565b6000614179600a83613ff7565b915061418482614143565b600a82019050919050565b7f222c2261747472696275746573223a205b000000000000000000000000000000600082015250565b60006141c5601183613ff7565b91506141d08261418f565b601182019050919050565b7f7b2274726169745f74797065223a202264697374616e6365222c000000000000600082015250565b6000614211601a83613ff7565b915061421c826141db565b601a82019050919050565b7f2276616c7565223a200000000000000000000000000000000000000000000000600082015250565b600061425d600983613ff7565b915061426882614227565b600982019050919050565b600061427e826130c1565b6142888185613ff7565b93506142988185602086016130dd565b80840191505092915050565b7f7d00000000000000000000000000000000000000000000000000000000000000600082015250565b60006142da600183613ff7565b91506142e5826142a4565b600182019050919050565b7f2c7b2274726169745f74797065223a2022726f756e64222c0000000000000000600082015250565b6000614326601883613ff7565b9150614331826142f0565b601882019050919050565b7f5d7d000000000000000000000000000000000000000000000000000000000000600082015250565b6000614372600283613ff7565b915061437d8261433c565b600282019050919050565b60006143938261402b565b915061439f828761404e565b91506143aa82614120565b91506143b58261416c565b91506143c1828661404e565b91506143cc826141b8565b91506143d782614204565b91506143e282614250565b91506143ee8285614273565b91506143f9826142cd565b915061440482614319565b915061440f82614250565b915061441b8284614273565b9150614426826142cd565b915061443182614365565b915081905095945050505050565b7f646174613a6170706c69636174696f6e2f6a736f6e3b6261736536342c000000600082015250565b6000614475601d83613ff7565b91506144808261443f565b601d82019050919050565b600061449682614468565b91506144a28284614273565b915081905092915050565b7f746f6b656e4964206e6f74206578697374730000000000000000000000000000600082015250565b60006144e36012836130cc565b91506144ee826144ad565b602082019050919050565b60006020820190508181036000830152614512816144d6565b9050919050565b6000819050919050565b61452c81614519565b82525050565b600061ffff82169050919050565b61454981614532565b82525050565b600063ffffffff82169050919050565b6145688161454f565b82525050565b600081519050919050565b600082825260208201905092915050565b60006145958261456e565b61459f8185614579565b93506145af8185602086016130dd565b6145b881613107565b840191505092915050565b600060c0830160008301516145db6000860182614523565b5060208301516145ee602086018261374e565b5060408301516146016040860182614540565b506060830151614614606086018261455f565b506080830151614627608086018261455f565b5060a083015184820360a086015261463f828261458a565b9150508091505092915050565b6000602082019050818103600083015261466681846145c3565b905092915050565b60008151905061467d8161317d565b92915050565b60006020828403121561469957614698612ffc565b5b60006146a78482850161466e565b91505092915050565b6146b98161454f565b82525050565b60006040820190506146d460008301856133b6565b6146e160208301846146b0565b9392505050565b7f596f75206d757374206d696e742061204e465400000000000000000000000000600082015250565b600061471e6013836130cc565b9150614729826146e8565b602082019050919050565b6000602082019050818103600083015261474d81614711565b9050919050565b7f72657175657374206e6f7420666f756e64000000000000000000000000000000600082015250565b600061478a6011836130cc565b915061479582614754565b602082019050919050565b600060208201905081810360008301526147b98161477d565b9050919050565b7f4e487b7100000000000000000000000000000000000000000000000000000000600052601260045260246000fd5b60006147fa82613173565b915061480583613173565b925082614815576148146147c0565b5b828206905092915050565b7f4e487b7100000000000000000000000000000000000000000000000000000000600052601160045260246000fd5b600061485a82613173565b915061486583613173565b925082820190508082111561487d5761487c614820565b5b92915050565b600061488e82613173565b915061489983613173565b92508282026148a781613173565b915082820484148315176148be576148bd614820565b5b5092915050565b60006148d082613173565b91507fffffffffffffffffffffffffffffffffffffffffffffffffffffffffffffffff820361490257614901614820565b5b600182019050919050565b7f4552433732313a206f70657261746f7220717565727920666f72206e6f6e657860008201527f697374656e7420746f6b656e0000000000000000000000000000000000000000602082015250565b6000614969602c836130cc565b91506149748261490d565b604082019050919050565b600060208201905081810360008301526149988161495c565b9050919050565b7f4552433732313a207472616e736665722066726f6d20696e636f72726563742060008201527f6f776e6572000000000000000000000000000000000000000000000000000000602082015250565b60006149fb6025836130cc565b9150614a068261499f565b604082019050919050565b60006020820190508181036000830152614a2a816149ee565b9050919050565b7f4552433732313a207472616e7366657220746f20746865207a65726f2061646460008201527f7265737300000000000000000000000000000000000000000000000000000000602082015250565b6000614a8d6024836130cc565b9150614a9882614a31565b604082019050919050565b60006020820190508181036000830152614abc81614a80565b9050919050565b6000614ace82613173565b9150614ad983613173565b9250828203905081811115614af157614af0614820565b5b92915050565b6000614b0282613173565b9150614b0d83613173565b925082614b1d57614b1c6147c0565b5b828204905092915050565b7f45524337323155524953746f726167653a2055524920736574206f66206e6f6e60008201527f6578697374656e7420746f6b656e000000000000000000000000000000000000602082015250565b6000614b84602e836130cc565b9150614b8f82614b28565b604082019050919050565b60006020820190508181036000830152614bb381614b77565b9050919050565b7f4552433732313a20617070726f766520746f2063616c6c657200000000000000600082015250565b6000614bf06019836130cc565b9150614bfb82614bba565b602082019050919050565b60006020820190508181036000830152614c1f81614be3565b9050919050565b614c2f8161308b565b82525050565b602082016000820151614c4b6000850182614c26565b50505050565b6000602082019050614c666000830184614c35565b92915050565b7f4552433732313a207472616e7366657220746f206e6f6e20455243373231526560008201527f63656976657220696d706c656d656e7465720000000000000000000000000000602082015250565b6000614cc86032836130cc565b9150614cd382614c6c565b604082019050919050565b60006020820190508181036000830152614cf781614cbb565b9050919050565b7f45524337323155524953746f726167653a2055524920717565727920666f722060008201527f6e6f6e6578697374656e7420746f6b656e000000000000000000000000000000602082015250565b6000614d5a6031836130cc565b9150614d6582614cfe565b604082019050919050565b60006020820190508181036000830152614d8981614d4d565b9050919050565b6000614d9c8285614273565b9150614da88284614273565b91508190509392505050565b7f4f6e6c792063616c6c61626c65206279206f776e657200000000000000000000600082015250565b6000614dea6016836130cc565b9150614df582614db4565b602082019050919050565b60006020820190508181036000830152614e1981614ddd565b9050919050565b7f43616e6e6f74207472616e7366657220746f2073656c66000000000000000000600082015250565b6000614e566017836130cc565b9150614e6182614e20565b602082019050919050565b60006020820190508181036000830152614e8581614e49565b9050919050565b600082825260208201905092915050565b6000614ea88261456e565b614eb28185614e8c565b9350614ec28185602086016130dd565b614ecb81613107565b840191505092915050565b6000608082019050614eeb6000830187613208565b614ef86020830186613208565b614f0560408301856133b6565b8181036060830152614f178184614e9d565b905095945050505050565b600081519050614f3181613032565b92915050565b600060208284031215614f4d57614f4c612ffc565b5b6000614f5b84828501614f22565b91505092915050565b7f4552433732314d657461646174613a2055524920717565727920666f72206e6f60008201527f6e6578697374656e7420746f6b656e0000000000000000000000000000000000602082015250565b6000614fc0602f836130cc565b9150614fcb82614f64565b604082019050919050565b60006020820190508181036000830152614fef81614fb3565b9050919050565b7f4552433732313a206d696e7420746f20746865207a65726f2061646472657373600082015250565b600061502c6020836130cc565b915061503782614ff6565b602082019050919050565b6000602082019050818103600083015261505b8161501f565b9050919050565b7f4552433732313a20746f6b656e20616c7265616479206d696e74656400000000600082015250565b6000615098601c836130cc565b91506150a382615062565b602082019050919050565b600060208201905081810360008301526150c78161508b565b905091905056fe4142434445464748494a4b4c4d4e4f505152535455565758595a6162636465666768696a6b6c6d6e6f707172737475767778797a303132333435363738392b2fa264697066735822122062e7f0c3f0a96900f50ed5fb6f42ed2553a2c8b664b6329780dd7f3e6c2f278864736f6c6343000813003368747470733a2f2f697066732e696f2f697066732f516d5731746f61705973374d3239727a4c5854454e6e33706276776538696f696b583150777a41437a6a666448503f66696c656e616d653d436861696e6c696e6b5f4f72632e706e6768747470733a2f2f697066732e696f2f697066732f516d5a47514139327269316a667a537536314a52614e5158596731624c754d37703859543833447a4641324b4c483f66696c656e616d653d436861696e6c696e6b5f4b6e696768742e706e674142434445464748494a4b4c4d4e4f505152535455565758595a6162636465666768696a6b6c6d6e6f707172737475767778797a303132333435363738392b2f68747470733a2f2f697066732e696f2f697066732f516d504d775174467045644b72556a70514a666f54655a533161565365754a54364d6f66377556323941635570463f66696c656e616d653d436861696e6c696e6b5f57697463682e706e6768747470733a2f2f697066732e696f2f697066732f516d5467716e6846424d6b665439733850484b636458426e3166356247335135686d426152345536686f547662313f66696c656e616d653d436861696e6c696e6b5f456c662e706e67",
			"opcodes": "PUSH1 0x80 PUSH1 0x40 MSTORE PUSH20 0x5C210EF41CD1A72DE73BF76EC39637BB0D3D7BEE PUSH1 0xB PUSH1 0x0 PUSH2 0x100 EXP DUP2 SLOAD DUP2 PUSH20 0xFFFFFFFFFFFFFFFFFFFFFFFFFFFFFFFFFFFFFFFF MUL NOT AND SWAP1 DUP4 PUSH20 0xFFFFFFFFFFFFFFFFFFFFFFFFFFFFFFFFFFFFFFFF AND MUL OR SWAP1 SSTORE POP PUSH32 0xC799BD1E3BD4D1A41CD4968997A4E03DFD2A3C7C04B695881138580163F42887 PUSH1 0x0 SHL PUSH1 0xC SSTORE PUSH3 0x2625A0 PUSH1 0xD PUSH1 0x0 PUSH2 0x100 EXP DUP2 SLOAD DUP2 PUSH4 0xFFFFFFFF MUL NOT AND SWAP1 DUP4 PUSH4 0xFFFFFFFF AND MUL OR SWAP1 SSTORE POP PUSH1 0x3 PUSH1 0xD PUSH1 0x4 PUSH2 0x100 EXP DUP2 SLOAD DUP2 PUSH2 0xFFFF MUL NOT AND SWAP1 DUP4 PUSH2 0xFFFF AND MUL OR SWAP1 SSTORE POP PUSH1 0x1 PUSH1 0xD PUSH1 0x6 PUSH2 0x100 EXP DUP2 SLOAD DUP2 PUSH4 0xFFFFFFFF MUL NOT AND SWAP1 DUP4 PUSH4 0xFFFFFFFF AND MUL OR SWAP1 SSTORE POP PUSH1 0x40 MLOAD DUP1 PUSH1 0x80 ADD PUSH1 0x40 MSTORE DUP1 PUSH1 0x40 MLOAD DUP1 PUSH1 0x80 ADD PUSH1 0x40 MSTORE DUP1 PUSH1 0x5E DUP2 MSTORE PUSH1 0x20 ADD PUSH3 0x766B PUSH1 0x5E SWAP2 CODECOPY DUP2 MSTORE PUSH1 0x20 ADD PUSH1 0x40 MLOAD DUP1 PUSH1 0xA0 ADD PUSH1 0x40 MSTORE DUP1 PUSH1 0x61 DUP2 MSTORE PUSH1 0x20 ADD PUSH3 0x756A PUSH1 0x61 SWAP2 CODECOPY DUP2 MSTORE PUSH1 0x20 ADD PUSH1 0x40 MLOAD DUP1 PUSH1 0x80 ADD PUSH1 0x40 MSTORE DUP1 PUSH1 0x5E DUP2 MSTORE PUSH1 0x20 ADD PUSH3 0x750C PUSH1 0x5E SWAP2 CODECOPY DUP2 MSTORE PUSH1 0x20 ADD PUSH1 0x40 MLOAD DUP1 PUSH1 0x80 ADD PUSH1 0x40 MSTORE DUP1 PUSH1 0x60 DUP2 MSTORE PUSH1 0x20 ADD PUSH3 0x760B PUSH1 0x60 SWAP2 CODECOPY DUP2 MSTORE POP PUSH1 0x13 SWAP1 PUSH1 0x4 PUSH3 0x17B SWAP3 SWAP2 SWAP1 PUSH3 0x1297 JUMP JUMPDEST POP PUSH1 0x40 MLOAD DUP1 PUSH1 0x80 ADD PUSH1 0x40 MSTORE DUP1 PUSH1 0x40 MLOAD DUP1 PUSH1 0x40 ADD PUSH1 0x40 MSTORE DUP1 PUSH1 0x3 DUP2 MSTORE PUSH1 0x20 ADD PUSH32 0x456C660000000000000000000000000000000000000000000000000000000000 DUP2 MSTORE POP DUP2 MSTORE PUSH1 0x20 ADD PUSH1 0x40 MLOAD DUP1 PUSH1 0x40 ADD PUSH1 0x40 MSTORE DUP1 PUSH1 0x6 DUP2 MSTORE PUSH1 0x20 ADD PUSH32 0x4B6E696768740000000000000000000000000000000000000000000000000000 DUP2 MSTORE POP DUP2 MSTORE PUSH1 0x20 ADD PUSH1 0x40 MLOAD DUP1 PUSH1 0x40 ADD PUSH1 0x40 MSTORE DUP1 PUSH1 0x3 DUP2 MSTORE PUSH1 0x20 ADD PUSH32 0x4F72630000000000000000000000000000000000000000000000000000000000 DUP2 MSTORE POP DUP2 MSTORE PUSH1 0x20 ADD PUSH1 0x40 MLOAD DUP1 PUSH1 0x40 ADD PUSH1 0x40 MSTORE DUP1 PUSH1 0x5 DUP2 MSTORE PUSH1 0x20 ADD PUSH32 0x5769746368000000000000000000000000000000000000000000000000000000 DUP2 MSTORE POP DUP2 MSTORE POP PUSH1 0x14 SWAP1 PUSH1 0x4 PUSH3 0x283 SWAP3 SWAP2 SWAP1 PUSH3 0x1297 JUMP JUMPDEST POP CALLVALUE DUP1 ISZERO PUSH3 0x291 JUMPI PUSH1 0x0 DUP1 REVERT JUMPDEST POP PUSH1 0x40 MLOAD PUSH3 0x76C9 CODESIZE SUB DUP1 PUSH3 0x76C9 DUP4 CODECOPY DUP2 DUP2 ADD PUSH1 0x40 MSTORE DUP2 ADD SWAP1 PUSH3 0x2B7 SWAP2 SWAP1 PUSH3 0x13C4 JUMP JUMPDEST PUSH1 0xB PUSH1 0x0 SWAP1 SLOAD SWAP1 PUSH2 0x100 EXP SWAP1 DIV PUSH20 0xFFFFFFFFFFFFFFFFFFFFFFFFFFFFFFFFFFFFFFFF AND CALLER DUP1 PUSH1 0x0 PUSH1 0x40 MLOAD DUP1 PUSH1 0x40 ADD PUSH1 0x40 MSTORE DUP1 PUSH1 0x7 DUP2 MSTORE PUSH1 0x20 ADD PUSH32 0x52756E6E65727300000000000000000000000000000000000000000000000000 DUP2 MSTORE POP PUSH1 0x40 MLOAD DUP1 PUSH1 0x40 ADD PUSH1 0x40 MSTORE DUP1 PUSH1 0x3 DUP2 MSTORE PUSH1 0x20 ADD PUSH32 0x52554E0000000000000000000000000000000000000000000000000000000000 DUP2 MSTORE POP DUP2 PUSH1 0x0 SWAP1 DUP2 PUSH3 0x35B SWAP2 SWAP1 PUSH3 0x1666 JUMP JUMPDEST POP DUP1 PUSH1 0x1 SWAP1 DUP2 PUSH3 0x36D SWAP2 SWAP1 PUSH3 0x1666 JUMP JUMPDEST POP POP POP PUSH1 0x0 PUSH20 0xFFFFFFFFFFFFFFFFFFFFFFFFFFFFFFFFFFFFFFFF AND DUP3 PUSH20 0xFFFFFFFFFFFFFFFFFFFFFFFFFFFFFFFFFFFFFFFF AND SUB PUSH3 0x3E2 JUMPI PUSH1 0x40 MLOAD PUSH32 0x8C379A000000000000000000000000000000000000000000000000000000000 DUP2 MSTORE PUSH1 0x4 ADD PUSH3 0x3D9 SWAP1 PUSH3 0x17AE JUMP JUMPDEST PUSH1 0x40 MLOAD DUP1 SWAP2 SUB SWAP1 REVERT JUMPDEST DUP2 PUSH1 0x7 PUSH1 0x0 PUSH2 0x100 EXP DUP2 SLOAD DUP2 PUSH20 0xFFFFFFFFFFFFFFFFFFFFFFFFFFFFFFFFFFFFFFFF MUL NOT AND SWAP1 DUP4 PUSH20 0xFFFFFFFFFFFFFFFFFFFFFFFFFFFFFFFFFFFFFFFF AND MUL OR SWAP1 SSTORE POP PUSH1 0x0 PUSH20 0xFFFFFFFFFFFFFFFFFFFFFFFFFFFFFFFFFFFFFFFF AND DUP2 PUSH20 0xFFFFFFFFFFFFFFFFFFFFFFFFFFFFFFFFFFFFFFFF AND EQ PUSH3 0x46A JUMPI PUSH3 0x469 DUP2 PUSH3 0x537 PUSH1 0x20 SHL PUSH1 0x20 SHR JUMP JUMPDEST JUMPDEST POP POP POP PUSH1 0x0 PUSH20 0xFFFFFFFFFFFFFFFFFFFFFFFFFFFFFFFFFFFFFFFF AND DUP2 PUSH20 0xFFFFFFFFFFFFFFFFFFFFFFFFFFFFFFFFFFFFFFFF AND SUB PUSH3 0x4D4 JUMPI PUSH1 0x40 MLOAD PUSH32 0xD92E233D00000000000000000000000000000000000000000000000000000000 DUP2 MSTORE PUSH1 0x4 ADD PUSH1 0x40 MLOAD DUP1 SWAP2 SUB SWAP1 REVERT JUMPDEST DUP1 PUSH1 0x9 PUSH1 0x0 PUSH2 0x100 EXP DUP2 SLOAD DUP2 PUSH20 0xFFFFFFFFFFFFFFFFFFFFFFFFFFFFFFFFFFFFFFFF MUL NOT AND SWAP1 DUP4 PUSH20 0xFFFFFFFFFFFFFFFFFFFFFFFFFFFFFFFFFFFFFFFF AND MUL OR SWAP1 SSTORE POP POP DUP1 PUSH1 0x11 DUP2 SWAP1 SSTORE POP PUSH3 0x530 CALLER PUSH1 0x0 PUSH3 0x668 PUSH1 0x20 SHL PUSH1 0x20 SHR JUMP JUMPDEST POP PUSH3 0x23B8 JUMP JUMPDEST CALLER PUSH20 0xFFFFFFFFFFFFFFFFFFFFFFFFFFFFFFFFFFFFFFFF AND DUP2 PUSH20 0xFFFFFFFFFFFFFFFFFFFFFFFFFFFFFFFFFFFFFFFF AND SUB PUSH3 0x5A8 JUMPI PUSH1 0x40 MLOAD PUSH32 0x8C379A000000000000000000000000000000000000000000000000000000000 DUP2 MSTORE PUSH1 0x4 ADD PUSH3 0x59F SWAP1 PUSH3 0x1820 JUMP JUMPDEST PUSH1 0x40 MLOAD DUP1 SWAP2 SUB SWAP1 REVERT JUMPDEST DUP1 PUSH1 0x8 PUSH1 0x0 PUSH2 0x100 EXP DUP2 SLOAD DUP2 PUSH20 0xFFFFFFFFFFFFFFFFFFFFFFFFFFFFFFFFFFFFFFFF MUL NOT AND SWAP1 DUP4 PUSH20 0xFFFFFFFFFFFFFFFFFFFFFFFFFFFFFFFFFFFFFFFF AND MUL OR SWAP1 SSTORE POP DUP1 PUSH20 0xFFFFFFFFFFFFFFFFFFFFFFFFFFFFFFFFFFFFFFFF AND PUSH1 0x7 PUSH1 0x0 SWAP1 SLOAD SWAP1 PUSH2 0x100 EXP SWAP1 DIV PUSH20 0xFFFFFFFFFFFFFFFFFFFFFFFFFFFFFFFFFFFFFFFF AND PUSH20 0xFFFFFFFFFFFFFFFFFFFFFFFFFFFFFFFFFFFFFFFF AND PUSH32 0xED8889F560326EB138920D842192F0EB3DD22B4F139C87A2C57538E05BAE1278 PUSH1 0x40 MLOAD PUSH1 0x40 MLOAD DUP1 SWAP2 SUB SWAP1 LOG3 POP JUMP JUMPDEST PUSH1 0x0 DUP2 SWAP1 POP PUSH1 0x0 DUP2 PUSH1 0xFF AND LT ISZERO DUP1 ISZERO PUSH3 0x686 JUMPI POP PUSH1 0x3 DUP2 PUSH1 0xFF AND GT ISZERO JUMPDEST PUSH3 0x6C8 JUMPI PUSH1 0x40 MLOAD PUSH32 0x8C379A000000000000000000000000000000000000000000000000000000000 DUP2 MSTORE PUSH1 0x4 ADD PUSH3 0x6BF SWAP1 PUSH3 0x1892 JUMP JUMPDEST PUSH1 0x40 MLOAD DUP1 SWAP2 SUB SWAP1 REVERT JUMPDEST PUSH1 0x0 PUSH1 0x13 DUP4 DUP2 SLOAD DUP2 LT PUSH3 0x6E1 JUMPI PUSH3 0x6E0 PUSH3 0x18B4 JUMP JUMPDEST JUMPDEST SWAP1 PUSH1 0x0 MSTORE PUSH1 0x20 PUSH1 0x0 KECCAK256 ADD DUP1 SLOAD PUSH3 0x6F8 SWAP1 PUSH3 0x145F JUMP JUMPDEST DUP1 PUSH1 0x1F ADD PUSH1 0x20 DUP1 SWAP2 DIV MUL PUSH1 0x20 ADD PUSH1 0x40 MLOAD SWAP1 DUP2 ADD PUSH1 0x40 MSTORE DUP1 SWAP3 SWAP2 SWAP1 DUP2 DUP2 MSTORE PUSH1 0x20 ADD DUP3 DUP1 SLOAD PUSH3 0x726 SWAP1 PUSH3 0x145F JUMP JUMPDEST DUP1 ISZERO PUSH3 0x777 JUMPI DUP1 PUSH1 0x1F LT PUSH3 0x74B JUMPI PUSH2 0x100 DUP1 DUP4 SLOAD DIV MUL DUP4 MSTORE SWAP2 PUSH1 0x20 ADD SWAP2 PUSH3 0x777 JUMP JUMPDEST DUP3 ADD SWAP2 SWAP1 PUSH1 0x0 MSTORE PUSH1 0x20 PUSH1 0x0 KECCAK256 SWAP1 JUMPDEST DUP2 SLOAD DUP2 MSTORE SWAP1 PUSH1 0x1 ADD SWAP1 PUSH1 0x20 ADD DUP1 DUP4 GT PUSH3 0x759 JUMPI DUP3 SWAP1 SUB PUSH1 0x1F AND DUP3 ADD SWAP2 JUMPDEST POP POP POP POP POP SWAP1 POP PUSH1 0x15 PUSH1 0x40 MLOAD DUP1 PUSH1 0x80 ADD PUSH1 0x40 MSTORE DUP1 PUSH1 0x14 DUP7 DUP2 SLOAD DUP2 LT PUSH3 0x7A2 JUMPI PUSH3 0x7A1 PUSH3 0x18B4 JUMP JUMPDEST JUMPDEST SWAP1 PUSH1 0x0 MSTORE PUSH1 0x20 PUSH1 0x0 KECCAK256 ADD DUP1 SLOAD PUSH3 0x7B9 SWAP1 PUSH3 0x145F JUMP JUMPDEST DUP1 PUSH1 0x1F ADD PUSH1 0x20 DUP1 SWAP2 DIV MUL PUSH1 0x20 ADD PUSH1 0x40 MLOAD SWAP1 DUP2 ADD PUSH1 0x40 MSTORE DUP1 SWAP3 SWAP2 SWAP1 DUP2 DUP2 MSTORE PUSH1 0x20 ADD DUP3 DUP1 SLOAD PUSH3 0x7E7 SWAP1 PUSH3 0x145F JUMP JUMPDEST DUP1 ISZERO PUSH3 0x838 JUMPI DUP1 PUSH1 0x1F LT PUSH3 0x80C JUMPI PUSH2 0x100 DUP1 DUP4 SLOAD DIV MUL DUP4 MSTORE SWAP2 PUSH1 0x20 ADD SWAP2 PUSH3 0x838 JUMP JUMPDEST DUP3 ADD SWAP2 SWAP1 PUSH1 0x0 MSTORE PUSH1 0x20 PUSH1 0x0 KECCAK256 SWAP1 JUMPDEST DUP2 SLOAD DUP2 MSTORE SWAP1 PUSH1 0x1 ADD SWAP1 PUSH1 0x20 ADD DUP1 DUP4 GT PUSH3 0x81A JUMPI DUP3 SWAP1 SUB PUSH1 0x1F AND DUP3 ADD SWAP2 JUMPDEST POP POP POP POP POP DUP2 MSTORE PUSH1 0x20 ADD DUP4 DUP2 MSTORE PUSH1 0x20 ADD PUSH1 0x0 DUP2 MSTORE PUSH1 0x20 ADD PUSH1 0x0 DUP2 MSTORE POP SWAP1 DUP1 PUSH1 0x1 DUP2 SLOAD ADD DUP1 DUP3 SSTORE DUP1 SWAP2 POP POP PUSH1 0x1 SWAP1 SUB SWAP1 PUSH1 0x0 MSTORE PUSH1 0x20 PUSH1 0x0 KECCAK256 SWAP1 PUSH1 0x4 MUL ADD PUSH1 0x0 SWAP1 SWAP2 SWAP1 SWAP2 SWAP1 SWAP2 POP PUSH1 0x0 DUP3 ADD MLOAD DUP2 PUSH1 0x0 ADD SWAP1 DUP2 PUSH3 0x894 SWAP2 SWAP1 PUSH3 0x1666 JUMP JUMPDEST POP PUSH1 0x20 DUP3 ADD MLOAD DUP2 PUSH1 0x1 ADD SWAP1 DUP2 PUSH3 0x8AC SWAP2 SWAP1 PUSH3 0x1666 JUMP JUMPDEST POP PUSH1 0x40 DUP3 ADD MLOAD DUP2 PUSH1 0x2 ADD SSTORE PUSH1 0x60 DUP3 ADD MLOAD DUP2 PUSH1 0x3 ADD SSTORE POP POP PUSH1 0x0 PUSH3 0x8D7 PUSH1 0x12 PUSH3 0xA38 PUSH1 0x20 SHL PUSH1 0x20 SHR JUMP JUMPDEST SWAP1 POP PUSH1 0x0 PUSH3 0x9D1 PUSH1 0x15 DUP4 DUP2 SLOAD DUP2 LT PUSH3 0x8F6 JUMPI PUSH3 0x8F5 PUSH3 0x18B4 JUMP JUMPDEST JUMPDEST SWAP1 PUSH1 0x0 MSTORE PUSH1 0x20 PUSH1 0x0 KECCAK256 SWAP1 PUSH1 0x4 MUL ADD PUSH1 0x0 ADD PUSH1 0x15 DUP5 DUP2 SLOAD DUP2 LT PUSH3 0x91E JUMPI PUSH3 0x91D PUSH3 0x18B4 JUMP JUMPDEST JUMPDEST SWAP1 PUSH1 0x0 MSTORE PUSH1 0x20 PUSH1 0x0 KECCAK256 SWAP1 PUSH1 0x4 MUL ADD PUSH1 0x1 ADD PUSH3 0x968 PUSH1 0x15 DUP7 DUP2 SLOAD DUP2 LT PUSH3 0x94A JUMPI PUSH3 0x949 PUSH3 0x18B4 JUMP JUMPDEST JUMPDEST SWAP1 PUSH1 0x0 MSTORE PUSH1 0x20 PUSH1 0x0 KECCAK256 SWAP1 PUSH1 0x4 MUL ADD PUSH1 0x2 ADD SLOAD PUSH3 0xA46 PUSH1 0x20 SHL PUSH1 0x20 SHR JUMP JUMPDEST PUSH3 0x9A1 PUSH1 0x15 DUP8 DUP2 SLOAD DUP2 LT PUSH3 0x983 JUMPI PUSH3 0x982 PUSH3 0x18B4 JUMP JUMPDEST JUMPDEST SWAP1 PUSH1 0x0 MSTORE PUSH1 0x20 PUSH1 0x0 KECCAK256 SWAP1 PUSH1 0x4 MUL ADD PUSH1 0x3 ADD SLOAD PUSH3 0xA46 PUSH1 0x20 SHL PUSH1 0x20 SHR JUMP JUMPDEST PUSH1 0x40 MLOAD PUSH1 0x20 ADD PUSH3 0x9B6 SWAP5 SWAP4 SWAP3 SWAP2 SWAP1 PUSH3 0x1CD6 JUMP JUMPDEST PUSH1 0x40 MLOAD PUSH1 0x20 DUP2 DUP4 SUB SUB DUP2 MSTORE SWAP1 PUSH1 0x40 MSTORE PUSH3 0xBBF PUSH1 0x20 SHL PUSH1 0x20 SHR JUMP JUMPDEST SWAP1 POP PUSH1 0x0 DUP2 PUSH1 0x40 MLOAD PUSH1 0x20 ADD PUSH3 0x9E8 SWAP2 SWAP1 PUSH3 0x1DFB JUMP JUMPDEST PUSH1 0x40 MLOAD PUSH1 0x20 DUP2 DUP4 SUB SUB DUP2 MSTORE SWAP1 PUSH1 0x40 MSTORE SWAP1 POP PUSH3 0xA0B PUSH1 0x12 PUSH3 0xD35 PUSH1 0x20 SHL PUSH1 0x20 SHR JUMP JUMPDEST PUSH3 0xA1D DUP8 DUP5 PUSH3 0xD4B PUSH1 0x20 SHL PUSH1 0x20 SHR JUMP JUMPDEST PUSH3 0xA2F DUP4 DUP3 PUSH3 0xD71 PUSH1 0x20 SHL PUSH1 0x20 SHR JUMP JUMPDEST POP POP POP POP POP POP POP JUMP JUMPDEST PUSH1 0x0 DUP2 PUSH1 0x0 ADD SLOAD SWAP1 POP SWAP2 SWAP1 POP JUMP JUMPDEST PUSH1 0x60 PUSH1 0x0 DUP3 SUB PUSH3 0xA8F JUMPI PUSH1 0x40 MLOAD DUP1 PUSH1 0x40 ADD PUSH1 0x40 MSTORE DUP1 PUSH1 0x1 DUP2 MSTORE PUSH1 0x20 ADD PUSH32 0x3000000000000000000000000000000000000000000000000000000000000000 DUP2 MSTORE POP SWAP1 POP PUSH3 0xBBA JUMP JUMPDEST PUSH1 0x0 DUP3 SWAP1 POP PUSH1 0x0 JUMPDEST PUSH1 0x0 DUP3 EQ PUSH3 0xAC7 JUMPI DUP1 DUP1 PUSH3 0xAAD SWAP1 PUSH3 0x1E50 JUMP JUMPDEST SWAP2 POP POP PUSH1 0xA DUP3 PUSH3 0xABF SWAP2 SWAP1 PUSH3 0x1ECC JUMP JUMPDEST SWAP2 POP PUSH3 0xA97 JUMP JUMPDEST PUSH1 0x0 DUP2 PUSH8 0xFFFFFFFFFFFFFFFF DUP2 GT ISZERO PUSH3 0xAE6 JUMPI PUSH3 0xAE5 PUSH3 0x1401 JUMP JUMPDEST JUMPDEST PUSH1 0x40 MLOAD SWAP1 DUP1 DUP3 MSTORE DUP1 PUSH1 0x1F ADD PUSH1 0x1F NOT AND PUSH1 0x20 ADD DUP3 ADD PUSH1 0x40 MSTORE DUP1 ISZERO PUSH3 0xB19 JUMPI DUP2 PUSH1 0x20 ADD PUSH1 0x1 DUP3 MUL DUP1 CALLDATASIZE DUP4 CALLDATACOPY DUP1 DUP3 ADD SWAP2 POP POP SWAP1 POP JUMPDEST POP SWAP1 POP JUMPDEST PUSH1 0x0 DUP6 EQ PUSH3 0xBB3 JUMPI PUSH1 0x1 DUP3 PUSH3 0xB35 SWAP2 SWAP1 PUSH3 0x1F04 JUMP JUMPDEST SWAP2 POP PUSH1 0xA DUP6 PUSH3 0xB46 SWAP2 SWAP1 PUSH3 0x1F3F JUMP JUMPDEST PUSH1 0x30 PUSH3 0xB54 SWAP2 SWAP1 PUSH3 0x1F77 JUMP JUMPDEST PUSH1 0xF8 SHL DUP2 DUP4 DUP2 MLOAD DUP2 LT PUSH3 0xB6D JUMPI PUSH3 0xB6C PUSH3 0x18B4 JUMP JUMPDEST JUMPDEST PUSH1 0x20 ADD ADD SWAP1 PUSH31 0xFFFFFFFFFFFFFFFFFFFFFFFFFFFFFFFFFFFFFFFFFFFFFFFFFFFFFFFFFFFFFF NOT AND SWAP1 DUP2 PUSH1 0x0 BYTE SWAP1 MSTORE8 POP PUSH1 0xA DUP6 PUSH3 0xBAB SWAP2 SWAP1 PUSH3 0x1ECC JUMP JUMPDEST SWAP5 POP PUSH3 0xB1D JUMP JUMPDEST DUP1 SWAP4 POP POP POP POP JUMPDEST SWAP2 SWAP1 POP JUMP JUMPDEST PUSH1 0x60 PUSH1 0x0 DUP3 MLOAD SUB PUSH3 0xBE3 JUMPI PUSH1 0x40 MLOAD DUP1 PUSH1 0x20 ADD PUSH1 0x40 MSTORE DUP1 PUSH1 0x0 DUP2 MSTORE POP SWAP1 POP PUSH3 0xD30 JUMP JUMPDEST PUSH1 0x0 PUSH1 0x40 MLOAD DUP1 PUSH1 0x60 ADD PUSH1 0x40 MSTORE DUP1 PUSH1 0x40 DUP2 MSTORE PUSH1 0x20 ADD PUSH3 0x75CB PUSH1 0x40 SWAP2 CODECOPY SWAP1 POP PUSH1 0x0 PUSH1 0x3 PUSH1 0x2 DUP6 MLOAD PUSH3 0xC15 SWAP2 SWAP1 PUSH3 0x1F77 JUMP JUMPDEST PUSH3 0xC21 SWAP2 SWAP1 PUSH3 0x1ECC JUMP JUMPDEST PUSH1 0x4 PUSH3 0xC2F SWAP2 SWAP1 PUSH3 0x1FB2 JUMP JUMPDEST PUSH8 0xFFFFFFFFFFFFFFFF DUP2 GT ISZERO PUSH3 0xC4B JUMPI PUSH3 0xC4A PUSH3 0x1401 JUMP JUMPDEST JUMPDEST PUSH1 0x40 MLOAD SWAP1 DUP1 DUP3 MSTORE DUP1 PUSH1 0x1F ADD PUSH1 0x1F NOT AND PUSH1 0x20 ADD DUP3 ADD PUSH1 0x40 MSTORE DUP1 ISZERO PUSH3 0xC7E JUMPI DUP2 PUSH1 0x20 ADD PUSH1 0x1 DUP3 MUL DUP1 CALLDATASIZE DUP4 CALLDATACOPY DUP1 DUP3 ADD SWAP2 POP POP SWAP1 POP JUMPDEST POP SWAP1 POP PUSH1 0x1 DUP3 ADD PUSH1 0x20 DUP3 ADD DUP6 DUP7 MLOAD DUP8 ADD JUMPDEST DUP1 DUP3 LT ISZERO PUSH3 0xCEC JUMPI PUSH1 0x3 DUP3 ADD SWAP2 POP DUP2 MLOAD PUSH1 0x3F DUP2 PUSH1 0x12 SHR AND DUP6 ADD MLOAD DUP5 MSTORE8 PUSH1 0x1 DUP5 ADD SWAP4 POP PUSH1 0x3F DUP2 PUSH1 0xC SHR AND DUP6 ADD MLOAD DUP5 MSTORE8 PUSH1 0x1 DUP5 ADD SWAP4 POP PUSH1 0x3F DUP2 PUSH1 0x6 SHR AND DUP6 ADD MLOAD DUP5 MSTORE8 PUSH1 0x1 DUP5 ADD SWAP4 POP PUSH1 0x3F DUP2 AND DUP6 ADD MLOAD DUP5 MSTORE8 PUSH1 0x1 DUP5 ADD SWAP4 POP POP PUSH3 0xC8F JUMP JUMPDEST POP POP PUSH1 0x3 DUP7 MLOAD MOD PUSH1 0x1 DUP2 EQ PUSH3 0xD0B JUMPI PUSH1 0x2 DUP2 EQ PUSH3 0xD1F JUMPI PUSH3 0xD27 JUMP JUMPDEST PUSH1 0x3D PUSH1 0x1 DUP4 SUB MSTORE8 PUSH1 0x3D PUSH1 0x2 DUP4 SUB MSTORE8 PUSH3 0xD27 JUMP JUMPDEST PUSH1 0x3D PUSH1 0x1 DUP4 SUB MSTORE8 JUMPDEST POP POP POP DUP1 SWAP3 POP POP POP JUMPDEST SWAP2 SWAP1 POP JUMP JUMPDEST PUSH1 0x1 DUP2 PUSH1 0x0 ADD PUSH1 0x0 DUP3 DUP3 SLOAD ADD SWAP3 POP POP DUP2 SWAP1 SSTORE POP POP JUMP JUMPDEST PUSH3 0xD6D DUP3 DUP3 PUSH1 0x40 MLOAD DUP1 PUSH1 0x20 ADD PUSH1 0x40 MSTORE DUP1 PUSH1 0x0 DUP2 MSTORE POP PUSH3 0xDEB PUSH1 0x20 SHL PUSH1 0x20 SHR JUMP JUMPDEST POP POP JUMP JUMPDEST PUSH3 0xD82 DUP3 PUSH3 0xE59 PUSH1 0x20 SHL PUSH1 0x20 SHR JUMP JUMPDEST PUSH3 0xDC4 JUMPI PUSH1 0x40 MLOAD PUSH32 0x8C379A000000000000000000000000000000000000000000000000000000000 DUP2 MSTORE PUSH1 0x4 ADD PUSH3 0xDBB SWAP1 PUSH3 0x2073 JUMP JUMPDEST PUSH1 0x40 MLOAD DUP1 SWAP2 SUB SWAP1 REVERT JUMPDEST DUP1 PUSH1 0x6 PUSH1 0x0 DUP5 DUP2 MSTORE PUSH1 0x20 ADD SWAP1 DUP2 MSTORE PUSH1 0x20 ADD PUSH1 0x0 KECCAK256 SWAP1 DUP2 PUSH3 0xDE6 SWAP2 SWAP1 PUSH3 0x1666 JUMP JUMPDEST POP POP POP JUMP JUMPDEST PUSH3 0xDFD DUP4 DUP4 PUSH3 0xEC5 PUSH1 0x20 SHL PUSH1 0x20 SHR JUMP JUMPDEST PUSH3 0xE12 PUSH1 0x0 DUP5 DUP5 DUP5 PUSH3 0x10BE PUSH1 0x20 SHL PUSH1 0x20 SHR JUMP JUMPDEST PUSH3 0xE54 JUMPI PUSH1 0x40 MLOAD PUSH32 0x8C379A000000000000000000000000000000000000000000000000000000000 DUP2 MSTORE PUSH1 0x4 ADD PUSH3 0xE4B SWAP1 PUSH3 0x210B JUMP JUMPDEST PUSH1 0x40 MLOAD DUP1 SWAP2 SUB SWAP1 REVERT JUMPDEST POP POP POP JUMP JUMPDEST PUSH1 0x0 DUP1 PUSH20 0xFFFFFFFFFFFFFFFFFFFFFFFFFFFFFFFFFFFFFFFF AND PUSH1 0x2 PUSH1 0x0 DUP5 DUP2 MSTORE PUSH1 0x20 ADD SWAP1 DUP2 MSTORE PUSH1 0x20 ADD PUSH1 0x0 KECCAK256 PUSH1 0x0 SWAP1 SLOAD SWAP1 PUSH2 0x100 EXP SWAP1 DIV PUSH20 0xFFFFFFFFFFFFFFFFFFFFFFFFFFFFFFFFFFFFFFFF AND PUSH20 0xFFFFFFFFFFFFFFFFFFFFFFFFFFFFFFFFFFFFFFFF AND EQ ISZERO SWAP1 POP SWAP2 SWAP1 POP JUMP JUMPDEST PUSH1 0x0 PUSH20 0xFFFFFFFFFFFFFFFFFFFFFFFFFFFFFFFFFFFFFFFF AND DUP3 PUSH20 0xFFFFFFFFFFFFFFFFFFFFFFFFFFFFFFFFFFFFFFFF AND SUB PUSH3 0xF37 JUMPI PUSH1 0x40 MLOAD PUSH32 0x8C379A000000000000000000000000000000000000000000000000000000000 DUP2 MSTORE PUSH1 0x4 ADD PUSH3 0xF2E SWAP1 PUSH3 0x217D JUMP JUMPDEST PUSH1 0x40 MLOAD DUP1 SWAP2 SUB SWAP1 REVERT JUMPDEST PUSH3 0xF48 DUP2 PUSH3 0xE59 PUSH1 0x20 SHL PUSH1 0x20 SHR JUMP JUMPDEST ISZERO PUSH3 0xF8B JUMPI PUSH1 0x40 MLOAD PUSH32 0x8C379A000000000000000000000000000000000000000000000000000000000 DUP2 MSTORE PUSH1 0x4 ADD PUSH3 0xF82 SWAP1 PUSH3 0x21EF JUMP JUMPDEST PUSH1 0x40 MLOAD DUP1 SWAP2 SUB SWAP1 REVERT JUMPDEST PUSH3 0xF9F PUSH1 0x0 DUP4 DUP4 PUSH3 0x1262 PUSH1 0x20 SHL PUSH1 0x20 SHR JUMP JUMPDEST PUSH1 0x1 PUSH1 0x3 PUSH1 0x0 DUP5 PUSH20 0xFFFFFFFFFFFFFFFFFFFFFFFFFFFFFFFFFFFFFFFF AND PUSH20 0xFFFFFFFFFFFFFFFFFFFFFFFFFFFFFFFFFFFFFFFF AND DUP2 MSTORE PUSH1 0x20 ADD SWAP1 DUP2 MSTORE PUSH1 0x20 ADD PUSH1 0x0 KECCAK256 PUSH1 0x0 DUP3 DUP3 SLOAD PUSH3 0xFF1 SWAP2 SWAP1 PUSH3 0x1F77 JUMP JUMPDEST SWAP3 POP POP DUP2 SWAP1 SSTORE POP DUP2 PUSH1 0x2 PUSH1 0x0 DUP4 DUP2 MSTORE PUSH1 0x20 ADD SWAP1 DUP2 MSTORE PUSH1 0x20 ADD PUSH1 0x0 KECCAK256 PUSH1 0x0 PUSH2 0x100 EXP DUP2 SLOAD DUP2 PUSH20 0xFFFFFFFFFFFFFFFFFFFFFFFFFFFFFFFFFFFFFFFF MUL NOT AND SWAP1 DUP4 PUSH20 0xFFFFFFFFFFFFFFFFFFFFFFFFFFFFFFFFFFFFFFFF AND MUL OR SWAP1 SSTORE POP DUP1 DUP3 PUSH20 0xFFFFFFFFFFFFFFFFFFFFFFFFFFFFFFFFFFFFFFFF AND PUSH1 0x0 PUSH20 0xFFFFFFFFFFFFFFFFFFFFFFFFFFFFFFFFFFFFFFFF AND PUSH32 0xDDF252AD1BE2C89B69C2B068FC378DAA952BA7F163C4A11628F55A4DF523B3EF PUSH1 0x40 MLOAD PUSH1 0x40 MLOAD DUP1 SWAP2 SUB SWAP1 LOG4 PUSH3 0x10BA PUSH1 0x0 DUP4 DUP4 PUSH3 0x1267 PUSH1 0x20 SHL PUSH1 0x20 SHR JUMP JUMPDEST POP POP JUMP JUMPDEST PUSH1 0x0 PUSH3 0x10E7 DUP5 PUSH20 0xFFFFFFFFFFFFFFFFFFFFFFFFFFFFFFFFFFFFFFFF AND PUSH3 0x126C PUSH1 0x20 SHL PUSH1 0x20 SHR JUMP JUMPDEST ISZERO PUSH3 0x1255 JUMPI DUP4 PUSH20 0xFFFFFFFFFFFFFFFFFFFFFFFFFFFFFFFFFFFFFFFF AND PUSH4 0x150B7A02 PUSH3 0x1119 PUSH3 0x128F PUSH1 0x20 SHL PUSH1 0x20 SHR JUMP JUMPDEST DUP8 DUP7 DUP7 PUSH1 0x40 MLOAD DUP6 PUSH4 0xFFFFFFFF AND PUSH1 0xE0 SHL DUP2 MSTORE PUSH1 0x4 ADD PUSH3 0x113D SWAP5 SWAP4 SWAP3 SWAP2 SWAP1 PUSH3 0x22D5 JUMP JUMPDEST PUSH1 0x20 PUSH1 0x40 MLOAD DUP1 DUP4 SUB DUP2 PUSH1 0x0 DUP8 GAS CALL SWAP3 POP POP POP DUP1 ISZERO PUSH3 0x117C JUMPI POP PUSH1 0x40 MLOAD RETURNDATASIZE PUSH1 0x1F NOT PUSH1 0x1F DUP3 ADD AND DUP3 ADD DUP1 PUSH1 0x40 MSTORE POP DUP2 ADD SWAP1 PUSH3 0x1179 SWAP2 SWAP1 PUSH3 0x2386 JUMP JUMPDEST PUSH1 0x1 JUMPDEST PUSH3 0x1204 JUMPI RETURNDATASIZE DUP1 PUSH1 0x0 DUP2 EQ PUSH3 0x11AF JUMPI PUSH1 0x40 MLOAD SWAP2 POP PUSH1 0x1F NOT PUSH1 0x3F RETURNDATASIZE ADD AND DUP3 ADD PUSH1 0x40 MSTORE RETURNDATASIZE DUP3 MSTORE RETURNDATASIZE PUSH1 0x0 PUSH1 0x20 DUP5 ADD RETURNDATACOPY PUSH3 0x11B4 JUMP JUMPDEST PUSH1 0x60 SWAP2 POP JUMPDEST POP PUSH1 0x0 DUP2 MLOAD SUB PUSH3 0x11FC JUMPI PUSH1 0x40 MLOAD PUSH32 0x8C379A000000000000000000000000000000000000000000000000000000000 DUP2 MSTORE PUSH1 0x4 ADD PUSH3 0x11F3 SWAP1 PUSH3 0x210B JUMP JUMPDEST PUSH1 0x40 MLOAD DUP1 SWAP2 SUB SWAP1 REVERT JUMPDEST DUP1 MLOAD DUP2 PUSH1 0x20 ADD REVERT JUMPDEST PUSH4 0x150B7A02 PUSH1 0xE0 SHL PUSH28 0xFFFFFFFFFFFFFFFFFFFFFFFFFFFFFFFFFFFFFFFFFFFFFFFFFFFFFFFF NOT AND DUP2 PUSH28 0xFFFFFFFFFFFFFFFFFFFFFFFFFFFFFFFFFFFFFFFFFFFFFFFFFFFFFFFF NOT AND EQ SWAP2 POP POP PUSH3 0x125A JUMP JUMPDEST PUSH1 0x1 SWAP1 POP JUMPDEST SWAP5 SWAP4 POP POP POP POP JUMP JUMPDEST POP POP POP JUMP JUMPDEST POP POP POP JUMP JUMPDEST PUSH1 0x0 DUP1 DUP3 PUSH20 0xFFFFFFFFFFFFFFFFFFFFFFFFFFFFFFFFFFFFFFFF AND EXTCODESIZE GT SWAP1 POP SWAP2 SWAP1 POP JUMP JUMPDEST PUSH1 0x0 CALLER SWAP1 POP SWAP1 JUMP JUMPDEST DUP3 DUP1 SLOAD DUP3 DUP3 SSTORE SWAP1 PUSH1 0x0 MSTORE PUSH1 0x20 PUSH1 0x0 KECCAK256 SWAP1 DUP2 ADD SWAP3 DUP3 ISZERO PUSH3 0x12E4 JUMPI SWAP2 PUSH1 0x20 MUL DUP3 ADD JUMPDEST DUP3 DUP2 GT ISZERO PUSH3 0x12E3 JUMPI DUP3 MLOAD DUP3 SWAP1 DUP2 PUSH3 0x12D2 SWAP2 SWAP1 PUSH3 0x1666 JUMP JUMPDEST POP SWAP2 PUSH1 0x20 ADD SWAP2 SWAP1 PUSH1 0x1 ADD SWAP1 PUSH3 0x12B8 JUMP JUMPDEST JUMPDEST POP SWAP1 POP PUSH3 0x12F3 SWAP2 SWAP1 PUSH3 0x12F7 JUMP JUMPDEST POP SWAP1 JUMP JUMPDEST JUMPDEST DUP1 DUP3 GT ISZERO PUSH3 0x131B JUMPI PUSH1 0x0 DUP2 DUP2 PUSH3 0x1311 SWAP2 SWAP1 PUSH3 0x131F JUMP JUMPDEST POP PUSH1 0x1 ADD PUSH3 0x12F8 JUMP JUMPDEST POP SWAP1 JUMP JUMPDEST POP DUP1 SLOAD PUSH3 0x132D SWAP1 PUSH3 0x145F JUMP JUMPDEST PUSH1 0x0 DUP3 SSTORE DUP1 PUSH1 0x1F LT PUSH3 0x1341 JUMPI POP PUSH3 0x1362 JUMP JUMPDEST PUSH1 0x1F ADD PUSH1 0x20 SWAP1 DIV SWAP1 PUSH1 0x0 MSTORE PUSH1 0x20 PUSH1 0x0 KECCAK256 SWAP1 DUP2 ADD SWAP1 PUSH3 0x1361 SWAP2 SWAP1 PUSH3 0x1365 JUMP JUMPDEST JUMPDEST POP JUMP JUMPDEST JUMPDEST DUP1 DUP3 GT ISZERO PUSH3 0x1380 JUMPI PUSH1 0x0 DUP2 PUSH1 0x0 SWAP1 SSTORE POP PUSH1 0x1 ADD PUSH3 0x1366 JUMP JUMPDEST POP SWAP1 JUMP JUMPDEST PUSH1 0x0 DUP1 REVERT JUMPDEST PUSH1 0x0 DUP2 SWAP1 POP SWAP2 SWAP1 POP JUMP JUMPDEST PUSH3 0x139E DUP2 PUSH3 0x1389 JUMP JUMPDEST DUP2 EQ PUSH3 0x13AA JUMPI PUSH1 0x0 DUP1 REVERT JUMPDEST POP JUMP JUMPDEST PUSH1 0x0 DUP2 MLOAD SWAP1 POP PUSH3 0x13BE DUP2 PUSH3 0x1393 JUMP JUMPDEST SWAP3 SWAP2 POP POP JUMP JUMPDEST PUSH1 0x0 PUSH1 0x20 DUP3 DUP5 SUB SLT ISZERO PUSH3 0x13DD JUMPI PUSH3 0x13DC PUSH3 0x1384 JUMP JUMPDEST JUMPDEST PUSH1 0x0 PUSH3 0x13ED DUP5 DUP3 DUP6 ADD PUSH3 0x13AD JUMP JUMPDEST SWAP2 POP POP SWAP3 SWAP2 POP POP JUMP JUMPDEST PUSH1 0x0 DUP2 MLOAD SWAP1 POP SWAP2 SWAP1 POP JUMP JUMPDEST PUSH32 0x4E487B7100000000000000000000000000000000000000000000000000000000 PUSH1 0x0 MSTORE PUSH1 0x41 PUSH1 0x4 MSTORE PUSH1 0x24 PUSH1 0x0 REVERT JUMPDEST PUSH32 0x4E487B7100000000000000000000000000000000000000000000000000000000 PUSH1 0x0 MSTORE PUSH1 0x22 PUSH1 0x4 MSTORE PUSH1 0x24 PUSH1 0x0 REVERT JUMPDEST PUSH1 0x0 PUSH1 0x2 DUP3 DIV SWAP1 POP PUSH1 0x1 DUP3 AND DUP1 PUSH3 0x1478 JUMPI PUSH1 0x7F DUP3 AND SWAP2 POP JUMPDEST PUSH1 0x20 DUP3 LT DUP2 SUB PUSH3 0x148E JUMPI PUSH3 0x148D PUSH3 0x1430 JUMP JUMPDEST JUMPDEST POP SWAP2 SWAP1 POP JUMP JUMPDEST PUSH1 0x0 DUP2 SWAP1 POP DUP2 PUSH1 0x0 MSTORE PUSH1 0x20 PUSH1 0x0 KECCAK256 SWAP1 POP SWAP2 SWAP1 POP JUMP JUMPDEST PUSH1 0x0 PUSH1 0x20 PUSH1 0x1F DUP4 ADD DIV SWAP1 POP SWAP2 SWAP1 POP JUMP JUMPDEST PUSH1 0x0 DUP3 DUP3 SHL SWAP1 POP SWAP3 SWAP2 POP POP JUMP JUMPDEST PUSH1 0x0 PUSH1 0x8 DUP4 MUL PUSH3 0x14F8 PUSH32 0xFFFFFFFFFFFFFFFFFFFFFFFFFFFFFFFFFFFFFFFFFFFFFFFFFFFFFFFFFFFFFFFF DUP3 PUSH3 0x14B9 JUMP JUMPDEST PUSH3 0x1504 DUP7 DUP4 PUSH3 0x14B9 JUMP JUMPDEST SWAP6 POP DUP1 NOT DUP5 AND SWAP4 POP DUP1 DUP7 AND DUP5 OR SWAP3 POP POP POP SWAP4 SWAP3 POP POP POP JUMP JUMPDEST PUSH1 0x0 DUP2 SWAP1 POP SWAP2 SWAP1 POP JUMP JUMPDEST PUSH1 0x0 PUSH3 0x1547 PUSH3 0x1541 PUSH3 0x153B DUP5 PUSH3 0x1389 JUMP JUMPDEST PUSH3 0x151C JUMP JUMPDEST PUSH3 0x1389 JUMP JUMPDEST SWAP1 POP SWAP2 SWAP1 POP JUMP JUMPDEST PUSH1 0x0 DUP2 SWAP1 POP SWAP2 SWAP1 POP JUMP JUMPDEST PUSH3 0x1563 DUP4 PUSH3 0x1526 JUMP JUMPDEST PUSH3 0x157B PUSH3 0x1572 DUP3 PUSH3 0x154E JUMP JUMPDEST DUP5 DUP5 SLOAD PUSH3 0x14C6 JUMP JUMPDEST DUP3 SSTORE POP POP POP POP JUMP JUMPDEST PUSH1 0x0 SWAP1 JUMP JUMPDEST PUSH3 0x1592 PUSH3 0x1583 JUMP JUMPDEST PUSH3 0x159F DUP2 DUP5 DUP5 PUSH3 0x1558 JUMP JUMPDEST POP POP POP JUMP JUMPDEST JUMPDEST DUP2 DUP2 LT ISZERO PUSH3 0x15C7 JUMPI PUSH3 0x15BB PUSH1 0x0 DUP3 PUSH3 0x1588 JUMP JUMPDEST PUSH1 0x1 DUP2 ADD SWAP1 POP PUSH3 0x15A5 JUMP JUMPDEST POP POP JUMP JUMPDEST PUSH1 0x1F DUP3 GT ISZERO PUSH3 0x1616 JUMPI PUSH3 0x15E0 DUP2 PUSH3 0x1494 JUMP JUMPDEST PUSH3 0x15EB DUP5 PUSH3 0x14A9 JUMP JUMPDEST DUP2 ADD PUSH1 0x20 DUP6 LT ISZERO PUSH3 0x15FB JUMPI DUP2 SWAP1 POP JUMPDEST PUSH3 0x1613 PUSH3 0x160A DUP6 PUSH3 0x14A9 JUMP JUMPDEST DUP4 ADD DUP3 PUSH3 0x15A4 JUMP JUMPDEST POP POP JUMPDEST POP POP POP JUMP JUMPDEST PUSH1 0x0 DUP3 DUP3 SHR SWAP1 POP SWAP3 SWAP2 POP POP JUMP JUMPDEST PUSH1 0x0 PUSH3 0x163B PUSH1 0x0 NOT DUP5 PUSH1 0x8 MUL PUSH3 0x161B JUMP JUMPDEST NOT DUP1 DUP4 AND SWAP2 POP POP SWAP3 SWAP2 POP POP JUMP JUMPDEST PUSH1 0x0 PUSH3 0x1656 DUP4 DUP4 PUSH3 0x1628 JUMP JUMPDEST SWAP2 POP DUP3 PUSH1 0x2 MUL DUP3 OR SWAP1 POP SWAP3 SWAP2 POP POP JUMP JUMPDEST PUSH3 0x1671 DUP3 PUSH3 0x13F6 JUMP JUMPDEST PUSH8 0xFFFFFFFFFFFFFFFF DUP2 GT ISZERO PUSH3 0x168D JUMPI PUSH3 0x168C PUSH3 0x1401 JUMP JUMPDEST JUMPDEST PUSH3 0x1699 DUP3 SLOAD PUSH3 0x145F JUMP JUMPDEST PUSH3 0x16A6 DUP3 DUP3 DUP6 PUSH3 0x15CB JUMP JUMPDEST PUSH1 0x0 PUSH1 0x20 SWAP1 POP PUSH1 0x1F DUP4 GT PUSH1 0x1 DUP2 EQ PUSH3 0x16DE JUMPI PUSH1 0x0 DUP5 ISZERO PUSH3 0x16C9 JUMPI DUP3 DUP8 ADD MLOAD SWAP1 POP JUMPDEST PUSH3 0x16D5 DUP6 DUP3 PUSH3 0x1648 JUMP JUMPDEST DUP7 SSTORE POP PUSH3 0x1745 JUMP JUMPDEST PUSH1 0x1F NOT DUP5 AND PUSH3 0x16EE DUP7 PUSH3 0x1494 JUMP JUMPDEST PUSH1 0x0 JUMPDEST DUP3 DUP2 LT ISZERO PUSH3 0x1718 JUMPI DUP5 DUP10 ADD MLOAD DUP3 SSTORE PUSH1 0x1 DUP3 ADD SWAP2 POP PUSH1 0x20 DUP6 ADD SWAP5 POP PUSH1 0x20 DUP2 ADD SWAP1 POP PUSH3 0x16F1 JUMP JUMPDEST DUP7 DUP4 LT ISZERO PUSH3 0x1738 JUMPI DUP5 DUP10 ADD MLOAD PUSH3 0x1734 PUSH1 0x1F DUP10 AND DUP3 PUSH3 0x1628 JUMP JUMPDEST DUP4 SSTORE POP JUMPDEST PUSH1 0x1 PUSH1 0x2 DUP9 MUL ADD DUP9 SSTORE POP POP POP JUMPDEST POP POP POP POP POP POP JUMP JUMPDEST PUSH1 0x0 DUP3 DUP3 MSTORE PUSH1 0x20 DUP3 ADD SWAP1 POP SWAP3 SWAP2 POP POP JUMP JUMPDEST PUSH32 0x43616E6E6F7420736574206F776E657220746F207A65726F0000000000000000 PUSH1 0x0 DUP3 ADD MSTORE POP JUMP JUMPDEST PUSH1 0x0 PUSH3 0x1796 PUSH1 0x18 DUP4 PUSH3 0x174D JUMP JUMPDEST SWAP2 POP PUSH3 0x17A3 DUP3 PUSH3 0x175E JUMP JUMPDEST PUSH1 0x20 DUP3 ADD SWAP1 POP SWAP2 SWAP1 POP JUMP JUMPDEST PUSH1 0x0 PUSH1 0x20 DUP3 ADD SWAP1 POP DUP2 DUP2 SUB PUSH1 0x0 DUP4 ADD MSTORE PUSH3 0x17C9 DUP2 PUSH3 0x1787 JUMP JUMPDEST SWAP1 POP SWAP2 SWAP1 POP JUMP JUMPDEST PUSH32 0x43616E6E6F74207472616E7366657220746F2073656C66000000000000000000 PUSH1 0x0 DUP3 ADD MSTORE POP JUMP JUMPDEST PUSH1 0x0 PUSH3 0x1808 PUSH1 0x17 DUP4 PUSH3 0x174D JUMP JUMPDEST SWAP2 POP PUSH3 0x1815 DUP3 PUSH3 0x17D0 JUMP JUMPDEST PUSH1 0x20 DUP3 ADD SWAP1 POP SWAP2 SWAP1 POP JUMP JUMPDEST PUSH1 0x0 PUSH1 0x20 DUP3 ADD SWAP1 POP DUP2 DUP2 SUB PUSH1 0x0 DUP4 ADD MSTORE PUSH3 0x183B DUP2 PUSH3 0x17F9 JUMP JUMPDEST SWAP1 POP SWAP2 SWAP1 POP JUMP JUMPDEST PUSH32 0x696E76616C696420636861724964000000000000000000000000000000000000 PUSH1 0x0 DUP3 ADD MSTORE POP JUMP JUMPDEST PUSH1 0x0 PUSH3 0x187A PUSH1 0xE DUP4 PUSH3 0x174D JUMP JUMPDEST SWAP2 POP PUSH3 0x1887 DUP3 PUSH3 0x1842 JUMP JUMPDEST PUSH1 0x20 DUP3 ADD SWAP1 POP SWAP2 SWAP1 POP JUMP JUMPDEST PUSH1 0x0 PUSH1 0x20 DUP3 ADD SWAP1 POP DUP2 DUP2 SUB PUSH1 0x0 DUP4 ADD MSTORE PUSH3 0x18AD DUP2 PUSH3 0x186B JUMP JUMPDEST SWAP1 POP SWAP2 SWAP1 POP JUMP JUMPDEST PUSH32 0x4E487B7100000000000000000000000000000000000000000000000000000000 PUSH1 0x0 MSTORE PUSH1 0x32 PUSH1 0x4 MSTORE PUSH1 0x24 PUSH1 0x0 REVERT JUMPDEST PUSH1 0x0 DUP2 SWAP1 POP SWAP3 SWAP2 POP POP JUMP JUMPDEST PUSH32 0x7B226E616D65223A202200000000000000000000000000000000000000000000 PUSH1 0x0 DUP3 ADD MSTORE POP JUMP JUMPDEST PUSH1 0x0 PUSH3 0x1926 PUSH1 0xA DUP4 PUSH3 0x18E3 JUMP JUMPDEST SWAP2 POP PUSH3 0x1933 DUP3 PUSH3 0x18EE JUMP JUMPDEST PUSH1 0xA DUP3 ADD SWAP1 POP SWAP2 SWAP1 POP JUMP JUMPDEST PUSH1 0x0 DUP2 SLOAD PUSH3 0x194D DUP2 PUSH3 0x145F JUMP JUMPDEST PUSH3 0x1959 DUP2 DUP7 PUSH3 0x18E3 JUMP JUMPDEST SWAP5 POP PUSH1 0x1 DUP3 AND PUSH1 0x0 DUP2 EQ PUSH3 0x1977 JUMPI PUSH1 0x1 DUP2 EQ PUSH3 0x198D JUMPI PUSH3 0x19C4 JUMP JUMPDEST PUSH1 0xFF NOT DUP4 AND DUP7 MSTORE DUP2 ISZERO ISZERO DUP3 MUL DUP7 ADD SWAP4 POP PUSH3 0x19C4 JUMP JUMPDEST PUSH3 0x1998 DUP6 PUSH3 0x1494 JUMP JUMPDEST PUSH1 0x0 JUMPDEST DUP4 DUP2 LT ISZERO PUSH3 0x19BC JUMPI DUP2 SLOAD DUP2 DUP10 ADD MSTORE PUSH1 0x1 DUP3 ADD SWAP2 POP PUSH1 0x20 DUP2 ADD SWAP1 POP PUSH3 0x199B JUMP JUMPDEST DUP4 DUP9 ADD SWAP6 POP POP POP JUMPDEST POP POP POP SWAP3 SWAP2 POP POP JUMP JUMPDEST PUSH32 0x222C226465736372697074696F6E223A2022436861696E6C696E6B2072756E6E PUSH1 0x0 DUP3 ADD MSTORE PUSH32 0x6572222C00000000000000000000000000000000000000000000000000000000 PUSH1 0x20 DUP3 ADD MSTORE POP JUMP JUMPDEST PUSH1 0x0 PUSH3 0x1A2B PUSH1 0x24 DUP4 PUSH3 0x18E3 JUMP JUMPDEST SWAP2 POP PUSH3 0x1A38 DUP3 PUSH3 0x19CD JUMP JUMPDEST PUSH1 0x24 DUP3 ADD SWAP1 POP SWAP2 SWAP1 POP JUMP JUMPDEST PUSH32 0x22696D616765223A202200000000000000000000000000000000000000000000 PUSH1 0x0 DUP3 ADD MSTORE POP JUMP JUMPDEST PUSH1 0x0 PUSH3 0x1A7B PUSH1 0xA DUP4 PUSH3 0x18E3 JUMP JUMPDEST SWAP2 POP PUSH3 0x1A88 DUP3 PUSH3 0x1A43 JUMP JUMPDEST PUSH1 0xA DUP3 ADD SWAP1 POP SWAP2 SWAP1 POP JUMP JUMPDEST PUSH32 0x222C2261747472696275746573223A205B000000000000000000000000000000 PUSH1 0x0 DUP3 ADD MSTORE POP JUMP JUMPDEST PUSH1 0x0 PUSH3 0x1ACB PUSH1 0x11 DUP4 PUSH3 0x18E3 JUMP JUMPDEST SWAP2 POP PUSH3 0x1AD8 DUP3 PUSH3 0x1A93 JUMP JUMPDEST PUSH1 0x11 DUP3 ADD SWAP1 POP SWAP2 SWAP1 POP JUMP JUMPDEST PUSH32 0x7B2274726169745F74797065223A202264697374616E6365222C000000000000 PUSH1 0x0 DUP3 ADD MSTORE POP JUMP JUMPDEST PUSH1 0x0 PUSH3 0x1B1B PUSH1 0x1A DUP4 PUSH3 0x18E3 JUMP JUMPDEST SWAP2 POP PUSH3 0x1B28 DUP3 PUSH3 0x1AE3 JUMP JUMPDEST PUSH1 0x1A DUP3 ADD SWAP1 POP SWAP2 SWAP1 POP JUMP JUMPDEST PUSH32 0x2276616C7565223A200000000000000000000000000000000000000000000000 PUSH1 0x0 DUP3 ADD MSTORE POP JUMP JUMPDEST PUSH1 0x0 PUSH3 0x1B6B PUSH1 0x9 DUP4 PUSH3 0x18E3 JUMP JUMPDEST SWAP2 POP PUSH3 0x1B78 DUP3 PUSH3 0x1B33 JUMP JUMPDEST PUSH1 0x9 DUP3 ADD SWAP1 POP SWAP2 SWAP1 POP JUMP JUMPDEST PUSH1 0x0 JUMPDEST DUP4 DUP2 LT ISZERO PUSH3 0x1BA3 JUMPI DUP1 DUP3 ADD MLOAD DUP2 DUP5 ADD MSTORE PUSH1 0x20 DUP2 ADD SWAP1 POP PUSH3 0x1B86 JUMP JUMPDEST PUSH1 0x0 DUP5 DUP5 ADD MSTORE POP POP POP POP JUMP JUMPDEST PUSH1 0x0 PUSH3 0x1BBC DUP3 PUSH3 0x13F6 JUMP JUMPDEST PUSH3 0x1BC8 DUP2 DUP6 PUSH3 0x18E3 JUMP JUMPDEST SWAP4 POP PUSH3 0x1BDA DUP2 DUP6 PUSH1 0x20 DUP7 ADD PUSH3 0x1B83 JUMP JUMPDEST DUP1 DUP5 ADD SWAP2 POP POP SWAP3 SWAP2 POP POP JUMP JUMPDEST PUSH32 0x7D00000000000000000000000000000000000000000000000000000000000000 PUSH1 0x0 DUP3 ADD MSTORE POP JUMP JUMPDEST PUSH1 0x0 PUSH3 0x1C1E PUSH1 0x1 DUP4 PUSH3 0x18E3 JUMP JUMPDEST SWAP2 POP PUSH3 0x1C2B DUP3 PUSH3 0x1BE6 JUMP JUMPDEST PUSH1 0x1 DUP3 ADD SWAP1 POP SWAP2 SWAP1 POP JUMP JUMPDEST PUSH32 0x2C7B2274726169745F74797065223A2022726F756E64222C0000000000000000 PUSH1 0x0 DUP3 ADD MSTORE POP JUMP JUMPDEST PUSH1 0x0 PUSH3 0x1C6E PUSH1 0x18 DUP4 PUSH3 0x18E3 JUMP JUMPDEST SWAP2 POP PUSH3 0x1C7B DUP3 PUSH3 0x1C36 JUMP JUMPDEST PUSH1 0x18 DUP3 ADD SWAP1 POP SWAP2 SWAP1 POP JUMP JUMPDEST PUSH32 0x5D7D000000000000000000000000000000000000000000000000000000000000 PUSH1 0x0 DUP3 ADD MSTORE POP JUMP JUMPDEST PUSH1 0x0 PUSH3 0x1CBE PUSH1 0x2 DUP4 PUSH3 0x18E3 JUMP JUMPDEST SWAP2 POP PUSH3 0x1CCB DUP3 PUSH3 0x1C86 JUMP JUMPDEST PUSH1 0x2 DUP3 ADD SWAP1 POP SWAP2 SWAP1 POP JUMP JUMPDEST PUSH1 0x0 PUSH3 0x1CE3 DUP3 PUSH3 0x1917 JUMP JUMPDEST SWAP2 POP PUSH3 0x1CF1 DUP3 DUP8 PUSH3 0x193E JUMP JUMPDEST SWAP2 POP PUSH3 0x1CFE DUP3 PUSH3 0x1A1C JUMP JUMPDEST SWAP2 POP PUSH3 0x1D0B DUP3 PUSH3 0x1A6C JUMP JUMPDEST SWAP2 POP PUSH3 0x1D19 DUP3 DUP7 PUSH3 0x193E JUMP JUMPDEST SWAP2 POP PUSH3 0x1D26 DUP3 PUSH3 0x1ABC JUMP JUMPDEST SWAP2 POP PUSH3 0x1D33 DUP3 PUSH3 0x1B0C JUMP JUMPDEST SWAP2 POP PUSH3 0x1D40 DUP3 PUSH3 0x1B5C JUMP JUMPDEST SWAP2 POP PUSH3 0x1D4E DUP3 DUP6 PUSH3 0x1BAF JUMP JUMPDEST SWAP2 POP PUSH3 0x1D5B DUP3 PUSH3 0x1C0F JUMP JUMPDEST SWAP2 POP PUSH3 0x1D68 DUP3 PUSH3 0x1C5F JUMP JUMPDEST SWAP2 POP PUSH3 0x1D75 DUP3 PUSH3 0x1B5C JUMP JUMPDEST SWAP2 POP PUSH3 0x1D83 DUP3 DUP5 PUSH3 0x1BAF JUMP JUMPDEST SWAP2 POP PUSH3 0x1D90 DUP3 PUSH3 0x1C0F JUMP JUMPDEST SWAP2 POP PUSH3 0x1D9D DUP3 PUSH3 0x1CAF JUMP JUMPDEST SWAP2 POP DUP2 SWAP1 POP SWAP6 SWAP5 POP POP POP POP POP JUMP JUMPDEST PUSH32 0x646174613A6170706C69636174696F6E2F6A736F6E3B6261736536342C000000 PUSH1 0x0 DUP3 ADD MSTORE POP JUMP JUMPDEST PUSH1 0x0 PUSH3 0x1DE3 PUSH1 0x1D DUP4 PUSH3 0x18E3 JUMP JUMPDEST SWAP2 POP PUSH3 0x1DF0 DUP3 PUSH3 0x1DAB JUMP JUMPDEST PUSH1 0x1D DUP3 ADD SWAP1 POP SWAP2 SWAP1 POP JUMP JUMPDEST PUSH1 0x0 PUSH3 0x1E08 DUP3 PUSH3 0x1DD4 JUMP JUMPDEST SWAP2 POP PUSH3 0x1E16 DUP3 DUP5 PUSH3 0x1BAF JUMP JUMPDEST SWAP2 POP DUP2 SWAP1 POP SWAP3 SWAP2 POP POP JUMP JUMPDEST PUSH32 0x4E487B7100000000000000000000000000000000000000000000000000000000 PUSH1 0x0 MSTORE PUSH1 0x11 PUSH1 0x4 MSTORE PUSH1 0x24 PUSH1 0x0 REVERT JUMPDEST PUSH1 0x0 PUSH3 0x1E5D DUP3 PUSH3 0x1389 JUMP JUMPDEST SWAP2 POP PUSH32 0xFFFFFFFFFFFFFFFFFFFFFFFFFFFFFFFFFFFFFFFFFFFFFFFFFFFFFFFFFFFFFFFF DUP3 SUB PUSH3 0x1E92 JUMPI PUSH3 0x1E91 PUSH3 0x1E21 JUMP JUMPDEST JUMPDEST PUSH1 0x1 DUP3 ADD SWAP1 POP SWAP2 SWAP1 POP JUMP JUMPDEST PUSH32 0x4E487B7100000000000000000000000000000000000000000000000000000000 PUSH1 0x0 MSTORE PUSH1 0x12 PUSH1 0x4 MSTORE PUSH1 0x24 PUSH1 0x0 REVERT JUMPDEST PUSH1 0x0 PUSH3 0x1ED9 DUP3 PUSH3 0x1389 JUMP JUMPDEST SWAP2 POP PUSH3 0x1EE6 DUP4 PUSH3 0x1389 JUMP JUMPDEST SWAP3 POP DUP3 PUSH3 0x1EF9 JUMPI PUSH3 0x1EF8 PUSH3 0x1E9D JUMP JUMPDEST JUMPDEST DUP3 DUP3 DIV SWAP1 POP SWAP3 SWAP2 POP POP JUMP JUMPDEST PUSH1 0x0 PUSH3 0x1F11 DUP3 PUSH3 0x1389 JUMP JUMPDEST SWAP2 POP PUSH3 0x1F1E DUP4 PUSH3 0x1389 JUMP JUMPDEST SWAP3 POP DUP3 DUP3 SUB SWAP1 POP DUP2 DUP2 GT ISZERO PUSH3 0x1F39 JUMPI PUSH3 0x1F38 PUSH3 0x1E21 JUMP JUMPDEST JUMPDEST SWAP3 SWAP2 POP POP JUMP JUMPDEST PUSH1 0x0 PUSH3 0x1F4C DUP3 PUSH3 0x1389 JUMP JUMPDEST SWAP2 POP PUSH3 0x1F59 DUP4 PUSH3 0x1389 JUMP JUMPDEST SWAP3 POP DUP3 PUSH3 0x1F6C JUMPI PUSH3 0x1F6B PUSH3 0x1E9D JUMP JUMPDEST JUMPDEST DUP3 DUP3 MOD SWAP1 POP SWAP3 SWAP2 POP POP JUMP JUMPDEST PUSH1 0x0 PUSH3 0x1F84 DUP3 PUSH3 0x1389 JUMP JUMPDEST SWAP2 POP PUSH3 0x1F91 DUP4 PUSH3 0x1389 JUMP JUMPDEST SWAP3 POP DUP3 DUP3 ADD SWAP1 POP DUP1 DUP3 GT ISZERO PUSH3 0x1FAC JUMPI PUSH3 0x1FAB PUSH3 0x1E21 JUMP JUMPDEST JUMPDEST SWAP3 SWAP2 POP POP JUMP JUMPDEST PUSH1 0x0 PUSH3 0x1FBF DUP3 PUSH3 0x1389 JUMP JUMPDEST SWAP2 POP PUSH3 0x1FCC DUP4 PUSH3 0x1389 JUMP JUMPDEST SWAP3 POP DUP3 DUP3 MUL PUSH3 0x1FDC DUP2 PUSH3 0x1389 JUMP JUMPDEST SWAP2 POP DUP3 DUP3 DIV DUP5 EQ DUP4 ISZERO OR PUSH3 0x1FF6 JUMPI PUSH3 0x1FF5 PUSH3 0x1E21 JUMP JUMPDEST JUMPDEST POP SWAP3 SWAP2 POP POP JUMP JUMPDEST PUSH32 0x45524337323155524953746F726167653A2055524920736574206F66206E6F6E PUSH1 0x0 DUP3 ADD MSTORE PUSH32 0x6578697374656E7420746F6B656E000000000000000000000000000000000000 PUSH1 0x20 DUP3 ADD MSTORE POP JUMP JUMPDEST PUSH1 0x0 PUSH3 0x205B PUSH1 0x2E DUP4 PUSH3 0x174D JUMP JUMPDEST SWAP2 POP PUSH3 0x2068 DUP3 PUSH3 0x1FFD JUMP JUMPDEST PUSH1 0x40 DUP3 ADD SWAP1 POP SWAP2 SWAP1 POP JUMP JUMPDEST PUSH1 0x0 PUSH1 0x20 DUP3 ADD SWAP1 POP DUP2 DUP2 SUB PUSH1 0x0 DUP4 ADD MSTORE PUSH3 0x208E DUP2 PUSH3 0x204C JUMP JUMPDEST SWAP1 POP SWAP2 SWAP1 POP JUMP JUMPDEST PUSH32 0x4552433732313A207472616E7366657220746F206E6F6E204552433732315265 PUSH1 0x0 DUP3 ADD MSTORE PUSH32 0x63656976657220696D706C656D656E7465720000000000000000000000000000 PUSH1 0x20 DUP3 ADD MSTORE POP JUMP JUMPDEST PUSH1 0x0 PUSH3 0x20F3 PUSH1 0x32 DUP4 PUSH3 0x174D JUMP JUMPDEST SWAP2 POP PUSH3 0x2100 DUP3 PUSH3 0x2095 JUMP JUMPDEST PUSH1 0x40 DUP3 ADD SWAP1 POP SWAP2 SWAP1 POP JUMP JUMPDEST PUSH1 0x0 PUSH1 0x20 DUP3 ADD SWAP1 POP DUP2 DUP2 SUB PUSH1 0x0 DUP4 ADD MSTORE PUSH3 0x2126 DUP2 PUSH3 0x20E4 JUMP JUMPDEST SWAP1 POP SWAP2 SWAP1 POP JUMP JUMPDEST PUSH32 0x4552433732313A206D696E7420746F20746865207A65726F2061646472657373 PUSH1 0x0 DUP3 ADD MSTORE POP JUMP JUMPDEST PUSH1 0x0 PUSH3 0x2165 PUSH1 0x20 DUP4 PUSH3 0x174D JUMP JUMPDEST SWAP2 POP PUSH3 0x2172 DUP3 PUSH3 0x212D JUMP JUMPDEST PUSH1 0x20 DUP3 ADD SWAP1 POP SWAP2 SWAP1 POP JUMP JUMPDEST PUSH1 0x0 PUSH1 0x20 DUP3 ADD SWAP1 POP DUP2 DUP2 SUB PUSH1 0x0 DUP4 ADD MSTORE PUSH3 0x2198 DUP2 PUSH3 0x2156 JUMP JUMPDEST SWAP1 POP SWAP2 SWAP1 POP JUMP JUMPDEST PUSH32 0x4552433732313A20746F6B656E20616C7265616479206D696E74656400000000 PUSH1 0x0 DUP3 ADD MSTORE POP JUMP JUMPDEST PUSH1 0x0 PUSH3 0x21D7 PUSH1 0x1C DUP4 PUSH3 0x174D JUMP JUMPDEST SWAP2 POP PUSH3 0x21E4 DUP3 PUSH3 0x219F JUMP JUMPDEST PUSH1 0x20 DUP3 ADD SWAP1 POP SWAP2 SWAP1 POP JUMP JUMPDEST PUSH1 0x0 PUSH1 0x20 DUP3 ADD SWAP1 POP DUP2 DUP2 SUB PUSH1 0x0 DUP4 ADD MSTORE PUSH3 0x220A DUP2 PUSH3 0x21C8 JUMP JUMPDEST SWAP1 POP SWAP2 SWAP1 POP JUMP JUMPDEST PUSH1 0x0 PUSH20 0xFFFFFFFFFFFFFFFFFFFFFFFFFFFFFFFFFFFFFFFF DUP3 AND SWAP1 POP SWAP2 SWAP1 POP JUMP JUMPDEST PUSH1 0x0 PUSH3 0x223E DUP3 PUSH3 0x2211 JUMP JUMPDEST SWAP1 POP SWAP2 SWAP1 POP JUMP JUMPDEST PUSH3 0x2250 DUP2 PUSH3 0x2231 JUMP JUMPDEST DUP3 MSTORE POP POP JUMP JUMPDEST PUSH3 0x2261 DUP2 PUSH3 0x1389 JUMP JUMPDEST DUP3 MSTORE POP POP JUMP JUMPDEST PUSH1 0x0 DUP2 MLOAD SWAP1 POP SWAP2 SWAP1 POP JUMP JUMPDEST PUSH1 0x0 DUP3 DUP3 MSTORE PUSH1 0x20 DUP3 ADD SWAP1 POP SWAP3 SWAP2 POP POP JUMP JUMPDEST PUSH1 0x0 PUSH1 0x1F NOT PUSH1 0x1F DUP4 ADD AND SWAP1 POP SWAP2 SWAP1 POP JUMP JUMPDEST PUSH1 0x0 PUSH3 0x22A1 DUP3 PUSH3 0x2267 JUMP JUMPDEST PUSH3 0x22AD DUP2 DUP6 PUSH3 0x2272 JUMP JUMPDEST SWAP4 POP PUSH3 0x22BF DUP2 DUP6 PUSH1 0x20 DUP7 ADD PUSH3 0x1B83 JUMP JUMPDEST PUSH3 0x22CA DUP2 PUSH3 0x2283 JUMP JUMPDEST DUP5 ADD SWAP2 POP POP SWAP3 SWAP2 POP POP JUMP JUMPDEST PUSH1 0x0 PUSH1 0x80 DUP3 ADD SWAP1 POP PUSH3 0x22EC PUSH1 0x0 DUP4 ADD DUP8 PUSH3 0x2245 JUMP JUMPDEST PUSH3 0x22FB PUSH1 0x20 DUP4 ADD DUP7 PUSH3 0x2245 JUMP JUMPDEST PUSH3 0x230A PUSH1 0x40 DUP4 ADD DUP6 PUSH3 0x2256 JUMP JUMPDEST DUP2 DUP2 SUB PUSH1 0x60 DUP4 ADD MSTORE PUSH3 0x231E DUP2 DUP5 PUSH3 0x2294 JUMP JUMPDEST SWAP1 POP SWAP6 SWAP5 POP POP POP POP POP JUMP JUMPDEST PUSH1 0x0 PUSH32 0xFFFFFFFF00000000000000000000000000000000000000000000000000000000 DUP3 AND SWAP1 POP SWAP2 SWAP1 POP JUMP JUMPDEST PUSH3 0x2360 DUP2 PUSH3 0x2329 JUMP JUMPDEST DUP2 EQ PUSH3 0x236C JUMPI PUSH1 0x0 DUP1 REVERT JUMPDEST POP JUMP JUMPDEST PUSH1 0x0 DUP2 MLOAD SWAP1 POP PUSH3 0x2380 DUP2 PUSH3 0x2355 JUMP JUMPDEST SWAP3 SWAP2 POP POP JUMP JUMPDEST PUSH1 0x0 PUSH1 0x20 DUP3 DUP5 SUB SLT ISZERO PUSH3 0x239F JUMPI PUSH3 0x239E PUSH3 0x1384 JUMP JUMPDEST JUMPDEST PUSH1 0x0 PUSH3 0x23AF DUP5 DUP3 DUP6 ADD PUSH3 0x236F JUMP JUMPDEST SWAP2 POP POP SWAP3 SWAP2 POP POP JUMP JUMPDEST PUSH2 0x5144 DUP1 PUSH3 0x23C8 PUSH1 0x0 CODECOPY PUSH1 0x0 RETURN INVALID PUSH1 0x80 PUSH1 0x40 MSTORE CALLVALUE DUP1 ISZERO PUSH2 0x10 JUMPI PUSH1 0x0 DUP1 REVERT JUMPDEST POP PUSH1 0x4 CALLDATASIZE LT PUSH2 0x1DA JUMPI PUSH1 0x0 CALLDATALOAD PUSH1 0xE0 SHR DUP1 PUSH4 0x8EA98117 GT PUSH2 0x104 JUMPI DUP1 PUSH4 0xA22CB465 GT PUSH2 0xA2 JUMPI DUP1 PUSH4 0xD8A4676F GT PUSH2 0x71 JUMPI DUP1 PUSH4 0xD8A4676F EQ PUSH2 0x591 JUMPI DUP1 PUSH4 0xE985E9C5 EQ PUSH2 0x5C2 JUMPI DUP1 PUSH4 0xF2FDE38B EQ PUSH2 0x5F2 JUMPI DUP1 PUSH4 0xFC2A88C3 EQ PUSH2 0x60E JUMPI PUSH2 0x1DA JUMP JUMPDEST DUP1 PUSH4 0xA22CB465 EQ PUSH2 0x4F9 JUMPI DUP1 PUSH4 0xA444F5E9 EQ PUSH2 0x515 JUMPI DUP1 PUSH4 0xB88D4FDE EQ PUSH2 0x545 JUMPI DUP1 PUSH4 0xC87B56DD EQ PUSH2 0x561 JUMPI PUSH2 0x1DA JUMP JUMPDEST DUP1 PUSH4 0x98BDF6F5 GT PUSH2 0xDE JUMPI DUP1 PUSH4 0x98BDF6F5 EQ PUSH2 0x470 JUMPI DUP1 PUSH4 0x9ECCACF6 EQ PUSH2 0x48E JUMPI DUP1 PUSH4 0xA1448194 EQ PUSH2 0x4AC JUMPI DUP1 PUSH4 0xA168FA89 EQ PUSH2 0x4C8 JUMPI PUSH2 0x1DA JUMP JUMPDEST DUP1 PUSH4 0x8EA98117 EQ PUSH2 0x406 JUMPI DUP1 PUSH4 0x900FC869 EQ PUSH2 0x422 JUMPI DUP1 PUSH4 0x95D89B41 EQ PUSH2 0x452 JUMPI PUSH2 0x1DA JUMP JUMPDEST DUP1 PUSH4 0x47E9907B GT PUSH2 0x17C JUMPI DUP1 PUSH4 0x79BA5097 GT PUSH2 0x14B JUMPI DUP1 PUSH4 0x79BA5097 EQ PUSH2 0x390 JUMPI DUP1 PUSH4 0x8796BA8C EQ PUSH2 0x39A JUMPI DUP1 PUSH4 0x8AC00021 EQ PUSH2 0x3CA JUMPI DUP1 PUSH4 0x8DA5CB5B EQ PUSH2 0x3E8 JUMPI PUSH2 0x1DA JUMP JUMPDEST DUP1 PUSH4 0x47E9907B EQ PUSH2 0x2CD JUMPI DUP1 PUSH4 0x6352211E EQ PUSH2 0x300 JUMPI DUP1 PUSH4 0x70A08231 EQ PUSH2 0x330 JUMPI DUP1 PUSH4 0x778C91AC EQ PUSH2 0x360 JUMPI PUSH2 0x1DA JUMP JUMPDEST DUP1 PUSH4 0x95EA7B3 GT PUSH2 0x1B8 JUMPI DUP1 PUSH4 0x95EA7B3 EQ PUSH2 0x25D JUMPI DUP1 PUSH4 0x1FE543E3 EQ PUSH2 0x279 JUMPI DUP1 PUSH4 0x23B872DD EQ PUSH2 0x295 JUMPI DUP1 PUSH4 0x42842E0E EQ PUSH2 0x2B1 JUMPI PUSH2 0x1DA JUMP JUMPDEST DUP1 PUSH4 0x1FFC9A7 EQ PUSH2 0x1DF JUMPI DUP1 PUSH4 0x6FDDE03 EQ PUSH2 0x20F JUMPI DUP1 PUSH4 0x81812FC EQ PUSH2 0x22D JUMPI JUMPDEST PUSH1 0x0 DUP1 REVERT JUMPDEST PUSH2 0x1F9 PUSH1 0x4 DUP1 CALLDATASIZE SUB DUP2 ADD SWAP1 PUSH2 0x1F4 SWAP2 SWAP1 PUSH2 0x305E JUMP JUMPDEST PUSH2 0x62C JUMP JUMPDEST PUSH1 0x40 MLOAD PUSH2 0x206 SWAP2 SWAP1 PUSH2 0x30A6 JUMP JUMPDEST PUSH1 0x40 MLOAD DUP1 SWAP2 SUB SWAP1 RETURN JUMPDEST PUSH2 0x217 PUSH2 0x70E JUMP JUMPDEST PUSH1 0x40 MLOAD PUSH2 0x224 SWAP2 SWAP1 PUSH2 0x3151 JUMP JUMPDEST PUSH1 0x40 MLOAD DUP1 SWAP2 SUB SWAP1 RETURN JUMPDEST PUSH2 0x247 PUSH1 0x4 DUP1 CALLDATASIZE SUB DUP2 ADD SWAP1 PUSH2 0x242 SWAP2 SWAP1 PUSH2 0x31A9 JUMP JUMPDEST PUSH2 0x7A0 JUMP JUMPDEST PUSH1 0x40 MLOAD PUSH2 0x254 SWAP2 SWAP1 PUSH2 0x3217 JUMP JUMPDEST PUSH1 0x40 MLOAD DUP1 SWAP2 SUB SWAP1 RETURN JUMPDEST PUSH2 0x277 PUSH1 0x4 DUP1 CALLDATASIZE SUB DUP2 ADD SWAP1 PUSH2 0x272 SWAP2 SWAP1 PUSH2 0x325E JUMP JUMPDEST PUSH2 0x825 JUMP JUMPDEST STOP JUMPDEST PUSH2 0x293 PUSH1 0x4 DUP1 CALLDATASIZE SUB DUP2 ADD SWAP1 PUSH2 0x28E SWAP2 SWAP1 PUSH2 0x3303 JUMP JUMPDEST PUSH2 0x93C JUMP JUMPDEST STOP JUMPDEST PUSH2 0x2AF PUSH1 0x4 DUP1 CALLDATASIZE SUB DUP2 ADD SWAP1 PUSH2 0x2AA SWAP2 SWAP1 PUSH2 0x3363 JUMP JUMPDEST PUSH2 0xA02 JUMP JUMPDEST STOP JUMPDEST PUSH2 0x2CB PUSH1 0x4 DUP1 CALLDATASIZE SUB DUP2 ADD SWAP1 PUSH2 0x2C6 SWAP2 SWAP1 PUSH2 0x3363 JUMP JUMPDEST PUSH2 0xA62 JUMP JUMPDEST STOP JUMPDEST PUSH2 0x2E7 PUSH1 0x4 DUP1 CALLDATASIZE SUB DUP2 ADD SWAP1 PUSH2 0x2E2 SWAP2 SWAP1 PUSH2 0x31A9 JUMP JUMPDEST PUSH2 0xA82 JUMP JUMPDEST PUSH1 0x40 MLOAD PUSH2 0x2F7 SWAP5 SWAP4 SWAP3 SWAP2 SWAP1 PUSH2 0x33C5 JUMP JUMPDEST PUSH1 0x40 MLOAD DUP1 SWAP2 SUB SWAP1 RETURN JUMPDEST PUSH2 0x31A PUSH1 0x4 DUP1 CALLDATASIZE SUB DUP2 ADD SWAP1 PUSH2 0x315 SWAP2 SWAP1 PUSH2 0x31A9 JUMP JUMPDEST PUSH2 0xBD2 JUMP JUMPDEST PUSH1 0x40 MLOAD PUSH2 0x327 SWAP2 SWAP1 PUSH2 0x3217 JUMP JUMPDEST PUSH1 0x40 MLOAD DUP1 SWAP2 SUB SWAP1 RETURN JUMPDEST PUSH2 0x34A PUSH1 0x4 DUP1 CALLDATASIZE SUB DUP2 ADD SWAP1 PUSH2 0x345 SWAP2 SWAP1 PUSH2 0x3418 JUMP JUMPDEST PUSH2 0xC83 JUMP JUMPDEST PUSH1 0x40 MLOAD PUSH2 0x357 SWAP2 SWAP1 PUSH2 0x3445 JUMP JUMPDEST PUSH1 0x40 MLOAD DUP1 SWAP2 SUB SWAP1 RETURN JUMPDEST PUSH2 0x37A PUSH1 0x4 DUP1 CALLDATASIZE SUB DUP2 ADD SWAP1 PUSH2 0x375 SWAP2 SWAP1 PUSH2 0x31A9 JUMP JUMPDEST PUSH2 0xD3A JUMP JUMPDEST PUSH1 0x40 MLOAD PUSH2 0x387 SWAP2 SWAP1 PUSH2 0x3445 JUMP JUMPDEST PUSH1 0x40 MLOAD DUP1 SWAP2 SUB SWAP1 RETURN JUMPDEST PUSH2 0x398 PUSH2 0xD52 JUMP JUMPDEST STOP JUMPDEST PUSH2 0x3B4 PUSH1 0x4 DUP1 CALLDATASIZE SUB DUP2 ADD SWAP1 PUSH2 0x3AF SWAP2 SWAP1 PUSH2 0x31A9 JUMP JUMPDEST PUSH2 0xEE9 JUMP JUMPDEST PUSH1 0x40 MLOAD PUSH2 0x3C1 SWAP2 SWAP1 PUSH2 0x3445 JUMP JUMPDEST PUSH1 0x40 MLOAD DUP1 SWAP2 SUB SWAP1 RETURN JUMPDEST PUSH2 0x3D2 PUSH2 0xF0D JUMP JUMPDEST PUSH1 0x40 MLOAD PUSH2 0x3DF SWAP2 SWAP1 PUSH2 0x3445 JUMP JUMPDEST PUSH1 0x40 MLOAD DUP1 SWAP2 SUB SWAP1 RETURN JUMPDEST PUSH2 0x3F0 PUSH2 0xF13 JUMP JUMPDEST PUSH1 0x40 MLOAD PUSH2 0x3FD SWAP2 SWAP1 PUSH2 0x3217 JUMP JUMPDEST PUSH1 0x40 MLOAD DUP1 SWAP2 SUB SWAP1 RETURN JUMPDEST PUSH2 0x420 PUSH1 0x4 DUP1 CALLDATASIZE SUB DUP2 ADD SWAP1 PUSH2 0x41B SWAP2 SWAP1 PUSH2 0x3418 JUMP JUMPDEST PUSH2 0xF3D JUMP JUMPDEST STOP JUMPDEST PUSH2 0x43C PUSH1 0x4 DUP1 CALLDATASIZE SUB DUP2 ADD SWAP1 PUSH2 0x437 SWAP2 SWAP1 PUSH2 0x31A9 JUMP JUMPDEST PUSH2 0x111E JUMP JUMPDEST PUSH1 0x40 MLOAD PUSH2 0x449 SWAP2 SWAP1 PUSH2 0x3445 JUMP JUMPDEST PUSH1 0x40 MLOAD DUP1 SWAP2 SUB SWAP1 RETURN JUMPDEST PUSH2 0x45A PUSH2 0x1142 JUMP JUMPDEST PUSH1 0x40 MLOAD PUSH2 0x467 SWAP2 SWAP1 PUSH2 0x3151 JUMP JUMPDEST PUSH1 0x40 MLOAD DUP1 SWAP2 SUB SWAP1 RETURN JUMPDEST PUSH2 0x478 PUSH2 0x11D4 JUMP JUMPDEST PUSH1 0x40 MLOAD PUSH2 0x485 SWAP2 SWAP1 PUSH2 0x3445 JUMP JUMPDEST PUSH1 0x40 MLOAD DUP1 SWAP2 SUB SWAP1 RETURN JUMPDEST PUSH2 0x496 PUSH2 0x11E0 JUMP JUMPDEST PUSH1 0x40 MLOAD PUSH2 0x4A3 SWAP2 SWAP1 PUSH2 0x34BF JUMP JUMPDEST PUSH1 0x40 MLOAD DUP1 SWAP2 SUB SWAP1 RETURN JUMPDEST PUSH2 0x4C6 PUSH1 0x4 DUP1 CALLDATASIZE SUB DUP2 ADD SWAP1 PUSH2 0x4C1 SWAP2 SWAP1 PUSH2 0x325E JUMP JUMPDEST PUSH2 0x1206 JUMP JUMPDEST STOP JUMPDEST PUSH2 0x4E2 PUSH1 0x4 DUP1 CALLDATASIZE SUB DUP2 ADD SWAP1 PUSH2 0x4DD SWAP2 SWAP1 PUSH2 0x31A9 JUMP JUMPDEST PUSH2 0x1570 JUMP JUMPDEST PUSH1 0x40 MLOAD PUSH2 0x4F0 SWAP3 SWAP2 SWAP1 PUSH2 0x34DA JUMP JUMPDEST PUSH1 0x40 MLOAD DUP1 SWAP2 SUB SWAP1 RETURN JUMPDEST PUSH2 0x513 PUSH1 0x4 DUP1 CALLDATASIZE SUB DUP2 ADD SWAP1 PUSH2 0x50E SWAP2 SWAP1 PUSH2 0x352F JUMP JUMPDEST PUSH2 0x15AE JUMP JUMPDEST STOP JUMPDEST PUSH2 0x52F PUSH1 0x4 DUP1 CALLDATASIZE SUB DUP2 ADD SWAP1 PUSH2 0x52A SWAP2 SWAP1 PUSH2 0x31A9 JUMP JUMPDEST PUSH2 0x15C4 JUMP JUMPDEST PUSH1 0x40 MLOAD PUSH2 0x53C SWAP2 SWAP1 PUSH2 0x3445 JUMP JUMPDEST PUSH1 0x40 MLOAD DUP1 SWAP2 SUB SWAP1 RETURN JUMPDEST PUSH2 0x55F PUSH1 0x4 DUP1 CALLDATASIZE SUB DUP2 ADD SWAP1 PUSH2 0x55A SWAP2 SWAP1 PUSH2 0x369F JUMP JUMPDEST PUSH2 0x18B3 JUMP JUMPDEST STOP JUMPDEST PUSH2 0x57B PUSH1 0x4 DUP1 CALLDATASIZE SUB DUP2 ADD SWAP1 PUSH2 0x576 SWAP2 SWAP1 PUSH2 0x31A9 JUMP JUMPDEST PUSH2 0x1915 JUMP JUMPDEST PUSH1 0x40 MLOAD PUSH2 0x588 SWAP2 SWAP1 PUSH2 0x3151 JUMP JUMPDEST PUSH1 0x40 MLOAD DUP1 SWAP2 SUB SWAP1 RETURN JUMPDEST PUSH2 0x5AB PUSH1 0x4 DUP1 CALLDATASIZE SUB DUP2 ADD SWAP1 PUSH2 0x5A6 SWAP2 SWAP1 PUSH2 0x31A9 JUMP JUMPDEST PUSH2 0x1927 JUMP JUMPDEST PUSH1 0x40 MLOAD PUSH2 0x5B9 SWAP3 SWAP2 SWAP1 PUSH2 0x37E0 JUMP JUMPDEST PUSH1 0x40 MLOAD DUP1 SWAP2 SUB SWAP1 RETURN JUMPDEST PUSH2 0x5DC PUSH1 0x4 DUP1 CALLDATASIZE SUB DUP2 ADD SWAP1 PUSH2 0x5D7 SWAP2 SWAP1 PUSH2 0x3810 JUMP JUMPDEST PUSH2 0x1930 JUMP JUMPDEST PUSH1 0x40 MLOAD PUSH2 0x5E9 SWAP2 SWAP1 PUSH2 0x30A6 JUMP JUMPDEST PUSH1 0x40 MLOAD DUP1 SWAP2 SUB SWAP1 RETURN JUMPDEST PUSH2 0x60C PUSH1 0x4 DUP1 CALLDATASIZE SUB DUP2 ADD SWAP1 PUSH2 0x607 SWAP2 SWAP1 PUSH2 0x3418 JUMP JUMPDEST PUSH2 0x19C4 JUMP JUMPDEST STOP JUMPDEST PUSH2 0x616 PUSH2 0x19D8 JUMP JUMPDEST PUSH1 0x40 MLOAD PUSH2 0x623 SWAP2 SWAP1 PUSH2 0x3445 JUMP JUMPDEST PUSH1 0x40 MLOAD DUP1 SWAP2 SUB SWAP1 RETURN JUMPDEST PUSH1 0x0 PUSH32 0x80AC58CD00000000000000000000000000000000000000000000000000000000 PUSH28 0xFFFFFFFFFFFFFFFFFFFFFFFFFFFFFFFFFFFFFFFFFFFFFFFFFFFFFFFF NOT AND DUP3 PUSH28 0xFFFFFFFFFFFFFFFFFFFFFFFFFFFFFFFFFFFFFFFFFFFFFFFFFFFFFFFF NOT AND EQ DUP1 PUSH2 0x6F7 JUMPI POP PUSH32 0x5B5E139F00000000000000000000000000000000000000000000000000000000 PUSH28 0xFFFFFFFFFFFFFFFFFFFFFFFFFFFFFFFFFFFFFFFFFFFFFFFFFFFFFFFF NOT AND DUP3 PUSH28 0xFFFFFFFFFFFFFFFFFFFFFFFFFFFFFFFFFFFFFFFFFFFFFFFFFFFFFFFF NOT AND EQ JUMPDEST DUP1 PUSH2 0x707 JUMPI POP PUSH2 0x706 DUP3 PUSH2 0x19DE JUMP JUMPDEST JUMPDEST SWAP1 POP SWAP2 SWAP1 POP JUMP JUMPDEST PUSH1 0x60 PUSH1 0x0 DUP1 SLOAD PUSH2 0x71D SWAP1 PUSH2 0x387F JUMP JUMPDEST DUP1 PUSH1 0x1F ADD PUSH1 0x20 DUP1 SWAP2 DIV MUL PUSH1 0x20 ADD PUSH1 0x40 MLOAD SWAP1 DUP2 ADD PUSH1 0x40 MSTORE DUP1 SWAP3 SWAP2 SWAP1 DUP2 DUP2 MSTORE PUSH1 0x20 ADD DUP3 DUP1 SLOAD PUSH2 0x749 SWAP1 PUSH2 0x387F JUMP JUMPDEST DUP1 ISZERO PUSH2 0x796 JUMPI DUP1 PUSH1 0x1F LT PUSH2 0x76B JUMPI PUSH2 0x100 DUP1 DUP4 SLOAD DIV MUL DUP4 MSTORE SWAP2 PUSH1 0x20 ADD SWAP2 PUSH2 0x796 JUMP JUMPDEST DUP3 ADD SWAP2 SWAP1 PUSH1 0x0 MSTORE PUSH1 0x20 PUSH1 0x0 KECCAK256 SWAP1 JUMPDEST DUP2 SLOAD DUP2 MSTORE SWAP1 PUSH1 0x1 ADD SWAP1 PUSH1 0x20 ADD DUP1 DUP4 GT PUSH2 0x779 JUMPI DUP3 SWAP1 SUB PUSH1 0x1F AND DUP3 ADD SWAP2 JUMPDEST POP POP POP POP POP SWAP1 POP SWAP1 JUMP JUMPDEST PUSH1 0x0 PUSH2 0x7AB DUP3 PUSH2 0x1A48 JUMP JUMPDEST PUSH2 0x7EA JUMPI PUSH1 0x40 MLOAD PUSH32 0x8C379A000000000000000000000000000000000000000000000000000000000 DUP2 MSTORE PUSH1 0x4 ADD PUSH2 0x7E1 SWAP1 PUSH2 0x3922 JUMP JUMPDEST PUSH1 0x40 MLOAD DUP1 SWAP2 SUB SWAP1 REVERT JUMPDEST PUSH1 0x4 PUSH1 0x0 DUP4 DUP2 MSTORE PUSH1 0x20 ADD SWAP1 DUP2 MSTORE PUSH1 0x20 ADD PUSH1 0x0 KECCAK256 PUSH1 0x0 SWAP1 SLOAD SWAP1 PUSH2 0x100 EXP SWAP1 DIV PUSH20 0xFFFFFFFFFFFFFFFFFFFFFFFFFFFFFFFFFFFFFFFF AND SWAP1 POP SWAP2 SWAP1 POP JUMP JUMPDEST PUSH1 0x0 PUSH2 0x830 DUP3 PUSH2 0xBD2 JUMP JUMPDEST SWAP1 POP DUP1 PUSH20 0xFFFFFFFFFFFFFFFFFFFFFFFFFFFFFFFFFFFFFFFF AND DUP4 PUSH20 0xFFFFFFFFFFFFFFFFFFFFFFFFFFFFFFFFFFFFFFFF AND SUB PUSH2 0x8A0 JUMPI PUSH1 0x40 MLOAD PUSH32 0x8C379A000000000000000000000000000000000000000000000000000000000 DUP2 MSTORE PUSH1 0x4 ADD PUSH2 0x897 SWAP1 PUSH2 0x39B4 JUMP JUMPDEST PUSH1 0x40 MLOAD DUP1 SWAP2 SUB SWAP1 REVERT JUMPDEST DUP1 PUSH20 0xFFFFFFFFFFFFFFFFFFFFFFFFFFFFFFFFFFFFFFFF AND PUSH2 0x8BF PUSH2 0x1AB4 JUMP JUMPDEST PUSH20 0xFFFFFFFFFFFFFFFFFFFFFFFFFFFFFFFFFFFFFFFF AND EQ DUP1 PUSH2 0x8EE JUMPI POP PUSH2 0x8ED DUP2 PUSH2 0x8E8 PUSH2 0x1AB4 JUMP JUMPDEST PUSH2 0x1930 JUMP JUMPDEST JUMPDEST PUSH2 0x92D JUMPI PUSH1 0x40 MLOAD PUSH32 0x8C379A000000000000000000000000000000000000000000000000000000000 DUP2 MSTORE PUSH1 0x4 ADD PUSH2 0x924 SWAP1 PUSH2 0x3A46 JUMP JUMPDEST PUSH1 0x40 MLOAD DUP1 SWAP2 SUB SWAP1 REVERT JUMPDEST PUSH2 0x937 DUP4 DUP4 PUSH2 0x1ABC JUMP JUMPDEST POP POP POP JUMP JUMPDEST PUSH1 0x9 PUSH1 0x0 SWAP1 SLOAD SWAP1 PUSH2 0x100 EXP SWAP1 DIV PUSH20 0xFFFFFFFFFFFFFFFFFFFFFFFFFFFFFFFFFFFFFFFF AND PUSH20 0xFFFFFFFFFFFFFFFFFFFFFFFFFFFFFFFFFFFFFFFF AND CALLER PUSH20 0xFFFFFFFFFFFFFFFFFFFFFFFFFFFFFFFFFFFFFFFF AND EQ PUSH2 0x9F2 JUMPI CALLER PUSH1 0x9 PUSH1 0x0 SWAP1 SLOAD SWAP1 PUSH2 0x100 EXP SWAP1 DIV PUSH20 0xFFFFFFFFFFFFFFFFFFFFFFFFFFFFFFFFFFFFFFFF AND PUSH1 0x40 MLOAD PUSH32 0x1CF993F400000000000000000000000000000000000000000000000000000000 DUP2 MSTORE PUSH1 0x4 ADD PUSH2 0x9E9 SWAP3 SWAP2 SWAP1 PUSH2 0x3A66 JUMP JUMPDEST PUSH1 0x40 MLOAD DUP1 SWAP2 SUB SWAP1 REVERT JUMPDEST PUSH2 0x9FD DUP4 DUP4 DUP4 PUSH2 0x1B75 JUMP JUMPDEST POP POP POP JUMP JUMPDEST PUSH2 0xA13 PUSH2 0xA0D PUSH2 0x1AB4 JUMP JUMPDEST DUP3 PUSH2 0x1E6E JUMP JUMPDEST PUSH2 0xA52 JUMPI PUSH1 0x40 MLOAD PUSH32 0x8C379A000000000000000000000000000000000000000000000000000000000 DUP2 MSTORE PUSH1 0x4 ADD PUSH2 0xA49 SWAP1 PUSH2 0x3B01 JUMP JUMPDEST PUSH1 0x40 MLOAD DUP1 SWAP2 SUB SWAP1 REVERT JUMPDEST PUSH2 0xA5D DUP4 DUP4 DUP4 PUSH2 0x1F4C JUMP JUMPDEST POP POP POP JUMP JUMPDEST PUSH2 0xA7D DUP4 DUP4 DUP4 PUSH1 0x40 MLOAD DUP1 PUSH1 0x20 ADD PUSH1 0x40 MSTORE DUP1 PUSH1 0x0 DUP2 MSTORE POP PUSH2 0x18B3 JUMP JUMPDEST POP POP POP JUMP JUMPDEST PUSH1 0x15 DUP2 DUP2 SLOAD DUP2 LT PUSH2 0xA92 JUMPI PUSH1 0x0 DUP1 REVERT JUMPDEST SWAP1 PUSH1 0x0 MSTORE PUSH1 0x20 PUSH1 0x0 KECCAK256 SWAP1 PUSH1 0x4 MUL ADD PUSH1 0x0 SWAP2 POP SWAP1 POP DUP1 PUSH1 0x0 ADD DUP1 SLOAD PUSH2 0xAB5 SWAP1 PUSH2 0x387F JUMP JUMPDEST DUP1 PUSH1 0x1F ADD PUSH1 0x20 DUP1 SWAP2 DIV MUL PUSH1 0x20 ADD PUSH1 0x40 MLOAD SWAP1 DUP2 ADD PUSH1 0x40 MSTORE DUP1 SWAP3 SWAP2 SWAP1 DUP2 DUP2 MSTORE PUSH1 0x20 ADD DUP3 DUP1 SLOAD PUSH2 0xAE1 SWAP1 PUSH2 0x387F JUMP JUMPDEST DUP1 ISZERO PUSH2 0xB2E JUMPI DUP1 PUSH1 0x1F LT PUSH2 0xB03 JUMPI PUSH2 0x100 DUP1 DUP4 SLOAD DIV MUL DUP4 MSTORE SWAP2 PUSH1 0x20 ADD SWAP2 PUSH2 0xB2E JUMP JUMPDEST DUP3 ADD SWAP2 SWAP1 PUSH1 0x0 MSTORE PUSH1 0x20 PUSH1 0x0 KECCAK256 SWAP1 JUMPDEST DUP2 SLOAD DUP2 MSTORE SWAP1 PUSH1 0x1 ADD SWAP1 PUSH1 0x20 ADD DUP1 DUP4 GT PUSH2 0xB11 JUMPI DUP3 SWAP1 SUB PUSH1 0x1F AND DUP3 ADD SWAP2 JUMPDEST POP POP POP POP POP SWAP1 DUP1 PUSH1 0x1 ADD DUP1 SLOAD PUSH2 0xB43 SWAP1 PUSH2 0x387F JUMP JUMPDEST DUP1 PUSH1 0x1F ADD PUSH1 0x20 DUP1 SWAP2 DIV MUL PUSH1 0x20 ADD PUSH1 0x40 MLOAD SWAP1 DUP2 ADD PUSH1 0x40 MSTORE DUP1 SWAP3 SWAP2 SWAP1 DUP2 DUP2 MSTORE PUSH1 0x20 ADD DUP3 DUP1 SLOAD PUSH2 0xB6F SWAP1 PUSH2 0x387F JUMP JUMPDEST DUP1 ISZERO PUSH2 0xBBC JUMPI DUP1 PUSH1 0x1F LT PUSH2 0xB91 JUMPI PUSH2 0x100 DUP1 DUP4 SLOAD DIV MUL DUP4 MSTORE SWAP2 PUSH1 0x20 ADD SWAP2 PUSH2 0xBBC JUMP JUMPDEST DUP3 ADD SWAP2 SWAP1 PUSH1 0x0 MSTORE PUSH1 0x20 PUSH1 0x0 KECCAK256 SWAP1 JUMPDEST DUP2 SLOAD DUP2 MSTORE SWAP1 PUSH1 0x1 ADD SWAP1 PUSH1 0x20 ADD DUP1 DUP4 GT PUSH2 0xB9F JUMPI DUP3 SWAP1 SUB PUSH1 0x1F AND DUP3 ADD SWAP2 JUMPDEST POP POP POP POP POP SWAP1 DUP1 PUSH1 0x2 ADD SLOAD SWAP1 DUP1 PUSH1 0x3 ADD SLOAD SWAP1 POP DUP5 JUMP JUMPDEST PUSH1 0x0 DUP1 PUSH1 0x2 PUSH1 0x0 DUP5 DUP2 MSTORE PUSH1 0x20 ADD SWAP1 DUP2 MSTORE PUSH1 0x20 ADD PUSH1 0x0 KECCAK256 PUSH1 0x0 SWAP1 SLOAD SWAP1 PUSH2 0x100 EXP SWAP1 DIV PUSH20 0xFFFFFFFFFFFFFFFFFFFFFFFFFFFFFFFFFFFFFFFF AND SWAP1 POP PUSH1 0x0 PUSH20 0xFFFFFFFFFFFFFFFFFFFFFFFFFFFFFFFFFFFFFFFF AND DUP2 PUSH20 0xFFFFFFFFFFFFFFFFFFFFFFFFFFFFFFFFFFFFFFFF AND SUB PUSH2 0xC7A JUMPI PUSH1 0x40 MLOAD PUSH32 0x8C379A000000000000000000000000000000000000000000000000000000000 DUP2 MSTORE PUSH1 0x4 ADD PUSH2 0xC71 SWAP1 PUSH2 0x3B93 JUMP JUMPDEST PUSH1 0x40 MLOAD DUP1 SWAP2 SUB SWAP1 REVERT JUMPDEST DUP1 SWAP2 POP POP SWAP2 SWAP1 POP JUMP JUMPDEST PUSH1 0x0 DUP1 PUSH20 0xFFFFFFFFFFFFFFFFFFFFFFFFFFFFFFFFFFFFFFFF AND DUP3 PUSH20 0xFFFFFFFFFFFFFFFFFFFFFFFFFFFFFFFFFFFFFFFF AND SUB PUSH2 0xCF3 JUMPI PUSH1 0x40 MLOAD PUSH32 0x8C379A000000000000000000000000000000000000000000000000000000000 DUP2 MSTORE PUSH1 0x4 ADD PUSH2 0xCEA SWAP1 PUSH2 0x3C25 JUMP JUMPDEST PUSH1 0x40 MLOAD DUP1 SWAP2 SUB SWAP1 REVERT JUMPDEST PUSH1 0x3 PUSH1 0x0 DUP4 PUSH20 0xFFFFFFFFFFFFFFFFFFFFFFFFFFFFFFFFFFFFFFFF AND PUSH20 0xFFFFFFFFFFFFFFFFFFFFFFFFFFFFFFFFFFFFFFFF AND DUP2 MSTORE PUSH1 0x20 ADD SWAP1 DUP2 MSTORE PUSH1 0x20 ADD PUSH1 0x0 KECCAK256 SLOAD SWAP1 POP SWAP2 SWAP1 POP JUMP JUMPDEST PUSH1 0x16 PUSH1 0x20 MSTORE DUP1 PUSH1 0x0 MSTORE PUSH1 0x40 PUSH1 0x0 KECCAK256 PUSH1 0x0 SWAP2 POP SWAP1 POP SLOAD DUP2 JUMP JUMPDEST PUSH1 0x8 PUSH1 0x0 SWAP1 SLOAD SWAP1 PUSH2 0x100 EXP SWAP1 DIV PUSH20 0xFFFFFFFFFFFFFFFFFFFFFFFFFFFFFFFFFFFFFFFF AND PUSH20 0xFFFFFFFFFFFFFFFFFFFFFFFFFFFFFFFFFFFFFFFF AND CALLER PUSH20 0xFFFFFFFFFFFFFFFFFFFFFFFFFFFFFFFFFFFFFFFF AND EQ PUSH2 0xDE2 JUMPI PUSH1 0x40 MLOAD PUSH32 0x8C379A000000000000000000000000000000000000000000000000000000000 DUP2 MSTORE PUSH1 0x4 ADD PUSH2 0xDD9 SWAP1 PUSH2 0x3C91 JUMP JUMPDEST PUSH1 0x40 MLOAD DUP1 SWAP2 SUB SWAP1 REVERT JUMPDEST PUSH1 0x0 PUSH1 0x7 PUSH1 0x0 SWAP1 SLOAD SWAP1 PUSH2 0x100 EXP SWAP1 DIV PUSH20 0xFFFFFFFFFFFFFFFFFFFFFFFFFFFFFFFFFFFFFFFF AND SWAP1 POP CALLER PUSH1 0x7 PUSH1 0x0 PUSH2 0x100 EXP DUP2 SLOAD DUP2 PUSH20 0xFFFFFFFFFFFFFFFFFFFFFFFFFFFFFFFFFFFFFFFF MUL NOT AND SWAP1 DUP4 PUSH20 0xFFFFFFFFFFFFFFFFFFFFFFFFFFFFFFFFFFFFFFFF AND MUL OR SWAP1 SSTORE POP PUSH1 0x0 PUSH1 0x8 PUSH1 0x0 PUSH2 0x100 EXP DUP2 SLOAD DUP2 PUSH20 0xFFFFFFFFFFFFFFFFFFFFFFFFFFFFFFFFFFFFFFFF MUL NOT AND SWAP1 DUP4 PUSH20 0xFFFFFFFFFFFFFFFFFFFFFFFFFFFFFFFFFFFFFFFF AND MUL OR SWAP1 SSTORE POP CALLER PUSH20 0xFFFFFFFFFFFFFFFFFFFFFFFFFFFFFFFFFFFFFFFF AND DUP2 PUSH20 0xFFFFFFFFFFFFFFFFFFFFFFFFFFFFFFFFFFFFFFFF AND PUSH32 0x8BE0079C531659141344CD1FD0A4F28419497F9722A3DAAFE3B4186F6B6457E0 PUSH1 0x40 MLOAD PUSH1 0x40 MLOAD DUP1 SWAP2 SUB SWAP1 LOG3 POP JUMP JUMPDEST PUSH1 0xE DUP2 DUP2 SLOAD DUP2 LT PUSH2 0xEF9 JUMPI PUSH1 0x0 DUP1 REVERT JUMPDEST SWAP1 PUSH1 0x0 MSTORE PUSH1 0x20 PUSH1 0x0 KECCAK256 ADD PUSH1 0x0 SWAP2 POP SWAP1 POP SLOAD DUP2 JUMP JUMPDEST PUSH1 0x11 SLOAD DUP2 JUMP JUMPDEST PUSH1 0x0 PUSH1 0x7 PUSH1 0x0 SWAP1 SLOAD SWAP1 PUSH2 0x100 EXP SWAP1 DIV PUSH20 0xFFFFFFFFFFFFFFFFFFFFFFFFFFFFFFFFFFFFFFFF AND SWAP1 POP SWAP1 JUMP JUMPDEST PUSH2 0xF45 PUSH2 0xF13 JUMP JUMPDEST PUSH20 0xFFFFFFFFFFFFFFFFFFFFFFFFFFFFFFFFFFFFFFFF AND CALLER PUSH20 0xFFFFFFFFFFFFFFFFFFFFFFFFFFFFFFFFFFFFFFFF AND EQ ISZERO DUP1 ISZERO PUSH2 0xFCE JUMPI POP PUSH1 0x9 PUSH1 0x0 SWAP1 SLOAD SWAP1 PUSH2 0x100 EXP SWAP1 DIV PUSH20 0xFFFFFFFFFFFFFFFFFFFFFFFFFFFFFFFFFFFFFFFF AND PUSH20 0xFFFFFFFFFFFFFFFFFFFFFFFFFFFFFFFFFFFFFFFF AND CALLER PUSH20 0xFFFFFFFFFFFFFFFFFFFFFFFFFFFFFFFFFFFFFFFF AND EQ ISZERO JUMPDEST ISZERO PUSH2 0x103D JUMPI CALLER PUSH2 0xFDC PUSH2 0xF13 JUMP JUMPDEST PUSH1 0x9 PUSH1 0x0 SWAP1 SLOAD SWAP1 PUSH2 0x100 EXP SWAP1 DIV PUSH20 0xFFFFFFFFFFFFFFFFFFFFFFFFFFFFFFFFFFFFFFFF AND PUSH1 0x40 MLOAD PUSH32 0x61DB9C100000000000000000000000000000000000000000000000000000000 DUP2 MSTORE PUSH1 0x4 ADD PUSH2 0x1034 SWAP4 SWAP3 SWAP2 SWAP1 PUSH2 0x3CB1 JUMP JUMPDEST PUSH1 0x40 MLOAD DUP1 SWAP2 SUB SWAP1 REVERT JUMPDEST PUSH1 0x0 PUSH20 0xFFFFFFFFFFFFFFFFFFFFFFFFFFFFFFFFFFFFFFFF AND DUP2 PUSH20 0xFFFFFFFFFFFFFFFFFFFFFFFFFFFFFFFFFFFFFFFF AND SUB PUSH2 0x10A3 JUMPI PUSH1 0x40 MLOAD PUSH32 0xD92E233D00000000000000000000000000000000000000000000000000000000 DUP2 MSTORE PUSH1 0x4 ADD PUSH1 0x40 MLOAD DUP1 SWAP2 SUB SWAP1 REVERT JUMPDEST DUP1 PUSH1 0x9 PUSH1 0x0 PUSH2 0x100 EXP DUP2 SLOAD DUP2 PUSH20 0xFFFFFFFFFFFFFFFFFFFFFFFFFFFFFFFFFFFFFFFF MUL NOT AND SWAP1 DUP4 PUSH20 0xFFFFFFFFFFFFFFFFFFFFFFFFFFFFFFFFFFFFFFFF AND MUL OR SWAP1 SSTORE POP PUSH32 0xD1A6A14209A385A964D036E404CB5CFB71F4000CDB03C9366292430787261BE6 DUP2 PUSH1 0x40 MLOAD PUSH2 0x1113 SWAP2 SWAP1 PUSH2 0x3217 JUMP JUMPDEST PUSH1 0x40 MLOAD DUP1 SWAP2 SUB SWAP1 LOG1 POP JUMP JUMPDEST PUSH1 0x10 DUP2 DUP2 SLOAD DUP2 LT PUSH2 0x112E JUMPI PUSH1 0x0 DUP1 REVERT JUMPDEST SWAP1 PUSH1 0x0 MSTORE PUSH1 0x20 PUSH1 0x0 KECCAK256 ADD PUSH1 0x0 SWAP2 POP SWAP1 POP SLOAD DUP2 JUMP JUMPDEST PUSH1 0x60 PUSH1 0x1 DUP1 SLOAD PUSH2 0x1151 SWAP1 PUSH2 0x387F JUMP JUMPDEST DUP1 PUSH1 0x1F ADD PUSH1 0x20 DUP1 SWAP2 DIV MUL PUSH1 0x20 ADD PUSH1 0x40 MLOAD SWAP1 DUP2 ADD PUSH1 0x40 MSTORE DUP1 SWAP3 SWAP2 SWAP1 DUP2 DUP2 MSTORE PUSH1 0x20 ADD DUP3 DUP1 SLOAD PUSH2 0x117D SWAP1 PUSH2 0x387F JUMP JUMPDEST DUP1 ISZERO PUSH2 0x11CA JUMPI DUP1 PUSH1 0x1F LT PUSH2 0x119F JUMPI PUSH2 0x100 DUP1 DUP4 SLOAD DIV MUL DUP4 MSTORE SWAP2 PUSH1 0x20 ADD SWAP2 PUSH2 0x11CA JUMP JUMPDEST DUP3 ADD SWAP2 SWAP1 PUSH1 0x0 MSTORE PUSH1 0x20 PUSH1 0x0 KECCAK256 SWAP1 JUMPDEST DUP2 SLOAD DUP2 MSTORE SWAP1 PUSH1 0x1 ADD SWAP1 PUSH1 0x20 ADD DUP1 DUP4 GT PUSH2 0x11AD JUMPI DUP3 SWAP1 SUB PUSH1 0x1F AND DUP3 ADD SWAP2 JUMPDEST POP POP POP POP POP SWAP1 POP SWAP1 JUMP JUMPDEST PUSH1 0x12 DUP1 PUSH1 0x0 ADD SLOAD SWAP1 POP DUP2 JUMP JUMPDEST PUSH1 0x9 PUSH1 0x0 SWAP1 SLOAD SWAP1 PUSH2 0x100 EXP SWAP1 DIV PUSH20 0xFFFFFFFFFFFFFFFFFFFFFFFFFFFFFFFFFFFFFFFF AND DUP2 JUMP JUMPDEST PUSH1 0x0 DUP2 SWAP1 POP PUSH1 0x0 DUP2 PUSH1 0xFF AND LT ISZERO DUP1 ISZERO PUSH2 0x1223 JUMPI POP PUSH1 0x3 DUP2 PUSH1 0xFF AND GT ISZERO JUMPDEST PUSH2 0x1262 JUMPI PUSH1 0x40 MLOAD PUSH32 0x8C379A000000000000000000000000000000000000000000000000000000000 DUP2 MSTORE PUSH1 0x4 ADD PUSH2 0x1259 SWAP1 PUSH2 0x3D34 JUMP JUMPDEST PUSH1 0x40 MLOAD DUP1 SWAP2 SUB SWAP1 REVERT JUMPDEST PUSH1 0x0 PUSH1 0x13 DUP4 DUP2 SLOAD DUP2 LT PUSH2 0x1278 JUMPI PUSH2 0x1277 PUSH2 0x3D54 JUMP JUMPDEST JUMPDEST SWAP1 PUSH1 0x0 MSTORE PUSH1 0x20 PUSH1 0x0 KECCAK256 ADD DUP1 SLOAD PUSH2 0x128D SWAP1 PUSH2 0x387F JUMP JUMPDEST DUP1 PUSH1 0x1F ADD PUSH1 0x20 DUP1 SWAP2 DIV MUL PUSH1 0x20 ADD PUSH1 0x40 MLOAD SWAP1 DUP2 ADD PUSH1 0x40 MSTORE DUP1 SWAP3 SWAP2 SWAP1 DUP2 DUP2 MSTORE PUSH1 0x20 ADD DUP3 DUP1 SLOAD PUSH2 0x12B9 SWAP1 PUSH2 0x387F JUMP JUMPDEST DUP1 ISZERO PUSH2 0x1306 JUMPI DUP1 PUSH1 0x1F LT PUSH2 0x12DB JUMPI PUSH2 0x100 DUP1 DUP4 SLOAD DIV MUL DUP4 MSTORE SWAP2 PUSH1 0x20 ADD SWAP2 PUSH2 0x1306 JUMP JUMPDEST DUP3 ADD SWAP2 SWAP1 PUSH1 0x0 MSTORE PUSH1 0x20 PUSH1 0x0 KECCAK256 SWAP1 JUMPDEST DUP2 SLOAD DUP2 MSTORE SWAP1 PUSH1 0x1 ADD SWAP1 PUSH1 0x20 ADD DUP1 DUP4 GT PUSH2 0x12E9 JUMPI DUP3 SWAP1 SUB PUSH1 0x1F AND DUP3 ADD SWAP2 JUMPDEST POP POP POP POP POP SWAP1 POP PUSH1 0x15 PUSH1 0x40 MLOAD DUP1 PUSH1 0x80 ADD PUSH1 0x40 MSTORE DUP1 PUSH1 0x14 DUP7 DUP2 SLOAD DUP2 LT PUSH2 0x132E JUMPI PUSH2 0x132D PUSH2 0x3D54 JUMP JUMPDEST JUMPDEST SWAP1 PUSH1 0x0 MSTORE PUSH1 0x20 PUSH1 0x0 KECCAK256 ADD DUP1 SLOAD PUSH2 0x1343 SWAP1 PUSH2 0x387F JUMP JUMPDEST DUP1 PUSH1 0x1F ADD PUSH1 0x20 DUP1 SWAP2 DIV MUL PUSH1 0x20 ADD PUSH1 0x40 MLOAD SWAP1 DUP2 ADD PUSH1 0x40 MSTORE DUP1 SWAP3 SWAP2 SWAP1 DUP2 DUP2 MSTORE PUSH1 0x20 ADD DUP3 DUP1 SLOAD PUSH2 0x136F SWAP1 PUSH2 0x387F JUMP JUMPDEST DUP1 ISZERO PUSH2 0x13BC JUMPI DUP1 PUSH1 0x1F LT PUSH2 0x1391 JUMPI PUSH2 0x100 DUP1 DUP4 SLOAD DIV MUL DUP4 MSTORE SWAP2 PUSH1 0x20 ADD SWAP2 PUSH2 0x13BC JUMP JUMPDEST DUP3 ADD SWAP2 SWAP1 PUSH1 0x0 MSTORE PUSH1 0x20 PUSH1 0x0 KECCAK256 SWAP1 JUMPDEST DUP2 SLOAD DUP2 MSTORE SWAP1 PUSH1 0x1 ADD SWAP1 PUSH1 0x20 ADD DUP1 DUP4 GT PUSH2 0x139F JUMPI DUP3 SWAP1 SUB PUSH1 0x1F AND DUP3 ADD SWAP2 JUMPDEST POP POP POP POP POP DUP2 MSTORE PUSH1 0x20 ADD DUP4 DUP2 MSTORE PUSH1 0x20 ADD PUSH1 0x0 DUP2 MSTORE PUSH1 0x20 ADD PUSH1 0x0 DUP2 MSTORE POP SWAP1 DUP1 PUSH1 0x1 DUP2 SLOAD ADD DUP1 DUP3 SSTORE DUP1 SWAP2 POP POP PUSH1 0x1 SWAP1 SUB SWAP1 PUSH1 0x0 MSTORE PUSH1 0x20 PUSH1 0x0 KECCAK256 SWAP1 PUSH1 0x4 MUL ADD PUSH1 0x0 SWAP1 SWAP2 SWAP1 SWAP2 SWAP1 SWAP2 POP PUSH1 0x0 DUP3 ADD MLOAD DUP2 PUSH1 0x0 ADD SWAP1 DUP2 PUSH2 0x1416 SWAP2 SWAP1 PUSH2 0x3F25 JUMP JUMPDEST POP PUSH1 0x20 DUP3 ADD MLOAD DUP2 PUSH1 0x1 ADD SWAP1 DUP2 PUSH2 0x142C SWAP2 SWAP1 PUSH2 0x3F25 JUMP JUMPDEST POP PUSH1 0x40 DUP3 ADD MLOAD DUP2 PUSH1 0x2 ADD SSTORE PUSH1 0x60 DUP3 ADD MLOAD DUP2 PUSH1 0x3 ADD SSTORE POP POP PUSH1 0x0 PUSH2 0x144F PUSH1 0x12 PUSH2 0x21B2 JUMP JUMPDEST SWAP1 POP PUSH1 0x0 PUSH2 0x1523 PUSH1 0x15 DUP4 DUP2 SLOAD DUP2 LT PUSH2 0x146A JUMPI PUSH2 0x1469 PUSH2 0x3D54 JUMP JUMPDEST JUMPDEST SWAP1 PUSH1 0x0 MSTORE PUSH1 0x20 PUSH1 0x0 KECCAK256 SWAP1 PUSH1 0x4 MUL ADD PUSH1 0x0 ADD PUSH1 0x15 DUP5 DUP2 SLOAD DUP2 LT PUSH2 0x148F JUMPI PUSH2 0x148E PUSH2 0x3D54 JUMP JUMPDEST JUMPDEST SWAP1 PUSH1 0x0 MSTORE PUSH1 0x20 PUSH1 0x0 KECCAK256 SWAP1 PUSH1 0x4 MUL ADD PUSH1 0x1 ADD PUSH2 0x14CE PUSH1 0x15 DUP7 DUP2 SLOAD DUP2 LT PUSH2 0x14B7 JUMPI PUSH2 0x14B6 PUSH2 0x3D54 JUMP JUMPDEST JUMPDEST SWAP1 PUSH1 0x0 MSTORE PUSH1 0x20 PUSH1 0x0 KECCAK256 SWAP1 PUSH1 0x4 MUL ADD PUSH1 0x2 ADD SLOAD PUSH2 0x21C0 JUMP JUMPDEST PUSH2 0x14FC PUSH1 0x15 DUP8 DUP2 SLOAD DUP2 LT PUSH2 0x14E5 JUMPI PUSH2 0x14E4 PUSH2 0x3D54 JUMP JUMPDEST JUMPDEST SWAP1 PUSH1 0x0 MSTORE PUSH1 0x20 PUSH1 0x0 KECCAK256 SWAP1 PUSH1 0x4 MUL ADD PUSH1 0x3 ADD SLOAD PUSH2 0x21C0 JUMP JUMPDEST PUSH1 0x40 MLOAD PUSH1 0x20 ADD PUSH2 0x150F SWAP5 SWAP4 SWAP3 SWAP2 SWAP1 PUSH2 0x4388 JUMP JUMPDEST PUSH1 0x40 MLOAD PUSH1 0x20 DUP2 DUP4 SUB SUB DUP2 MSTORE SWAP1 PUSH1 0x40 MSTORE PUSH2 0x2320 JUMP JUMPDEST SWAP1 POP PUSH1 0x0 DUP2 PUSH1 0x40 MLOAD PUSH1 0x20 ADD PUSH2 0x1538 SWAP2 SWAP1 PUSH2 0x448B JUMP JUMPDEST PUSH1 0x40 MLOAD PUSH1 0x20 DUP2 DUP4 SUB SUB DUP2 MSTORE SWAP1 PUSH1 0x40 MSTORE SWAP1 POP PUSH2 0x1553 PUSH1 0x12 PUSH2 0x2483 JUMP JUMPDEST PUSH2 0x155D DUP8 DUP5 PUSH2 0x2499 JUMP JUMPDEST PUSH2 0x1567 DUP4 DUP3 PUSH2 0x24B7 JUMP JUMPDEST POP POP POP POP POP POP POP JUMP JUMPDEST PUSH1 0xA PUSH1 0x20 MSTORE DUP1 PUSH1 0x0 MSTORE PUSH1 0x40 PUSH1 0x0 KECCAK256 PUSH1 0x0 SWAP2 POP SWAP1 POP DUP1 PUSH1 0x0 ADD PUSH1 0x0 SWAP1 SLOAD SWAP1 PUSH2 0x100 EXP SWAP1 DIV PUSH1 0xFF AND SWAP1 DUP1 PUSH1 0x0 ADD PUSH1 0x1 SWAP1 SLOAD SWAP1 PUSH2 0x100 EXP SWAP1 DIV PUSH1 0xFF AND SWAP1 POP DUP3 JUMP JUMPDEST PUSH2 0x15C0 PUSH2 0x15B9 PUSH2 0x1AB4 JUMP JUMPDEST DUP4 DUP4 PUSH2 0x2524 JUMP JUMPDEST POP POP JUMP JUMPDEST PUSH1 0x0 PUSH2 0x15D0 PUSH1 0x12 PUSH2 0x21B2 JUMP JUMPDEST DUP3 LT PUSH2 0x1611 JUMPI PUSH1 0x40 MLOAD PUSH32 0x8C379A000000000000000000000000000000000000000000000000000000000 DUP2 MSTORE PUSH1 0x4 ADD PUSH2 0x1608 SWAP1 PUSH2 0x44F9 JUMP JUMPDEST PUSH1 0x40 MLOAD DUP1 SWAP2 SUB SWAP1 REVERT JUMPDEST PUSH1 0x9 PUSH1 0x0 SWAP1 SLOAD SWAP1 PUSH2 0x100 EXP SWAP1 DIV PUSH20 0xFFFFFFFFFFFFFFFFFFFFFFFFFFFFFFFFFFFFFFFF AND PUSH20 0xFFFFFFFFFFFFFFFFFFFFFFFFFFFFFFFFFFFFFFFF AND PUSH4 0x9B1C385E PUSH1 0x40 MLOAD DUP1 PUSH1 0xC0 ADD PUSH1 0x40 MSTORE DUP1 PUSH1 0xC SLOAD DUP2 MSTORE PUSH1 0x20 ADD PUSH1 0x11 SLOAD DUP2 MSTORE PUSH1 0x20 ADD PUSH1 0xD PUSH1 0x4 SWAP1 SLOAD SWAP1 PUSH2 0x100 EXP SWAP1 DIV PUSH2 0xFFFF AND PUSH2 0xFFFF AND DUP2 MSTORE PUSH1 0x20 ADD PUSH1 0xD PUSH1 0x0 SWAP1 SLOAD SWAP1 PUSH2 0x100 EXP SWAP1 DIV PUSH4 0xFFFFFFFF AND PUSH4 0xFFFFFFFF AND DUP2 MSTORE PUSH1 0x20 ADD PUSH1 0xD PUSH1 0x6 SWAP1 SLOAD SWAP1 PUSH2 0x100 EXP SWAP1 DIV PUSH4 0xFFFFFFFF AND PUSH4 0xFFFFFFFF AND DUP2 MSTORE PUSH1 0x20 ADD PUSH2 0x16DA PUSH1 0x40 MLOAD DUP1 PUSH1 0x20 ADD PUSH1 0x40 MSTORE DUP1 PUSH1 0x0 ISZERO ISZERO DUP2 MSTORE POP PUSH2 0x2690 JUMP JUMPDEST DUP2 MSTORE POP PUSH1 0x40 MLOAD DUP3 PUSH4 0xFFFFFFFF AND PUSH1 0xE0 SHL DUP2 MSTORE PUSH1 0x4 ADD PUSH2 0x16F9 SWAP2 SWAP1 PUSH2 0x464C JUMP JUMPDEST PUSH1 0x20 PUSH1 0x40 MLOAD DUP1 DUP4 SUB DUP2 PUSH1 0x0 DUP8 GAS CALL ISZERO DUP1 ISZERO PUSH2 0x1718 JUMPI RETURNDATASIZE PUSH1 0x0 DUP1 RETURNDATACOPY RETURNDATASIZE PUSH1 0x0 REVERT JUMPDEST POP POP POP POP PUSH1 0x40 MLOAD RETURNDATASIZE PUSH1 0x1F NOT PUSH1 0x1F DUP3 ADD AND DUP3 ADD DUP1 PUSH1 0x40 MSTORE POP DUP2 ADD SWAP1 PUSH2 0x173C SWAP2 SWAP1 PUSH2 0x4683 JUMP JUMPDEST SWAP1 POP PUSH1 0x40 MLOAD DUP1 PUSH1 0x60 ADD PUSH1 0x40 MSTORE DUP1 PUSH1 0x0 ISZERO ISZERO DUP2 MSTORE PUSH1 0x20 ADD PUSH1 0x1 ISZERO ISZERO DUP2 MSTORE PUSH1 0x20 ADD PUSH1 0x0 PUSH8 0xFFFFFFFFFFFFFFFF DUP2 GT ISZERO PUSH2 0x1776 JUMPI PUSH2 0x1775 PUSH2 0x3574 JUMP JUMPDEST JUMPDEST PUSH1 0x40 MLOAD SWAP1 DUP1 DUP3 MSTORE DUP1 PUSH1 0x20 MUL PUSH1 0x20 ADD DUP3 ADD PUSH1 0x40 MSTORE DUP1 ISZERO PUSH2 0x17A4 JUMPI DUP2 PUSH1 0x20 ADD PUSH1 0x20 DUP3 MUL DUP1 CALLDATASIZE DUP4 CALLDATACOPY DUP1 DUP3 ADD SWAP2 POP POP SWAP1 POP JUMPDEST POP DUP2 MSTORE POP PUSH1 0xA PUSH1 0x0 DUP4 DUP2 MSTORE PUSH1 0x20 ADD SWAP1 DUP2 MSTORE PUSH1 0x20 ADD PUSH1 0x0 KECCAK256 PUSH1 0x0 DUP3 ADD MLOAD DUP2 PUSH1 0x0 ADD PUSH1 0x0 PUSH2 0x100 EXP DUP2 SLOAD DUP2 PUSH1 0xFF MUL NOT AND SWAP1 DUP4 ISZERO ISZERO MUL OR SWAP1 SSTORE POP PUSH1 0x20 DUP3 ADD MLOAD DUP2 PUSH1 0x0 ADD PUSH1 0x1 PUSH2 0x100 EXP DUP2 SLOAD DUP2 PUSH1 0xFF MUL NOT AND SWAP1 DUP4 ISZERO ISZERO MUL OR SWAP1 SSTORE POP PUSH1 0x40 DUP3 ADD MLOAD DUP2 PUSH1 0x1 ADD SWAP1 DUP1 MLOAD SWAP1 PUSH1 0x20 ADD SWAP1 PUSH2 0x1817 SWAP3 SWAP2 SWAP1 PUSH2 0x2F3B JUMP JUMPDEST POP SWAP1 POP POP PUSH1 0xE DUP2 SWAP1 DUP1 PUSH1 0x1 DUP2 SLOAD ADD DUP1 DUP3 SSTORE DUP1 SWAP2 POP POP PUSH1 0x1 SWAP1 SUB SWAP1 PUSH1 0x0 MSTORE PUSH1 0x20 PUSH1 0x0 KECCAK256 ADD PUSH1 0x0 SWAP1 SWAP2 SWAP1 SWAP2 SWAP1 SWAP2 POP SSTORE DUP1 PUSH1 0xF DUP2 SWAP1 SSTORE POP PUSH32 0xCC58B13AD3EAB50626C6A6300B1D139CD6EBB1688A7CCED9461C2F7E762665EE DUP2 PUSH1 0xD PUSH1 0x6 SWAP1 SLOAD SWAP1 PUSH2 0x100 EXP SWAP1 DIV PUSH4 0xFFFFFFFF AND PUSH1 0x40 MLOAD PUSH2 0x188E SWAP3 SWAP2 SWAP1 PUSH2 0x46BF JUMP JUMPDEST PUSH1 0x40 MLOAD DUP1 SWAP2 SUB SWAP1 LOG1 DUP2 PUSH1 0x16 PUSH1 0x0 DUP4 DUP2 MSTORE PUSH1 0x20 ADD SWAP1 DUP2 MSTORE PUSH1 0x20 ADD PUSH1 0x0 KECCAK256 DUP2 SWAP1 SSTORE POP SWAP2 SWAP1 POP JUMP JUMPDEST PUSH2 0x18C4 PUSH2 0x18BE PUSH2 0x1AB4 JUMP JUMPDEST DUP4 PUSH2 0x1E6E JUMP JUMPDEST PUSH2 0x1903 JUMPI PUSH1 0x40 MLOAD PUSH32 0x8C379A000000000000000000000000000000000000000000000000000000000 DUP2 MSTORE PUSH1 0x4 ADD PUSH2 0x18FA SWAP1 PUSH2 0x3B01 JUMP JUMPDEST PUSH1 0x40 MLOAD DUP1 SWAP2 SUB SWAP1 REVERT JUMPDEST PUSH2 0x190F DUP5 DUP5 DUP5 DUP5 PUSH2 0x2728 JUMP JUMPDEST POP POP POP POP JUMP JUMPDEST PUSH1 0x60 PUSH2 0x1920 DUP3 PUSH2 0x2784 JUMP JUMPDEST SWAP1 POP SWAP2 SWAP1 POP JUMP JUMPDEST PUSH1 0x0 PUSH1 0x60 SWAP2 POP SWAP2 JUMP JUMPDEST PUSH1 0x0 PUSH1 0x5 PUSH1 0x0 DUP5 PUSH20 0xFFFFFFFFFFFFFFFFFFFFFFFFFFFFFFFFFFFFFFFF AND PUSH20 0xFFFFFFFFFFFFFFFFFFFFFFFFFFFFFFFFFFFFFFFF AND DUP2 MSTORE PUSH1 0x20 ADD SWAP1 DUP2 MSTORE PUSH1 0x20 ADD PUSH1 0x0 KECCAK256 PUSH1 0x0 DUP4 PUSH20 0xFFFFFFFFFFFFFFFFFFFFFFFFFFFFFFFFFFFFFFFF AND PUSH20 0xFFFFFFFFFFFFFFFFFFFFFFFFFFFFFFFFFFFFFFFF AND DUP2 MSTORE PUSH1 0x20 ADD SWAP1 DUP2 MSTORE PUSH1 0x20 ADD PUSH1 0x0 KECCAK256 PUSH1 0x0 SWAP1 SLOAD SWAP1 PUSH2 0x100 EXP SWAP1 DIV PUSH1 0xFF AND SWAP1 POP SWAP3 SWAP2 POP POP JUMP JUMPDEST PUSH2 0x19CC PUSH2 0x28D5 JUMP JUMPDEST PUSH2 0x19D5 DUP2 PUSH2 0x2967 JUMP JUMPDEST POP JUMP JUMPDEST PUSH1 0xF SLOAD DUP2 JUMP JUMPDEST PUSH1 0x0 PUSH32 0x1FFC9A700000000000000000000000000000000000000000000000000000000 PUSH28 0xFFFFFFFFFFFFFFFFFFFFFFFFFFFFFFFFFFFFFFFFFFFFFFFFFFFFFFFF NOT AND DUP3 PUSH28 0xFFFFFFFFFFFFFFFFFFFFFFFFFFFFFFFFFFFFFFFFFFFFFFFFFFFFFFFF NOT AND EQ SWAP1 POP SWAP2 SWAP1 POP JUMP JUMPDEST PUSH1 0x0 DUP1 PUSH20 0xFFFFFFFFFFFFFFFFFFFFFFFFFFFFFFFFFFFFFFFF AND PUSH1 0x2 PUSH1 0x0 DUP5 DUP2 MSTORE PUSH1 0x20 ADD SWAP1 DUP2 MSTORE PUSH1 0x20 ADD PUSH1 0x0 KECCAK256 PUSH1 0x0 SWAP1 SLOAD SWAP1 PUSH2 0x100 EXP SWAP1 DIV PUSH20 0xFFFFFFFFFFFFFFFFFFFFFFFFFFFFFFFFFFFFFFFF AND PUSH20 0xFFFFFFFFFFFFFFFFFFFFFFFFFFFFFFFFFFFFFFFF AND EQ ISZERO SWAP1 POP SWAP2 SWAP1 POP JUMP JUMPDEST PUSH1 0x0 CALLER SWAP1 POP SWAP1 JUMP JUMPDEST DUP2 PUSH1 0x4 PUSH1 0x0 DUP4 DUP2 MSTORE PUSH1 0x20 ADD SWAP1 DUP2 MSTORE PUSH1 0x20 ADD PUSH1 0x0 KECCAK256 PUSH1 0x0 PUSH2 0x100 EXP DUP2 SLOAD DUP2 PUSH20 0xFFFFFFFFFFFFFFFFFFFFFFFFFFFFFFFFFFFFFFFF MUL NOT AND SWAP1 DUP4 PUSH20 0xFFFFFFFFFFFFFFFFFFFFFFFFFFFFFFFFFFFFFFFF AND MUL OR SWAP1 SSTORE POP DUP1 DUP3 PUSH20 0xFFFFFFFFFFFFFFFFFFFFFFFFFFFFFFFFFFFFFFFF AND PUSH2 0x1B2F DUP4 PUSH2 0xBD2 JUMP JUMPDEST PUSH20 0xFFFFFFFFFFFFFFFFFFFFFFFFFFFFFFFFFFFFFFFF AND PUSH32 0x8C5BE1E5EBEC7D5BD14F71427D1E84F3DD0314C0F7B2291E5B200AC8C7C3B925 PUSH1 0x40 MLOAD PUSH1 0x40 MLOAD DUP1 SWAP2 SUB SWAP1 LOG4 POP POP JUMP JUMPDEST PUSH1 0x0 PUSH2 0x1B81 PUSH1 0x12 PUSH2 0x21B2 JUMP JUMPDEST LT ISZERO PUSH2 0x1BC2 JUMPI PUSH1 0x40 MLOAD PUSH32 0x8C379A000000000000000000000000000000000000000000000000000000000 DUP2 MSTORE PUSH1 0x4 ADD PUSH2 0x1BB9 SWAP1 PUSH2 0x4734 JUMP JUMPDEST PUSH1 0x40 MLOAD DUP1 SWAP2 SUB SWAP1 REVERT JUMPDEST PUSH1 0xA PUSH1 0x0 DUP5 DUP2 MSTORE PUSH1 0x20 ADD SWAP1 DUP2 MSTORE PUSH1 0x20 ADD PUSH1 0x0 KECCAK256 PUSH1 0x0 ADD PUSH1 0x1 SWAP1 SLOAD SWAP1 PUSH2 0x100 EXP SWAP1 DIV PUSH1 0xFF AND PUSH2 0x1C25 JUMPI PUSH1 0x40 MLOAD PUSH32 0x8C379A000000000000000000000000000000000000000000000000000000000 DUP2 MSTORE PUSH1 0x4 ADD PUSH2 0x1C1C SWAP1 PUSH2 0x47A0 JUMP JUMPDEST PUSH1 0x40 MLOAD DUP1 SWAP2 SUB SWAP1 REVERT JUMPDEST PUSH1 0x1 PUSH1 0xA PUSH1 0x0 DUP6 DUP2 MSTORE PUSH1 0x20 ADD SWAP1 DUP2 MSTORE PUSH1 0x20 ADD PUSH1 0x0 KECCAK256 PUSH1 0x0 ADD PUSH1 0x0 PUSH2 0x100 EXP DUP2 SLOAD DUP2 PUSH1 0xFF MUL NOT AND SWAP1 DUP4 ISZERO ISZERO MUL OR SWAP1 SSTORE POP DUP2 DUP2 PUSH1 0xA PUSH1 0x0 DUP7 DUP2 MSTORE PUSH1 0x20 ADD SWAP1 DUP2 MSTORE PUSH1 0x20 ADD PUSH1 0x0 KECCAK256 PUSH1 0x1 ADD SWAP2 SWAP1 PUSH2 0x1C79 SWAP3 SWAP2 SWAP1 PUSH2 0x2F88 JUMP JUMPDEST POP DUP2 DUP2 PUSH1 0x10 SWAP2 SWAP1 PUSH2 0x1C8B SWAP3 SWAP2 SWAP1 PUSH2 0x2F88 JUMP JUMPDEST POP PUSH1 0x0 PUSH1 0xA PUSH1 0x1 PUSH1 0xA PUSH1 0x10 PUSH1 0x0 DUP2 SLOAD DUP2 LT PUSH2 0x1CA9 JUMPI PUSH2 0x1CA8 PUSH2 0x3D54 JUMP JUMPDEST JUMPDEST SWAP1 PUSH1 0x0 MSTORE PUSH1 0x20 PUSH1 0x0 KECCAK256 ADD SLOAD PUSH2 0x1CBE SWAP2 SWAP1 PUSH2 0x47EF JUMP JUMPDEST PUSH2 0x1CC8 SWAP2 SWAP1 PUSH2 0x484F JUMP JUMPDEST PUSH2 0x1CD2 SWAP2 SWAP1 PUSH2 0x4883 JUMP JUMPDEST SWAP1 POP PUSH1 0x0 PUSH1 0x16 PUSH1 0x0 DUP7 DUP2 MSTORE PUSH1 0x20 ADD SWAP1 DUP2 MSTORE PUSH1 0x20 ADD PUSH1 0x0 KECCAK256 SLOAD SWAP1 POP DUP2 PUSH1 0x15 DUP3 DUP2 SLOAD DUP2 LT PUSH2 0x1D01 JUMPI PUSH2 0x1D00 PUSH2 0x3D54 JUMP JUMPDEST JUMPDEST SWAP1 PUSH1 0x0 MSTORE PUSH1 0x20 PUSH1 0x0 KECCAK256 SWAP1 PUSH1 0x4 MUL ADD PUSH1 0x2 ADD PUSH1 0x0 DUP3 DUP3 SLOAD PUSH2 0x1D21 SWAP2 SWAP1 PUSH2 0x484F JUMP JUMPDEST SWAP3 POP POP DUP2 SWAP1 SSTORE POP PUSH1 0x15 DUP2 DUP2 SLOAD DUP2 LT PUSH2 0x1D3C JUMPI PUSH2 0x1D3B PUSH2 0x3D54 JUMP JUMPDEST JUMPDEST SWAP1 PUSH1 0x0 MSTORE PUSH1 0x20 PUSH1 0x0 KECCAK256 SWAP1 PUSH1 0x4 MUL ADD PUSH1 0x3 ADD PUSH1 0x0 DUP2 SLOAD DUP1 SWAP3 SWAP2 SWAP1 PUSH2 0x1D5E SWAP1 PUSH2 0x48C5 JUMP JUMPDEST SWAP2 SWAP1 POP SSTORE POP PUSH1 0x0 PUSH2 0x1E35 PUSH1 0x15 DUP4 DUP2 SLOAD DUP2 LT PUSH2 0x1D7C JUMPI PUSH2 0x1D7B PUSH2 0x3D54 JUMP JUMPDEST JUMPDEST SWAP1 PUSH1 0x0 MSTORE PUSH1 0x20 PUSH1 0x0 KECCAK256 SWAP1 PUSH1 0x4 MUL ADD PUSH1 0x0 ADD PUSH1 0x15 DUP5 DUP2 SLOAD DUP2 LT PUSH2 0x1DA1 JUMPI PUSH2 0x1DA0 PUSH2 0x3D54 JUMP JUMPDEST JUMPDEST SWAP1 PUSH1 0x0 MSTORE PUSH1 0x20 PUSH1 0x0 KECCAK256 SWAP1 PUSH1 0x4 MUL ADD PUSH1 0x1 ADD PUSH2 0x1DE0 PUSH1 0x15 DUP7 DUP2 SLOAD DUP2 LT PUSH2 0x1DC9 JUMPI PUSH2 0x1DC8 PUSH2 0x3D54 JUMP JUMPDEST JUMPDEST SWAP1 PUSH1 0x0 MSTORE PUSH1 0x20 PUSH1 0x0 KECCAK256 SWAP1 PUSH1 0x4 MUL ADD PUSH1 0x2 ADD SLOAD PUSH2 0x21C0 JUMP JUMPDEST PUSH2 0x1E0E PUSH1 0x15 DUP8 DUP2 SLOAD DUP2 LT PUSH2 0x1DF7 JUMPI PUSH2 0x1DF6 PUSH2 0x3D54 JUMP JUMPDEST JUMPDEST SWAP1 PUSH1 0x0 MSTORE PUSH1 0x20 PUSH1 0x0 KECCAK256 SWAP1 PUSH1 0x4 MUL ADD PUSH1 0x3 ADD SLOAD PUSH2 0x21C0 JUMP JUMPDEST PUSH1 0x40 MLOAD PUSH1 0x20 ADD PUSH2 0x1E21 SWAP5 SWAP4 SWAP3 SWAP2 SWAP1 PUSH2 0x4388 JUMP JUMPDEST PUSH1 0x40 MLOAD PUSH1 0x20 DUP2 DUP4 SUB SUB DUP2 MSTORE SWAP1 PUSH1 0x40 MSTORE PUSH2 0x2320 JUMP JUMPDEST SWAP1 POP PUSH1 0x0 DUP2 PUSH1 0x40 MLOAD PUSH1 0x20 ADD PUSH2 0x1E4A SWAP2 SWAP1 PUSH2 0x448B JUMP JUMPDEST PUSH1 0x40 MLOAD PUSH1 0x20 DUP2 DUP4 SUB SUB DUP2 MSTORE SWAP1 PUSH1 0x40 MSTORE SWAP1 POP PUSH2 0x1E65 DUP4 DUP3 PUSH2 0x24B7 JUMP JUMPDEST POP POP POP POP POP POP POP JUMP JUMPDEST PUSH1 0x0 PUSH2 0x1E79 DUP3 PUSH2 0x1A48 JUMP JUMPDEST PUSH2 0x1EB8 JUMPI PUSH1 0x40 MLOAD PUSH32 0x8C379A000000000000000000000000000000000000000000000000000000000 DUP2 MSTORE PUSH1 0x4 ADD PUSH2 0x1EAF SWAP1 PUSH2 0x497F JUMP JUMPDEST PUSH1 0x40 MLOAD DUP1 SWAP2 SUB SWAP1 REVERT JUMPDEST PUSH1 0x0 PUSH2 0x1EC3 DUP4 PUSH2 0xBD2 JUMP JUMPDEST SWAP1 POP DUP1 PUSH20 0xFFFFFFFFFFFFFFFFFFFFFFFFFFFFFFFFFFFFFFFF AND DUP5 PUSH20 0xFFFFFFFFFFFFFFFFFFFFFFFFFFFFFFFFFFFFFFFF AND EQ DUP1 PUSH2 0x1F05 JUMPI POP PUSH2 0x1F04 DUP2 DUP6 PUSH2 0x1930 JUMP JUMPDEST JUMPDEST DUP1 PUSH2 0x1F43 JUMPI POP DUP4 PUSH20 0xFFFFFFFFFFFFFFFFFFFFFFFFFFFFFFFFFFFFFFFF AND PUSH2 0x1F2B DUP5 PUSH2 0x7A0 JUMP JUMPDEST PUSH20 0xFFFFFFFFFFFFFFFFFFFFFFFFFFFFFFFFFFFFFFFF AND EQ JUMPDEST SWAP2 POP POP SWAP3 SWAP2 POP POP JUMP JUMPDEST DUP3 PUSH20 0xFFFFFFFFFFFFFFFFFFFFFFFFFFFFFFFFFFFFFFFF AND PUSH2 0x1F6C DUP3 PUSH2 0xBD2 JUMP JUMPDEST PUSH20 0xFFFFFFFFFFFFFFFFFFFFFFFFFFFFFFFFFFFFFFFF AND EQ PUSH2 0x1FC2 JUMPI PUSH1 0x40 MLOAD PUSH32 0x8C379A000000000000000000000000000000000000000000000000000000000 DUP2 MSTORE PUSH1 0x4 ADD PUSH2 0x1FB9 SWAP1 PUSH2 0x4A11 JUMP JUMPDEST PUSH1 0x40 MLOAD DUP1 SWAP2 SUB SWAP1 REVERT JUMPDEST PUSH1 0x0 PUSH20 0xFFFFFFFFFFFFFFFFFFFFFFFFFFFFFFFFFFFFFFFF AND DUP3 PUSH20 0xFFFFFFFFFFFFFFFFFFFFFFFFFFFFFFFFFFFFFFFF AND SUB PUSH2 0x2031 JUMPI PUSH1 0x40 MLOAD PUSH32 0x8C379A000000000000000000000000000000000000000000000000000000000 DUP2 MSTORE PUSH1 0x4 ADD PUSH2 0x2028 SWAP1 PUSH2 0x4AA3 JUMP JUMPDEST PUSH1 0x40 MLOAD DUP1 SWAP2 SUB SWAP1 REVERT JUMPDEST PUSH2 0x203C DUP4 DUP4 DUP4 PUSH2 0x2A95 JUMP JUMPDEST PUSH2 0x2047 PUSH1 0x0 DUP3 PUSH2 0x1ABC JUMP JUMPDEST PUSH1 0x1 PUSH1 0x3 PUSH1 0x0 DUP6 PUSH20 0xFFFFFFFFFFFFFFFFFFFFFFFFFFFFFFFFFFFFFFFF AND PUSH20 0xFFFFFFFFFFFFFFFFFFFFFFFFFFFFFFFFFFFFFFFF AND DUP2 MSTORE PUSH1 0x20 ADD SWAP1 DUP2 MSTORE PUSH1 0x20 ADD PUSH1 0x0 KECCAK256 PUSH1 0x0 DUP3 DUP3 SLOAD PUSH2 0x2097 SWAP2 SWAP1 PUSH2 0x4AC3 JUMP JUMPDEST SWAP3 POP POP DUP2 SWAP1 SSTORE POP PUSH1 0x1 PUSH1 0x3 PUSH1 0x0 DUP5 PUSH20 0xFFFFFFFFFFFFFFFFFFFFFFFFFFFFFFFFFFFFFFFF AND PUSH20 0xFFFFFFFFFFFFFFFFFFFFFFFFFFFFFFFFFFFFFFFF AND DUP2 MSTORE PUSH1 0x20 ADD SWAP1 DUP2 MSTORE PUSH1 0x20 ADD PUSH1 0x0 KECCAK256 PUSH1 0x0 DUP3 DUP3 SLOAD PUSH2 0x20EE SWAP2 SWAP1 PUSH2 0x484F JUMP JUMPDEST SWAP3 POP POP DUP2 SWAP1 SSTORE POP DUP2 PUSH1 0x2 PUSH1 0x0 DUP4 DUP2 MSTORE PUSH1 0x20 ADD SWAP1 DUP2 MSTORE PUSH1 0x20 ADD PUSH1 0x0 KECCAK256 PUSH1 0x0 PUSH2 0x100 EXP DUP2 SLOAD DUP2 PUSH20 0xFFFFFFFFFFFFFFFFFFFFFFFFFFFFFFFFFFFFFFFF MUL NOT AND SWAP1 DUP4 PUSH20 0xFFFFFFFFFFFFFFFFFFFFFFFFFFFFFFFFFFFFFFFF AND MUL OR SWAP1 SSTORE POP DUP1 DUP3 PUSH20 0xFFFFFFFFFFFFFFFFFFFFFFFFFFFFFFFFFFFFFFFF AND DUP5 PUSH20 0xFFFFFFFFFFFFFFFFFFFFFFFFFFFFFFFFFFFFFFFF AND PUSH32 0xDDF252AD1BE2C89B69C2B068FC378DAA952BA7F163C4A11628F55A4DF523B3EF PUSH1 0x40 MLOAD PUSH1 0x40 MLOAD DUP1 SWAP2 SUB SWAP1 LOG4 PUSH2 0x21AD DUP4 DUP4 DUP4 PUSH2 0x2A9A JUMP JUMPDEST POP POP POP JUMP JUMPDEST PUSH1 0x0 DUP2 PUSH1 0x0 ADD SLOAD SWAP1 POP SWAP2 SWAP1 POP JUMP JUMPDEST PUSH1 0x60 PUSH1 0x0 DUP3 SUB PUSH2 0x2207 JUMPI PUSH1 0x40 MLOAD DUP1 PUSH1 0x40 ADD PUSH1 0x40 MSTORE DUP1 PUSH1 0x1 DUP2 MSTORE PUSH1 0x20 ADD PUSH32 0x3000000000000000000000000000000000000000000000000000000000000000 DUP2 MSTORE POP SWAP1 POP PUSH2 0x231B JUMP JUMPDEST PUSH1 0x0 DUP3 SWAP1 POP PUSH1 0x0 JUMPDEST PUSH1 0x0 DUP3 EQ PUSH2 0x2239 JUMPI DUP1 DUP1 PUSH2 0x2222 SWAP1 PUSH2 0x48C5 JUMP JUMPDEST SWAP2 POP POP PUSH1 0xA DUP3 PUSH2 0x2232 SWAP2 SWAP1 PUSH2 0x4AF7 JUMP JUMPDEST SWAP2 POP PUSH2 0x220F JUMP JUMPDEST PUSH1 0x0 DUP2 PUSH8 0xFFFFFFFFFFFFFFFF DUP2 GT ISZERO PUSH2 0x2255 JUMPI PUSH2 0x2254 PUSH2 0x3574 JUMP JUMPDEST JUMPDEST PUSH1 0x40 MLOAD SWAP1 DUP1 DUP3 MSTORE DUP1 PUSH1 0x1F ADD PUSH1 0x1F NOT AND PUSH1 0x20 ADD DUP3 ADD PUSH1 0x40 MSTORE DUP1 ISZERO PUSH2 0x2287 JUMPI DUP2 PUSH1 0x20 ADD PUSH1 0x1 DUP3 MUL DUP1 CALLDATASIZE DUP4 CALLDATACOPY DUP1 DUP3 ADD SWAP2 POP POP SWAP1 POP JUMPDEST POP SWAP1 POP JUMPDEST PUSH1 0x0 DUP6 EQ PUSH2 0x2314 JUMPI PUSH1 0x1 DUP3 PUSH2 0x22A0 SWAP2 SWAP1 PUSH2 0x4AC3 JUMP JUMPDEST SWAP2 POP PUSH1 0xA DUP6 PUSH2 0x22AF SWAP2 SWAP1 PUSH2 0x47EF JUMP JUMPDEST PUSH1 0x30 PUSH2 0x22BB SWAP2 SWAP1 PUSH2 0x484F JUMP JUMPDEST PUSH1 0xF8 SHL DUP2 DUP4 DUP2 MLOAD DUP2 LT PUSH2 0x22D1 JUMPI PUSH2 0x22D0 PUSH2 0x3D54 JUMP JUMPDEST JUMPDEST PUSH1 0x20 ADD ADD SWAP1 PUSH31 0xFFFFFFFFFFFFFFFFFFFFFFFFFFFFFFFFFFFFFFFFFFFFFFFFFFFFFFFFFFFFFF NOT AND SWAP1 DUP2 PUSH1 0x0 BYTE SWAP1 MSTORE8 POP PUSH1 0xA DUP6 PUSH2 0x230D SWAP2 SWAP1 PUSH2 0x4AF7 JUMP JUMPDEST SWAP5 POP PUSH2 0x228B JUMP JUMPDEST DUP1 SWAP4 POP POP POP POP JUMPDEST SWAP2 SWAP1 POP JUMP JUMPDEST PUSH1 0x60 PUSH1 0x0 DUP3 MLOAD SUB PUSH2 0x2342 JUMPI PUSH1 0x40 MLOAD DUP1 PUSH1 0x20 ADD PUSH1 0x40 MSTORE DUP1 PUSH1 0x0 DUP2 MSTORE POP SWAP1 POP PUSH2 0x247E JUMP JUMPDEST PUSH1 0x0 PUSH1 0x40 MLOAD DUP1 PUSH1 0x60 ADD PUSH1 0x40 MSTORE DUP1 PUSH1 0x40 DUP2 MSTORE PUSH1 0x20 ADD PUSH2 0x50CF PUSH1 0x40 SWAP2 CODECOPY SWAP1 POP PUSH1 0x0 PUSH1 0x3 PUSH1 0x2 DUP6 MLOAD PUSH2 0x2371 SWAP2 SWAP1 PUSH2 0x484F JUMP JUMPDEST PUSH2 0x237B SWAP2 SWAP1 PUSH2 0x4AF7 JUMP JUMPDEST PUSH1 0x4 PUSH2 0x2387 SWAP2 SWAP1 PUSH2 0x4883 JUMP JUMPDEST PUSH8 0xFFFFFFFFFFFFFFFF DUP2 GT ISZERO PUSH2 0x23A0 JUMPI PUSH2 0x239F PUSH2 0x3574 JUMP JUMPDEST JUMPDEST PUSH1 0x40 MLOAD SWAP1 DUP1 DUP3 MSTORE DUP1 PUSH1 0x1F ADD PUSH1 0x1F NOT AND PUSH1 0x20 ADD DUP3 ADD PUSH1 0x40 MSTORE DUP1 ISZERO PUSH2 0x23D2 JUMPI DUP2 PUSH1 0x20 ADD PUSH1 0x1 DUP3 MUL DUP1 CALLDATASIZE DUP4 CALLDATACOPY DUP1 DUP3 ADD SWAP2 POP POP SWAP1 POP JUMPDEST POP SWAP1 POP PUSH1 0x1 DUP3 ADD PUSH1 0x20 DUP3 ADD DUP6 DUP7 MLOAD DUP8 ADD JUMPDEST DUP1 DUP3 LT ISZERO PUSH2 0x243E JUMPI PUSH1 0x3 DUP3 ADD SWAP2 POP DUP2 MLOAD PUSH1 0x3F DUP2 PUSH1 0x12 SHR AND DUP6 ADD MLOAD DUP5 MSTORE8 PUSH1 0x1 DUP5 ADD SWAP4 POP PUSH1 0x3F DUP2 PUSH1 0xC SHR AND DUP6 ADD MLOAD DUP5 MSTORE8 PUSH1 0x1 DUP5 ADD SWAP4 POP PUSH1 0x3F DUP2 PUSH1 0x6 SHR AND DUP6 ADD MLOAD DUP5 MSTORE8 PUSH1 0x1 DUP5 ADD SWAP4 POP PUSH1 0x3F DUP2 AND DUP6 ADD MLOAD DUP5 MSTORE8 PUSH1 0x1 DUP5 ADD SWAP4 POP POP PUSH2 0x23E3 JUMP JUMPDEST POP POP PUSH1 0x3 DUP7 MLOAD MOD PUSH1 0x1 DUP2 EQ PUSH2 0x245A JUMPI PUSH1 0x2 DUP2 EQ PUSH2 0x246D JUMPI PUSH2 0x2475 JUMP JUMPDEST PUSH1 0x3D PUSH1 0x1 DUP4 SUB MSTORE8 PUSH1 0x3D PUSH1 0x2 DUP4 SUB MSTORE8 PUSH2 0x2475 JUMP JUMPDEST PUSH1 0x3D PUSH1 0x1 DUP4 SUB MSTORE8 JUMPDEST POP POP POP DUP1 SWAP3 POP POP POP JUMPDEST SWAP2 SWAP1 POP JUMP JUMPDEST PUSH1 0x1 DUP2 PUSH1 0x0 ADD PUSH1 0x0 DUP3 DUP3 SLOAD ADD SWAP3 POP POP DUP2 SWAP1 SSTORE POP POP JUMP JUMPDEST PUSH2 0x24B3 DUP3 DUP3 PUSH1 0x40 MLOAD DUP1 PUSH1 0x20 ADD PUSH1 0x40 MSTORE DUP1 PUSH1 0x0 DUP2 MSTORE POP PUSH2 0x2A9F JUMP JUMPDEST POP POP JUMP JUMPDEST PUSH2 0x24C0 DUP3 PUSH2 0x1A48 JUMP JUMPDEST PUSH2 0x24FF JUMPI PUSH1 0x40 MLOAD PUSH32 0x8C379A000000000000000000000000000000000000000000000000000000000 DUP2 MSTORE PUSH1 0x4 ADD PUSH2 0x24F6 SWAP1 PUSH2 0x4B9A JUMP JUMPDEST PUSH1 0x40 MLOAD DUP1 SWAP2 SUB SWAP1 REVERT JUMPDEST DUP1 PUSH1 0x6 PUSH1 0x0 DUP5 DUP2 MSTORE PUSH1 0x20 ADD SWAP1 DUP2 MSTORE PUSH1 0x20 ADD PUSH1 0x0 KECCAK256 SWAP1 DUP2 PUSH2 0x251F SWAP2 SWAP1 PUSH2 0x3F25 JUMP JUMPDEST POP POP POP JUMP JUMPDEST DUP2 PUSH20 0xFFFFFFFFFFFFFFFFFFFFFFFFFFFFFFFFFFFFFFFF AND DUP4 PUSH20 0xFFFFFFFFFFFFFFFFFFFFFFFFFFFFFFFFFFFFFFFF AND SUB PUSH2 0x2592 JUMPI PUSH1 0x40 MLOAD PUSH32 0x8C379A000000000000000000000000000000000000000000000000000000000 DUP2 MSTORE PUSH1 0x4 ADD PUSH2 0x2589 SWAP1 PUSH2 0x4C06 JUMP JUMPDEST PUSH1 0x40 MLOAD DUP1 SWAP2 SUB SWAP1 REVERT JUMPDEST DUP1 PUSH1 0x5 PUSH1 0x0 DUP6 PUSH20 0xFFFFFFFFFFFFFFFFFFFFFFFFFFFFFFFFFFFFFFFF AND PUSH20 0xFFFFFFFFFFFFFFFFFFFFFFFFFFFFFFFFFFFFFFFF AND DUP2 MSTORE PUSH1 0x20 ADD SWAP1 DUP2 MSTORE PUSH1 0x20 ADD PUSH1 0x0 KECCAK256 PUSH1 0x0 DUP5 PUSH20 0xFFFFFFFFFFFFFFFFFFFFFFFFFFFFFFFFFFFFFFFF AND PUSH20 0xFFFFFFFFFFFFFFFFFFFFFFFFFFFFFFFFFFFFFFFF AND DUP2 MSTORE PUSH1 0x20 ADD SWAP1 DUP2 MSTORE PUSH1 0x20 ADD PUSH1 0x0 KECCAK256 PUSH1 0x0 PUSH2 0x100 EXP DUP2 SLOAD DUP2 PUSH1 0xFF MUL NOT AND SWAP1 DUP4 ISZERO ISZERO MUL OR SWAP1 SSTORE POP DUP2 PUSH20 0xFFFFFFFFFFFFFFFFFFFFFFFFFFFFFFFFFFFFFFFF AND DUP4 PUSH20 0xFFFFFFFFFFFFFFFFFFFFFFFFFFFFFFFFFFFFFFFF AND PUSH32 0x17307EAB39AB6107E8899845AD3D59BD9653F200F220920489CA2B5937696C31 DUP4 PUSH1 0x40 MLOAD PUSH2 0x2683 SWAP2 SWAP1 PUSH2 0x30A6 JUMP JUMPDEST PUSH1 0x40 MLOAD DUP1 SWAP2 SUB SWAP1 LOG3 POP POP POP JUMP JUMPDEST PUSH1 0x60 PUSH32 0x92FD13387C7FE7BEFBC38D303D6468778FB9731BC4583F17D92989C6FCFDEAAA DUP3 PUSH1 0x40 MLOAD PUSH1 0x24 ADD PUSH2 0x26C4 SWAP2 SWAP1 PUSH2 0x4C51 JUMP JUMPDEST PUSH1 0x40 MLOAD PUSH1 0x20 DUP2 DUP4 SUB SUB DUP2 MSTORE SWAP1 PUSH1 0x40 MSTORE SWAP1 PUSH28 0xFFFFFFFFFFFFFFFFFFFFFFFFFFFFFFFFFFFFFFFFFFFFFFFFFFFFFFFF NOT AND PUSH1 0x20 DUP3 ADD DUP1 MLOAD PUSH28 0xFFFFFFFFFFFFFFFFFFFFFFFFFFFFFFFFFFFFFFFFFFFFFFFFFFFFFFFF DUP4 DUP2 DUP4 AND OR DUP4 MSTORE POP POP POP POP SWAP1 POP SWAP2 SWAP1 POP JUMP JUMPDEST PUSH2 0x2733 DUP5 DUP5 DUP5 PUSH2 0x1F4C JUMP JUMPDEST PUSH2 0x273F DUP5 DUP5 DUP5 DUP5 PUSH2 0x2AFA JUMP JUMPDEST PUSH2 0x277E JUMPI PUSH1 0x40 MLOAD PUSH32 0x8C379A000000000000000000000000000000000000000000000000000000000 DUP2 MSTORE PUSH1 0x4 ADD PUSH2 0x2775 SWAP1 PUSH2 0x4CDE JUMP JUMPDEST PUSH1 0x40 MLOAD DUP1 SWAP2 SUB SWAP1 REVERT JUMPDEST POP POP POP POP JUMP JUMPDEST PUSH1 0x60 PUSH2 0x278F DUP3 PUSH2 0x1A48 JUMP JUMPDEST PUSH2 0x27CE JUMPI PUSH1 0x40 MLOAD PUSH32 0x8C379A000000000000000000000000000000000000000000000000000000000 DUP2 MSTORE PUSH1 0x4 ADD PUSH2 0x27C5 SWAP1 PUSH2 0x4D70 JUMP JUMPDEST PUSH1 0x40 MLOAD DUP1 SWAP2 SUB SWAP1 REVERT JUMPDEST PUSH1 0x0 PUSH1 0x6 PUSH1 0x0 DUP5 DUP2 MSTORE PUSH1 0x20 ADD SWAP1 DUP2 MSTORE PUSH1 0x20 ADD PUSH1 0x0 KECCAK256 DUP1 SLOAD PUSH2 0x27EE SWAP1 PUSH2 0x387F JUMP JUMPDEST DUP1 PUSH1 0x1F ADD PUSH1 0x20 DUP1 SWAP2 DIV MUL PUSH1 0x20 ADD PUSH1 0x40 MLOAD SWAP1 DUP2 ADD PUSH1 0x40 MSTORE DUP1 SWAP3 SWAP2 SWAP1 DUP2 DUP2 MSTORE PUSH1 0x20 ADD DUP3 DUP1 SLOAD PUSH2 0x281A SWAP1 PUSH2 0x387F JUMP JUMPDEST DUP1 ISZERO PUSH2 0x2867 JUMPI DUP1 PUSH1 0x1F LT PUSH2 0x283C JUMPI PUSH2 0x100 DUP1 DUP4 SLOAD DIV MUL DUP4 MSTORE SWAP2 PUSH1 0x20 ADD SWAP2 PUSH2 0x2867 JUMP JUMPDEST DUP3 ADD SWAP2 SWAP1 PUSH1 0x0 MSTORE PUSH1 0x20 PUSH1 0x0 KECCAK256 SWAP1 JUMPDEST DUP2 SLOAD DUP2 MSTORE SWAP1 PUSH1 0x1 ADD SWAP1 PUSH1 0x20 ADD DUP1 DUP4 GT PUSH2 0x284A JUMPI DUP3 SWAP1 SUB PUSH1 0x1F AND DUP3 ADD SWAP2 JUMPDEST POP POP POP POP POP SWAP1 POP PUSH1 0x0 PUSH2 0x2878 PUSH2 0x2C81 JUMP JUMPDEST SWAP1 POP PUSH1 0x0 DUP2 MLOAD SUB PUSH2 0x288D JUMPI DUP2 SWAP3 POP POP POP PUSH2 0x28D0 JUMP JUMPDEST PUSH1 0x0 DUP3 MLOAD GT ISZERO PUSH2 0x28C2 JUMPI DUP1 DUP3 PUSH1 0x40 MLOAD PUSH1 0x20 ADD PUSH2 0x28AA SWAP3 SWAP2 SWAP1 PUSH2 0x4D90 JUMP JUMPDEST PUSH1 0x40 MLOAD PUSH1 0x20 DUP2 DUP4 SUB SUB DUP2 MSTORE SWAP1 PUSH1 0x40 MSTORE SWAP3 POP POP POP PUSH2 0x28D0 JUMP JUMPDEST PUSH2 0x28CB DUP5 PUSH2 0x2C98 JUMP JUMPDEST SWAP3 POP POP POP JUMPDEST SWAP2 SWAP1 POP JUMP JUMPDEST PUSH1 0x7 PUSH1 0x0 SWAP1 SLOAD SWAP1 PUSH2 0x100 EXP SWAP1 DIV PUSH20 0xFFFFFFFFFFFFFFFFFFFFFFFFFFFFFFFFFFFFFFFF AND PUSH20 0xFFFFFFFFFFFFFFFFFFFFFFFFFFFFFFFFFFFFFFFF AND CALLER PUSH20 0xFFFFFFFFFFFFFFFFFFFFFFFFFFFFFFFFFFFFFFFF AND EQ PUSH2 0x2965 JUMPI PUSH1 0x40 MLOAD PUSH32 0x8C379A000000000000000000000000000000000000000000000000000000000 DUP2 MSTORE PUSH1 0x4 ADD PUSH2 0x295C SWAP1 PUSH2 0x4E00 JUMP JUMPDEST PUSH1 0x40 MLOAD DUP1 SWAP2 SUB SWAP1 REVERT JUMPDEST JUMP JUMPDEST CALLER PUSH20 0xFFFFFFFFFFFFFFFFFFFFFFFFFFFFFFFFFFFFFFFF AND DUP2 PUSH20 0xFFFFFFFFFFFFFFFFFFFFFFFFFFFFFFFFFFFFFFFF AND SUB PUSH2 0x29D5 JUMPI PUSH1 0x40 MLOAD PUSH32 0x8C379A000000000000000000000000000000000000000000000000000000000 DUP2 MSTORE PUSH1 0x4 ADD PUSH2 0x29CC SWAP1 PUSH2 0x4E6C JUMP JUMPDEST PUSH1 0x40 MLOAD DUP1 SWAP2 SUB SWAP1 REVERT JUMPDEST DUP1 PUSH1 0x8 PUSH1 0x0 PUSH2 0x100 EXP DUP2 SLOAD DUP2 PUSH20 0xFFFFFFFFFFFFFFFFFFFFFFFFFFFFFFFFFFFFFFFF MUL NOT AND SWAP1 DUP4 PUSH20 0xFFFFFFFFFFFFFFFFFFFFFFFFFFFFFFFFFFFFFFFF AND MUL OR SWAP1 SSTORE POP DUP1 PUSH20 0xFFFFFFFFFFFFFFFFFFFFFFFFFFFFFFFFFFFFFFFF AND PUSH1 0x7 PUSH1 0x0 SWAP1 SLOAD SWAP1 PUSH2 0x100 EXP SWAP1 DIV PUSH20 0xFFFFFFFFFFFFFFFFFFFFFFFFFFFFFFFFFFFFFFFF AND PUSH20 0xFFFFFFFFFFFFFFFFFFFFFFFFFFFFFFFFFFFFFFFF AND PUSH32 0xED8889F560326EB138920D842192F0EB3DD22B4F139C87A2C57538E05BAE1278 PUSH1 0x40 MLOAD PUSH1 0x40 MLOAD DUP1 SWAP2 SUB SWAP1 LOG3 POP JUMP JUMPDEST POP POP POP JUMP JUMPDEST POP POP POP JUMP JUMPDEST PUSH2 0x2AA9 DUP4 DUP4 PUSH2 0x2D3F JUMP JUMPDEST PUSH2 0x2AB6 PUSH1 0x0 DUP5 DUP5 DUP5 PUSH2 0x2AFA JUMP JUMPDEST PUSH2 0x2AF5 JUMPI PUSH1 0x40 MLOAD PUSH32 0x8C379A000000000000000000000000000000000000000000000000000000000 DUP2 MSTORE PUSH1 0x4 ADD PUSH2 0x2AEC SWAP1 PUSH2 0x4CDE JUMP JUMPDEST PUSH1 0x40 MLOAD DUP1 SWAP2 SUB SWAP1 REVERT JUMPDEST POP POP POP JUMP JUMPDEST PUSH1 0x0 PUSH2 0x2B1B DUP5 PUSH20 0xFFFFFFFFFFFFFFFFFFFFFFFFFFFFFFFFFFFFFFFF AND PUSH2 0x2F18 JUMP JUMPDEST ISZERO PUSH2 0x2C74 JUMPI DUP4 PUSH20 0xFFFFFFFFFFFFFFFFFFFFFFFFFFFFFFFFFFFFFFFF AND PUSH4 0x150B7A02 PUSH2 0x2B44 PUSH2 0x1AB4 JUMP JUMPDEST DUP8 DUP7 DUP7 PUSH1 0x40 MLOAD DUP6 PUSH4 0xFFFFFFFF AND PUSH1 0xE0 SHL DUP2 MSTORE PUSH1 0x4 ADD PUSH2 0x2B66 SWAP5 SWAP4 SWAP3 SWAP2 SWAP1 PUSH2 0x4ED6 JUMP JUMPDEST PUSH1 0x20 PUSH1 0x40 MLOAD DUP1 DUP4 SUB DUP2 PUSH1 0x0 DUP8 GAS CALL SWAP3 POP POP POP DUP1 ISZERO PUSH2 0x2BA2 JUMPI POP PUSH1 0x40 MLOAD RETURNDATASIZE PUSH1 0x1F NOT PUSH1 0x1F DUP3 ADD AND DUP3 ADD DUP1 PUSH1 0x40 MSTORE POP DUP2 ADD SWAP1 PUSH2 0x2B9F SWAP2 SWAP1 PUSH2 0x4F37 JUMP JUMPDEST PUSH1 0x1 JUMPDEST PUSH2 0x2C24 JUMPI RETURNDATASIZE DUP1 PUSH1 0x0 DUP2 EQ PUSH2 0x2BD2 JUMPI PUSH1 0x40 MLOAD SWAP2 POP PUSH1 0x1F NOT PUSH1 0x3F RETURNDATASIZE ADD AND DUP3 ADD PUSH1 0x40 MSTORE RETURNDATASIZE DUP3 MSTORE RETURNDATASIZE PUSH1 0x0 PUSH1 0x20 DUP5 ADD RETURNDATACOPY PUSH2 0x2BD7 JUMP JUMPDEST PUSH1 0x60 SWAP2 POP JUMPDEST POP PUSH1 0x0 DUP2 MLOAD SUB PUSH2 0x2C1C JUMPI PUSH1 0x40 MLOAD PUSH32 0x8C379A000000000000000000000000000000000000000000000000000000000 DUP2 MSTORE PUSH1 0x4 ADD PUSH2 0x2C13 SWAP1 PUSH2 0x4CDE JUMP JUMPDEST PUSH1 0x40 MLOAD DUP1 SWAP2 SUB SWAP1 REVERT JUMPDEST DUP1 MLOAD DUP2 PUSH1 0x20 ADD REVERT JUMPDEST PUSH4 0x150B7A02 PUSH1 0xE0 SHL PUSH28 0xFFFFFFFFFFFFFFFFFFFFFFFFFFFFFFFFFFFFFFFFFFFFFFFFFFFFFFFF NOT AND DUP2 PUSH28 0xFFFFFFFFFFFFFFFFFFFFFFFFFFFFFFFFFFFFFFFFFFFFFFFFFFFFFFFF NOT AND EQ SWAP2 POP POP PUSH2 0x2C79 JUMP JUMPDEST PUSH1 0x1 SWAP1 POP JUMPDEST SWAP5 SWAP4 POP POP POP POP JUMP JUMPDEST PUSH1 0x60 PUSH1 0x40 MLOAD DUP1 PUSH1 0x20 ADD PUSH1 0x40 MSTORE DUP1 PUSH1 0x0 DUP2 MSTORE POP SWAP1 POP SWAP1 JUMP JUMPDEST PUSH1 0x60 PUSH2 0x2CA3 DUP3 PUSH2 0x1A48 JUMP JUMPDEST PUSH2 0x2CE2 JUMPI PUSH1 0x40 MLOAD PUSH32 0x8C379A000000000000000000000000000000000000000000000000000000000 DUP2 MSTORE PUSH1 0x4 ADD PUSH2 0x2CD9 SWAP1 PUSH2 0x4FD6 JUMP JUMPDEST PUSH1 0x40 MLOAD DUP1 SWAP2 SUB SWAP1 REVERT JUMPDEST PUSH1 0x0 PUSH2 0x2CEC PUSH2 0x2C81 JUMP JUMPDEST SWAP1 POP PUSH1 0x0 DUP2 MLOAD GT PUSH2 0x2D0C JUMPI PUSH1 0x40 MLOAD DUP1 PUSH1 0x20 ADD PUSH1 0x40 MSTORE DUP1 PUSH1 0x0 DUP2 MSTORE POP PUSH2 0x2D37 JUMP JUMPDEST DUP1 PUSH2 0x2D16 DUP5 PUSH2 0x21C0 JUMP JUMPDEST PUSH1 0x40 MLOAD PUSH1 0x20 ADD PUSH2 0x2D27 SWAP3 SWAP2 SWAP1 PUSH2 0x4D90 JUMP JUMPDEST PUSH1 0x40 MLOAD PUSH1 0x20 DUP2 DUP4 SUB SUB DUP2 MSTORE SWAP1 PUSH1 0x40 MSTORE JUMPDEST SWAP2 POP POP SWAP2 SWAP1 POP JUMP JUMPDEST PUSH1 0x0 PUSH20 0xFFFFFFFFFFFFFFFFFFFFFFFFFFFFFFFFFFFFFFFF AND DUP3 PUSH20 0xFFFFFFFFFFFFFFFFFFFFFFFFFFFFFFFFFFFFFFFF AND SUB PUSH2 0x2DAE JUMPI PUSH1 0x40 MLOAD PUSH32 0x8C379A000000000000000000000000000000000000000000000000000000000 DUP2 MSTORE PUSH1 0x4 ADD PUSH2 0x2DA5 SWAP1 PUSH2 0x5042 JUMP JUMPDEST PUSH1 0x40 MLOAD DUP1 SWAP2 SUB SWAP1 REVERT JUMPDEST PUSH2 0x2DB7 DUP2 PUSH2 0x1A48 JUMP JUMPDEST ISZERO PUSH2 0x2DF7 JUMPI PUSH1 0x40 MLOAD PUSH32 0x8C379A000000000000000000000000000000000000000000000000000000000 DUP2 MSTORE PUSH1 0x4 ADD PUSH2 0x2DEE SWAP1 PUSH2 0x50AE JUMP JUMPDEST PUSH1 0x40 MLOAD DUP1 SWAP2 SUB SWAP1 REVERT JUMPDEST PUSH2 0x2E03 PUSH1 0x0 DUP4 DUP4 PUSH2 0x2A95 JUMP JUMPDEST PUSH1 0x1 PUSH1 0x3 PUSH1 0x0 DUP5 PUSH20 0xFFFFFFFFFFFFFFFFFFFFFFFFFFFFFFFFFFFFFFFF AND PUSH20 0xFFFFFFFFFFFFFFFFFFFFFFFFFFFFFFFFFFFFFFFF AND DUP2 MSTORE PUSH1 0x20 ADD SWAP1 DUP2 MSTORE PUSH1 0x20 ADD PUSH1 0x0 KECCAK256 PUSH1 0x0 DUP3 DUP3 SLOAD PUSH2 0x2E53 SWAP2 SWAP1 PUSH2 0x484F JUMP JUMPDEST SWAP3 POP POP DUP2 SWAP1 SSTORE POP DUP2 PUSH1 0x2 PUSH1 0x0 DUP4 DUP2 MSTORE PUSH1 0x20 ADD SWAP1 DUP2 MSTORE PUSH1 0x20 ADD PUSH1 0x0 KECCAK256 PUSH1 0x0 PUSH2 0x100 EXP DUP2 SLOAD DUP2 PUSH20 0xFFFFFFFFFFFFFFFFFFFFFFFFFFFFFFFFFFFFFFFF MUL NOT AND SWAP1 DUP4 PUSH20 0xFFFFFFFFFFFFFFFFFFFFFFFFFFFFFFFFFFFFFFFF AND MUL OR SWAP1 SSTORE POP DUP1 DUP3 PUSH20 0xFFFFFFFFFFFFFFFFFFFFFFFFFFFFFFFFFFFFFFFF AND PUSH1 0x0 PUSH20 0xFFFFFFFFFFFFFFFFFFFFFFFFFFFFFFFFFFFFFFFF AND PUSH32 0xDDF252AD1BE2C89B69C2B068FC378DAA952BA7F163C4A11628F55A4DF523B3EF PUSH1 0x40 MLOAD PUSH1 0x40 MLOAD DUP1 SWAP2 SUB SWAP1 LOG4 PUSH2 0x2F14 PUSH1 0x0 DUP4 DUP4 PUSH2 0x2A9A JUMP JUMPDEST POP POP JUMP JUMPDEST PUSH1 0x0 DUP1 DUP3 PUSH20 0xFFFFFFFFFFFFFFFFFFFFFFFFFFFFFFFFFFFFFFFF AND EXTCODESIZE GT SWAP1 POP SWAP2 SWAP1 POP JUMP JUMPDEST DUP3 DUP1 SLOAD DUP3 DUP3 SSTORE SWAP1 PUSH1 0x0 MSTORE PUSH1 0x20 PUSH1 0x0 KECCAK256 SWAP1 DUP2 ADD SWAP3 DUP3 ISZERO PUSH2 0x2F77 JUMPI SWAP2 PUSH1 0x20 MUL DUP3 ADD JUMPDEST DUP3 DUP2 GT ISZERO PUSH2 0x2F76 JUMPI DUP3 MLOAD DUP3 SSTORE SWAP2 PUSH1 0x20 ADD SWAP2 SWAP1 PUSH1 0x1 ADD SWAP1 PUSH2 0x2F5B JUMP JUMPDEST JUMPDEST POP SWAP1 POP PUSH2 0x2F84 SWAP2 SWAP1 PUSH2 0x2FD5 JUMP JUMPDEST POP SWAP1 JUMP JUMPDEST DUP3 DUP1 SLOAD DUP3 DUP3 SSTORE SWAP1 PUSH1 0x0 MSTORE PUSH1 0x20 PUSH1 0x0 KECCAK256 SWAP1 DUP2 ADD SWAP3 DUP3 ISZERO PUSH2 0x2FC4 JUMPI SWAP2 PUSH1 0x20 MUL DUP3 ADD JUMPDEST DUP3 DUP2 GT ISZERO PUSH2 0x2FC3 JUMPI DUP3 CALLDATALOAD DUP3 SSTORE SWAP2 PUSH1 0x20 ADD SWAP2 SWAP1 PUSH1 0x1 ADD SWAP1 PUSH2 0x2FA8 JUMP JUMPDEST JUMPDEST POP SWAP1 POP PUSH2 0x2FD1 SWAP2 SWAP1 PUSH2 0x2FD5 JUMP JUMPDEST POP SWAP1 JUMP JUMPDEST JUMPDEST DUP1 DUP3 GT ISZERO PUSH2 0x2FEE JUMPI PUSH1 0x0 DUP2 PUSH1 0x0 SWAP1 SSTORE POP PUSH1 0x1 ADD PUSH2 0x2FD6 JUMP JUMPDEST POP SWAP1 JUMP JUMPDEST PUSH1 0x0 PUSH1 0x40 MLOAD SWAP1 POP SWAP1 JUMP JUMPDEST PUSH1 0x0 DUP1 REVERT JUMPDEST PUSH1 0x0 DUP1 REVERT JUMPDEST PUSH1 0x0 PUSH32 0xFFFFFFFF00000000000000000000000000000000000000000000000000000000 DUP3 AND SWAP1 POP SWAP2 SWAP1 POP JUMP JUMPDEST PUSH2 0x303B DUP2 PUSH2 0x3006 JUMP JUMPDEST DUP2 EQ PUSH2 0x3046 JUMPI PUSH1 0x0 DUP1 REVERT JUMPDEST POP JUMP JUMPDEST PUSH1 0x0 DUP2 CALLDATALOAD SWAP1 POP PUSH2 0x3058 DUP2 PUSH2 0x3032 JUMP JUMPDEST SWAP3 SWAP2 POP POP JUMP JUMPDEST PUSH1 0x0 PUSH1 0x20 DUP3 DUP5 SUB SLT ISZERO PUSH2 0x3074 JUMPI PUSH2 0x3073 PUSH2 0x2FFC JUMP JUMPDEST JUMPDEST PUSH1 0x0 PUSH2 0x3082 DUP5 DUP3 DUP6 ADD PUSH2 0x3049 JUMP JUMPDEST SWAP2 POP POP SWAP3 SWAP2 POP POP JUMP JUMPDEST PUSH1 0x0 DUP2 ISZERO ISZERO SWAP1 POP SWAP2 SWAP1 POP JUMP JUMPDEST PUSH2 0x30A0 DUP2 PUSH2 0x308B JUMP JUMPDEST DUP3 MSTORE POP POP JUMP JUMPDEST PUSH1 0x0 PUSH1 0x20 DUP3 ADD SWAP1 POP PUSH2 0x30BB PUSH1 0x0 DUP4 ADD DUP5 PUSH2 0x3097 JUMP JUMPDEST SWAP3 SWAP2 POP POP JUMP JUMPDEST PUSH1 0x0 DUP2 MLOAD SWAP1 POP SWAP2 SWAP1 POP JUMP JUMPDEST PUSH1 0x0 DUP3 DUP3 MSTORE PUSH1 0x20 DUP3 ADD SWAP1 POP SWAP3 SWAP2 POP POP JUMP JUMPDEST PUSH1 0x0 JUMPDEST DUP4 DUP2 LT ISZERO PUSH2 0x30FB JUMPI DUP1 DUP3 ADD MLOAD DUP2 DUP5 ADD MSTORE PUSH1 0x20 DUP2 ADD SWAP1 POP PUSH2 0x30E0 JUMP JUMPDEST PUSH1 0x0 DUP5 DUP5 ADD MSTORE POP POP POP POP JUMP JUMPDEST PUSH1 0x0 PUSH1 0x1F NOT PUSH1 0x1F DUP4 ADD AND SWAP1 POP SWAP2 SWAP1 POP JUMP JUMPDEST PUSH1 0x0 PUSH2 0x3123 DUP3 PUSH2 0x30C1 JUMP JUMPDEST PUSH2 0x312D DUP2 DUP6 PUSH2 0x30CC JUMP JUMPDEST SWAP4 POP PUSH2 0x313D DUP2 DUP6 PUSH1 0x20 DUP7 ADD PUSH2 0x30DD JUMP JUMPDEST PUSH2 0x3146 DUP2 PUSH2 0x3107 JUMP JUMPDEST DUP5 ADD SWAP2 POP POP SWAP3 SWAP2 POP POP JUMP JUMPDEST PUSH1 0x0 PUSH1 0x20 DUP3 ADD SWAP1 POP DUP2 DUP2 SUB PUSH1 0x0 DUP4 ADD MSTORE PUSH2 0x316B DUP2 DUP5 PUSH2 0x3118 JUMP JUMPDEST SWAP1 POP SWAP3 SWAP2 POP POP JUMP JUMPDEST PUSH1 0x0 DUP2 SWAP1 POP SWAP2 SWAP1 POP JUMP JUMPDEST PUSH2 0x3186 DUP2 PUSH2 0x3173 JUMP JUMPDEST DUP2 EQ PUSH2 0x3191 JUMPI PUSH1 0x0 DUP1 REVERT JUMPDEST POP JUMP JUMPDEST PUSH1 0x0 DUP2 CALLDATALOAD SWAP1 POP PUSH2 0x31A3 DUP2 PUSH2 0x317D JUMP JUMPDEST SWAP3 SWAP2 POP POP JUMP JUMPDEST PUSH1 0x0 PUSH1 0x20 DUP3 DUP5 SUB SLT ISZERO PUSH2 0x31BF JUMPI PUSH2 0x31BE PUSH2 0x2FFC JUMP JUMPDEST JUMPDEST PUSH1 0x0 PUSH2 0x31CD DUP5 DUP3 DUP6 ADD PUSH2 0x3194 JUMP JUMPDEST SWAP2 POP POP SWAP3 SWAP2 POP POP JUMP JUMPDEST PUSH1 0x0 PUSH20 0xFFFFFFFFFFFFFFFFFFFFFFFFFFFFFFFFFFFFFFFF DUP3 AND SWAP1 POP SWAP2 SWAP1 POP JUMP JUMPDEST PUSH1 0x0 PUSH2 0x3201 DUP3 PUSH2 0x31D6 JUMP JUMPDEST SWAP1 POP SWAP2 SWAP1 POP JUMP JUMPDEST PUSH2 0x3211 DUP2 PUSH2 0x31F6 JUMP JUMPDEST DUP3 MSTORE POP POP JUMP JUMPDEST PUSH1 0x0 PUSH1 0x20 DUP3 ADD SWAP1 POP PUSH2 0x322C PUSH1 0x0 DUP4 ADD DUP5 PUSH2 0x3208 JUMP JUMPDEST SWAP3 SWAP2 POP POP JUMP JUMPDEST PUSH2 0x323B DUP2 PUSH2 0x31F6 JUMP JUMPDEST DUP2 EQ PUSH2 0x3246 JUMPI PUSH1 0x0 DUP1 REVERT JUMPDEST POP JUMP JUMPDEST PUSH1 0x0 DUP2 CALLDATALOAD SWAP1 POP PUSH2 0x3258 DUP2 PUSH2 0x3232 JUMP JUMPDEST SWAP3 SWAP2 POP POP JUMP JUMPDEST PUSH1 0x0 DUP1 PUSH1 0x40 DUP4 DUP6 SUB SLT ISZERO PUSH2 0x3275 JUMPI PUSH2 0x3274 PUSH2 0x2FFC JUMP JUMPDEST JUMPDEST PUSH1 0x0 PUSH2 0x3283 DUP6 DUP3 DUP7 ADD PUSH2 0x3249 JUMP JUMPDEST SWAP3 POP POP PUSH1 0x20 PUSH2 0x3294 DUP6 DUP3 DUP7 ADD PUSH2 0x3194 JUMP JUMPDEST SWAP2 POP POP SWAP3 POP SWAP3 SWAP1 POP JUMP JUMPDEST PUSH1 0x0 DUP1 REVERT JUMPDEST PUSH1 0x0 DUP1 REVERT JUMPDEST PUSH1 0x0 DUP1 REVERT JUMPDEST PUSH1 0x0 DUP1 DUP4 PUSH1 0x1F DUP5 ADD SLT PUSH2 0x32C3 JUMPI PUSH2 0x32C2 PUSH2 0x329E JUMP JUMPDEST JUMPDEST DUP3 CALLDATALOAD SWAP1 POP PUSH8 0xFFFFFFFFFFFFFFFF DUP2 GT ISZERO PUSH2 0x32E0 JUMPI PUSH2 0x32DF PUSH2 0x32A3 JUMP JUMPDEST JUMPDEST PUSH1 0x20 DUP4 ADD SWAP2 POP DUP4 PUSH1 0x20 DUP3 MUL DUP4 ADD GT ISZERO PUSH2 0x32FC JUMPI PUSH2 0x32FB PUSH2 0x32A8 JUMP JUMPDEST JUMPDEST SWAP3 POP SWAP3 SWAP1 POP JUMP JUMPDEST PUSH1 0x0 DUP1 PUSH1 0x0 PUSH1 0x40 DUP5 DUP7 SUB SLT ISZERO PUSH2 0x331C JUMPI PUSH2 0x331B PUSH2 0x2FFC JUMP JUMPDEST JUMPDEST PUSH1 0x0 PUSH2 0x332A DUP7 DUP3 DUP8 ADD PUSH2 0x3194 JUMP JUMPDEST SWAP4 POP POP PUSH1 0x20 DUP5 ADD CALLDATALOAD PUSH8 0xFFFFFFFFFFFFFFFF DUP2 GT ISZERO PUSH2 0x334B JUMPI PUSH2 0x334A PUSH2 0x3001 JUMP JUMPDEST JUMPDEST PUSH2 0x3357 DUP7 DUP3 DUP8 ADD PUSH2 0x32AD JUMP JUMPDEST SWAP3 POP SWAP3 POP POP SWAP3 POP SWAP3 POP SWAP3 JUMP JUMPDEST PUSH1 0x0 DUP1 PUSH1 0x0 PUSH1 0x60 DUP5 DUP7 SUB SLT ISZERO PUSH2 0x337C JUMPI PUSH2 0x337B PUSH2 0x2FFC JUMP JUMPDEST JUMPDEST PUSH1 0x0 PUSH2 0x338A DUP7 DUP3 DUP8 ADD PUSH2 0x3249 JUMP JUMPDEST SWAP4 POP POP PUSH1 0x20 PUSH2 0x339B DUP7 DUP3 DUP8 ADD PUSH2 0x3249 JUMP JUMPDEST SWAP3 POP POP PUSH1 0x40 PUSH2 0x33AC DUP7 DUP3 DUP8 ADD PUSH2 0x3194 JUMP JUMPDEST SWAP2 POP POP SWAP3 POP SWAP3 POP SWAP3 JUMP JUMPDEST PUSH2 0x33BF DUP2 PUSH2 0x3173 JUMP JUMPDEST DUP3 MSTORE POP POP JUMP JUMPDEST PUSH1 0x0 PUSH1 0x80 DUP3 ADD SWAP1 POP DUP2 DUP2 SUB PUSH1 0x0 DUP4 ADD MSTORE PUSH2 0x33DF DUP2 DUP8 PUSH2 0x3118 JUMP JUMPDEST SWAP1 POP DUP2 DUP2 SUB PUSH1 0x20 DUP4 ADD MSTORE PUSH2 0x33F3 DUP2 DUP7 PUSH2 0x3118 JUMP JUMPDEST SWAP1 POP PUSH2 0x3402 PUSH1 0x40 DUP4 ADD DUP6 PUSH2 0x33B6 JUMP JUMPDEST PUSH2 0x340F PUSH1 0x60 DUP4 ADD DUP5 PUSH2 0x33B6 JUMP JUMPDEST SWAP6 SWAP5 POP POP POP POP POP JUMP JUMPDEST PUSH1 0x0 PUSH1 0x20 DUP3 DUP5 SUB SLT ISZERO PUSH2 0x342E JUMPI PUSH2 0x342D PUSH2 0x2FFC JUMP JUMPDEST JUMPDEST PUSH1 0x0 PUSH2 0x343C DUP5 DUP3 DUP6 ADD PUSH2 0x3249 JUMP JUMPDEST SWAP2 POP POP SWAP3 SWAP2 POP POP JUMP JUMPDEST PUSH1 0x0 PUSH1 0x20 DUP3 ADD SWAP1 POP PUSH2 0x345A PUSH1 0x0 DUP4 ADD DUP5 PUSH2 0x33B6 JUMP JUMPDEST SWAP3 SWAP2 POP POP JUMP JUMPDEST PUSH1 0x0 DUP2 SWAP1 POP SWAP2 SWAP1 POP JUMP JUMPDEST PUSH1 0x0 PUSH2 0x3485 PUSH2 0x3480 PUSH2 0x347B DUP5 PUSH2 0x31D6 JUMP JUMPDEST PUSH2 0x3460 JUMP JUMPDEST PUSH2 0x31D6 JUMP JUMPDEST SWAP1 POP SWAP2 SWAP1 POP JUMP JUMPDEST PUSH1 0x0 PUSH2 0x3497 DUP3 PUSH2 0x346A JUMP JUMPDEST SWAP1 POP SWAP2 SWAP1 POP JUMP JUMPDEST PUSH1 0x0 PUSH2 0x34A9 DUP3 PUSH2 0x348C JUMP JUMPDEST SWAP1 POP SWAP2 SWAP1 POP JUMP JUMPDEST PUSH2 0x34B9 DUP2 PUSH2 0x349E JUMP JUMPDEST DUP3 MSTORE POP POP JUMP JUMPDEST PUSH1 0x0 PUSH1 0x20 DUP3 ADD SWAP1 POP PUSH2 0x34D4 PUSH1 0x0 DUP4 ADD DUP5 PUSH2 0x34B0 JUMP JUMPDEST SWAP3 SWAP2 POP POP JUMP JUMPDEST PUSH1 0x0 PUSH1 0x40 DUP3 ADD SWAP1 POP PUSH2 0x34EF PUSH1 0x0 DUP4 ADD DUP6 PUSH2 0x3097 JUMP JUMPDEST PUSH2 0x34FC PUSH1 0x20 DUP4 ADD DUP5 PUSH2 0x3097 JUMP JUMPDEST SWAP4 SWAP3 POP POP POP JUMP JUMPDEST PUSH2 0x350C DUP2 PUSH2 0x308B JUMP JUMPDEST DUP2 EQ PUSH2 0x3517 JUMPI PUSH1 0x0 DUP1 REVERT JUMPDEST POP JUMP JUMPDEST PUSH1 0x0 DUP2 CALLDATALOAD SWAP1 POP PUSH2 0x3529 DUP2 PUSH2 0x3503 JUMP JUMPDEST SWAP3 SWAP2 POP POP JUMP JUMPDEST PUSH1 0x0 DUP1 PUSH1 0x40 DUP4 DUP6 SUB SLT ISZERO PUSH2 0x3546 JUMPI PUSH2 0x3545 PUSH2 0x2FFC JUMP JUMPDEST JUMPDEST PUSH1 0x0 PUSH2 0x3554 DUP6 DUP3 DUP7 ADD PUSH2 0x3249 JUMP JUMPDEST SWAP3 POP POP PUSH1 0x20 PUSH2 0x3565 DUP6 DUP3 DUP7 ADD PUSH2 0x351A JUMP JUMPDEST SWAP2 POP POP SWAP3 POP SWAP3 SWAP1 POP JUMP JUMPDEST PUSH1 0x0 DUP1 REVERT JUMPDEST PUSH32 0x4E487B7100000000000000000000000000000000000000000000000000000000 PUSH1 0x0 MSTORE PUSH1 0x41 PUSH1 0x4 MSTORE PUSH1 0x24 PUSH1 0x0 REVERT JUMPDEST PUSH2 0x35AC DUP3 PUSH2 0x3107 JUMP JUMPDEST DUP2 ADD DUP2 DUP2 LT PUSH8 0xFFFFFFFFFFFFFFFF DUP3 GT OR ISZERO PUSH2 0x35CB JUMPI PUSH2 0x35CA PUSH2 0x3574 JUMP JUMPDEST JUMPDEST DUP1 PUSH1 0x40 MSTORE POP POP POP JUMP JUMPDEST PUSH1 0x0 PUSH2 0x35DE PUSH2 0x2FF2 JUMP JUMPDEST SWAP1 POP PUSH2 0x35EA DUP3 DUP3 PUSH2 0x35A3 JUMP JUMPDEST SWAP2 SWAP1 POP JUMP JUMPDEST PUSH1 0x0 PUSH8 0xFFFFFFFFFFFFFFFF DUP3 GT ISZERO PUSH2 0x360A JUMPI PUSH2 0x3609 PUSH2 0x3574 JUMP JUMPDEST JUMPDEST PUSH2 0x3613 DUP3 PUSH2 0x3107 JUMP JUMPDEST SWAP1 POP PUSH1 0x20 DUP2 ADD SWAP1 POP SWAP2 SWAP1 POP JUMP JUMPDEST DUP3 DUP2 DUP4 CALLDATACOPY PUSH1 0x0 DUP4 DUP4 ADD MSTORE POP POP POP JUMP JUMPDEST PUSH1 0x0 PUSH2 0x3642 PUSH2 0x363D DUP5 PUSH2 0x35EF JUMP JUMPDEST PUSH2 0x35D4 JUMP JUMPDEST SWAP1 POP DUP3 DUP2 MSTORE PUSH1 0x20 DUP2 ADD DUP5 DUP5 DUP5 ADD GT ISZERO PUSH2 0x365E JUMPI PUSH2 0x365D PUSH2 0x356F JUMP JUMPDEST JUMPDEST PUSH2 0x3669 DUP5 DUP3 DUP6 PUSH2 0x3620 JUMP JUMPDEST POP SWAP4 SWAP3 POP POP POP JUMP JUMPDEST PUSH1 0x0 DUP3 PUSH1 0x1F DUP4 ADD SLT PUSH2 0x3686 JUMPI PUSH2 0x3685 PUSH2 0x329E JUMP JUMPDEST JUMPDEST DUP2 CALLDATALOAD PUSH2 0x3696 DUP5 DUP3 PUSH1 0x20 DUP7 ADD PUSH2 0x362F JUMP JUMPDEST SWAP2 POP POP SWAP3 SWAP2 POP POP JUMP JUMPDEST PUSH1 0x0 DUP1 PUSH1 0x0 DUP1 PUSH1 0x80 DUP6 DUP8 SUB SLT ISZERO PUSH2 0x36B9 JUMPI PUSH2 0x36B8 PUSH2 0x2FFC JUMP JUMPDEST JUMPDEST PUSH1 0x0 PUSH2 0x36C7 DUP8 DUP3 DUP9 ADD PUSH2 0x3249 JUMP JUMPDEST SWAP5 POP POP PUSH1 0x20 PUSH2 0x36D8 DUP8 DUP3 DUP9 ADD PUSH2 0x3249 JUMP JUMPDEST SWAP4 POP POP PUSH1 0x40 PUSH2 0x36E9 DUP8 DUP3 DUP9 ADD PUSH2 0x3194 JUMP JUMPDEST SWAP3 POP POP PUSH1 0x60 DUP6 ADD CALLDATALOAD PUSH8 0xFFFFFFFFFFFFFFFF DUP2 GT ISZERO PUSH2 0x370A JUMPI PUSH2 0x3709 PUSH2 0x3001 JUMP JUMPDEST JUMPDEST PUSH2 0x3716 DUP8 DUP3 DUP9 ADD PUSH2 0x3671 JUMP JUMPDEST SWAP2 POP POP SWAP3 SWAP6 SWAP2 SWAP5 POP SWAP3 POP JUMP JUMPDEST PUSH1 0x0 DUP2 MLOAD SWAP1 POP SWAP2 SWAP1 POP JUMP JUMPDEST PUSH1 0x0 DUP3 DUP3 MSTORE PUSH1 0x20 DUP3 ADD SWAP1 POP SWAP3 SWAP2 POP POP JUMP JUMPDEST PUSH1 0x0 DUP2 SWAP1 POP PUSH1 0x20 DUP3 ADD SWAP1 POP SWAP2 SWAP1 POP JUMP JUMPDEST PUSH2 0x3757 DUP2 PUSH2 0x3173 JUMP JUMPDEST DUP3 MSTORE POP POP JUMP JUMPDEST PUSH1 0x0 PUSH2 0x3769 DUP4 DUP4 PUSH2 0x374E JUMP JUMPDEST PUSH1 0x20 DUP4 ADD SWAP1 POP SWAP3 SWAP2 POP POP JUMP JUMPDEST PUSH1 0x0 PUSH1 0x20 DUP3 ADD SWAP1 POP SWAP2 SWAP1 POP JUMP JUMPDEST PUSH1 0x0 PUSH2 0x378D DUP3 PUSH2 0x3722 JUMP JUMPDEST PUSH2 0x3797 DUP2 DUP6 PUSH2 0x372D JUMP JUMPDEST SWAP4 POP PUSH2 0x37A2 DUP4 PUSH2 0x373E JUMP JUMPDEST DUP1 PUSH1 0x0 JUMPDEST DUP4 DUP2 LT ISZERO PUSH2 0x37D3 JUMPI DUP2 MLOAD PUSH2 0x37BA DUP9 DUP3 PUSH2 0x375D JUMP JUMPDEST SWAP8 POP PUSH2 0x37C5 DUP4 PUSH2 0x3775 JUMP JUMPDEST SWAP3 POP POP PUSH1 0x1 DUP2 ADD SWAP1 POP PUSH2 0x37A6 JUMP JUMPDEST POP DUP6 SWAP4 POP POP POP POP SWAP3 SWAP2 POP POP JUMP JUMPDEST PUSH1 0x0 PUSH1 0x40 DUP3 ADD SWAP1 POP PUSH2 0x37F5 PUSH1 0x0 DUP4 ADD DUP6 PUSH2 0x3097 JUMP JUMPDEST DUP2 DUP2 SUB PUSH1 0x20 DUP4 ADD MSTORE PUSH2 0x3807 DUP2 DUP5 PUSH2 0x3782 JUMP JUMPDEST SWAP1 POP SWAP4 SWAP3 POP POP POP JUMP JUMPDEST PUSH1 0x0 DUP1 PUSH1 0x40 DUP4 DUP6 SUB SLT ISZERO PUSH2 0x3827 JUMPI PUSH2 0x3826 PUSH2 0x2FFC JUMP JUMPDEST JUMPDEST PUSH1 0x0 PUSH2 0x3835 DUP6 DUP3 DUP7 ADD PUSH2 0x3249 JUMP JUMPDEST SWAP3 POP POP PUSH1 0x20 PUSH2 0x3846 DUP6 DUP3 DUP7 ADD PUSH2 0x3249 JUMP JUMPDEST SWAP2 POP POP SWAP3 POP SWAP3 SWAP1 POP JUMP JUMPDEST PUSH32 0x4E487B7100000000000000000000000000000000000000000000000000000000 PUSH1 0x0 MSTORE PUSH1 0x22 PUSH1 0x4 MSTORE PUSH1 0x24 PUSH1 0x0 REVERT JUMPDEST PUSH1 0x0 PUSH1 0x2 DUP3 DIV SWAP1 POP PUSH1 0x1 DUP3 AND DUP1 PUSH2 0x3897 JUMPI PUSH1 0x7F DUP3 AND SWAP2 POP JUMPDEST PUSH1 0x20 DUP3 LT DUP2 SUB PUSH2 0x38AA JUMPI PUSH2 0x38A9 PUSH2 0x3850 JUMP JUMPDEST JUMPDEST POP SWAP2 SWAP1 POP JUMP JUMPDEST PUSH32 0x4552433732313A20617070726F76656420717565727920666F72206E6F6E6578 PUSH1 0x0 DUP3 ADD MSTORE PUSH32 0x697374656E7420746F6B656E0000000000000000000000000000000000000000 PUSH1 0x20 DUP3 ADD MSTORE POP JUMP JUMPDEST PUSH1 0x0 PUSH2 0x390C PUSH1 0x2C DUP4 PUSH2 0x30CC JUMP JUMPDEST SWAP2 POP PUSH2 0x3917 DUP3 PUSH2 0x38B0 JUMP JUMPDEST PUSH1 0x40 DUP3 ADD SWAP1 POP SWAP2 SWAP1 POP JUMP JUMPDEST PUSH1 0x0 PUSH1 0x20 DUP3 ADD SWAP1 POP DUP2 DUP2 SUB PUSH1 0x0 DUP4 ADD MSTORE PUSH2 0x393B DUP2 PUSH2 0x38FF JUMP JUMPDEST SWAP1 POP SWAP2 SWAP1 POP JUMP JUMPDEST PUSH32 0x4552433732313A20617070726F76616C20746F2063757272656E74206F776E65 PUSH1 0x0 DUP3 ADD MSTORE PUSH32 0x7200000000000000000000000000000000000000000000000000000000000000 PUSH1 0x20 DUP3 ADD MSTORE POP JUMP JUMPDEST PUSH1 0x0 PUSH2 0x399E PUSH1 0x21 DUP4 PUSH2 0x30CC JUMP JUMPDEST SWAP2 POP PUSH2 0x39A9 DUP3 PUSH2 0x3942 JUMP JUMPDEST PUSH1 0x40 DUP3 ADD SWAP1 POP SWAP2 SWAP1 POP JUMP JUMPDEST PUSH1 0x0 PUSH1 0x20 DUP3 ADD SWAP1 POP DUP2 DUP2 SUB PUSH1 0x0 DUP4 ADD MSTORE PUSH2 0x39CD DUP2 PUSH2 0x3991 JUMP JUMPDEST SWAP1 POP SWAP2 SWAP1 POP JUMP JUMPDEST PUSH32 0x4552433732313A20617070726F76652063616C6C6572206973206E6F74206F77 PUSH1 0x0 DUP3 ADD MSTORE PUSH32 0x6E6572206E6F7220617070726F76656420666F7220616C6C0000000000000000 PUSH1 0x20 DUP3 ADD MSTORE POP JUMP JUMPDEST PUSH1 0x0 PUSH2 0x3A30 PUSH1 0x38 DUP4 PUSH2 0x30CC JUMP JUMPDEST SWAP2 POP PUSH2 0x3A3B DUP3 PUSH2 0x39D4 JUMP JUMPDEST PUSH1 0x40 DUP3 ADD SWAP1 POP SWAP2 SWAP1 POP JUMP JUMPDEST PUSH1 0x0 PUSH1 0x20 DUP3 ADD SWAP1 POP DUP2 DUP2 SUB PUSH1 0x0 DUP4 ADD MSTORE PUSH2 0x3A5F DUP2 PUSH2 0x3A23 JUMP JUMPDEST SWAP1 POP SWAP2 SWAP1 POP JUMP JUMPDEST PUSH1 0x0 PUSH1 0x40 DUP3 ADD SWAP1 POP PUSH2 0x3A7B PUSH1 0x0 DUP4 ADD DUP6 PUSH2 0x3208 JUMP JUMPDEST PUSH2 0x3A88 PUSH1 0x20 DUP4 ADD DUP5 PUSH2 0x3208 JUMP JUMPDEST SWAP4 SWAP3 POP POP POP JUMP JUMPDEST PUSH32 0x4552433732313A207472616E736665722063616C6C6572206973206E6F74206F PUSH1 0x0 DUP3 ADD MSTORE PUSH32 0x776E6572206E6F7220617070726F766564000000000000000000000000000000 PUSH1 0x20 DUP3 ADD MSTORE POP JUMP JUMPDEST PUSH1 0x0 PUSH2 0x3AEB PUSH1 0x31 DUP4 PUSH2 0x30CC JUMP JUMPDEST SWAP2 POP PUSH2 0x3AF6 DUP3 PUSH2 0x3A8F JUMP JUMPDEST PUSH1 0x40 DUP3 ADD SWAP1 POP SWAP2 SWAP1 POP JUMP JUMPDEST PUSH1 0x0 PUSH1 0x20 DUP3 ADD SWAP1 POP DUP2 DUP2 SUB PUSH1 0x0 DUP4 ADD MSTORE PUSH2 0x3B1A DUP2 PUSH2 0x3ADE JUMP JUMPDEST SWAP1 POP SWAP2 SWAP1 POP JUMP JUMPDEST PUSH32 0x4552433732313A206F776E657220717565727920666F72206E6F6E6578697374 PUSH1 0x0 DUP3 ADD MSTORE PUSH32 0x656E7420746F6B656E0000000000000000000000000000000000000000000000 PUSH1 0x20 DUP3 ADD MSTORE POP JUMP JUMPDEST PUSH1 0x0 PUSH2 0x3B7D PUSH1 0x29 DUP4 PUSH2 0x30CC JUMP JUMPDEST SWAP2 POP PUSH2 0x3B88 DUP3 PUSH2 0x3B21 JUMP JUMPDEST PUSH1 0x40 DUP3 ADD SWAP1 POP SWAP2 SWAP1 POP JUMP JUMPDEST PUSH1 0x0 PUSH1 0x20 DUP3 ADD SWAP1 POP DUP2 DUP2 SUB PUSH1 0x0 DUP4 ADD MSTORE PUSH2 0x3BAC DUP2 PUSH2 0x3B70 JUMP JUMPDEST SWAP1 POP SWAP2 SWAP1 POP JUMP JUMPDEST PUSH32 0x4552433732313A2062616C616E636520717565727920666F7220746865207A65 PUSH1 0x0 DUP3 ADD MSTORE PUSH32 0x726F206164647265737300000000000000000000000000000000000000000000 PUSH1 0x20 DUP3 ADD MSTORE POP JUMP JUMPDEST PUSH1 0x0 PUSH2 0x3C0F PUSH1 0x2A DUP4 PUSH2 0x30CC JUMP JUMPDEST SWAP2 POP PUSH2 0x3C1A DUP3 PUSH2 0x3BB3 JUMP JUMPDEST PUSH1 0x40 DUP3 ADD SWAP1 POP SWAP2 SWAP1 POP JUMP JUMPDEST PUSH1 0x0 PUSH1 0x20 DUP3 ADD SWAP1 POP DUP2 DUP2 SUB PUSH1 0x0 DUP4 ADD MSTORE PUSH2 0x3C3E DUP2 PUSH2 0x3C02 JUMP JUMPDEST SWAP1 POP SWAP2 SWAP1 POP JUMP JUMPDEST PUSH32 0x4D7573742062652070726F706F736564206F776E657200000000000000000000 PUSH1 0x0 DUP3 ADD MSTORE POP JUMP JUMPDEST PUSH1 0x0 PUSH2 0x3C7B PUSH1 0x16 DUP4 PUSH2 0x30CC JUMP JUMPDEST SWAP2 POP PUSH2 0x3C86 DUP3 PUSH2 0x3C45 JUMP JUMPDEST PUSH1 0x20 DUP3 ADD SWAP1 POP SWAP2 SWAP1 POP JUMP JUMPDEST PUSH1 0x0 PUSH1 0x20 DUP3 ADD SWAP1 POP DUP2 DUP2 SUB PUSH1 0x0 DUP4 ADD MSTORE PUSH2 0x3CAA DUP2 PUSH2 0x3C6E JUMP JUMPDEST SWAP1 POP SWAP2 SWAP1 POP JUMP JUMPDEST PUSH1 0x0 PUSH1 0x60 DUP3 ADD SWAP1 POP PUSH2 0x3CC6 PUSH1 0x0 DUP4 ADD DUP7 PUSH2 0x3208 JUMP JUMPDEST PUSH2 0x3CD3 PUSH1 0x20 DUP4 ADD DUP6 PUSH2 0x3208 JUMP JUMPDEST PUSH2 0x3CE0 PUSH1 0x40 DUP4 ADD DUP5 PUSH2 0x3208 JUMP JUMPDEST SWAP5 SWAP4 POP POP POP POP JUMP JUMPDEST PUSH32 0x696E76616C696420636861724964000000000000000000000000000000000000 PUSH1 0x0 DUP3 ADD MSTORE POP JUMP JUMPDEST PUSH1 0x0 PUSH2 0x3D1E PUSH1 0xE DUP4 PUSH2 0x30CC JUMP JUMPDEST SWAP2 POP PUSH2 0x3D29 DUP3 PUSH2 0x3CE8 JUMP JUMPDEST PUSH1 0x20 DUP3 ADD SWAP1 POP SWAP2 SWAP1 POP JUMP JUMPDEST PUSH1 0x0 PUSH1 0x20 DUP3 ADD SWAP1 POP DUP2 DUP2 SUB PUSH1 0x0 DUP4 ADD MSTORE PUSH2 0x3D4D DUP2 PUSH2 0x3D11 JUMP JUMPDEST SWAP1 POP SWAP2 SWAP1 POP JUMP JUMPDEST PUSH32 0x4E487B7100000000000000000000000000000000000000000000000000000000 PUSH1 0x0 MSTORE PUSH1 0x32 PUSH1 0x4 MSTORE PUSH1 0x24 PUSH1 0x0 REVERT JUMPDEST PUSH1 0x0 DUP2 SWAP1 POP DUP2 PUSH1 0x0 MSTORE PUSH1 0x20 PUSH1 0x0 KECCAK256 SWAP1 POP SWAP2 SWAP1 POP JUMP JUMPDEST PUSH1 0x0 PUSH1 0x20 PUSH1 0x1F DUP4 ADD DIV SWAP1 POP SWAP2 SWAP1 POP JUMP JUMPDEST PUSH1 0x0 DUP3 DUP3 SHL SWAP1 POP SWAP3 SWAP2 POP POP JUMP JUMPDEST PUSH1 0x0 PUSH1 0x8 DUP4 MUL PUSH2 0x3DE5 PUSH32 0xFFFFFFFFFFFFFFFFFFFFFFFFFFFFFFFFFFFFFFFFFFFFFFFFFFFFFFFFFFFFFFFF DUP3 PUSH2 0x3DA8 JUMP JUMPDEST PUSH2 0x3DEF DUP7 DUP4 PUSH2 0x3DA8 JUMP JUMPDEST SWAP6 POP DUP1 NOT DUP5 AND SWAP4 POP DUP1 DUP7 AND DUP5 OR SWAP3 POP POP POP SWAP4 SWAP3 POP POP POP JUMP JUMPDEST PUSH1 0x0 PUSH2 0x3E22 PUSH2 0x3E1D PUSH2 0x3E18 DUP5 PUSH2 0x3173 JUMP JUMPDEST PUSH2 0x3460 JUMP JUMPDEST PUSH2 0x3173 JUMP JUMPDEST SWAP1 POP SWAP2 SWAP1 POP JUMP JUMPDEST PUSH1 0x0 DUP2 SWAP1 POP SWAP2 SWAP1 POP JUMP JUMPDEST PUSH2 0x3E3C DUP4 PUSH2 0x3E07 JUMP JUMPDEST PUSH2 0x3E50 PUSH2 0x3E48 DUP3 PUSH2 0x3E29 JUMP JUMPDEST DUP5 DUP5 SLOAD PUSH2 0x3DB5 JUMP JUMPDEST DUP3 SSTORE POP POP POP POP JUMP JUMPDEST PUSH1 0x0 SWAP1 JUMP JUMPDEST PUSH2 0x3E65 PUSH2 0x3E58 JUMP JUMPDEST PUSH2 0x3E70 DUP2 DUP5 DUP5 PUSH2 0x3E33 JUMP JUMPDEST POP POP POP JUMP JUMPDEST JUMPDEST DUP2 DUP2 LT ISZERO PUSH2 0x3E94 JUMPI PUSH2 0x3E89 PUSH1 0x0 DUP3 PUSH2 0x3E5D JUMP JUMPDEST PUSH1 0x1 DUP2 ADD SWAP1 POP PUSH2 0x3E76 JUMP JUMPDEST POP POP JUMP JUMPDEST PUSH1 0x1F DUP3 GT ISZERO PUSH2 0x3ED9 JUMPI PUSH2 0x3EAA DUP2 PUSH2 0x3D83 JUMP JUMPDEST PUSH2 0x3EB3 DUP5 PUSH2 0x3D98 JUMP JUMPDEST DUP2 ADD PUSH1 0x20 DUP6 LT ISZERO PUSH2 0x3EC2 JUMPI DUP2 SWAP1 POP JUMPDEST PUSH2 0x3ED6 PUSH2 0x3ECE DUP6 PUSH2 0x3D98 JUMP JUMPDEST DUP4 ADD DUP3 PUSH2 0x3E75 JUMP JUMPDEST POP POP JUMPDEST POP POP POP JUMP JUMPDEST PUSH1 0x0 DUP3 DUP3 SHR SWAP1 POP SWAP3 SWAP2 POP POP JUMP JUMPDEST PUSH1 0x0 PUSH2 0x3EFC PUSH1 0x0 NOT DUP5 PUSH1 0x8 MUL PUSH2 0x3EDE JUMP JUMPDEST NOT DUP1 DUP4 AND SWAP2 POP POP SWAP3 SWAP2 POP POP JUMP JUMPDEST PUSH1 0x0 PUSH2 0x3F15 DUP4 DUP4 PUSH2 0x3EEB JUMP JUMPDEST SWAP2 POP DUP3 PUSH1 0x2 MUL DUP3 OR SWAP1 POP SWAP3 SWAP2 POP POP JUMP JUMPDEST PUSH2 0x3F2E DUP3 PUSH2 0x30C1 JUMP JUMPDEST PUSH8 0xFFFFFFFFFFFFFFFF DUP2 GT ISZERO PUSH2 0x3F47 JUMPI PUSH2 0x3F46 PUSH2 0x3574 JUMP JUMPDEST JUMPDEST PUSH2 0x3F51 DUP3 SLOAD PUSH2 0x387F JUMP JUMPDEST PUSH2 0x3F5C DUP3 DUP3 DUP6 PUSH2 0x3E98 JUMP JUMPDEST PUSH1 0x0 PUSH1 0x20 SWAP1 POP PUSH1 0x1F DUP4 GT PUSH1 0x1 DUP2 EQ PUSH2 0x3F8F JUMPI PUSH1 0x0 DUP5 ISZERO PUSH2 0x3F7D JUMPI DUP3 DUP8 ADD MLOAD SWAP1 POP JUMPDEST PUSH2 0x3F87 DUP6 DUP3 PUSH2 0x3F09 JUMP JUMPDEST DUP7 SSTORE POP PUSH2 0x3FEF JUMP JUMPDEST PUSH1 0x1F NOT DUP5 AND PUSH2 0x3F9D DUP7 PUSH2 0x3D83 JUMP JUMPDEST PUSH1 0x0 JUMPDEST DUP3 DUP2 LT ISZERO PUSH2 0x3FC5 JUMPI DUP5 DUP10 ADD MLOAD DUP3 SSTORE PUSH1 0x1 DUP3 ADD SWAP2 POP PUSH1 0x20 DUP6 ADD SWAP5 POP PUSH1 0x20 DUP2 ADD SWAP1 POP PUSH2 0x3FA0 JUMP JUMPDEST DUP7 DUP4 LT ISZERO PUSH2 0x3FE2 JUMPI DUP5 DUP10 ADD MLOAD PUSH2 0x3FDE PUSH1 0x1F DUP10 AND DUP3 PUSH2 0x3EEB JUMP JUMPDEST DUP4 SSTORE POP JUMPDEST PUSH1 0x1 PUSH1 0x2 DUP9 MUL ADD DUP9 SSTORE POP POP POP JUMPDEST POP POP POP POP POP POP JUMP JUMPDEST PUSH1 0x0 DUP2 SWAP1 POP SWAP3 SWAP2 POP POP JUMP JUMPDEST PUSH32 0x7B226E616D65223A202200000000000000000000000000000000000000000000 PUSH1 0x0 DUP3 ADD MSTORE POP JUMP JUMPDEST PUSH1 0x0 PUSH2 0x4038 PUSH1 0xA DUP4 PUSH2 0x3FF7 JUMP JUMPDEST SWAP2 POP PUSH2 0x4043 DUP3 PUSH2 0x4002 JUMP JUMPDEST PUSH1 0xA DUP3 ADD SWAP1 POP SWAP2 SWAP1 POP JUMP JUMPDEST PUSH1 0x0 DUP2 SLOAD PUSH2 0x405B DUP2 PUSH2 0x387F JUMP JUMPDEST PUSH2 0x4065 DUP2 DUP7 PUSH2 0x3FF7 JUMP JUMPDEST SWAP5 POP PUSH1 0x1 DUP3 AND PUSH1 0x0 DUP2 EQ PUSH2 0x4080 JUMPI PUSH1 0x1 DUP2 EQ PUSH2 0x4095 JUMPI PUSH2 0x40C8 JUMP JUMPDEST PUSH1 0xFF NOT DUP4 AND DUP7 MSTORE DUP2 ISZERO ISZERO DUP3 MUL DUP7 ADD SWAP4 POP PUSH2 0x40C8 JUMP JUMPDEST PUSH2 0x409E DUP6 PUSH2 0x3D83 JUMP JUMPDEST PUSH1 0x0 JUMPDEST DUP4 DUP2 LT ISZERO PUSH2 0x40C0 JUMPI DUP2 SLOAD DUP2 DUP10 ADD MSTORE PUSH1 0x1 DUP3 ADD SWAP2 POP PUSH1 0x20 DUP2 ADD SWAP1 POP PUSH2 0x40A1 JUMP JUMPDEST DUP4 DUP9 ADD SWAP6 POP POP POP JUMPDEST POP POP POP SWAP3 SWAP2 POP POP JUMP JUMPDEST PUSH32 0x222C226465736372697074696F6E223A2022436861696E6C696E6B2072756E6E PUSH1 0x0 DUP3 ADD MSTORE PUSH32 0x6572222C00000000000000000000000000000000000000000000000000000000 PUSH1 0x20 DUP3 ADD MSTORE POP JUMP JUMPDEST PUSH1 0x0 PUSH2 0x412D PUSH1 0x24 DUP4 PUSH2 0x3FF7 JUMP JUMPDEST SWAP2 POP PUSH2 0x4138 DUP3 PUSH2 0x40D1 JUMP JUMPDEST PUSH1 0x24 DUP3 ADD SWAP1 POP SWAP2 SWAP1 POP JUMP JUMPDEST PUSH32 0x22696D616765223A202200000000000000000000000000000000000000000000 PUSH1 0x0 DUP3 ADD MSTORE POP JUMP JUMPDEST PUSH1 0x0 PUSH2 0x4179 PUSH1 0xA DUP4 PUSH2 0x3FF7 JUMP JUMPDEST SWAP2 POP PUSH2 0x4184 DUP3 PUSH2 0x4143 JUMP JUMPDEST PUSH1 0xA DUP3 ADD SWAP1 POP SWAP2 SWAP1 POP JUMP JUMPDEST PUSH32 0x222C2261747472696275746573223A205B000000000000000000000000000000 PUSH1 0x0 DUP3 ADD MSTORE POP JUMP JUMPDEST PUSH1 0x0 PUSH2 0x41C5 PUSH1 0x11 DUP4 PUSH2 0x3FF7 JUMP JUMPDEST SWAP2 POP PUSH2 0x41D0 DUP3 PUSH2 0x418F JUMP JUMPDEST PUSH1 0x11 DUP3 ADD SWAP1 POP SWAP2 SWAP1 POP JUMP JUMPDEST PUSH32 0x7B2274726169745F74797065223A202264697374616E6365222C000000000000 PUSH1 0x0 DUP3 ADD MSTORE POP JUMP JUMPDEST PUSH1 0x0 PUSH2 0x4211 PUSH1 0x1A DUP4 PUSH2 0x3FF7 JUMP JUMPDEST SWAP2 POP PUSH2 0x421C DUP3 PUSH2 0x41DB JUMP JUMPDEST PUSH1 0x1A DUP3 ADD SWAP1 POP SWAP2 SWAP1 POP JUMP JUMPDEST PUSH32 0x2276616C7565223A200000000000000000000000000000000000000000000000 PUSH1 0x0 DUP3 ADD MSTORE POP JUMP JUMPDEST PUSH1 0x0 PUSH2 0x425D PUSH1 0x9 DUP4 PUSH2 0x3FF7 JUMP JUMPDEST SWAP2 POP PUSH2 0x4268 DUP3 PUSH2 0x4227 JUMP JUMPDEST PUSH1 0x9 DUP3 ADD SWAP1 POP SWAP2 SWAP1 POP JUMP JUMPDEST PUSH1 0x0 PUSH2 0x427E DUP3 PUSH2 0x30C1 JUMP JUMPDEST PUSH2 0x4288 DUP2 DUP6 PUSH2 0x3FF7 JUMP JUMPDEST SWAP4 POP PUSH2 0x4298 DUP2 DUP6 PUSH1 0x20 DUP7 ADD PUSH2 0x30DD JUMP JUMPDEST DUP1 DUP5 ADD SWAP2 POP POP SWAP3 SWAP2 POP POP JUMP JUMPDEST PUSH32 0x7D00000000000000000000000000000000000000000000000000000000000000 PUSH1 0x0 DUP3 ADD MSTORE POP JUMP JUMPDEST PUSH1 0x0 PUSH2 0x42DA PUSH1 0x1 DUP4 PUSH2 0x3FF7 JUMP JUMPDEST SWAP2 POP PUSH2 0x42E5 DUP3 PUSH2 0x42A4 JUMP JUMPDEST PUSH1 0x1 DUP3 ADD SWAP1 POP SWAP2 SWAP1 POP JUMP JUMPDEST PUSH32 0x2C7B2274726169745F74797065223A2022726F756E64222C0000000000000000 PUSH1 0x0 DUP3 ADD MSTORE POP JUMP JUMPDEST PUSH1 0x0 PUSH2 0x4326 PUSH1 0x18 DUP4 PUSH2 0x3FF7 JUMP JUMPDEST SWAP2 POP PUSH2 0x4331 DUP3 PUSH2 0x42F0 JUMP JUMPDEST PUSH1 0x18 DUP3 ADD SWAP1 POP SWAP2 SWAP1 POP JUMP JUMPDEST PUSH32 0x5D7D000000000000000000000000000000000000000000000000000000000000 PUSH1 0x0 DUP3 ADD MSTORE POP JUMP JUMPDEST PUSH1 0x0 PUSH2 0x4372 PUSH1 0x2 DUP4 PUSH2 0x3FF7 JUMP JUMPDEST SWAP2 POP PUSH2 0x437D DUP3 PUSH2 0x433C JUMP JUMPDEST PUSH1 0x2 DUP3 ADD SWAP1 POP SWAP2 SWAP1 POP JUMP JUMPDEST PUSH1 0x0 PUSH2 0x4393 DUP3 PUSH2 0x402B JUMP JUMPDEST SWAP2 POP PUSH2 0x439F DUP3 DUP8 PUSH2 0x404E JUMP JUMPDEST SWAP2 POP PUSH2 0x43AA DUP3 PUSH2 0x4120 JUMP JUMPDEST SWAP2 POP PUSH2 0x43B5 DUP3 PUSH2 0x416C JUMP JUMPDEST SWAP2 POP PUSH2 0x43C1 DUP3 DUP7 PUSH2 0x404E JUMP JUMPDEST SWAP2 POP PUSH2 0x43CC DUP3 PUSH2 0x41B8 JUMP JUMPDEST SWAP2 POP PUSH2 0x43D7 DUP3 PUSH2 0x4204 JUMP JUMPDEST SWAP2 POP PUSH2 0x43E2 DUP3 PUSH2 0x4250 JUMP JUMPDEST SWAP2 POP PUSH2 0x43EE DUP3 DUP6 PUSH2 0x4273 JUMP JUMPDEST SWAP2 POP PUSH2 0x43F9 DUP3 PUSH2 0x42CD JUMP JUMPDEST SWAP2 POP PUSH2 0x4404 DUP3 PUSH2 0x4319 JUMP JUMPDEST SWAP2 POP PUSH2 0x440F DUP3 PUSH2 0x4250 JUMP JUMPDEST SWAP2 POP PUSH2 0x441B DUP3 DUP5 PUSH2 0x4273 JUMP JUMPDEST SWAP2 POP PUSH2 0x4426 DUP3 PUSH2 0x42CD JUMP JUMPDEST SWAP2 POP PUSH2 0x4431 DUP3 PUSH2 0x4365 JUMP JUMPDEST SWAP2 POP DUP2 SWAP1 POP SWAP6 SWAP5 POP POP POP POP POP JUMP JUMPDEST PUSH32 0x646174613A6170706C69636174696F6E2F6A736F6E3B6261736536342C000000 PUSH1 0x0 DUP3 ADD MSTORE POP JUMP JUMPDEST PUSH1 0x0 PUSH2 0x4475 PUSH1 0x1D DUP4 PUSH2 0x3FF7 JUMP JUMPDEST SWAP2 POP PUSH2 0x4480 DUP3 PUSH2 0x443F JUMP JUMPDEST PUSH1 0x1D DUP3 ADD SWAP1 POP SWAP2 SWAP1 POP JUMP JUMPDEST PUSH1 0x0 PUSH2 0x4496 DUP3 PUSH2 0x4468 JUMP JUMPDEST SWAP2 POP PUSH2 0x44A2 DUP3 DUP5 PUSH2 0x4273 JUMP JUMPDEST SWAP2 POP DUP2 SWAP1 POP SWAP3 SWAP2 POP POP JUMP JUMPDEST PUSH32 0x746F6B656E4964206E6F74206578697374730000000000000000000000000000 PUSH1 0x0 DUP3 ADD MSTORE POP JUMP JUMPDEST PUSH1 0x0 PUSH2 0x44E3 PUSH1 0x12 DUP4 PUSH2 0x30CC JUMP JUMPDEST SWAP2 POP PUSH2 0x44EE DUP3 PUSH2 0x44AD JUMP JUMPDEST PUSH1 0x20 DUP3 ADD SWAP1 POP SWAP2 SWAP1 POP JUMP JUMPDEST PUSH1 0x0 PUSH1 0x20 DUP3 ADD SWAP1 POP DUP2 DUP2 SUB PUSH1 0x0 DUP4 ADD MSTORE PUSH2 0x4512 DUP2 PUSH2 0x44D6 JUMP JUMPDEST SWAP1 POP SWAP2 SWAP1 POP JUMP JUMPDEST PUSH1 0x0 DUP2 SWAP1 POP SWAP2 SWAP1 POP JUMP JUMPDEST PUSH2 0x452C DUP2 PUSH2 0x4519 JUMP JUMPDEST DUP3 MSTORE POP POP JUMP JUMPDEST PUSH1 0x0 PUSH2 0xFFFF DUP3 AND SWAP1 POP SWAP2 SWAP1 POP JUMP JUMPDEST PUSH2 0x4549 DUP2 PUSH2 0x4532 JUMP JUMPDEST DUP3 MSTORE POP POP JUMP JUMPDEST PUSH1 0x0 PUSH4 0xFFFFFFFF DUP3 AND SWAP1 POP SWAP2 SWAP1 POP JUMP JUMPDEST PUSH2 0x4568 DUP2 PUSH2 0x454F JUMP JUMPDEST DUP3 MSTORE POP POP JUMP JUMPDEST PUSH1 0x0 DUP2 MLOAD SWAP1 POP SWAP2 SWAP1 POP JUMP JUMPDEST PUSH1 0x0 DUP3 DUP3 MSTORE PUSH1 0x20 DUP3 ADD SWAP1 POP SWAP3 SWAP2 POP POP JUMP JUMPDEST PUSH1 0x0 PUSH2 0x4595 DUP3 PUSH2 0x456E JUMP JUMPDEST PUSH2 0x459F DUP2 DUP6 PUSH2 0x4579 JUMP JUMPDEST SWAP4 POP PUSH2 0x45AF DUP2 DUP6 PUSH1 0x20 DUP7 ADD PUSH2 0x30DD JUMP JUMPDEST PUSH2 0x45B8 DUP2 PUSH2 0x3107 JUMP JUMPDEST DUP5 ADD SWAP2 POP POP SWAP3 SWAP2 POP POP JUMP JUMPDEST PUSH1 0x0 PUSH1 0xC0 DUP4 ADD PUSH1 0x0 DUP4 ADD MLOAD PUSH2 0x45DB PUSH1 0x0 DUP7 ADD DUP3 PUSH2 0x4523 JUMP JUMPDEST POP PUSH1 0x20 DUP4 ADD MLOAD PUSH2 0x45EE PUSH1 0x20 DUP7 ADD DUP3 PUSH2 0x374E JUMP JUMPDEST POP PUSH1 0x40 DUP4 ADD MLOAD PUSH2 0x4601 PUSH1 0x40 DUP7 ADD DUP3 PUSH2 0x4540 JUMP JUMPDEST POP PUSH1 0x60 DUP4 ADD MLOAD PUSH2 0x4614 PUSH1 0x60 DUP7 ADD DUP3 PUSH2 0x455F JUMP JUMPDEST POP PUSH1 0x80 DUP4 ADD MLOAD PUSH2 0x4627 PUSH1 0x80 DUP7 ADD DUP3 PUSH2 0x455F JUMP JUMPDEST POP PUSH1 0xA0 DUP4 ADD MLOAD DUP5 DUP3 SUB PUSH1 0xA0 DUP7 ADD MSTORE PUSH2 0x463F DUP3 DUP3 PUSH2 0x458A JUMP JUMPDEST SWAP2 POP POP DUP1 SWAP2 POP POP SWAP3 SWAP2 POP POP JUMP JUMPDEST PUSH1 0x0 PUSH1 0x20 DUP3 ADD SWAP1 POP DUP2 DUP2 SUB PUSH1 0x0 DUP4 ADD MSTORE PUSH2 0x4666 DUP2 DUP5 PUSH2 0x45C3 JUMP JUMPDEST SWAP1 POP SWAP3 SWAP2 POP POP JUMP JUMPDEST PUSH1 0x0 DUP2 MLOAD SWAP1 POP PUSH2 0x467D DUP2 PUSH2 0x317D JUMP JUMPDEST SWAP3 SWAP2 POP POP JUMP JUMPDEST PUSH1 0x0 PUSH1 0x20 DUP3 DUP5 SUB SLT ISZERO PUSH2 0x4699 JUMPI PUSH2 0x4698 PUSH2 0x2FFC JUMP JUMPDEST JUMPDEST PUSH1 0x0 PUSH2 0x46A7 DUP5 DUP3 DUP6 ADD PUSH2 0x466E JUMP JUMPDEST SWAP2 POP POP SWAP3 SWAP2 POP POP JUMP JUMPDEST PUSH2 0x46B9 DUP2 PUSH2 0x454F JUMP JUMPDEST DUP3 MSTORE POP POP JUMP JUMPDEST PUSH1 0x0 PUSH1 0x40 DUP3 ADD SWAP1 POP PUSH2 0x46D4 PUSH1 0x0 DUP4 ADD DUP6 PUSH2 0x33B6 JUMP JUMPDEST PUSH2 0x46E1 PUSH1 0x20 DUP4 ADD DUP5 PUSH2 0x46B0 JUMP JUMPDEST SWAP4 SWAP3 POP POP POP JUMP JUMPDEST PUSH32 0x596F75206D757374206D696E742061204E465400000000000000000000000000 PUSH1 0x0 DUP3 ADD MSTORE POP JUMP JUMPDEST PUSH1 0x0 PUSH2 0x471E PUSH1 0x13 DUP4 PUSH2 0x30CC JUMP JUMPDEST SWAP2 POP PUSH2 0x4729 DUP3 PUSH2 0x46E8 JUMP JUMPDEST PUSH1 0x20 DUP3 ADD SWAP1 POP SWAP2 SWAP1 POP JUMP JUMPDEST PUSH1 0x0 PUSH1 0x20 DUP3 ADD SWAP1 POP DUP2 DUP2 SUB PUSH1 0x0 DUP4 ADD MSTORE PUSH2 0x474D DUP2 PUSH2 0x4711 JUMP JUMPDEST SWAP1 POP SWAP2 SWAP1 POP JUMP JUMPDEST PUSH32 0x72657175657374206E6F7420666F756E64000000000000000000000000000000 PUSH1 0x0 DUP3 ADD MSTORE POP JUMP JUMPDEST PUSH1 0x0 PUSH2 0x478A PUSH1 0x11 DUP4 PUSH2 0x30CC JUMP JUMPDEST SWAP2 POP PUSH2 0x4795 DUP3 PUSH2 0x4754 JUMP JUMPDEST PUSH1 0x20 DUP3 ADD SWAP1 POP SWAP2 SWAP1 POP JUMP JUMPDEST PUSH1 0x0 PUSH1 0x20 DUP3 ADD SWAP1 POP DUP2 DUP2 SUB PUSH1 0x0 DUP4 ADD MSTORE PUSH2 0x47B9 DUP2 PUSH2 0x477D JUMP JUMPDEST SWAP1 POP SWAP2 SWAP1 POP JUMP JUMPDEST PUSH32 0x4E487B7100000000000000000000000000000000000000000000000000000000 PUSH1 0x0 MSTORE PUSH1 0x12 PUSH1 0x4 MSTORE PUSH1 0x24 PUSH1 0x0 REVERT JUMPDEST PUSH1 0x0 PUSH2 0x47FA DUP3 PUSH2 0x3173 JUMP JUMPDEST SWAP2 POP PUSH2 0x4805 DUP4 PUSH2 0x3173 JUMP JUMPDEST SWAP3 POP DUP3 PUSH2 0x4815 JUMPI PUSH2 0x4814 PUSH2 0x47C0 JUMP JUMPDEST JUMPDEST DUP3 DUP3 MOD SWAP1 POP SWAP3 SWAP2 POP POP JUMP JUMPDEST PUSH32 0x4E487B7100000000000000000000000000000000000000000000000000000000 PUSH1 0x0 MSTORE PUSH1 0x11 PUSH1 0x4 MSTORE PUSH1 0x24 PUSH1 0x0 REVERT JUMPDEST PUSH1 0x0 PUSH2 0x485A DUP3 PUSH2 0x3173 JUMP JUMPDEST SWAP2 POP PUSH2 0x4865 DUP4 PUSH2 0x3173 JUMP JUMPDEST SWAP3 POP DUP3 DUP3 ADD SWAP1 POP DUP1 DUP3 GT ISZERO PUSH2 0x487D JUMPI PUSH2 0x487C PUSH2 0x4820 JUMP JUMPDEST JUMPDEST SWAP3 SWAP2 POP POP JUMP JUMPDEST PUSH1 0x0 PUSH2 0x488E DUP3 PUSH2 0x3173 JUMP JUMPDEST SWAP2 POP PUSH2 0x4899 DUP4 PUSH2 0x3173 JUMP JUMPDEST SWAP3 POP DUP3 DUP3 MUL PUSH2 0x48A7 DUP2 PUSH2 0x3173 JUMP JUMPDEST SWAP2 POP DUP3 DUP3 DIV DUP5 EQ DUP4 ISZERO OR PUSH2 0x48BE JUMPI PUSH2 0x48BD PUSH2 0x4820 JUMP JUMPDEST JUMPDEST POP SWAP3 SWAP2 POP POP JUMP JUMPDEST PUSH1 0x0 PUSH2 0x48D0 DUP3 PUSH2 0x3173 JUMP JUMPDEST SWAP2 POP PUSH32 0xFFFFFFFFFFFFFFFFFFFFFFFFFFFFFFFFFFFFFFFFFFFFFFFFFFFFFFFFFFFFFFFF DUP3 SUB PUSH2 0x4902 JUMPI PUSH2 0x4901 PUSH2 0x4820 JUMP JUMPDEST JUMPDEST PUSH1 0x1 DUP3 ADD SWAP1 POP SWAP2 SWAP1 POP JUMP JUMPDEST PUSH32 0x4552433732313A206F70657261746F7220717565727920666F72206E6F6E6578 PUSH1 0x0 DUP3 ADD MSTORE PUSH32 0x697374656E7420746F6B656E0000000000000000000000000000000000000000 PUSH1 0x20 DUP3 ADD MSTORE POP JUMP JUMPDEST PUSH1 0x0 PUSH2 0x4969 PUSH1 0x2C DUP4 PUSH2 0x30CC JUMP JUMPDEST SWAP2 POP PUSH2 0x4974 DUP3 PUSH2 0x490D JUMP JUMPDEST PUSH1 0x40 DUP3 ADD SWAP1 POP SWAP2 SWAP1 POP JUMP JUMPDEST PUSH1 0x0 PUSH1 0x20 DUP3 ADD SWAP1 POP DUP2 DUP2 SUB PUSH1 0x0 DUP4 ADD MSTORE PUSH2 0x4998 DUP2 PUSH2 0x495C JUMP JUMPDEST SWAP1 POP SWAP2 SWAP1 POP JUMP JUMPDEST PUSH32 0x4552433732313A207472616E736665722066726F6D20696E636F727265637420 PUSH1 0x0 DUP3 ADD MSTORE PUSH32 0x6F776E6572000000000000000000000000000000000000000000000000000000 PUSH1 0x20 DUP3 ADD MSTORE POP JUMP JUMPDEST PUSH1 0x0 PUSH2 0x49FB PUSH1 0x25 DUP4 PUSH2 0x30CC JUMP JUMPDEST SWAP2 POP PUSH2 0x4A06 DUP3 PUSH2 0x499F JUMP JUMPDEST PUSH1 0x40 DUP3 ADD SWAP1 POP SWAP2 SWAP1 POP JUMP JUMPDEST PUSH1 0x0 PUSH1 0x20 DUP3 ADD SWAP1 POP DUP2 DUP2 SUB PUSH1 0x0 DUP4 ADD MSTORE PUSH2 0x4A2A DUP2 PUSH2 0x49EE JUMP JUMPDEST SWAP1 POP SWAP2 SWAP1 POP JUMP JUMPDEST PUSH32 0x4552433732313A207472616E7366657220746F20746865207A65726F20616464 PUSH1 0x0 DUP3 ADD MSTORE PUSH32 0x7265737300000000000000000000000000000000000000000000000000000000 PUSH1 0x20 DUP3 ADD MSTORE POP JUMP JUMPDEST PUSH1 0x0 PUSH2 0x4A8D PUSH1 0x24 DUP4 PUSH2 0x30CC JUMP JUMPDEST SWAP2 POP PUSH2 0x4A98 DUP3 PUSH2 0x4A31 JUMP JUMPDEST PUSH1 0x40 DUP3 ADD SWAP1 POP SWAP2 SWAP1 POP JUMP JUMPDEST PUSH1 0x0 PUSH1 0x20 DUP3 ADD SWAP1 POP DUP2 DUP2 SUB PUSH1 0x0 DUP4 ADD MSTORE PUSH2 0x4ABC DUP2 PUSH2 0x4A80 JUMP JUMPDEST SWAP1 POP SWAP2 SWAP1 POP JUMP JUMPDEST PUSH1 0x0 PUSH2 0x4ACE DUP3 PUSH2 0x3173 JUMP JUMPDEST SWAP2 POP PUSH2 0x4AD9 DUP4 PUSH2 0x3173 JUMP JUMPDEST SWAP3 POP DUP3 DUP3 SUB SWAP1 POP DUP2 DUP2 GT ISZERO PUSH2 0x4AF1 JUMPI PUSH2 0x4AF0 PUSH2 0x4820 JUMP JUMPDEST JUMPDEST SWAP3 SWAP2 POP POP JUMP JUMPDEST PUSH1 0x0 PUSH2 0x4B02 DUP3 PUSH2 0x3173 JUMP JUMPDEST SWAP2 POP PUSH2 0x4B0D DUP4 PUSH2 0x3173 JUMP JUMPDEST SWAP3 POP DUP3 PUSH2 0x4B1D JUMPI PUSH2 0x4B1C PUSH2 0x47C0 JUMP JUMPDEST JUMPDEST DUP3 DUP3 DIV SWAP1 POP SWAP3 SWAP2 POP POP JUMP JUMPDEST PUSH32 0x45524337323155524953746F726167653A2055524920736574206F66206E6F6E PUSH1 0x0 DUP3 ADD MSTORE PUSH32 0x6578697374656E7420746F6B656E000000000000000000000000000000000000 PUSH1 0x20 DUP3 ADD MSTORE POP JUMP JUMPDEST PUSH1 0x0 PUSH2 0x4B84 PUSH1 0x2E DUP4 PUSH2 0x30CC JUMP JUMPDEST SWAP2 POP PUSH2 0x4B8F DUP3 PUSH2 0x4B28 JUMP JUMPDEST PUSH1 0x40 DUP3 ADD SWAP1 POP SWAP2 SWAP1 POP JUMP JUMPDEST PUSH1 0x0 PUSH1 0x20 DUP3 ADD SWAP1 POP DUP2 DUP2 SUB PUSH1 0x0 DUP4 ADD MSTORE PUSH2 0x4BB3 DUP2 PUSH2 0x4B77 JUMP JUMPDEST SWAP1 POP SWAP2 SWAP1 POP JUMP JUMPDEST PUSH32 0x4552433732313A20617070726F766520746F2063616C6C657200000000000000 PUSH1 0x0 DUP3 ADD MSTORE POP JUMP JUMPDEST PUSH1 0x0 PUSH2 0x4BF0 PUSH1 0x19 DUP4 PUSH2 0x30CC JUMP JUMPDEST SWAP2 POP PUSH2 0x4BFB DUP3 PUSH2 0x4BBA JUMP JUMPDEST PUSH1 0x20 DUP3 ADD SWAP1 POP SWAP2 SWAP1 POP JUMP JUMPDEST PUSH1 0x0 PUSH1 0x20 DUP3 ADD SWAP1 POP DUP2 DUP2 SUB PUSH1 0x0 DUP4 ADD MSTORE PUSH2 0x4C1F DUP2 PUSH2 0x4BE3 JUMP JUMPDEST SWAP1 POP SWAP2 SWAP1 POP JUMP JUMPDEST PUSH2 0x4C2F DUP2 PUSH2 0x308B JUMP JUMPDEST DUP3 MSTORE POP POP JUMP JUMPDEST PUSH1 0x20 DUP3 ADD PUSH1 0x0 DUP3 ADD MLOAD PUSH2 0x4C4B PUSH1 0x0 DUP6 ADD DUP3 PUSH2 0x4C26 JUMP JUMPDEST POP POP POP POP JUMP JUMPDEST PUSH1 0x0 PUSH1 0x20 DUP3 ADD SWAP1 POP PUSH2 0x4C66 PUSH1 0x0 DUP4 ADD DUP5 PUSH2 0x4C35 JUMP JUMPDEST SWAP3 SWAP2 POP POP JUMP JUMPDEST PUSH32 0x4552433732313A207472616E7366657220746F206E6F6E204552433732315265 PUSH1 0x0 DUP3 ADD MSTORE PUSH32 0x63656976657220696D706C656D656E7465720000000000000000000000000000 PUSH1 0x20 DUP3 ADD MSTORE POP JUMP JUMPDEST PUSH1 0x0 PUSH2 0x4CC8 PUSH1 0x32 DUP4 PUSH2 0x30CC JUMP JUMPDEST SWAP2 POP PUSH2 0x4CD3 DUP3 PUSH2 0x4C6C JUMP JUMPDEST PUSH1 0x40 DUP3 ADD SWAP1 POP SWAP2 SWAP1 POP JUMP JUMPDEST PUSH1 0x0 PUSH1 0x20 DUP3 ADD SWAP1 POP DUP2 DUP2 SUB PUSH1 0x0 DUP4 ADD MSTORE PUSH2 0x4CF7 DUP2 PUSH2 0x4CBB JUMP JUMPDEST SWAP1 POP SWAP2 SWAP1 POP JUMP JUMPDEST PUSH32 0x45524337323155524953746F726167653A2055524920717565727920666F7220 PUSH1 0x0 DUP3 ADD MSTORE PUSH32 0x6E6F6E6578697374656E7420746F6B656E000000000000000000000000000000 PUSH1 0x20 DUP3 ADD MSTORE POP JUMP JUMPDEST PUSH1 0x0 PUSH2 0x4D5A PUSH1 0x31 DUP4 PUSH2 0x30CC JUMP JUMPDEST SWAP2 POP PUSH2 0x4D65 DUP3 PUSH2 0x4CFE JUMP JUMPDEST PUSH1 0x40 DUP3 ADD SWAP1 POP SWAP2 SWAP1 POP JUMP JUMPDEST PUSH1 0x0 PUSH1 0x20 DUP3 ADD SWAP1 POP DUP2 DUP2 SUB PUSH1 0x0 DUP4 ADD MSTORE PUSH2 0x4D89 DUP2 PUSH2 0x4D4D JUMP JUMPDEST SWAP1 POP SWAP2 SWAP1 POP JUMP JUMPDEST PUSH1 0x0 PUSH2 0x4D9C DUP3 DUP6 PUSH2 0x4273 JUMP JUMPDEST SWAP2 POP PUSH2 0x4DA8 DUP3 DUP5 PUSH2 0x4273 JUMP JUMPDEST SWAP2 POP DUP2 SWAP1 POP SWAP4 SWAP3 POP POP POP JUMP JUMPDEST PUSH32 0x4F6E6C792063616C6C61626C65206279206F776E657200000000000000000000 PUSH1 0x0 DUP3 ADD MSTORE POP JUMP JUMPDEST PUSH1 0x0 PUSH2 0x4DEA PUSH1 0x16 DUP4 PUSH2 0x30CC JUMP JUMPDEST SWAP2 POP PUSH2 0x4DF5 DUP3 PUSH2 0x4DB4 JUMP JUMPDEST PUSH1 0x20 DUP3 ADD SWAP1 POP SWAP2 SWAP1 POP JUMP JUMPDEST PUSH1 0x0 PUSH1 0x20 DUP3 ADD SWAP1 POP DUP2 DUP2 SUB PUSH1 0x0 DUP4 ADD MSTORE PUSH2 0x4E19 DUP2 PUSH2 0x4DDD JUMP JUMPDEST SWAP1 POP SWAP2 SWAP1 POP JUMP JUMPDEST PUSH32 0x43616E6E6F74207472616E7366657220746F2073656C66000000000000000000 PUSH1 0x0 DUP3 ADD MSTORE POP JUMP JUMPDEST PUSH1 0x0 PUSH2 0x4E56 PUSH1 0x17 DUP4 PUSH2 0x30CC JUMP JUMPDEST SWAP2 POP PUSH2 0x4E61 DUP3 PUSH2 0x4E20 JUMP JUMPDEST PUSH1 0x20 DUP3 ADD SWAP1 POP SWAP2 SWAP1 POP JUMP JUMPDEST PUSH1 0x0 PUSH1 0x20 DUP3 ADD SWAP1 POP DUP2 DUP2 SUB PUSH1 0x0 DUP4 ADD MSTORE PUSH2 0x4E85 DUP2 PUSH2 0x4E49 JUMP JUMPDEST SWAP1 POP SWAP2 SWAP1 POP JUMP JUMPDEST PUSH1 0x0 DUP3 DUP3 MSTORE PUSH1 0x20 DUP3 ADD SWAP1 POP SWAP3 SWAP2 POP POP JUMP JUMPDEST PUSH1 0x0 PUSH2 0x4EA8 DUP3 PUSH2 0x456E JUMP JUMPDEST PUSH2 0x4EB2 DUP2 DUP6 PUSH2 0x4E8C JUMP JUMPDEST SWAP4 POP PUSH2 0x4EC2 DUP2 DUP6 PUSH1 0x20 DUP7 ADD PUSH2 0x30DD JUMP JUMPDEST PUSH2 0x4ECB DUP2 PUSH2 0x3107 JUMP JUMPDEST DUP5 ADD SWAP2 POP POP SWAP3 SWAP2 POP POP JUMP JUMPDEST PUSH1 0x0 PUSH1 0x80 DUP3 ADD SWAP1 POP PUSH2 0x4EEB PUSH1 0x0 DUP4 ADD DUP8 PUSH2 0x3208 JUMP JUMPDEST PUSH2 0x4EF8 PUSH1 0x20 DUP4 ADD DUP7 PUSH2 0x3208 JUMP JUMPDEST PUSH2 0x4F05 PUSH1 0x40 DUP4 ADD DUP6 PUSH2 0x33B6 JUMP JUMPDEST DUP2 DUP2 SUB PUSH1 0x60 DUP4 ADD MSTORE PUSH2 0x4F17 DUP2 DUP5 PUSH2 0x4E9D JUMP JUMPDEST SWAP1 POP SWAP6 SWAP5 POP POP POP POP POP JUMP JUMPDEST PUSH1 0x0 DUP2 MLOAD SWAP1 POP PUSH2 0x4F31 DUP2 PUSH2 0x3032 JUMP JUMPDEST SWAP3 SWAP2 POP POP JUMP JUMPDEST PUSH1 0x0 PUSH1 0x20 DUP3 DUP5 SUB SLT ISZERO PUSH2 0x4F4D JUMPI PUSH2 0x4F4C PUSH2 0x2FFC JUMP JUMPDEST JUMPDEST PUSH1 0x0 PUSH2 0x4F5B DUP5 DUP3 DUP6 ADD PUSH2 0x4F22 JUMP JUMPDEST SWAP2 POP POP SWAP3 SWAP2 POP POP JUMP JUMPDEST PUSH32 0x4552433732314D657461646174613A2055524920717565727920666F72206E6F PUSH1 0x0 DUP3 ADD MSTORE PUSH32 0x6E6578697374656E7420746F6B656E0000000000000000000000000000000000 PUSH1 0x20 DUP3 ADD MSTORE POP JUMP JUMPDEST PUSH1 0x0 PUSH2 0x4FC0 PUSH1 0x2F DUP4 PUSH2 0x30CC JUMP JUMPDEST SWAP2 POP PUSH2 0x4FCB DUP3 PUSH2 0x4F64 JUMP JUMPDEST PUSH1 0x40 DUP3 ADD SWAP1 POP SWAP2 SWAP1 POP JUMP JUMPDEST PUSH1 0x0 PUSH1 0x20 DUP3 ADD SWAP1 POP DUP2 DUP2 SUB PUSH1 0x0 DUP4 ADD MSTORE PUSH2 0x4FEF DUP2 PUSH2 0x4FB3 JUMP JUMPDEST SWAP1 POP SWAP2 SWAP1 POP JUMP JUMPDEST PUSH32 0x4552433732313A206D696E7420746F20746865207A65726F2061646472657373 PUSH1 0x0 DUP3 ADD MSTORE POP JUMP JUMPDEST PUSH1 0x0 PUSH2 0x502C PUSH1 0x20 DUP4 PUSH2 0x30CC JUMP JUMPDEST SWAP2 POP PUSH2 0x5037 DUP3 PUSH2 0x4FF6 JUMP JUMPDEST PUSH1 0x20 DUP3 ADD SWAP1 POP SWAP2 SWAP1 POP JUMP JUMPDEST PUSH1 0x0 PUSH1 0x20 DUP3 ADD SWAP1 POP DUP2 DUP2 SUB PUSH1 0x0 DUP4 ADD MSTORE PUSH2 0x505B DUP2 PUSH2 0x501F JUMP JUMPDEST SWAP1 POP SWAP2 SWAP1 POP JUMP JUMPDEST PUSH32 0x4552433732313A20746F6B656E20616C7265616479206D696E74656400000000 PUSH1 0x0 DUP3 ADD MSTORE POP JUMP JUMPDEST PUSH1 0x0 PUSH2 0x5098 PUSH1 0x1C DUP4 PUSH2 0x30CC JUMP JUMPDEST SWAP2 POP PUSH2 0x50A3 DUP3 PUSH2 0x5062 JUMP JUMPDEST PUSH1 0x20 DUP3 ADD SWAP1 POP SWAP2 SWAP1 POP JUMP JUMPDEST PUSH1 0x0 PUSH1 0x20 DUP3 ADD SWAP1 POP DUP2 DUP2 SUB PUSH1 0x0 DUP4 ADD MSTORE PUSH2 0x50C7 DUP2 PUSH2 0x508B JUMP JUMPDEST SWAP1 POP SWAP2 SWAP1 POP JUMP INVALID COINBASE TIMESTAMP NUMBER PREVRANDAO GASLIMIT CHAINID SELFBALANCE BASEFEE 0x49 0x4A 0x4B 0x4C 0x4D 0x4E 0x4F POP MLOAD MSTORE MSTORE8 SLOAD SSTORE JUMP JUMPI PC MSIZE GAS PUSH2 0x6263 PUSH5 0x6566676869 PUSH11 0x6B6C6D6E6F707172737475 PUSH23 0x7778797A303132333435363738392B2FA2646970667358 0x22 SLT KECCAK256 PUSH3 0xE7F0C3 CREATE 0xA9 PUSH10 0xF50ED5FB6F42ED2553 LOG2 0xC8 0xB6 PUSH5 0xB6329780DD PUSH32 0x3E6C2F278864736F6C6343000813003368747470733A2F2F697066732E696F2F PUSH10 0x7066732F516D5731746F PUSH2 0x7059 PUSH20 0x374D3239727A4C5854454E6E3370627677653869 PUSH16 0x696B583150777A41437A6A666448503F PUSH7 0x696C656E616D65 RETURNDATASIZE NUMBER PUSH9 0x61696E6C696E6B5F4F PUSH19 0x632E706E6768747470733A2F2F697066732E69 PUSH16 0x2F697066732F516D5A47514139327269 BALANCE PUSH11 0x667A537536314A52614E51 PC MSIZE PUSH8 0x31624C754D377038 MSIZE SLOAD CODESIZE CALLER PREVRANDAO PUSH27 0x4641324B4C483F66696C656E616D653D436861696E6C696E6B5F4B PUSH15 0x696768742E706E6741424344454647 BASEFEE 0x49 0x4A 0x4B 0x4C 0x4D 0x4E 0x4F POP MLOAD MSTORE MSTORE8 SLOAD SSTORE JUMP JUMPI PC MSIZE GAS PUSH2 0x6263 PUSH5 0x6566676869 PUSH11 0x6B6C6D6E6F707172737475 PUSH23 0x7778797A303132333435363738392B2F68747470733A2F 0x2F PUSH10 0x7066732E696F2F697066 PUSH20 0x2F516D504D775174467045644B72556A70514A66 PUSH16 0x54655A533161565365754A54364D6F66 CALLDATACOPY PUSH22 0x56323941635570463F66696C656E616D653D43686169 PUSH15 0x6C696E6B5F57697463682E706E6768 PUSH21 0x7470733A2F2F697066732E696F2F697066732F516D SLOAD PUSH8 0x716E6846424D6B66 SLOAD CODECOPY PUSH20 0x3850484B636458426E3166356247335135686D42 PUSH2 0x5234 SSTORE CALLDATASIZE PUSH9 0x6F547662313F66696C PUSH6 0x6E616D653D43 PUSH9 0x61696E6C696E6B5F45 PUSH13 0x662E706E670000000000000000 "
		},
		"gasEstimates": {
			"creation": {
				"codeDepositCost": "4160800",
				"executionCost": "infinite",
				"totalCost": "infinite"
			},
			"external": {
				"acceptOwnership()": "54585",
				"approve(address,uint256)": "infinite",
				"balanceOf(address)": "2966",
				"getApproved(uint256)": "5251",
				"getRequestStatus(uint256)": "infinite",
				"isApprovedForAll(address,address)": "infinite",
				"lastRandomWords(uint256)": "infinite",
				"lastRequestId()": "2539",
				"name()": "infinite",
				"owner()": "2633",
				"ownerOf(uint256)": "3042",
				"rawFulfillRandomWords(uint256,uint256[])": "infinite",
				"requestIds(uint256)": "infinite",
				"request_runner(uint256)": "infinite",
				"run(uint256)": "infinite",
				"runners(uint256)": "infinite",
				"s_requests(uint256)": "infinite",
				"s_subscriptionId()": "2518",
				"s_vrfCoordinator()": "infinite",
				"safeMint(address,uint256)": "infinite",
				"safeTransferFrom(address,address,uint256)": "infinite",
				"safeTransferFrom(address,address,uint256,bytes)": "infinite",
				"setApprovalForAll(address,bool)": "infinite",
				"setCoordinator(address)": "infinite",
				"supportsInterface(bytes4)": "820",
				"symbol()": "infinite",
				"tokenIdCounter()": "2488",
				"tokenURI(uint256)": "infinite",
				"transferFrom(address,address,uint256)": "infinite",
				"transferOwnership(address)": "30748"
			},
			"internal": {
				"_burn(uint256)": "infinite",
				"fulfillRandomWords(uint256,uint256[] calldata)": "infinite"
			}
		},
		"methodIdentifiers": {
			"acceptOwnership()": "79ba5097",
			"approve(address,uint256)": "095ea7b3",
			"balanceOf(address)": "70a08231",
			"getApproved(uint256)": "081812fc",
			"getRequestStatus(uint256)": "d8a4676f",
			"isApprovedForAll(address,address)": "e985e9c5",
			"lastRandomWords(uint256)": "900fc869",
			"lastRequestId()": "fc2a88c3",
			"name()": "06fdde03",
			"owner()": "8da5cb5b",
			"ownerOf(uint256)": "6352211e",
			"rawFulfillRandomWords(uint256,uint256[])": "1fe543e3",
			"requestIds(uint256)": "8796ba8c",
			"request_runner(uint256)": "778c91ac",
			"run(uint256)": "a444f5e9",
			"runners(uint256)": "47e9907b",
			"s_requests(uint256)": "a168fa89",
			"s_subscriptionId()": "8ac00021",
			"s_vrfCoordinator()": "9eccacf6",
			"safeMint(address,uint256)": "a1448194",
			"safeTransferFrom(address,address,uint256)": "42842e0e",
			"safeTransferFrom(address,address,uint256,bytes)": "b88d4fde",
			"setApprovalForAll(address,bool)": "a22cb465",
			"setCoordinator(address)": "8ea98117",
			"supportsInterface(bytes4)": "01ffc9a7",
			"symbol()": "95d89b41",
			"tokenIdCounter()": "98bdf6f5",
			"tokenURI(uint256)": "c87b56dd",
			"transferFrom(address,address,uint256)": "23b872dd",
			"transferOwnership(address)": "f2fde38b"
		}
	},
	"abi": [
		{
			"inputs": [
				{
					"internalType": "uint256",
					"name": "subscriptionId",
					"type": "uint256"
				}
			],
			"stateMutability": "nonpayable",
			"type": "constructor"
		},
		{
			"inputs": [
				{
					"internalType": "address",
					"name": "have",
					"type": "address"
				},
				{
					"internalType": "address",
					"name": "want",
					"type": "address"
				}
			],
			"name": "OnlyCoordinatorCanFulfill",
			"type": "error"
		},
		{
			"inputs": [
				{
					"internalType": "address",
					"name": "have",
					"type": "address"
				},
				{
					"internalType": "address",
					"name": "owner",
					"type": "address"
				},
				{
					"internalType": "address",
					"name": "coordinator",
					"type": "address"
				}
			],
			"name": "OnlyOwnerOrCoordinator",
			"type": "error"
		},
		{
			"inputs": [],
			"name": "ZeroAddress",
			"type": "error"
		},
		{
			"anonymous": false,
			"inputs": [
				{
					"indexed": true,
					"internalType": "address",
					"name": "owner",
					"type": "address"
				},
				{
					"indexed": true,
					"internalType": "address",
					"name": "approved",
					"type": "address"
				},
				{
					"indexed": true,
					"internalType": "uint256",
					"name": "tokenId",
					"type": "uint256"
				}
			],
			"name": "Approval",
			"type": "event"
		},
		{
			"anonymous": false,
			"inputs": [
				{
					"indexed": true,
					"internalType": "address",
					"name": "owner",
					"type": "address"
				},
				{
					"indexed": true,
					"internalType": "address",
					"name": "operator",
					"type": "address"
				},
				{
					"indexed": false,
					"internalType": "bool",
					"name": "approved",
					"type": "bool"
				}
			],
			"name": "ApprovalForAll",
			"type": "event"
		},
		{
			"anonymous": false,
			"inputs": [
				{
					"indexed": false,
					"internalType": "address",
					"name": "vrfCoordinator",
					"type": "address"
				}
			],
			"name": "CoordinatorSet",
			"type": "event"
		},
		{
			"anonymous": false,
			"inputs": [
				{
					"indexed": true,
					"internalType": "address",
					"name": "from",
					"type": "address"
				},
				{
					"indexed": true,
					"internalType": "address",
					"name": "to",
					"type": "address"
				}
			],
			"name": "OwnershipTransferRequested",
			"type": "event"
		},
		{
			"anonymous": false,
			"inputs": [
				{
					"indexed": true,
					"internalType": "address",
					"name": "from",
					"type": "address"
				},
				{
					"indexed": true,
					"internalType": "address",
					"name": "to",
					"type": "address"
				}
			],
			"name": "OwnershipTransferred",
			"type": "event"
		},
		{
			"anonymous": false,
			"inputs": [
				{
					"indexed": false,
					"internalType": "uint256",
					"name": "requestId",
					"type": "uint256"
				},
				{
					"indexed": false,
					"internalType": "uint256[]",
					"name": "randomWords",
					"type": "uint256[]"
				}
			],
			"name": "RequestFulfilled",
			"type": "event"
		},
		{
			"anonymous": false,
			"inputs": [
				{
					"indexed": false,
					"internalType": "uint256",
					"name": "requestId",
					"type": "uint256"
				},
				{
					"indexed": false,
					"internalType": "uint32",
					"name": "numWords",
					"type": "uint32"
				}
			],
			"name": "RequestSent",
			"type": "event"
		},
		{
			"anonymous": false,
			"inputs": [
				{
					"indexed": true,
					"internalType": "address",
					"name": "from",
					"type": "address"
				},
				{
					"indexed": true,
					"internalType": "address",
					"name": "to",
					"type": "address"
				},
				{
					"indexed": true,
					"internalType": "uint256",
					"name": "tokenId",
					"type": "uint256"
				}
			],
			"name": "Transfer",
			"type": "event"
		},
		{
			"inputs": [],
			"name": "acceptOwnership",
			"outputs": [],
			"stateMutability": "nonpayable",
			"type": "function"
		},
		{
			"inputs": [
				{
					"internalType": "address",
					"name": "to",
					"type": "address"
				},
				{
					"internalType": "uint256",
					"name": "tokenId",
					"type": "uint256"
				}
			],
			"name": "approve",
			"outputs": [],
			"stateMutability": "nonpayable",
			"type": "function"
		},
		{
			"inputs": [
				{
					"internalType": "address",
					"name": "owner",
					"type": "address"
				}
			],
			"name": "balanceOf",
			"outputs": [
				{
					"internalType": "uint256",
					"name": "",
					"type": "uint256"
				}
			],
			"stateMutability": "view",
			"type": "function"
		},
		{
			"inputs": [
				{
					"internalType": "uint256",
					"name": "tokenId",
					"type": "uint256"
				}
			],
			"name": "getApproved",
			"outputs": [
				{
					"internalType": "address",
					"name": "",
					"type": "address"
				}
			],
			"stateMutability": "view",
			"type": "function"
		},
		{
			"inputs": [
				{
					"internalType": "uint256",
					"name": "_requestId",
					"type": "uint256"
				}
			],
			"name": "getRequestStatus",
			"outputs": [
				{
					"internalType": "bool",
					"name": "fulfilled",
					"type": "bool"
				},
				{
					"internalType": "uint256[]",
					"name": "randomWords",
					"type": "uint256[]"
				}
			],
			"stateMutability": "view",
			"type": "function"
		},
		{
			"inputs": [
				{
					"internalType": "address",
					"name": "owner",
					"type": "address"
				},
				{
					"internalType": "address",
					"name": "operator",
					"type": "address"
				}
			],
			"name": "isApprovedForAll",
			"outputs": [
				{
					"internalType": "bool",
					"name": "",
					"type": "bool"
				}
			],
			"stateMutability": "view",
			"type": "function"
		},
		{
			"inputs": [
				{
					"internalType": "uint256",
					"name": "",
					"type": "uint256"
				}
			],
			"name": "lastRandomWords",
			"outputs": [
				{
					"internalType": "uint256",
					"name": "",
					"type": "uint256"
				}
			],
			"stateMutability": "view",
			"type": "function"
		},
		{
			"inputs": [],
			"name": "lastRequestId",
			"outputs": [
				{
					"internalType": "uint256",
					"name": "",
					"type": "uint256"
				}
			],
			"stateMutability": "view",
			"type": "function"
		},
		{
			"inputs": [],
			"name": "name",
			"outputs": [
				{
					"internalType": "string",
					"name": "",
					"type": "string"
				}
			],
			"stateMutability": "view",
			"type": "function"
		},
		{
			"inputs": [],
			"name": "owner",
			"outputs": [
				{
					"internalType": "address",
					"name": "",
					"type": "address"
				}
			],
			"stateMutability": "view",
			"type": "function"
		},
		{
			"inputs": [
				{
					"internalType": "uint256",
					"name": "tokenId",
					"type": "uint256"
				}
			],
			"name": "ownerOf",
			"outputs": [
				{
					"internalType": "address",
					"name": "",
					"type": "address"
				}
			],
			"stateMutability": "view",
			"type": "function"
		},
		{
			"inputs": [
				{
					"internalType": "uint256",
					"name": "requestId",
					"type": "uint256"
				},
				{
					"internalType": "uint256[]",
					"name": "randomWords",
					"type": "uint256[]"
				}
			],
			"name": "rawFulfillRandomWords",
			"outputs": [],
			"stateMutability": "nonpayable",
			"type": "function"
		},
		{
			"inputs": [
				{
					"internalType": "uint256",
					"name": "",
					"type": "uint256"
				}
			],
			"name": "requestIds",
			"outputs": [
				{
					"internalType": "uint256",
					"name": "",
					"type": "uint256"
				}
			],
			"stateMutability": "view",
			"type": "function"
		},
		{
			"inputs": [
				{
					"internalType": "uint256",
					"name": "",
					"type": "uint256"
				}
			],
			"name": "request_runner",
			"outputs": [
				{
					"internalType": "uint256",
					"name": "",
					"type": "uint256"
				}
			],
			"stateMutability": "view",
			"type": "function"
		},
		{
			"inputs": [
				{
					"internalType": "uint256",
					"name": "tokenId",
					"type": "uint256"
				}
			],
			"name": "run",
			"outputs": [
				{
					"internalType": "uint256",
					"name": "requestId",
					"type": "uint256"
				}
			],
			"stateMutability": "nonpayable",
			"type": "function"
		},
		{
			"inputs": [
				{
					"internalType": "uint256",
					"name": "",
					"type": "uint256"
				}
			],
			"name": "runners",
			"outputs": [
				{
					"internalType": "string",
					"name": "name",
					"type": "string"
				},
				{
					"internalType": "string",
					"name": "image",
					"type": "string"
				},
				{
					"internalType": "uint256",
					"name": "distance",
					"type": "uint256"
				},
				{
					"internalType": "uint256",
					"name": "round",
					"type": "uint256"
				}
			],
			"stateMutability": "view",
			"type": "function"
		},
		{
			"inputs": [
				{
					"internalType": "uint256",
					"name": "",
					"type": "uint256"
				}
			],
			"name": "s_requests",
			"outputs": [
				{
					"internalType": "bool",
					"name": "fulfilled",
					"type": "bool"
				},
				{
					"internalType": "bool",
					"name": "exists",
					"type": "bool"
				}
			],
			"stateMutability": "view",
			"type": "function"
		},
		{
			"inputs": [],
			"name": "s_subscriptionId",
			"outputs": [
				{
					"internalType": "uint256",
					"name": "",
					"type": "uint256"
				}
			],
			"stateMutability": "view",
			"type": "function"
		},
		{
			"inputs": [],
			"name": "s_vrfCoordinator",
			"outputs": [
				{
					"internalType": "contract IVRFCoordinatorV2Plus",
					"name": "",
					"type": "address"
				}
			],
			"stateMutability": "view",
			"type": "function"
		},
		{
			"inputs": [
				{
					"internalType": "address",
					"name": "to",
					"type": "address"
				},
				{
					"internalType": "uint256",
					"name": "charId",
					"type": "uint256"
				}
			],
			"name": "safeMint",
			"outputs": [],
			"stateMutability": "nonpayable",
			"type": "function"
		},
		{
			"inputs": [
				{
					"internalType": "address",
					"name": "from",
					"type": "address"
				},
				{
					"internalType": "address",
					"name": "to",
					"type": "address"
				},
				{
					"internalType": "uint256",
					"name": "tokenId",
					"type": "uint256"
				}
			],
			"name": "safeTransferFrom",
			"outputs": [],
			"stateMutability": "nonpayable",
			"type": "function"
		},
		{
			"inputs": [
				{
					"internalType": "address",
					"name": "from",
					"type": "address"
				},
				{
					"internalType": "address",
					"name": "to",
					"type": "address"
				},
				{
					"internalType": "uint256",
					"name": "tokenId",
					"type": "uint256"
				},
				{
					"internalType": "bytes",
					"name": "_data",
					"type": "bytes"
				}
			],
			"name": "safeTransferFrom",
			"outputs": [],
			"stateMutability": "nonpayable",
			"type": "function"
		},
		{
			"inputs": [
				{
					"internalType": "address",
					"name": "operator",
					"type": "address"
				},
				{
					"internalType": "bool",
					"name": "approved",
					"type": "bool"
				}
			],
			"name": "setApprovalForAll",
			"outputs": [],
			"stateMutability": "nonpayable",
			"type": "function"
		},
		{
			"inputs": [
				{
					"internalType": "address",
					"name": "_vrfCoordinator",
					"type": "address"
				}
			],
			"name": "setCoordinator",
			"outputs": [],
			"stateMutability": "nonpayable",
			"type": "function"
		},
		{
			"inputs": [
				{
					"internalType": "bytes4",
					"name": "interfaceId",
					"type": "bytes4"
				}
			],
			"name": "supportsInterface",
			"outputs": [
				{
					"internalType": "bool",
					"name": "",
					"type": "bool"
				}
			],
			"stateMutability": "view",
			"type": "function"
		},
		{
			"inputs": [],
			"name": "symbol",
			"outputs": [
				{
					"internalType": "string",
					"name": "",
					"type": "string"
				}
			],
			"stateMutability": "view",
			"type": "function"
		},
		{
			"inputs": [],
			"name": "tokenIdCounter",
			"outputs": [
				{
					"internalType": "uint256",
					"name": "_value",
					"type": "uint256"
				}
			],
			"stateMutability": "view",
			"type": "function"
		},
		{
			"inputs": [
				{
					"internalType": "uint256",
					"name": "tokenId",
					"type": "uint256"
				}
			],
			"name": "tokenURI",
			"outputs": [
				{
					"internalType": "string",
					"name": "",
					"type": "string"
				}
			],
			"stateMutability": "view",
			"type": "function"
		},
		{
			"inputs": [
				{
					"internalType": "address",
					"name": "from",
					"type": "address"
				},
				{
					"internalType": "address",
					"name": "to",
					"type": "address"
				},
				{
					"internalType": "uint256",
					"name": "tokenId",
					"type": "uint256"
				}
			],
			"name": "transferFrom",
			"outputs": [],
			"stateMutability": "nonpayable",
			"type": "function"
		},
		{
			"inputs": [
				{
					"internalType": "address",
					"name": "to",
					"type": "address"
				}
			],
			"name": "transferOwnership",
			"outputs": [],
			"stateMutability": "nonpayable",
			"type": "function"
		}
	]
}