{
	"data": {
		"bytecode": {
			"linkReferences": {},
			"object": "6080604052348015600e575f80fd5b5060ad80601a5f395ff3fe6080604052348015600e575f80fd5b50600436106026575f3560e01c80633ebca8e114602a575b5f80fd5b60306032565b005b3373ffffffffffffffffffffffffffffffffffffffff167fe3cba3b68882650dc76730e77105080229f9f61f5c33b10e9aa239ff26d01d9460405160405180910390a256fea26469706673582212206114e14a94b170547b9db6068087772ad3d98219beda33d8ee6002e2abf36c7964736f6c634300081a0033",
			"opcodes": "PUSH1 0x80 PUSH1 0x40 MSTORE CALLVALUE DUP1 ISZERO PUSH1 0xE JUMPI PUSH0 DUP1 REVERT JUMPDEST POP PUSH1 0xAD DUP1 PUSH1 0x1A PUSH0 CODECOPY PUSH0 RETURN INVALID PUSH1 0x80 PUSH1 0x40 MSTORE CALLVALUE DUP1 ISZERO PUSH1 0xE JUMPI PUSH0 DUP1 REVERT JUMPDEST POP PUSH1 0x4 CALLDATASIZE LT PUSH1 0x26 JUMPI PUSH0 CALLDATALOAD PUSH1 0xE0 SHR DUP1 PUSH4 0x3EBCA8E1 EQ PUSH1 0x2A JUMPI JUMPDEST PUSH0 DUP1 REVERT JUMPDEST PUSH1 0x30 PUSH1 0x32 JUMP JUMPDEST STOP JUMPDEST CALLER PUSH20 0xFFFFFFFFFFFFFFFFFFFFFFFFFFFFFFFFFFFFFFFF AND PUSH32 0xE3CBA3B68882650DC76730E77105080229F9F61F5C33B10E9AA239FF26D01D94 PUSH1 0x40 MLOAD PUSH1 0x40 MLOAD DUP1 SWAP2 SUB SWAP1 LOG2 JUMP INVALID LOG2 PUSH5 0x6970667358 0x22 SLT KECCAK256 PUSH2 0x14E1 BLOBBASEFEE SWAP5 0xB1 PUSH17 0x547B9DB6068087772AD3D98219BEDA33D8 0xEE PUSH1 0x2 0xE2 0xAB RETURN PUSH13 0x7964736F6C634300081A003300 "
		},
		"gasEstimates": {
			"creation": {
				"codeDepositCost": "34600",
				"executionCost": "85",
				"totalCost": "34685"
			},
			"external": {
				"emitCountLog()": "1281"
			}
		},
		"methodIdentifiers": {
			"emitCountLog()": "3ebca8e1"
		}
	},
	"abi": [
		{
			"inputs": [],
			"stateMutability": "nonpayable",
			"type": "constructor"
		},
		{
			"anonymous": false,
			"inputs": [
				{
					"indexed": true,
					"internalType": "address",
					"name": "msgSender",
					"type": "address"
				}
			],
			"name": "WantsToCount",
			"type": "event"
		},
		{
			"inputs": [],
			"name": "emitCountLog",
			"outputs": [],
			"stateMutability": "nonpayable",
			"type": "function"
		}
	]
}